{
  "address": "0x554764F77DeA58b9a04Ac73b8500419e1E184Af6",
  "abi": [
    {
      "inputs": [],
      "name": "init",
      "outputs": [],
      "stateMutability": "nonpayable",
      "type": "function"
    }
  ],
  "transactionHash": "0x3221339b4dfaa6a210dfc8488df3d673b720edf2d82c276a1342f6f02c963f68",
  "args": [],
  "numDeployments": 1,
  "solcInputHash": "bb307b574d29a41ff19d07668d720a45",
  "bytecode": "0x608060405234801561001057600080fd5b50610126806100206000396000f3fe6080604052348015600f57600080fd5b506004361060285760003560e01c8063e1c7392a14602d575b600080fd5b60ee60036020527f28b0ef64f7e82d3b26f3fd404bd0151552f792965f39c29ae82c0a78df67af9c8054600160ff1991821681179092557f9b7e66eb0c7005d906623b0f9e5d7a33fdb5fbc396d45a9cbdf373920791d9d680548216831790557f3aaf3f076fb24203ee1bcf0f2e25d1605e12f54b2932b80b78ba8b482a188f1680548216831790556307f5828d60e41b6000527fb615b8373ab64c13d507b56993f9a52b82e9920bdba5814889d6bc33aad2b21f80549091169091179055565b00fea2646970667358221220c65ce9442f17dce2032fad90aa86d2c2db75ac89de86ea6075525f05edcfd0c064736f6c63430008140033",
  "devdoc": {
    "kind": "dev",
    "methods": {},
    "version": 1
  },
  "userdoc": {
    "kind": "user",
    "methods": {},
    "version": 1
  },
  "storageLayout": {
    "storage": [],
    "types": null
  }
}