{
  "address": "0x0a3C1e6F69956E8229eD8e5B958Ef993377316c3",
  "abi": [
    {
      "inputs": [],
      "name": "FeedNotFound",
      "type": "error"
    },
    {
      "inputs": [],
      "name": "GracePeriodNotOver",
      "type": "error"
    },
    {
      "inputs": [],
      "name": "InvalidPrice",
      "type": "error"
    },
    {
      "inputs": [],
      "name": "PriceExpired",
      "type": "error"
    },
    {
      "inputs": [],
      "name": "SequencerDown",
      "type": "error"
    },
    {
      "inputs": [
        {
          "internalType": "address",
          "name": "asset",
          "type": "address"
        },
        {
          "internalType": "address",
          "name": "unit",
          "type": "address"
        }
      ],
      "name": "getPrice",
      "outputs": [
        {
          "internalType": "uint256",
          "name": "price",
          "type": "uint256"
        },
        {
          "internalType": "uint80",
          "name": "",
          "type": "uint80"
        },
        {
          "internalType": "uint80",
          "name": "",
          "type": "uint80"
        }
      ],
      "stateMutability": "view",
      "type": "function"
    },
    {
      "inputs": [
        {
          "internalType": "address",
          "name": "asset",
          "type": "address"
        },
        {
          "internalType": "uint80",
          "name": "roundId",
          "type": "uint80"
        }
      ],
      "name": "getPriceBasedOnRoundId",
      "outputs": [
        {
          "internalType": "uint256",
          "name": "",
          "type": "uint256"
        }
      ],
      "stateMutability": "view",
      "type": "function"
    },
    {
      "inputs": [
        {
          "internalType": "uint80",
          "name": "investRoundId",
          "type": "uint80"
        },
        {
          "internalType": "uint80",
          "name": "stableRoundId",
          "type": "uint80"
        },
        {
          "internalType": "address",
          "name": "asset",
          "type": "address"
        },
        {
          "internalType": "address",
          "name": "unit",
          "type": "address"
        }
      ],
      "name": "getRoundData",
      "outputs": [
        {
          "internalType": "uint256",
          "name": "",
          "type": "uint256"
        }
      ],
      "stateMutability": "view",
      "type": "function"
    },
    {
      "inputs": [
        {
          "internalType": "address",
          "name": "asset",
          "type": "address"
        }
      ],
      "name": "getUSDPrice",
      "outputs": [
        {
          "internalType": "uint80",
          "name": "",
          "type": "uint80"
        },
        {
          "internalType": "int256",
          "name": "",
          "type": "int256"
        }
      ],
      "stateMutability": "view",
      "type": "function"
    },
    {
      "inputs": [
        {
          "internalType": "address",
          "name": "_asset",
          "type": "address"
        },
        {
          "internalType": "address",
          "name": "_feed",
          "type": "address"
        }
      ],
      "name": "setAssetFeed",
      "outputs": [],
      "stateMutability": "nonpayable",
      "type": "function"
    },
    {
      "inputs": [
        {
          "internalType": "address[]",
          "name": "_assets",
          "type": "address[]"
        },
        {
          "internalType": "address[]",
          "name": "_feeds",
          "type": "address[]"
        }
      ],
      "name": "setAssetFeeds",
      "outputs": [],
      "stateMutability": "nonpayable",
      "type": "function"
    },
    {
      "inputs": [
        {
          "internalType": "uint256",
          "name": "_maxStalePricePeriod",
          "type": "uint256"
        }
      ],
      "name": "setMaxStalePricePeriod",
      "outputs": [],
      "stateMutability": "nonpayable",
      "type": "function"
    },
    {
      "inputs": [
        {
          "internalType": "address",
          "name": "_sequencerUptimeFeed",
          "type": "address"
        }
      ],
      "name": "setSequencerUptimeFeed",
      "outputs": [],
      "stateMutability": "nonpayable",
      "type": "function"
    }
  ],
  "transactionHash": "0x40be6d09e25906866b9f7878db45d734ec6fbd018a7a6fe1db93773e34557c2b",
  "args": [],
  "numDeployments": 1,
  "solcInputHash": "4c75cc937c958055d4371f04b3169a66",
  "bytecode": "0x608060405234801561001057600080fd5b50610f51806100206000396000f3fe608060405234801561001057600080fd5b50600436106100885760003560e01c80638b2f0f4f1161005b5780638b2f0f4f146100ee578063ac41865a14610120578063b8f4496314610158578063fd6fa5231461016b57600080fd5b80633663e2281461008d5780635c049f4f146100b35780637132d68e146100c6578063843b4c35146100db575b600080fd5b6100a061009b366004610b29565b61017e565b6040519081526020015b60405180910390f35b6100a06100c1366004610b60565b610193565b6100d96100d4366004610c04565b6101aa565b005b6100d96100e9366004610c70565b6102c9565b6101016100fc366004610c89565b6102fc565b604080516001600160501b0390931683526020830191909152016100aa565b61013361012e366004610ca4565b61038f565b604080519384526001600160501b0392831660208501529116908201526060016100aa565b6100d9610166366004610c89565b6103ab565b6100d9610179366004610ca4565b610401565b600061018a838361045d565b90505b92915050565b60006101a18585858561054d565b95945050505050565b6004546000906001600160a01b031633146101e05760405162461bcd60e51b81526004016101d790610cd7565b60405180910390fd5b8382146102215760405162461bcd60e51b815260206004820152600f60248201526e0d8cadccee8d040dad2e6dac2e8c6d608b1b60448201526064016101d7565b60005b848110156102c15783838281811061023e5761023e610d18565b90506020020160208101906102539190610c89565b6007600088888581811061026957610269610d18565b905060200201602081019061027e9190610c89565b6001600160a01b039081168252602082019290925260400160002080546001600160a01b03191692909116919091179055806102b981610d44565b915050610224565b505050505050565b6004546000906001600160a01b031633146102f65760405162461bcd60e51b81526004016101d790610cd7565b50600a55565b6001600160a01b03808216600090815260076020526040808220548151633fabe5a360e21b8152915192938493849384939092169163feaf968c9160048083019260a09291908290030181865afa15801561035b573d6000803e3d6000fd5b505050506040513d601f19601f8201168201806040525081019061037f9190610d5d565b5092989197509095505050505050565b600080600061039e858561078c565b9250925092509250925092565b6004546000906001600160a01b031633146103d85760405162461bcd60e51b81526004016101d790610cd7565b50600980546001600160a01b0390921661010002610100600160a81b0319909216919091179055565b6004546000906001600160a01b0316331461042e5760405162461bcd60e51b81526004016101d790610cd7565b506001600160a01b03918216600090815260076020526040902080546001600160a01b03191691909216179055565b6001600160a01b03828116600090815260076020526040812054909182911661049957604051637d53846960e11b815260040160405180910390fd5b6001600160a01b038481166000908152600783016020526040808220549051639a6fc8f560e01b81526001600160501b038716600482015291921690639a6fc8f59060240160a060405180830381865afa1580156104fb573d6000803e3d6000fd5b505050506040513d601f19601f8201168201806040525081019061051f9190610d5d565b505050915050806000036105455760405162bfc92160e01b815260040160405180910390fd5b949350505050565b6001600160a01b038281166000908152600760205260408120549091829116158061059257506001600160a01b03838116600090815260078301602052604090205416155b156105b057604051637d53846960e11b815260040160405180910390fd5b6001600160a01b038481166000908152600783016020526040808220549051639a6fc8f560e01b81526001600160501b038a16600482015291921690639a6fc8f59060240160a060405180830381865afa158015610612573d6000803e3d6000fd5b505050506040513d601f19601f820116820180604052508101906106369190610d5d565b5050506001600160a01b038681166000908152600786016020526040808220549051639a6fc8f560e01b81526001600160501b038c1660048201529395509093501690639a6fc8f59060240160a060405180830381865afa15801561069f573d6000803e3d6000fd5b505050506040513d601f19601f820116820180604052508101906106c39190610d5d565b50505091505081600014806106d6575080155b156106f35760405162bfc92160e01b815260040160405180910390fd5b6000856001600160a01b031663313ce5676040518163ffffffff1660e01b8152600401602060405180830381865afa158015610733573d6000803e3d6000fd5b505050506040513d601f19601f820116820180604052508101906107579190610db5565b60ff16905060008261076a83600a610ec3565b6107749086610ecf565b61077e9190610ee6565b9a9950505050505050505050565b60095460009081908190819061010090046001600160a01b0316801561086e57600080826001600160a01b031663feaf968c6040518163ffffffff1660e01b815260040160a060405180830381865afa1580156107ed573d6000803e3d6000fd5b505050506040513d601f19601f820116820180604052508101906108119190610d5d565b5091945092505082159050806108395760405162032b3d60e81b815260040160405180910390fd5b60006108458342610f08565b9050610e1081116108695760405163d15f73b560e01b815260040160405180910390fd5b505050505b6001600160a01b0387811660009081526007840160205260409020541615806108b157506001600160a01b03868116600090815260078401602052604090205416155b156108cf57604051637d53846960e11b815260040160405180910390fd5b6001600160a01b038088166000908152600784016020526040808220548151633fabe5a360e21b81529151929384938493929091169163feaf968c9160048083019260a09291908290030181865afa15801561092f573d6000803e3d6000fd5b505050506040513d601f19601f820116820180604052508101906109539190610d5d565b506001600160a01b03808e16600090815260078b016020526040808220548151633fabe5a360e21b81529151979a509598509296509485948594509091169163feaf968c9160048083019260a09291908290030181865afa1580156109bc573d6000803e3d6000fd5b505050506040513d601f19601f820116820180604052508101906109e09190610d5d565b509350509250925084600014806109f5575081155b15610a125760405162bfc92160e01b815260040160405180910390fd5b600a880154610a218542610f08565b1180610a395750600a880154610a378242610f08565b115b15610a5757604051632d07c67360e01b815260040160405180910390fd5b60008c6001600160a01b031663313ce5676040518163ffffffff1660e01b8152600401602060405180830381865afa158015610a97573d6000803e3d6000fd5b505050506040513d601f19601f82011682018060405250810190610abb9190610db5565b60ff16905082610acc82600a610ec3565b610ad69088610ecf565b610ae09190610ee6565b9e969d50929b50949950505050505050505050565b80356001600160a01b0381168114610b0c57600080fd5b919050565b6001600160501b0381168114610b2657600080fd5b50565b60008060408385031215610b3c57600080fd5b610b4583610af5565b91506020830135610b5581610b11565b809150509250929050565b60008060008060808587031215610b7657600080fd5b8435610b8181610b11565b93506020850135610b9181610b11565b9250610b9f60408601610af5565b9150610bad60608601610af5565b905092959194509250565b60008083601f840112610bca57600080fd5b50813567ffffffffffffffff811115610be257600080fd5b6020830191508360208260051b8501011115610bfd57600080fd5b9250929050565b60008060008060408587031215610c1a57600080fd5b843567ffffffffffffffff80821115610c3257600080fd5b610c3e88838901610bb8565b90965094506020870135915080821115610c5757600080fd5b50610c6487828801610bb8565b95989497509550505050565b600060208284031215610c8257600080fd5b5035919050565b600060208284031215610c9b57600080fd5b61018a82610af5565b60008060408385031215610cb757600080fd5b610cc083610af5565b9150610cce60208401610af5565b90509250929050565b60208082526021908201527f4d6f646966696572733a204d75737420626520636f6e7472616374206f776e656040820152603960f91b606082015260800190565b634e487b7160e01b600052603260045260246000fd5b634e487b7160e01b600052601160045260246000fd5b600060018201610d5657610d56610d2e565b5060010190565b600080600080600060a08688031215610d7557600080fd5b8551610d8081610b11565b809550506020860151935060408601519250606086015191506080860151610da781610b11565b809150509295509295909350565b600060208284031215610dc757600080fd5b815160ff81168114610dd857600080fd5b9392505050565b600181815b80851115610e1a578160001904821115610e0057610e00610d2e565b80851615610e0d57918102915b93841c9390800290610de4565b509250929050565b600082610e315750600161018d565b81610e3e5750600061018d565b8160018114610e545760028114610e5e57610e7a565b600191505061018d565b60ff841115610e6f57610e6f610d2e565b50506001821b61018d565b5060208310610133831016604e8410600b8410161715610e9d575081810a61018d565b610ea78383610ddf565b8060001904821115610ebb57610ebb610d2e565b029392505050565b600061018a8383610e22565b808202811582820484141761018d5761018d610d2e565b600082610f0357634e487b7160e01b600052601260045260246000fd5b500490565b8181038181111561018d5761018d610d2e56fea2646970667358221220d6967edfe217a723a657001676df255ea46896f7968c7748a2b97dd6f4d41dae64736f6c63430008140033",
  "devdoc": {
    "details": "This contract manages asset price feeds used by the diamond contract.",
    "kind": "dev",
    "methods": {
      "getPrice(address,address)": {
        "params": {
          "asset": "The address of the asset.",
          "unit": "The address of the unit (e.g., USD)."
        },
        "returns": {
          "_1": "investRoundId The round ID of the asset's price feed.",
          "_2": "stableRoundId The round ID of the unit's price feed.",
          "price": "The current price of the asset in terms of the unit."
        }
      },
      "getPriceBasedOnRoundId(address,uint80)": {
        "params": {
          "asset": "The address of the asset.",
          "roundId": "the round for which price is required."
        },
        "returns": {
          "_0": "price The price of the asset based on round Id"
        }
      },
      "getRoundData(uint80,uint80,address,address)": {
        "params": {
          "asset": "The address of the asset.",
          "investRoundId": "The round ID of the asset's price feed.",
          "stableRoundId": "The round ID of the unit's price feed.",
          "unit": "The address of the unit (e.g., USD)."
        },
        "returns": {
          "_0": "price The price of the asset in terms of the unit at the specified round IDs."
        }
      },
      "getUSDPrice(address)": {
        "params": {
          "asset": "The address of the asset."
        },
        "returns": {
          "_0": "price The price of the asset in USD"
        }
      },
      "setAssetFeed(address,address)": {
        "params": {
          "_asset": "The address of the asset.",
          "_feed": "The address of the price feed for the asset."
        }
      },
      "setAssetFeeds(address[],address[])": {
        "params": {
          "_assets": "The addresses of the assets.",
          "_feeds": "The addresses of the price feeds for the assets."
        }
      },
      "setMaxStalePricePeriod(uint256)": {
        "params": {
          "_maxStalePricePeriod": "The max stale period for price feeds."
        }
      },
      "setSequencerUptimeFeed(address)": {
        "params": {
          "_sequencerUptimeFeed": "The address of the sequencer uptime feed."
        }
      }
    },
    "title": "PriceOracleFacet",
    "version": 1
  },
  "userdoc": {
    "kind": "user",
    "methods": {
      "getPrice(address,address)": {
        "notice": "Get the current price and round IDs of an asset relative to a unit."
      },
      "getPriceBasedOnRoundId(address,uint80)": {
        "notice": "Get the price of an asset in USD."
      },
      "getRoundData(uint80,uint80,address,address)": {
        "notice": "Get the historical price of an asset relative to a unit at specific round IDs."
      },
      "getUSDPrice(address)": {
        "notice": "Get the price of an asset in USD."
      },
      "setAssetFeed(address,address)": {
        "notice": "Sets the asset price feed address for a specific asset."
      },
      "setAssetFeeds(address[],address[])": {
        "notice": "Sets the asset price feed addresses for a list of assets."
      },
      "setMaxStalePricePeriod(uint256)": {
        "notice": "Sets the max stale period for price feeds."
      },
      "setSequencerUptimeFeed(address)": {
        "notice": "Sets the address of the sequencer uptime feed."
      }
    },
    "version": 1
  },
  "storageLayout": {
    "storage": [
      {
        "astId": 3137,
        "contract": "contracts/facets/PriceOracleFacet.sol:PriceOracleFacet",
        "label": "s",
        "offset": 0,
        "slot": "0",
        "type": "t_struct(AppStorage)1254_storage"
      }
    ],
    "types": {
      "t_address": {
        "encoding": "inplace",
        "label": "address",
        "numberOfBytes": "20"
      },
      "t_bool": {
        "encoding": "inplace",
        "label": "bool",
        "numberOfBytes": "1"
      },
      "t_bytes32": {
        "encoding": "inplace",
        "label": "bytes32",
        "numberOfBytes": "32"
      },
      "t_bytes4": {
        "encoding": "inplace",
        "label": "bytes4",
        "numberOfBytes": "4"
      },
      "t_enum(BuyLegType)1083": {
        "encoding": "inplace",
        "label": "enum BuyLegType",
        "numberOfBytes": "1"
      },
      "t_enum(DCA_UNIT)1100": {
        "encoding": "inplace",
        "label": "enum DCA_UNIT",
        "numberOfBytes": "1"
      },
      "t_enum(DIP_SPIKE)1095": {
        "encoding": "inplace",
        "label": "enum DIP_SPIKE",
        "numberOfBytes": "1"
      },
      "t_enum(FloorLegType)1079": {
        "encoding": "inplace",
        "label": "enum FloorLegType",
        "numberOfBytes": "1"
      },
      "t_enum(ReentrancyStatus)1069": {
        "encoding": "inplace",
        "label": "enum ReentrancyStatus",
        "numberOfBytes": "1"
      },
      "t_enum(SellLegType)1088": {
        "encoding": "inplace",
        "label": "enum SellLegType",
        "numberOfBytes": "1"
      },
      "t_enum(Status)1074": {
        "encoding": "inplace",
        "label": "enum Status",
        "numberOfBytes": "1"
      },
      "t_enum(TimeUnit)1105": {
        "encoding": "inplace",
        "label": "enum TimeUnit",
        "numberOfBytes": "1"
      },
      "t_mapping(t_address,t_address)": {
        "encoding": "mapping",
        "key": "t_address",
        "label": "mapping(address => address)",
        "numberOfBytes": "32",
        "value": "t_address"
      },
      "t_mapping(t_address,t_uint256)": {
        "encoding": "mapping",
        "key": "t_address",
        "label": "mapping(address => uint256)",
        "numberOfBytes": "32",
        "value": "t_uint256"
      },
      "t_mapping(t_bytes4,t_bool)": {
        "encoding": "mapping",
        "key": "t_bytes4",
        "label": "mapping(bytes4 => bool)",
        "numberOfBytes": "32",
        "value": "t_bool"
      },
      "t_mapping(t_bytes4,t_bytes32)": {
        "encoding": "mapping",
        "key": "t_bytes4",
        "label": "mapping(bytes4 => bytes32)",
        "numberOfBytes": "32",
        "value": "t_bytes32"
      },
      "t_mapping(t_uint256,t_bytes32)": {
        "encoding": "mapping",
        "key": "t_uint256",
        "label": "mapping(uint256 => bytes32)",
        "numberOfBytes": "32",
        "value": "t_bytes32"
      },
      "t_mapping(t_uint256,t_struct(Strategy)1214_storage)": {
        "encoding": "mapping",
        "key": "t_uint256",
        "label": "mapping(uint256 => struct Strategy)",
        "numberOfBytes": "32",
        "value": "t_struct(Strategy)1214_storage"
      },
      "t_struct(AppStorage)1254_storage": {
        "encoding": "inplace",
        "label": "struct AppStorage",
        "members": [
          {
            "astId": 1219,
            "contract": "contracts/facets/PriceOracleFacet.sol:PriceOracleFacet",
            "label": "facets",
            "offset": 0,
            "slot": "0",
            "type": "t_mapping(t_bytes4,t_bytes32)"
          },
          {
            "astId": 1223,
            "contract": "contracts/facets/PriceOracleFacet.sol:PriceOracleFacet",
            "label": "selectorSlots",
            "offset": 0,
            "slot": "1",
            "type": "t_mapping(t_uint256,t_bytes32)"
          },
          {
            "astId": 1225,
            "contract": "contracts/facets/PriceOracleFacet.sol:PriceOracleFacet",
            "label": "selectorCount",
            "offset": 0,
            "slot": "2",
            "type": "t_uint16"
          },
          {
            "astId": 1229,
            "contract": "contracts/facets/PriceOracleFacet.sol:PriceOracleFacet",
            "label": "supportedInterfaces",
            "offset": 0,
            "slot": "3",
            "type": "t_mapping(t_bytes4,t_bool)"
          },
          {
            "astId": 1231,
            "contract": "contracts/facets/PriceOracleFacet.sol:PriceOracleFacet",
            "label": "owner",
            "offset": 0,
            "slot": "4",
            "type": "t_address"
          },
          {
            "astId": 1233,
            "contract": "contracts/facets/PriceOracleFacet.sol:PriceOracleFacet",
            "label": "nextStrategyId",
            "offset": 0,
            "slot": "5",
            "type": "t_uint256"
          },
          {
            "astId": 1238,
            "contract": "contracts/facets/PriceOracleFacet.sol:PriceOracleFacet",
            "label": "strategies",
            "offset": 0,
            "slot": "6",
            "type": "t_mapping(t_uint256,t_struct(Strategy)1214_storage)"
          },
          {
            "astId": 1242,
            "contract": "contracts/facets/PriceOracleFacet.sol:PriceOracleFacet",
            "label": "feeds",
            "offset": 0,
            "slot": "7",
            "type": "t_mapping(t_address,t_address)"
          },
          {
            "astId": 1246,
            "contract": "contracts/facets/PriceOracleFacet.sol:PriceOracleFacet",
            "label": "nonces",
            "offset": 0,
            "slot": "8",
            "type": "t_mapping(t_address,t_uint256)"
          },
          {
            "astId": 1249,
            "contract": "contracts/facets/PriceOracleFacet.sol:PriceOracleFacet",
            "label": "reentrancyStatus",
            "offset": 0,
            "slot": "9",
            "type": "t_enum(ReentrancyStatus)1069"
          },
          {
            "astId": 1251,
            "contract": "contracts/facets/PriceOracleFacet.sol:PriceOracleFacet",
            "label": "sequencerUptimeFeed",
            "offset": 1,
            "slot": "9",
            "type": "t_address"
          },
          {
            "astId": 1253,
            "contract": "contracts/facets/PriceOracleFacet.sol:PriceOracleFacet",
            "label": "maxStalePeriod",
            "offset": 0,
            "slot": "10",
            "type": "t_uint256"
          }
        ],
        "numberOfBytes": "352"
      },
      "t_struct(Strategy)1214_storage": {
        "encoding": "inplace",
        "label": "struct Strategy",
        "members": [
          {
            "astId": 1181,
            "contract": "contracts/facets/PriceOracleFacet.sol:PriceOracleFacet",
            "label": "user",
            "offset": 0,
            "slot": "0",
            "type": "t_address"
          },
          {
            "astId": 1184,
            "contract": "contracts/facets/PriceOracleFacet.sol:PriceOracleFacet",
            "label": "parameters",
            "offset": 0,
            "slot": "1",
            "type": "t_struct(StrategyParameters)1178_storage"
          },
          {
            "astId": 1186,
            "contract": "contracts/facets/PriceOracleFacet.sol:PriceOracleFacet",
            "label": "sellPercentageAmount",
            "offset": 0,
            "slot": "26",
            "type": "t_uint256"
          },
          {
            "astId": 1188,
            "contract": "contracts/facets/PriceOracleFacet.sol:PriceOracleFacet",
            "label": "buyPercentageAmount",
            "offset": 0,
            "slot": "27",
            "type": "t_uint256"
          },
          {
            "astId": 1190,
            "contract": "contracts/facets/PriceOracleFacet.sol:PriceOracleFacet",
            "label": "sellPercentageTotalAmount",
            "offset": 0,
            "slot": "28",
            "type": "t_uint256"
          },
          {
            "astId": 1192,
            "contract": "contracts/facets/PriceOracleFacet.sol:PriceOracleFacet",
            "label": "buyPercentageTotalAmount",
            "offset": 0,
            "slot": "29",
            "type": "t_uint256"
          },
          {
            "astId": 1194,
            "contract": "contracts/facets/PriceOracleFacet.sol:PriceOracleFacet",
            "label": "sellTwapExecutedAt",
            "offset": 0,
            "slot": "30",
            "type": "t_uint256"
          },
          {
            "astId": 1196,
            "contract": "contracts/facets/PriceOracleFacet.sol:PriceOracleFacet",
            "label": "buyTwapExecutedAt",
            "offset": 0,
            "slot": "31",
            "type": "t_uint256"
          },
          {
            "astId": 1198,
            "contract": "contracts/facets/PriceOracleFacet.sol:PriceOracleFacet",
            "label": "investRoundIdForBTD",
            "offset": 0,
            "slot": "32",
            "type": "t_uint80"
          },
          {
            "astId": 1200,
            "contract": "contracts/facets/PriceOracleFacet.sol:PriceOracleFacet",
            "label": "stableRoundIdForBTD",
            "offset": 10,
            "slot": "32",
            "type": "t_uint80"
          },
          {
            "astId": 1202,
            "contract": "contracts/facets/PriceOracleFacet.sol:PriceOracleFacet",
            "label": "investRoundIdForSTR",
            "offset": 20,
            "slot": "32",
            "type": "t_uint80"
          },
          {
            "astId": 1204,
            "contract": "contracts/facets/PriceOracleFacet.sol:PriceOracleFacet",
            "label": "stableRoundIdForSTR",
            "offset": 0,
            "slot": "33",
            "type": "t_uint80"
          },
          {
            "astId": 1206,
            "contract": "contracts/facets/PriceOracleFacet.sol:PriceOracleFacet",
            "label": "investPrice",
            "offset": 0,
            "slot": "34",
            "type": "t_uint256"
          },
          {
            "astId": 1208,
            "contract": "contracts/facets/PriceOracleFacet.sol:PriceOracleFacet",
            "label": "profit",
            "offset": 0,
            "slot": "35",
            "type": "t_uint256"
          },
          {
            "astId": 1210,
            "contract": "contracts/facets/PriceOracleFacet.sol:PriceOracleFacet",
            "label": "budget",
            "offset": 0,
            "slot": "36",
            "type": "t_uint256"
          },
          {
            "astId": 1213,
            "contract": "contracts/facets/PriceOracleFacet.sol:PriceOracleFacet",
            "label": "status",
            "offset": 0,
            "slot": "37",
            "type": "t_enum(Status)1074"
          }
        ],
        "numberOfBytes": "1216"
      },
      "t_struct(StrategyParameters)1178_storage": {
        "encoding": "inplace",
        "label": "struct StrategyParameters",
        "members": [
          {
            "astId": 1108,
            "contract": "contracts/facets/PriceOracleFacet.sol:PriceOracleFacet",
            "label": "_investToken",
            "offset": 0,
            "slot": "0",
            "type": "t_address"
          },
          {
            "astId": 1110,
            "contract": "contracts/facets/PriceOracleFacet.sol:PriceOracleFacet",
            "label": "_investAmount",
            "offset": 0,
            "slot": "1",
            "type": "t_uint256"
          },
          {
            "astId": 1112,
            "contract": "contracts/facets/PriceOracleFacet.sol:PriceOracleFacet",
            "label": "_stableToken",
            "offset": 0,
            "slot": "2",
            "type": "t_address"
          },
          {
            "astId": 1114,
            "contract": "contracts/facets/PriceOracleFacet.sol:PriceOracleFacet",
            "label": "_stableAmount",
            "offset": 0,
            "slot": "3",
            "type": "t_uint256"
          },
          {
            "astId": 1116,
            "contract": "contracts/facets/PriceOracleFacet.sol:PriceOracleFacet",
            "label": "_impact",
            "offset": 0,
            "slot": "4",
            "type": "t_uint256"
          },
          {
            "astId": 1119,
            "contract": "contracts/facets/PriceOracleFacet.sol:PriceOracleFacet",
            "label": "_floorType",
            "offset": 0,
            "slot": "5",
            "type": "t_enum(FloorLegType)1079"
          },
          {
            "astId": 1121,
            "contract": "contracts/facets/PriceOracleFacet.sol:PriceOracleFacet",
            "label": "_floorValue",
            "offset": 0,
            "slot": "6",
            "type": "t_uint256"
          },
          {
            "astId": 1123,
            "contract": "contracts/facets/PriceOracleFacet.sol:PriceOracleFacet",
            "label": "_liquidateOnFloor",
            "offset": 0,
            "slot": "7",
            "type": "t_bool"
          },
          {
            "astId": 1125,
            "contract": "contracts/facets/PriceOracleFacet.sol:PriceOracleFacet",
            "label": "_cancelOnFloor",
            "offset": 1,
            "slot": "7",
            "type": "t_bool"
          },
          {
            "astId": 1127,
            "contract": "contracts/facets/PriceOracleFacet.sol:PriceOracleFacet",
            "label": "_minimumLoss",
            "offset": 0,
            "slot": "8",
            "type": "t_uint256"
          },
          {
            "astId": 1130,
            "contract": "contracts/facets/PriceOracleFacet.sol:PriceOracleFacet",
            "label": "_buyType",
            "offset": 0,
            "slot": "9",
            "type": "t_enum(BuyLegType)1083"
          },
          {
            "astId": 1132,
            "contract": "contracts/facets/PriceOracleFacet.sol:PriceOracleFacet",
            "label": "_buyValue",
            "offset": 0,
            "slot": "10",
            "type": "t_uint256"
          },
          {
            "astId": 1134,
            "contract": "contracts/facets/PriceOracleFacet.sol:PriceOracleFacet",
            "label": "_buyTwapTime",
            "offset": 0,
            "slot": "11",
            "type": "t_uint256"
          },
          {
            "astId": 1137,
            "contract": "contracts/facets/PriceOracleFacet.sol:PriceOracleFacet",
            "label": "_buyTwapTimeUnit",
            "offset": 0,
            "slot": "12",
            "type": "t_enum(TimeUnit)1105"
          },
          {
            "astId": 1139,
            "contract": "contracts/facets/PriceOracleFacet.sol:PriceOracleFacet",
            "label": "_btdValue",
            "offset": 0,
            "slot": "13",
            "type": "t_uint256"
          },
          {
            "astId": 1142,
            "contract": "contracts/facets/PriceOracleFacet.sol:PriceOracleFacet",
            "label": "_btdType",
            "offset": 0,
            "slot": "14",
            "type": "t_enum(DIP_SPIKE)1095"
          },
          {
            "astId": 1145,
            "contract": "contracts/facets/PriceOracleFacet.sol:PriceOracleFacet",
            "label": "_buyDCAUnit",
            "offset": 1,
            "slot": "14",
            "type": "t_enum(DCA_UNIT)1100"
          },
          {
            "astId": 1147,
            "contract": "contracts/facets/PriceOracleFacet.sol:PriceOracleFacet",
            "label": "_buyDCAValue",
            "offset": 0,
            "slot": "15",
            "type": "t_uint256"
          },
          {
            "astId": 1150,
            "contract": "contracts/facets/PriceOracleFacet.sol:PriceOracleFacet",
            "label": "_sellType",
            "offset": 0,
            "slot": "16",
            "type": "t_enum(SellLegType)1088"
          },
          {
            "astId": 1152,
            "contract": "contracts/facets/PriceOracleFacet.sol:PriceOracleFacet",
            "label": "_sellValue",
            "offset": 0,
            "slot": "17",
            "type": "t_uint256"
          },
          {
            "astId": 1154,
            "contract": "contracts/facets/PriceOracleFacet.sol:PriceOracleFacet",
            "label": "_highSellValue",
            "offset": 0,
            "slot": "18",
            "type": "t_uint256"
          },
          {
            "astId": 1156,
            "contract": "contracts/facets/PriceOracleFacet.sol:PriceOracleFacet",
            "label": "_minimumProfit",
            "offset": 0,
            "slot": "19",
            "type": "t_uint256"
          },
          {
            "astId": 1158,
            "contract": "contracts/facets/PriceOracleFacet.sol:PriceOracleFacet",
            "label": "_strValue",
            "offset": 0,
            "slot": "20",
            "type": "t_uint256"
          },
          {
            "astId": 1161,
            "contract": "contracts/facets/PriceOracleFacet.sol:PriceOracleFacet",
            "label": "_strType",
            "offset": 0,
            "slot": "21",
            "type": "t_enum(DIP_SPIKE)1095"
          },
          {
            "astId": 1164,
            "contract": "contracts/facets/PriceOracleFacet.sol:PriceOracleFacet",
            "label": "_sellDCAUnit",
            "offset": 1,
            "slot": "21",
            "type": "t_enum(DCA_UNIT)1100"
          },
          {
            "astId": 1166,
            "contract": "contracts/facets/PriceOracleFacet.sol:PriceOracleFacet",
            "label": "_sellDCAValue",
            "offset": 0,
            "slot": "22",
            "type": "t_uint256"
          },
          {
            "astId": 1168,
            "contract": "contracts/facets/PriceOracleFacet.sol:PriceOracleFacet",
            "label": "_sellTwapTime",
            "offset": 0,
            "slot": "23",
            "type": "t_uint256"
          },
          {
            "astId": 1171,
            "contract": "contracts/facets/PriceOracleFacet.sol:PriceOracleFacet",
            "label": "_sellTwapTimeUnit",
            "offset": 0,
            "slot": "24",
            "type": "t_enum(TimeUnit)1105"
          },
          {
            "astId": 1173,
            "contract": "contracts/facets/PriceOracleFacet.sol:PriceOracleFacet",
            "label": "_completeOnSell",
            "offset": 1,
            "slot": "24",
            "type": "t_bool"
          },
          {
            "astId": 1175,
            "contract": "contracts/facets/PriceOracleFacet.sol:PriceOracleFacet",
            "label": "_current_price_sell",
            "offset": 2,
            "slot": "24",
            "type": "t_bool"
          },
          {
            "astId": 1177,
            "contract": "contracts/facets/PriceOracleFacet.sol:PriceOracleFacet",
            "label": "_current_price_buy",
            "offset": 3,
            "slot": "24",
            "type": "t_bool"
          }
        ],
        "numberOfBytes": "800"
      },
      "t_uint16": {
        "encoding": "inplace",
        "label": "uint16",
        "numberOfBytes": "2"
      },
      "t_uint256": {
        "encoding": "inplace",
        "label": "uint256",
        "numberOfBytes": "32"
      },
      "t_uint80": {
        "encoding": "inplace",
        "label": "uint80",
        "numberOfBytes": "10"
      }
    }
  }
}