{
  "address": "0xbC50a41007ab73b51adfe1146AA846aFdC9AEDf5",
  "abi": [
    {
      "inputs": [],
      "name": "BTDNotSelected",
      "type": "error"
    },
    {
      "inputs": [],
      "name": "BuyDCAIsSet",
      "type": "error"
    },
    {
      "inputs": [],
      "name": "BuyNotSet",
      "type": "error"
    },
    {
      "inputs": [],
      "name": "BuyTwapNotSelected",
      "type": "error"
    },
    {
      "inputs": [],
      "name": "ExpectedTimeNotElapsed",
      "type": "error"
    },
    {
      "inputs": [],
      "name": "FeedNotFound",
      "type": "error"
    },
    {
      "inputs": [],
      "name": "FloorGreaterThanPrice",
      "type": "error"
    },
    {
      "inputs": [],
      "name": "GracePeriodNotOver",
      "type": "error"
    },
    {
      "inputs": [],
      "name": "HighImpact",
      "type": "error"
    },
    {
      "inputs": [
        {
          "internalType": "uint256",
          "name": "required",
          "type": "uint256"
        },
        {
          "internalType": "uint256",
          "name": "actual",
          "type": "uint256"
        }
      ],
      "name": "InvalidExchangeRate",
      "type": "error"
    },
    {
      "inputs": [],
      "name": "InvalidPrice",
      "type": "error"
    },
    {
      "inputs": [],
      "name": "InvalidUnit",
      "type": "error"
    },
    {
      "inputs": [],
      "name": "MinimumLossDetected",
      "type": "error"
    },
    {
      "inputs": [],
      "name": "NoSwapFromZeroBalance",
      "type": "error"
    },
    {
      "inputs": [],
      "name": "PriceDippedBelowFloorValue",
      "type": "error"
    },
    {
      "inputs": [],
      "name": "PriceExpired",
      "type": "error"
    },
    {
      "inputs": [],
      "name": "PriceIsGreaterThanBuyValue",
      "type": "error"
    },
    {
      "inputs": [],
      "name": "PriceNotInRange",
      "type": "error"
    },
    {
      "inputs": [],
      "name": "ReentrancyGuardReentrantCall",
      "type": "error"
    },
    {
      "inputs": [],
      "name": "RoundDataDoesNotMatch",
      "type": "error"
    },
    {
      "inputs": [],
      "name": "SequencerDown",
      "type": "error"
    },
    {
      "inputs": [],
      "name": "SliceOutOfBounds",
      "type": "error"
    },
    {
      "inputs": [],
      "name": "SliceOverflow",
      "type": "error"
    },
    {
      "inputs": [],
      "name": "StrategyIsNotActive",
      "type": "error"
    },
    {
      "inputs": [],
      "name": "SwapFailed",
      "type": "error"
    },
    {
      "inputs": [],
      "name": "TransferFailed",
      "type": "error"
    },
    {
      "inputs": [],
      "name": "WrongPreviousIDs",
      "type": "error"
    },
    {
      "anonymous": false,
      "inputs": [
        {
          "indexed": false,
          "internalType": "address",
          "name": "dex",
          "type": "address"
        },
        {
          "indexed": false,
          "internalType": "address",
          "name": "fromAsset",
          "type": "address"
        },
        {
          "indexed": false,
          "internalType": "address",
          "name": "toAsset",
          "type": "address"
        },
        {
          "indexed": false,
          "internalType": "uint256",
          "name": "fromAmount",
          "type": "uint256"
        },
        {
          "indexed": false,
          "internalType": "uint256",
          "name": "receivedAmount",
          "type": "uint256"
        },
        {
          "indexed": false,
          "internalType": "address",
          "name": "account",
          "type": "address"
        }
      ],
      "name": "AssetSwapped",
      "type": "event"
    },
    {
      "anonymous": false,
      "inputs": [
        {
          "indexed": true,
          "internalType": "uint256",
          "name": "strategyId",
          "type": "uint256"
        },
        {
          "indexed": false,
          "internalType": "uint256",
          "name": "impact",
          "type": "uint256"
        },
        {
          "components": [
            {
              "internalType": "uint256",
              "name": "tokenSubstracted",
              "type": "uint256"
            },
            {
              "internalType": "uint256",
              "name": "tokenAdded",
              "type": "uint256"
            },
            {
              "internalType": "uint256",
              "name": "stableAmount",
              "type": "uint256"
            },
            {
              "internalType": "uint256",
              "name": "investAmount",
              "type": "uint256"
            }
          ],
          "indexed": false,
          "internalType": "struct TokensTransaction",
          "name": "tokens",
          "type": "tuple"
        },
        {
          "indexed": false,
          "internalType": "uint256",
          "name": "investPrice",
          "type": "uint256"
        },
        {
          "components": [
            {
              "internalType": "uint80",
              "name": "investRoundId",
              "type": "uint80"
            },
            {
              "internalType": "uint80",
              "name": "stableRoundId",
              "type": "uint80"
            }
          ],
          "indexed": false,
          "internalType": "struct RoundIds",
          "name": "rounds",
          "type": "tuple"
        }
      ],
      "name": "BTDExecuted",
      "type": "event"
    },
    {
      "anonymous": false,
      "inputs": [
        {
          "indexed": true,
          "internalType": "uint256",
          "name": "strategyId",
          "type": "uint256"
        },
        {
          "indexed": false,
          "internalType": "uint256",
          "name": "impact",
          "type": "uint256"
        },
        {
          "components": [
            {
              "internalType": "uint256",
              "name": "tokenSubstracted",
              "type": "uint256"
            },
            {
              "internalType": "uint256",
              "name": "tokenAdded",
              "type": "uint256"
            },
            {
              "internalType": "uint256",
              "name": "stableAmount",
              "type": "uint256"
            },
            {
              "internalType": "uint256",
              "name": "investAmount",
              "type": "uint256"
            }
          ],
          "indexed": false,
          "internalType": "struct TokensTransaction",
          "name": "tokens",
          "type": "tuple"
        },
        {
          "indexed": false,
          "internalType": "uint256",
          "name": "investPrice",
          "type": "uint256"
        },
        {
          "indexed": false,
          "internalType": "uint256",
          "name": "stablePriceInUSD",
          "type": "uint256"
        }
      ],
      "name": "BuyExecuted",
      "type": "event"
    },
    {
      "anonymous": false,
      "inputs": [
        {
          "indexed": true,
          "internalType": "uint256",
          "name": "strategyId",
          "type": "uint256"
        },
        {
          "indexed": false,
          "internalType": "uint256",
          "name": "impact",
          "type": "uint256"
        },
        {
          "components": [
            {
              "internalType": "uint256",
              "name": "tokenSubstracted",
              "type": "uint256"
            },
            {
              "internalType": "uint256",
              "name": "tokenAdded",
              "type": "uint256"
            },
            {
              "internalType": "uint256",
              "name": "stableAmount",
              "type": "uint256"
            },
            {
              "internalType": "uint256",
              "name": "investAmount",
              "type": "uint256"
            }
          ],
          "indexed": false,
          "internalType": "struct TokensTransaction",
          "name": "tokens",
          "type": "tuple"
        },
        {
          "indexed": false,
          "internalType": "uint256",
          "name": "investPrice",
          "type": "uint256"
        },
        {
          "indexed": false,
          "internalType": "uint256",
          "name": "stablePriceInUSD",
          "type": "uint256"
        }
      ],
      "name": "BuyTwapExecuted",
      "type": "event"
    },
    {
      "anonymous": false,
      "inputs": [
        {
          "indexed": true,
          "internalType": "uint256",
          "name": "strategyId",
          "type": "uint256"
        },
        {
          "indexed": false,
          "internalType": "uint256",
          "name": "investTokenPrice",
          "type": "uint256"
        },
        {
          "indexed": false,
          "internalType": "uint256",
          "name": "stableTokenPrice",
          "type": "uint256"
        }
      ],
      "name": "StrategyCompleted",
      "type": "event"
    },
    {
      "inputs": [
        {
          "internalType": "uint256",
          "name": "strategyId",
          "type": "uint256"
        },
        {
          "internalType": "uint80",
          "name": "fromInvestRoundId",
          "type": "uint80"
        },
        {
          "internalType": "uint80",
          "name": "fromStableRoundId",
          "type": "uint80"
        },
        {
          "internalType": "uint80",
          "name": "toInvestRoundId",
          "type": "uint80"
        },
        {
          "internalType": "uint80",
          "name": "toStableRoundId",
          "type": "uint80"
        },
        {
          "components": [
            {
              "internalType": "address",
              "name": "dex",
              "type": "address"
            },
            {
              "internalType": "bytes",
              "name": "callData",
              "type": "bytes"
            }
          ],
          "internalType": "struct Swap",
          "name": "swap",
          "type": "tuple"
        }
      ],
      "name": "executeBTD",
      "outputs": [],
      "stateMutability": "nonpayable",
      "type": "function"
    },
    {
      "inputs": [
        {
          "internalType": "uint256",
          "name": "strategyId",
          "type": "uint256"
        },
        {
          "components": [
            {
              "internalType": "address",
              "name": "dex",
              "type": "address"
            },
            {
              "internalType": "bytes",
              "name": "callData",
              "type": "bytes"
            }
          ],
          "internalType": "struct Swap",
          "name": "swap",
          "type": "tuple"
        }
      ],
      "name": "executeBuy",
      "outputs": [],
      "stateMutability": "nonpayable",
      "type": "function"
    },
    {
      "inputs": [
        {
          "internalType": "uint256",
          "name": "strategyId",
          "type": "uint256"
        },
        {
          "components": [
            {
              "internalType": "address",
              "name": "dex",
              "type": "address"
            },
            {
              "internalType": "bytes",
              "name": "callData",
              "type": "bytes"
            }
          ],
          "internalType": "struct Swap",
          "name": "swap",
          "type": "tuple"
        }
      ],
      "name": "executeBuyTwap",
      "outputs": [],
      "stateMutability": "nonpayable",
      "type": "function"
    },
    {
      "inputs": [
        {
          "internalType": "bool",
          "name": "stableAmount",
          "type": "bool"
        },
        {
          "internalType": "uint256",
          "name": "strategyId",
          "type": "uint256"
        }
      ],
      "name": "executionBuyAmount",
      "outputs": [
        {
          "internalType": "uint256",
          "name": "",
          "type": "uint256"
        }
      ],
      "stateMutability": "view",
      "type": "function"
    }
  ],
  "transactionHash": "0x4a27c986c2591dfb572c35e06c58a9ef1b40133be3f68cce041f2136d49e2d26",
  "args": [],
  "numDeployments": 1,
  "solcInputHash": "5ca3a25d71bf35d72859fb29c619909e",
  "bytecode": "0x608060405234801561001057600080fd5b5061330f806100206000396000f3fe608060405234801561001057600080fd5b506004361061004c5760003560e01c80632ef343ba146100515780633219d4ba146100665780636a4df2541461008b57806381f989771461009e575b600080fd5b61006461005f366004612cab565b6100b1565b005b610079610074366004612d03565b61029a565b60405190815260200160405180910390f35b610064610099366004612cab565b610752565b6100646100ac366004612d44565b610968565b6100b9610b55565b600082815260066020526040812090602582015460ff1660028111156100e1576100e1612dd4565b146100ff5760405163432aa98d60e11b815260040160405180910390fd5b600b8101546000036101245760405163c5d53c0b60e01b815260040160405180910390fd5b600e8101541515806101395750600c81015415155b1561015757604051633bd7ca8d60e11b815260040160405180910390fd5b600481015460000361017c5760405163391b81e760e21b815260040160405180910390fd5b6001810154600382015460009161019f916001600160a01b039182169116610ba9565b5050905060006101b060018661029a565b90506101eb856040518060800160405280848152602001876101d190612e82565b815260208101869052600b87015460409091015285610f12565b60128301541580156101ff57506007830154155b1561028b5760258301805460ff19166002179055600183015460009061022d906001600160a01b03166114ea565b600385015490915060009061024a906001600160a01b03166114ea565b604080518481526020810183905291925088917f37c8380b2284767eac942c610487f999ad4aa72b275e8af54bf32e4de2fc7d74910160405180910390a250505b5050506102966115d1565b5050565b600081815260066020818152604080842081516102008101835281546001600160a01b03908116825283516103e0810185526001840180548316825260028086015483890152600386015490931695820195909552600484015460608201526005840154608082015295830154879687969395938601939092909160a084019160ff9091169081111561032f5761032f612dd4565b600281111561034057610340612dd4565b815260068201546020820152600782015460ff8082161515604084015261010090910481161515606083015260088301546080830152600983015460a09092019116600181111561039357610393612dd4565b60018111156103a4576103a4612dd4565b8152600a8201546020820152600b8201546040820152600c82015460609091019060ff1660028111156103d9576103d9612dd4565b60028111156103ea576103ea612dd4565b8152600d8201546020820152600e82015460409091019060ff16600481111561041557610415612dd4565b600481111561042657610426612dd4565b8152602001600e820160019054906101000a900460ff16600281111561044e5761044e612dd4565b600281111561045f5761045f612dd4565b8152600f8201546020820152601082015460409091019060ff16600281111561048a5761048a612dd4565b600281111561049b5761049b612dd4565b815260118201546020820152601282015460408201526013820154606082015260148201546080820152601582015460a09091019060ff1660048111156104e4576104e4612dd4565b60048111156104f5576104f5612dd4565b81526020016015820160019054906101000a900460ff16600281111561051d5761051d612dd4565b600281111561052e5761052e612dd4565b81526016820154602082015260178201546040820152601882015460609091019060ff16600281111561056357610563612dd4565b600281111561057457610574612dd4565b81526018919091015461010080820460ff908116151560208086019190915262010000840482161515604080870191909152630100000090940482161515606095860152948652601a87015486860152601b87015492860192909252601c86015492850192909252601d8501546080850152601e85015460a0850152601f85015460c0850152918401546001600160501b0380821660e0860152600160501b8204811692850192909252600160a01b900481166101208401526021840154166101408301526022830154610160830152602383015461018083015260248301546101a083015260258301546101c09092019116600281111561067857610678612dd4565b600281111561068957610689612dd4565b905250905084156106a4578060200151606001519150610748565b60028160200151610200015160028111156106c1576106c1612dd4565b036106fc576020810151610220810151606090910151116106ea578060200151606001516106f5565b806020015161022001515b9150610748565b600181602001516102000151600281111561071957610719612dd4565b036107485780606001518160200151606001511161073f57806020015160600151610745565b80606001515b91505b5090505b92915050565b61075a610b55565b600082815260066020526040812090602582015460ff16600281111561078257610782612dd4565b146107a05760405163432aa98d60e11b815260040160405180910390fd5b600c8101546000036107c55760405163634c458f60e11b815260040160405180910390fd5b60048101546000036107ea5760405163391b81e760e21b815260040160405180910390fd5b6001810154600382015460009161080d916001600160a01b039182169116610ba9565b5050600c830154600d84015491925060009161082c919060ff166115e6565b9050600061083f4285601f015484611653565b90508061085f57604051633de1e42960e21b815260040160405180910390fd5b600061086c60008861029a565b90506108a78760405180608001604052808481526020018961088d90612e82565b815260208101889052600b89015460409091015287610f12565b42601f86015560128501541580156108c157506007850154155b80156108cf57506004850154155b1561095b5760258501805460ff1916600217905560018501546000906108fd906001600160a01b03166114ea565b600387015490915060009061091a906001600160a01b03166114ea565b60408051848152602081018390529192508a917f37c8380b2284767eac942c610487f999ad4aa72b275e8af54bf32e4de2fc7d74910160405180910390a250505b50505050506102966115d1565b610970610b55565b600086815260066020526040812090602582015460ff16600281111561099857610998612dd4565b146109b65760405163432aa98d60e11b815260040160405180910390fd5b600e8101546000036109db57604051637149a30f60e11b815260040160405180910390fd5b6004810154600003610a005760405163391b81e760e21b815260040160405180910390fd5b6001810154600382015460009182918291610a27916001600160a01b039182169116610ba9565b925092509250610a3b8a848b8b8b8b61168b565b6020840180546001600160501b03838116600160501b026001600160a01b0319909216908516171790556000610a71818c61029a565b9050610a928b60405180608001604052808481526020018961088d90612e82565b6012850154158015610aa657506007850154155b8015610ab457506004850154155b15610b405760258501805460ff191660021790556001850154600090610ae2906001600160a01b03166114ea565b6003870154909150600090610aff906001600160a01b03166114ea565b60408051848152602081018390529192508e917f37c8380b2284767eac942c610487f999ad4aa72b275e8af54bf32e4de2fc7d74910160405180910390a250505b5050505050610b4d6115d1565b505050505050565b60006001600982015460ff166001811115610b7257610b72612dd4565b03610b9057604051633ee5aeb560e01b815260040160405180910390fd5b6009810180546001919060ff191682805b021790555050565b60095460009081908190819061010090046001600160a01b03168015610c8b57600080826001600160a01b031663feaf968c6040518163ffffffff1660e01b815260040160a060405180830381865afa158015610c0a573d6000803e3d6000fd5b505050506040513d601f19601f82011682018060405250810190610c2e9190612f29565b509194509250508215905080610c565760405162032b3d60e81b815260040160405180910390fd5b6000610c628342612f97565b9050610e108111610c865760405163d15f73b560e01b815260040160405180910390fd5b505050505b6001600160a01b038781166000908152600784016020526040902054161580610cce57506001600160a01b03868116600090815260078401602052604090205416155b15610cec57604051637d53846960e11b815260040160405180910390fd5b6001600160a01b038088166000908152600784016020526040808220548151633fabe5a360e21b81529151929384938493929091169163feaf968c9160048083019260a09291908290030181865afa158015610d4c573d6000803e3d6000fd5b505050506040513d601f19601f82011682018060405250810190610d709190612f29565b506001600160a01b03808e16600090815260078b016020526040808220548151633fabe5a360e21b81529151979a509598509296509485948594509091169163feaf968c9160048083019260a09291908290030181865afa158015610dd9573d6000803e3d6000fd5b505050506040513d601f19601f82011682018060405250810190610dfd9190612f29565b50935050925092508460001480610e12575081155b15610e2f5760405162bfc92160e01b815260040160405180910390fd5b600a880154610e3e8542612f97565b1180610e565750600a880154610e548242612f97565b115b15610e7457604051632d07c67360e01b815260040160405180910390fd5b60008c6001600160a01b031663313ce5676040518163ffffffff1660e01b8152600401602060405180830381865afa158015610eb4573d6000803e3d6000fd5b505050506040513d601f19601f82011682018060405250810190610ed89190612faa565b60ff16905082610ee982600a6130b1565b610ef390886130bd565b610efd91906130d4565b9e969d50929b50949950505050505050505050565b816060015182604001511115610f3b576040516314152b8b60e31b815260040160405180910390fd5b6040805160c08101825260208085018051516001600160a01b03908116845260038601548116838501526001860154811694840194909452855160608401525101516080820152825490911660a08201526000610f9782611ec5565b60018401548551919250600091610fb9916001600160a01b03169084906120a7565b90508460600151811115610ff557606085015160405163ba639fe360e01b81526004810191909152602481018290526044015b60405180910390fd5b600784015415611243576001600685015460ff16600281111561101a5761101a612dd4565b14801561102b575060078401548111155b15611049576040516335b23ef160e21b815260040160405180910390fd5b6002600685015460ff16600281111561106457611064612dd4565b036112435760018401546040805163313ce56760e01b815290516000926001600160a01b03169163313ce5679160048083019260209291908290030181865afa1580156110b5573d6000803e3d6000fd5b505050506040513d601f19601f820116820180604052508101906110d99190612faa565b6110e490600a6130f6565b604087015160028701546110f891906130bd565b61110291906130d4565b905060008560010160000160009054906101000a90046001600160a01b03166001600160a01b031663313ce5676040518163ffffffff1660e01b8152600401602060405180830381865afa15801561115e573d6000803e3d6000fd5b505050506040513d601f19601f820116820180604052508101906111829190612faa565b61118d90600a6130f6565b602287015460028801546111a191906130bd565b6111ab91906130d4565b905081811115611240576000816127106111c58583612f97565b6111cf91906130bd565b6111d991906130d4565b6007880154909150811061123e57600987015415801590611207575060098701546112048484612f97565b10155b1561122557604051632dd2c8eb60e01b815260040160405180910390fd5b604051632da8090b60e11b815260040160405180910390fd5b505b50505b8451600485018054600090611259908490612f97565b909155505060228401546002850154600091611274916130bd565b6002860154909150611287908490613105565b6002860181905561129883856130bd565b6112a29083613105565b6112ac91906130d4565b6022860155604086015160058601546000916112cc918591906001612140565b60038701549091506000906112e9906001600160a01b03166114ea565b905060016016880154610100900460ff16600281111561130b5761130b612dd4565b03611341576002870154601788015461271091611327916130bd565b61133191906130d4565b601a8801556002870154601c8801555b600b870154158015906113565750600e870154155b80156113645750600c870154155b156113d75760408051608081018252895181526020810187905260048901548183015260028901546060820152602289015491518b927ffdfb83eca0ae40fff97d8332ccf8e5e4b99950a8e2378334629e3c9c3bd880a2926113ca928792908790613118565b60405180910390a26114df565b600e8701541561146b576040805160808101825289518152602080820188905260048a01548284015260028a0154606083015260228a0154835180850185528b8301546001600160501b038082168352600160501b909104169281019290925292518c937f6fda3a0553e5147e61d6042180f5ea24dc35ee5486b8b528879c780f6effd8c4936113ca93889391929161315f565b600c870154156114df5760408051608081018252895181526020810187905260048901548183015260028901546060820152602289015491518b927f0cf7f396530d87e85b917a0b8afe8eba55962d166b2b78cc2d99e71f2381aaac926114d6928792908790613118565b60405180910390a25b505050505050505050565b6001600160a01b03818116600090815260076020526040812054909182911661152657604051637d53846960e11b815260040160405180910390fd5b6001600160a01b038084166000908152600783016020526040808220548151633fabe5a360e21b815291519293169163feaf968c9160048082019260a0929091908290030181865afa158015611580573d6000803e3d6000fd5b505050506040513d601f19601f820116820180604052508101906115a49190612f29565b505050915050806000036115ca5760405162bfc92160e01b815260040160405180910390fd5b9392505050565b60098054600091829160ff1916600183610ba1565b600060018260028111156115fc576115fc612dd4565b036116145761160d83610e106130bd565b905061074c565b600282600281111561162857611628612dd4565b0361163a5761160d83620151806130bd565b60405163265f13bd60e21b815260040160405180910390fd5b600082600003611665575060016115ca565b60006116718486612f97565b83111561167f576000611682565b60015b95945050505050565b600086815260066020818152604080842081516102008101835281546001600160a01b03908116825283516103e0810185526001840180548316825260028086015483890152600386015490931695820195909552600484015460608201526005840154608082015295830154919592948601939160a084019160ff9091169081111561171a5761171a612dd4565b600281111561172b5761172b612dd4565b815260068201546020820152600782015460ff8082161515604084015261010090910481161515606083015260088301546080830152600983015460a09092019116600181111561177e5761177e612dd4565b600181111561178f5761178f612dd4565b8152600a8201546020820152600b8201546040820152600c82015460609091019060ff1660028111156117c4576117c4612dd4565b60028111156117d5576117d5612dd4565b8152600d8201546020820152600e82015460409091019060ff16600481111561180057611800612dd4565b600481111561181157611811612dd4565b8152602001600e820160019054906101000a900460ff16600281111561183957611839612dd4565b600281111561184a5761184a612dd4565b8152600f8201546020820152601082015460409091019060ff16600281111561187557611875612dd4565b600281111561188657611886612dd4565b815260118201546020820152601282015460408201526013820154606082015260148201546080820152601582015460a09091019060ff1660048111156118cf576118cf612dd4565b60048111156118e0576118e0612dd4565b81526020016015820160019054906101000a900460ff16600281111561190857611908612dd4565b600281111561191957611919612dd4565b81526016820154602082015260178201546040820152601882015460609091019060ff16600281111561194e5761194e612dd4565b600281111561195f5761195f612dd4565b81526018919091015461010080820460ff908116151560208086019190915262010000840482161515604080870191909152630100000090940482161515606095860152948652601a87015486860152601b87015492860192909252601c86015492850192909252601d8501546080850152601e85015460a0850152601f85015460c0850152918401546001600160501b0380821660e0860152600160501b8204811692850192909252600160a01b900481166101208401526021840154166101408301526022830154610160830152602383015461018083015260248301546101a083015260258301546101c090920191166002811115611a6357611a63612dd4565b6002811115611a7457611a74612dd4565b815250509050846001600160501b0316836001600160501b03161080611aab5750836001600160501b0316826001600160501b0316105b15611ac95760405163de6cbbaf60e01b815260040160405180910390fd5b846001600160501b03168161010001516001600160501b03161180611b045750826001600160501b03168161010001516001600160501b0316115b80611b255750836001600160501b03168161012001516001600160501b0316115b80611b465750816001600160501b03168161012001516001600160501b0316115b15611b645760405163de6cbbaf60e01b815260040160405180910390fd5b6000611b828686846020015160000151856020015160400151612238565b90506000611ba28585856020015160000151866020015160400151612238565b9050600383602001516101e001516004811115611bc157611bc1612dd4565b1480611be75750600283602001516101e001516004811115611be557611be5612dd4565b145b15611c0d5780881015611c0d5760405163aac9fd8760e01b815260040160405180910390fd5b600483602001516101e001516004811115611c2a57611c2a612dd4565b1480611c505750600183602001516101e001516004811115611c4e57611c4e612dd4565b145b15611c765780881115611c765760405163aac9fd8760e01b815260040160405180910390fd5b60208301516101c00151600080600386602001516101e001516004811115611ca057611ca0612dd4565b1480611cc65750600286602001516101e001516004811115611cc457611cc4612dd4565b145b15611cf95784841015611cec576040516321376cef60e21b815260040160405180910390fd5b611cf68585612f97565b90505b600486602001516101e001516004811115611d1657611d16612dd4565b1480611d3c5750600186602001516101e001516004811115611d3a57611d3a612dd4565b145b15611d6f5784841115611d62576040516321376cef60e21b815260040160405180910390fd5b611d6c8486612f97565b91505b600386602001516101e001516004811115611d8c57611d8c612dd4565b148015611d9857508083115b15611db6576040516321376cef60e21b815260040160405180910390fd5b600486602001516101e001516004811115611dd357611dd3612dd4565b148015611ddf57508183115b15611dfd576040516321376cef60e21b815260040160405180910390fd5b600286602001516101e001516004811115611e1a57611e1a612dd4565b148015611e3c575084611e2f826127106130bd565b611e3991906130d4565b83115b15611e5a576040516321376cef60e21b815260040160405180910390fd5b600186602001516101e001516004811115611e7757611e77612dd4565b148015611e99575084611e8c836127106130bd565b611e9691906130d4565b83115b15611eb7576040516321376cef60e21b815260040160405180910390fd5b505050505050505050505050565b6060810151600090808203611eed5760405163391b81e760e21b815260040160405180910390fd5b611f0183602001518460a001513084612477565b6000611f11846040015130612590565b9050611f2a8460200151856000015186606001516125fe565b60008085600001516001600160a01b03168660800151604051611f4d91906131e6565b6000604051808303816000865af19150503d8060008114611f8a576040519150601f19603f3d011682016040523d82523d6000602084013e611f8f565b606091505b509150915081611fc0576000611fa482612693565b90508060405162461bcd60e51b8152600401610fec9190613202565b6000611fd0876040015130612590565b90506000611fde8583612f97565b9050806000036120015760405163081ceff360e41b815260040160405180910390fd5b61201488604001518960a001518361270a565b7f4abed91e53b10abbb1440578b29fa1b1d1b2fd1aea643d553ccf19cd4642f4d8886000015189602001518a604001518b60600151858d60a00151604051612094969594939291906001600160a01b039687168152948616602086015292851660408501526060840191909152608083015290911660a082015260c00190565b60405180910390a1979650505050505050565b6000808490506000816001600160a01b031663313ce5676040518163ffffffff1660e01b8152600401602060405180830381865afa1580156120ed573d6000803e3d6000fd5b505050506040513d601f19601f820116820180604052508101906121119190612faa565b60ff1690508461212282600a6130b1565b61212c90866130bd565b61213691906130d4565b9695505050505050565b60008085612150612710876130bd565b61215a91906130d4565b905082801561216a575061271081105b801561218057508361217e82612710612f97565b115b1561219e57604051630b9750cb60e41b815260040160405180910390fd5b821580156121ad575061271081115b80156121c35750836121c161271083612f97565b115b156121e157604051630b9750cb60e41b815260040160405180910390fd5b60008380156121f1575061271082105b156122095761220282612710612f97565b905061222c565b83158015612218575061271082115b1561222c5761222961271083612f97565b90505b9150505b949350505050565b6001600160a01b038281166000908152600760205260408120549091829116158061227d57506001600160a01b03838116600090815260078301602052604090205416155b1561229b57604051637d53846960e11b815260040160405180910390fd5b6001600160a01b038481166000908152600783016020526040808220549051639a6fc8f560e01b81526001600160501b038a16600482015291921690639a6fc8f59060240160a060405180830381865afa1580156122fd573d6000803e3d6000fd5b505050506040513d601f19601f820116820180604052508101906123219190612f29565b5050506001600160a01b038681166000908152600786016020526040808220549051639a6fc8f560e01b81526001600160501b038c1660048201529395509093501690639a6fc8f59060240160a060405180830381865afa15801561238a573d6000803e3d6000fd5b505050506040513d601f19601f820116820180604052508101906123ae9190612f29565b50505091505081600014806123c1575080155b156123de5760405162bfc92160e01b815260040160405180910390fd5b6000856001600160a01b031663313ce5676040518163ffffffff1660e01b8152600401602060405180830381865afa15801561241e573d6000803e3d6000fd5b505050506040513d601f19601f820116820180604052508101906124429190612faa565b60ff16905060008261245583600a6130b1565b61245f90866130bd565b61246991906130d4565b9a9950505050505050505050565b6040516370a0823160e01b81526001600160a01b038381166004830152600091908616906370a0823190602401602060405180830381865afa1580156124c1573d6000803e3d6000fd5b505050506040513d601f19601f820116820180604052508101906124e59190613235565b90506124f385858585612821565b6040516370a0823160e01b81526001600160a01b038481166004830152839183918816906370a0823190602401602060405180830381865afa15801561253d573d6000803e3d6000fd5b505050506040513d601f19601f820116820180604052508101906125619190613235565b61256b9190612f97565b14612589576040516312171d8360e31b815260040160405180910390fd5b5050505050565b6040516370a0823160e01b81526001600160a01b038281166004830152600091908416906370a0823190602401602060405180830381865afa1580156125da573d6000803e3d6000fd5b505050506040513d601f19601f820116820180604052508101906115ca9190613235565b604051636eb1769f60e11b81523060048201526001600160a01b03838116602483015282919085169063dd62ed3e90604401602060405180830381865afa15801561264d573d6000803e3d6000fd5b505050506040513d601f19601f820116820180604052508101906126719190613235565b101561268e576126838383600061288c565b61268e83838361288c565b505050565b60606044825110156126d857505060408051808201909152601d81527f5472616e73616374696f6e2072657665727465642073696c656e746c79000000602082015290565b60006126f460048085516126ec9190612f97565b8591906129a1565b9050808060200190518101906115ca919061324e565b6040516370a0823160e01b81526001600160a01b038381166004830152600091908516906370a0823190602401602060405180830381865afa158015612754573d6000803e3d6000fd5b505050506040513d601f19601f820116820180604052508101906127789190613235565b9050612785848484612a6b565b6040516370a0823160e01b81526001600160a01b038481166004830152839183918716906370a0823190602401602060405180830381865afa1580156127cf573d6000803e3d6000fd5b505050506040513d601f19601f820116820180604052508101906127f39190613235565b6127fd9190612f97565b1461281b576040516312171d8360e31b815260040160405180910390fd5b50505050565b6040516001600160a01b038085166024830152831660448201526064810182905261281b9085906323b872dd60e01b906084015b60408051601f198184030181529190526020810180516001600160e01b03166001600160e01b031990931692909217909152612a9b565b8015806129065750604051636eb1769f60e11b81523060048201526001600160a01b03838116602483015284169063dd62ed3e90604401602060405180830381865afa1580156128e0573d6000803e3d6000fd5b505050506040513d601f19601f820116820180604052508101906129049190613235565b155b6129715760405162461bcd60e51b815260206004820152603660248201527f5361666545524332303a20617070726f76652066726f6d206e6f6e2d7a65726f60448201527520746f206e6f6e2d7a65726f20616c6c6f77616e636560501b6064820152608401610fec565b6040516001600160a01b03831660248201526044810182905261268e90849063095ea7b360e01b90606401612855565b6060816129af81601f613105565b10156129ce576040516323d5783d60e11b815260040160405180910390fd5b6129d88284613105565b845110156129f957604051633b99b53d60e01b815260040160405180910390fd5b606082158015612a185760405191506000825260208201604052612a62565b6040519150601f8416801560200281840101858101878315602002848b0101015b81831015612a51578051835260209283019201612a39565b5050858452601f01601f1916604052505b50949350505050565b6040516001600160a01b03831660248201526044810182905261268e90849063a9059cbb60e01b90606401612855565b6000612af0826040518060400160405280602081526020017f5361666545524332303a206c6f772d6c6576656c2063616c6c206661696c6564815250856001600160a01b0316612b709092919063ffffffff16565b9050805160001480612b11575080806020019051810190612b1191906132bc565b61268e5760405162461bcd60e51b815260206004820152602a60248201527f5361666545524332303a204552433230206f7065726174696f6e20646964206e6044820152691bdd081cdd58d8d9595960b21b6064820152608401610fec565b6060612230848460008585600080866001600160a01b03168587604051612b9791906131e6565b60006040518083038185875af1925050503d8060008114612bd4576040519150601f19603f3d011682016040523d82523d6000602084013e612bd9565b606091505b5091509150612bea87838387612bf5565b979650505050505050565b60608315612c64578251600003612c5d576001600160a01b0385163b612c5d5760405162461bcd60e51b815260206004820152601d60248201527f416464726573733a2063616c6c20746f206e6f6e2d636f6e74726163740000006044820152606401610fec565b5081612230565b6122308383815115612c795781518083602001fd5b8060405162461bcd60e51b8152600401610fec9190613202565b600060408284031215612ca557600080fd5b50919050565b60008060408385031215612cbe57600080fd5b82359150602083013567ffffffffffffffff811115612cdc57600080fd5b612ce885828601612c93565b9150509250929050565b8015158114612d0057600080fd5b50565b60008060408385031215612d1657600080fd5b8235612d2181612cf2565b946020939093013593505050565b6001600160501b0381168114612d0057600080fd5b60008060008060008060c08789031215612d5d57600080fd5b863595506020870135612d6f81612d2f565b94506040870135612d7f81612d2f565b93506060870135612d8f81612d2f565b92506080870135612d9f81612d2f565b915060a087013567ffffffffffffffff811115612dbb57600080fd5b612dc789828a01612c93565b9150509295509295509295565b634e487b7160e01b600052602160045260246000fd5b634e487b7160e01b600052604160045260246000fd5b6040805190810167ffffffffffffffff81118282101715612e2357612e23612dea565b60405290565b604051601f8201601f1916810167ffffffffffffffff81118282101715612e5257612e52612dea565b604052919050565b600067ffffffffffffffff821115612e7457612e74612dea565b50601f01601f191660200190565b600060408236031215612e9457600080fd5b612e9c612e00565b82356001600160a01b0381168114612eb357600080fd5b815260208381013567ffffffffffffffff811115612ed057600080fd5b840136601f820112612ee157600080fd5b8035612ef4612eef82612e5a565b612e29565b8181523684838501011115612f0857600080fd5b81848401858301376000918101840191909152918301919091525092915050565b600080600080600060a08688031215612f4157600080fd5b8551612f4c81612d2f565b809550506020860151935060408601519250606086015191506080860151612f7381612d2f565b809150509295509295909350565b634e487b7160e01b600052601160045260246000fd5b8181038181111561074c5761074c612f81565b600060208284031215612fbc57600080fd5b815160ff811681146115ca57600080fd5b600181815b80851115613008578160001904821115612fee57612fee612f81565b80851615612ffb57918102915b93841c9390800290612fd2565b509250929050565b60008261301f5750600161074c565b8161302c5750600061074c565b8160018114613042576002811461304c57613068565b600191505061074c565b60ff84111561305d5761305d612f81565b50506001821b61074c565b5060208310610133831016604e8410600b841016171561308b575081810a61074c565b6130958383612fcd565b80600019048211156130a9576130a9612f81565b029392505050565b60006115ca8383613010565b808202811582820484141761074c5761074c612f81565b6000826130f157634e487b7160e01b600052601260045260246000fd5b500490565b60006115ca60ff841683613010565b8082018082111561074c5761074c612f81565b84815260e0810161314d6020830186805182526020810151602083015260408101516040830152606081015160608301525050565b60a082019390935260c0015292915050565b84815261010081016131956020830186805182526020810151602083015260408101516040830152606081015160608301525050565b8360a08301526001600160501b038084511660c08401528060208501511660e08401525095945050505050565b60005b838110156131dd5781810151838201526020016131c5565b50506000910152565b600082516131f88184602087016131c2565b9190910192915050565b60208152600082518060208401526132218160408501602087016131c2565b601f01601f19169190910160400192915050565b60006020828403121561324757600080fd5b5051919050565b60006020828403121561326057600080fd5b815167ffffffffffffffff81111561327757600080fd5b8201601f8101841361328857600080fd5b8051613296612eef82612e5a565b8181528560208385010111156132ab57600080fd5b6116828260208301602086016131c2565b6000602082840312156132ce57600080fd5b81516115ca81612cf256fea2646970667358221220d58512861b58cb3f31622287af7c17bb32c7c7ef8522e54a820764a93f23b3ff64736f6c63430008140033",
  "devdoc": {
    "details": "BuyFacet specializes in verifying conditions related to limit price buys and Dollar-Cost Averaging (DCA) buys,      ensuring that the necessary criteria are met before executing a buy action.",
    "events": {
      "AssetSwapped(address,address,address,uint256,uint256,address)": {
        "params": {
          "account": "The address of the user account that initiated the swap.",
          "dex": "The address of the contract or dex used for the swap.",
          "fromAmount": "The amount of 'fromAsset' that was swapped.",
          "fromAsset": "The address of the asset swapped from.",
          "receivedAmount": "The amount of 'toAsset' received in the swap.",
          "toAsset": "The address of the asset received in the swap."
        }
      },
      "BTDExecuted(uint256,uint256,(uint256,uint256,uint256,uint256),uint256,(uint80,uint80))": {
        "params": {
          "impact": "The allowable price impact percentage for the buy action.",
          "investPrice": "the average price at which invest tokens were bought.",
          "rounds": "the round Ids of invest and stable tokens.",
          "strategyId": "The unique ID of the strategy where the BTD action was executed.",
          "tokens": "tokens substracted and added into the users wallet"
        }
      },
      "BuyExecuted(uint256,uint256,(uint256,uint256,uint256,uint256),uint256,uint256)": {
        "params": {
          "impact": "The allowable price impact percentage for the buy action.",
          "investPrice": "the average price at which invest tokens were bought.",
          "stablePriceInUSD": "price of stable token in USD",
          "strategyId": "The unique ID of the strategy where the buy action was executed.",
          "tokens": "tokens substracted and added into the users wallet"
        }
      },
      "BuyTwapExecuted(uint256,uint256,(uint256,uint256,uint256,uint256),uint256,uint256)": {
        "params": {
          "impact": "The allowable price impact percentage for the buy action.",
          "investPrice": "the average price at which invest tokens were bought.",
          "stablePriceInUSD": "price of stable token in USD",
          "strategyId": "The unique ID of the strategy where the Buy on TWAP action was executed.",
          "tokens": "tokens substracted and added into the users wallet"
        }
      },
      "StrategyCompleted(uint256,uint256,uint256)": {
        "params": {
          "investTokenPrice": "The price of the invest token in USD.",
          "stableTokenPrice": "The price of the stable token in USD.",
          "strategyId": "The unique ID of the completed strategy."
        }
      }
    },
    "kind": "dev",
    "methods": {
      "executeBTD(uint256,uint80,uint80,uint80,uint80,(address,bytes))": {
        "params": {
          "fromInvestRoundId": "The starting invest round ID for monitoring price fluctuations.",
          "fromStableRoundId": "The starting stable round ID for monitoring price fluctuations.",
          "strategyId": "The unique ID of the trading strategy where the BTD action is executed.",
          "swap": "The Swap struct containing address of the decentralized exchange (DEX) and calldata containing data for interacting with the DEX during the execution.",
          "toInvestRoundId": "The ending invest round ID for monitoring price fluctuations.",
          "toStableRoundId": "The ending stable round ID for monitoring price fluctuations."
        }
      },
      "executeBuy(uint256,(address,bytes))": {
        "details": "The function validates strategy parameters, executes the buy action, and updates the strategy state.",
        "params": {
          "strategyId": "The unique ID of the strategy for which the buy action is executed.",
          "swap": "The Swap struct containing address of the decentralized exchange (DEX) and calldata containing data for interacting with the DEX during the execution."
        }
      },
      "executeBuyTwap(uint256,(address,bytes))": {
        "params": {
          "strategyId": "The unique ID of the strategy to execute the Buy on TWAP action.",
          "swap": "The Swap struct containing address of the decentralized exchange (DEX) and calldata containing data for interacting with the DEX during the execution."
        }
      },
      "executionBuyAmount(bool,uint256)": {
        "params": {
          "stableAmount": "Boolean flag indicating whether to consider the entire stable token amount.",
          "strategyId": "The unique ID of the strategy for which to calculate the buy value."
        },
        "returns": {
          "_0": "The calculated buy value based on the specified parameters."
        }
      }
    },
    "title": "BuyFacet",
    "version": 1
  },
  "userdoc": {
    "events": {
      "AssetSwapped(address,address,address,uint256,uint256,address)": {
        "notice": "Emitted when an asset swap has been executed successfully."
      },
      "BTDExecuted(uint256,uint256,(uint256,uint256,uint256,uint256),uint256,(uint80,uint80))": {
        "notice": "Emitted when a Buy The Dip (BTD) action is executed for a trading strategy using a specific DEX, call data, buy value, and execution time."
      },
      "BuyExecuted(uint256,uint256,(uint256,uint256,uint256,uint256),uint256,uint256)": {
        "notice": "Emitted when a buy action is executed for a trading strategy."
      },
      "BuyTwapExecuted(uint256,uint256,(uint256,uint256,uint256,uint256),uint256,uint256)": {
        "notice": "Emitted when a Buy on Time-Weighted Average Price (TWAP) action is executed for a trading strategy using a specific DEX, call data, buy value, and execution time."
      },
      "StrategyCompleted(uint256,uint256,uint256)": {
        "notice": "Emitted when a trade execution strategy is completed."
      }
    },
    "kind": "user",
    "methods": {
      "executeBTD(uint256,uint80,uint80,uint80,uint80,(address,bytes))": {
        "notice": "Executes a Buy-The-Dip (BTD) trading strategy action within a specified price range. This function allows the strategy to buy the invest token when its price decreases to a certain target value, following a specified DIP strategy type."
      },
      "executeBuy(uint256,(address,bytes))": {
        "notice": "Executes a buy action for a trading strategy based on specified conditions."
      },
      "executeBuyTwap(uint256,(address,bytes))": {
        "notice": "Executes a Buy on Time-Weighted Average Price (TWAP) action for a trading strategy."
      },
      "executionBuyAmount(bool,uint256)": {
        "notice": "Calculate the effective value for a buy action in a trading strategy."
      }
    },
    "notice": "This facet contains functions responsible for evaluating conditions necessary for executing buy actions.",
    "version": 1
  },
  "storageLayout": {
    "storage": [
      {
        "astId": 1502,
        "contract": "contracts/facets/BuyFacet.sol:BuyFacet",
        "label": "s",
        "offset": 0,
        "slot": "0",
        "type": "t_struct(AppStorage)1254_storage"
      }
    ],
    "types": {
      "t_address": {
        "encoding": "inplace",
        "label": "address",
        "numberOfBytes": "20"
      },
      "t_bool": {
        "encoding": "inplace",
        "label": "bool",
        "numberOfBytes": "1"
      },
      "t_bytes32": {
        "encoding": "inplace",
        "label": "bytes32",
        "numberOfBytes": "32"
      },
      "t_bytes4": {
        "encoding": "inplace",
        "label": "bytes4",
        "numberOfBytes": "4"
      },
      "t_enum(BuyLegType)1083": {
        "encoding": "inplace",
        "label": "enum BuyLegType",
        "numberOfBytes": "1"
      },
      "t_enum(DCA_UNIT)1100": {
        "encoding": "inplace",
        "label": "enum DCA_UNIT",
        "numberOfBytes": "1"
      },
      "t_enum(DIP_SPIKE)1095": {
        "encoding": "inplace",
        "label": "enum DIP_SPIKE",
        "numberOfBytes": "1"
      },
      "t_enum(FloorLegType)1079": {
        "encoding": "inplace",
        "label": "enum FloorLegType",
        "numberOfBytes": "1"
      },
      "t_enum(ReentrancyStatus)1069": {
        "encoding": "inplace",
        "label": "enum ReentrancyStatus",
        "numberOfBytes": "1"
      },
      "t_enum(SellLegType)1088": {
        "encoding": "inplace",
        "label": "enum SellLegType",
        "numberOfBytes": "1"
      },
      "t_enum(Status)1074": {
        "encoding": "inplace",
        "label": "enum Status",
        "numberOfBytes": "1"
      },
      "t_enum(TimeUnit)1105": {
        "encoding": "inplace",
        "label": "enum TimeUnit",
        "numberOfBytes": "1"
      },
      "t_mapping(t_address,t_address)": {
        "encoding": "mapping",
        "key": "t_address",
        "label": "mapping(address => address)",
        "numberOfBytes": "32",
        "value": "t_address"
      },
      "t_mapping(t_address,t_uint256)": {
        "encoding": "mapping",
        "key": "t_address",
        "label": "mapping(address => uint256)",
        "numberOfBytes": "32",
        "value": "t_uint256"
      },
      "t_mapping(t_bytes4,t_bool)": {
        "encoding": "mapping",
        "key": "t_bytes4",
        "label": "mapping(bytes4 => bool)",
        "numberOfBytes": "32",
        "value": "t_bool"
      },
      "t_mapping(t_bytes4,t_bytes32)": {
        "encoding": "mapping",
        "key": "t_bytes4",
        "label": "mapping(bytes4 => bytes32)",
        "numberOfBytes": "32",
        "value": "t_bytes32"
      },
      "t_mapping(t_uint256,t_bytes32)": {
        "encoding": "mapping",
        "key": "t_uint256",
        "label": "mapping(uint256 => bytes32)",
        "numberOfBytes": "32",
        "value": "t_bytes32"
      },
      "t_mapping(t_uint256,t_struct(Strategy)1214_storage)": {
        "encoding": "mapping",
        "key": "t_uint256",
        "label": "mapping(uint256 => struct Strategy)",
        "numberOfBytes": "32",
        "value": "t_struct(Strategy)1214_storage"
      },
      "t_struct(AppStorage)1254_storage": {
        "encoding": "inplace",
        "label": "struct AppStorage",
        "members": [
          {
            "astId": 1219,
            "contract": "contracts/facets/BuyFacet.sol:BuyFacet",
            "label": "facets",
            "offset": 0,
            "slot": "0",
            "type": "t_mapping(t_bytes4,t_bytes32)"
          },
          {
            "astId": 1223,
            "contract": "contracts/facets/BuyFacet.sol:BuyFacet",
            "label": "selectorSlots",
            "offset": 0,
            "slot": "1",
            "type": "t_mapping(t_uint256,t_bytes32)"
          },
          {
            "astId": 1225,
            "contract": "contracts/facets/BuyFacet.sol:BuyFacet",
            "label": "selectorCount",
            "offset": 0,
            "slot": "2",
            "type": "t_uint16"
          },
          {
            "astId": 1229,
            "contract": "contracts/facets/BuyFacet.sol:BuyFacet",
            "label": "supportedInterfaces",
            "offset": 0,
            "slot": "3",
            "type": "t_mapping(t_bytes4,t_bool)"
          },
          {
            "astId": 1231,
            "contract": "contracts/facets/BuyFacet.sol:BuyFacet",
            "label": "owner",
            "offset": 0,
            "slot": "4",
            "type": "t_address"
          },
          {
            "astId": 1233,
            "contract": "contracts/facets/BuyFacet.sol:BuyFacet",
            "label": "nextStrategyId",
            "offset": 0,
            "slot": "5",
            "type": "t_uint256"
          },
          {
            "astId": 1238,
            "contract": "contracts/facets/BuyFacet.sol:BuyFacet",
            "label": "strategies",
            "offset": 0,
            "slot": "6",
            "type": "t_mapping(t_uint256,t_struct(Strategy)1214_storage)"
          },
          {
            "astId": 1242,
            "contract": "contracts/facets/BuyFacet.sol:BuyFacet",
            "label": "feeds",
            "offset": 0,
            "slot": "7",
            "type": "t_mapping(t_address,t_address)"
          },
          {
            "astId": 1246,
            "contract": "contracts/facets/BuyFacet.sol:BuyFacet",
            "label": "nonces",
            "offset": 0,
            "slot": "8",
            "type": "t_mapping(t_address,t_uint256)"
          },
          {
            "astId": 1249,
            "contract": "contracts/facets/BuyFacet.sol:BuyFacet",
            "label": "reentrancyStatus",
            "offset": 0,
            "slot": "9",
            "type": "t_enum(ReentrancyStatus)1069"
          },
          {
            "astId": 1251,
            "contract": "contracts/facets/BuyFacet.sol:BuyFacet",
            "label": "sequencerUptimeFeed",
            "offset": 1,
            "slot": "9",
            "type": "t_address"
          },
          {
            "astId": 1253,
            "contract": "contracts/facets/BuyFacet.sol:BuyFacet",
            "label": "maxStalePeriod",
            "offset": 0,
            "slot": "10",
            "type": "t_uint256"
          }
        ],
        "numberOfBytes": "352"
      },
      "t_struct(Strategy)1214_storage": {
        "encoding": "inplace",
        "label": "struct Strategy",
        "members": [
          {
            "astId": 1181,
            "contract": "contracts/facets/BuyFacet.sol:BuyFacet",
            "label": "user",
            "offset": 0,
            "slot": "0",
            "type": "t_address"
          },
          {
            "astId": 1184,
            "contract": "contracts/facets/BuyFacet.sol:BuyFacet",
            "label": "parameters",
            "offset": 0,
            "slot": "1",
            "type": "t_struct(StrategyParameters)1178_storage"
          },
          {
            "astId": 1186,
            "contract": "contracts/facets/BuyFacet.sol:BuyFacet",
            "label": "sellPercentageAmount",
            "offset": 0,
            "slot": "26",
            "type": "t_uint256"
          },
          {
            "astId": 1188,
            "contract": "contracts/facets/BuyFacet.sol:BuyFacet",
            "label": "buyPercentageAmount",
            "offset": 0,
            "slot": "27",
            "type": "t_uint256"
          },
          {
            "astId": 1190,
            "contract": "contracts/facets/BuyFacet.sol:BuyFacet",
            "label": "sellPercentageTotalAmount",
            "offset": 0,
            "slot": "28",
            "type": "t_uint256"
          },
          {
            "astId": 1192,
            "contract": "contracts/facets/BuyFacet.sol:BuyFacet",
            "label": "buyPercentageTotalAmount",
            "offset": 0,
            "slot": "29",
            "type": "t_uint256"
          },
          {
            "astId": 1194,
            "contract": "contracts/facets/BuyFacet.sol:BuyFacet",
            "label": "sellTwapExecutedAt",
            "offset": 0,
            "slot": "30",
            "type": "t_uint256"
          },
          {
            "astId": 1196,
            "contract": "contracts/facets/BuyFacet.sol:BuyFacet",
            "label": "buyTwapExecutedAt",
            "offset": 0,
            "slot": "31",
            "type": "t_uint256"
          },
          {
            "astId": 1198,
            "contract": "contracts/facets/BuyFacet.sol:BuyFacet",
            "label": "investRoundIdForBTD",
            "offset": 0,
            "slot": "32",
            "type": "t_uint80"
          },
          {
            "astId": 1200,
            "contract": "contracts/facets/BuyFacet.sol:BuyFacet",
            "label": "stableRoundIdForBTD",
            "offset": 10,
            "slot": "32",
            "type": "t_uint80"
          },
          {
            "astId": 1202,
            "contract": "contracts/facets/BuyFacet.sol:BuyFacet",
            "label": "investRoundIdForSTR",
            "offset": 20,
            "slot": "32",
            "type": "t_uint80"
          },
          {
            "astId": 1204,
            "contract": "contracts/facets/BuyFacet.sol:BuyFacet",
            "label": "stableRoundIdForSTR",
            "offset": 0,
            "slot": "33",
            "type": "t_uint80"
          },
          {
            "astId": 1206,
            "contract": "contracts/facets/BuyFacet.sol:BuyFacet",
            "label": "investPrice",
            "offset": 0,
            "slot": "34",
            "type": "t_uint256"
          },
          {
            "astId": 1208,
            "contract": "contracts/facets/BuyFacet.sol:BuyFacet",
            "label": "profit",
            "offset": 0,
            "slot": "35",
            "type": "t_uint256"
          },
          {
            "astId": 1210,
            "contract": "contracts/facets/BuyFacet.sol:BuyFacet",
            "label": "budget",
            "offset": 0,
            "slot": "36",
            "type": "t_uint256"
          },
          {
            "astId": 1213,
            "contract": "contracts/facets/BuyFacet.sol:BuyFacet",
            "label": "status",
            "offset": 0,
            "slot": "37",
            "type": "t_enum(Status)1074"
          }
        ],
        "numberOfBytes": "1216"
      },
      "t_struct(StrategyParameters)1178_storage": {
        "encoding": "inplace",
        "label": "struct StrategyParameters",
        "members": [
          {
            "astId": 1108,
            "contract": "contracts/facets/BuyFacet.sol:BuyFacet",
            "label": "_investToken",
            "offset": 0,
            "slot": "0",
            "type": "t_address"
          },
          {
            "astId": 1110,
            "contract": "contracts/facets/BuyFacet.sol:BuyFacet",
            "label": "_investAmount",
            "offset": 0,
            "slot": "1",
            "type": "t_uint256"
          },
          {
            "astId": 1112,
            "contract": "contracts/facets/BuyFacet.sol:BuyFacet",
            "label": "_stableToken",
            "offset": 0,
            "slot": "2",
            "type": "t_address"
          },
          {
            "astId": 1114,
            "contract": "contracts/facets/BuyFacet.sol:BuyFacet",
            "label": "_stableAmount",
            "offset": 0,
            "slot": "3",
            "type": "t_uint256"
          },
          {
            "astId": 1116,
            "contract": "contracts/facets/BuyFacet.sol:BuyFacet",
            "label": "_impact",
            "offset": 0,
            "slot": "4",
            "type": "t_uint256"
          },
          {
            "astId": 1119,
            "contract": "contracts/facets/BuyFacet.sol:BuyFacet",
            "label": "_floorType",
            "offset": 0,
            "slot": "5",
            "type": "t_enum(FloorLegType)1079"
          },
          {
            "astId": 1121,
            "contract": "contracts/facets/BuyFacet.sol:BuyFacet",
            "label": "_floorValue",
            "offset": 0,
            "slot": "6",
            "type": "t_uint256"
          },
          {
            "astId": 1123,
            "contract": "contracts/facets/BuyFacet.sol:BuyFacet",
            "label": "_liquidateOnFloor",
            "offset": 0,
            "slot": "7",
            "type": "t_bool"
          },
          {
            "astId": 1125,
            "contract": "contracts/facets/BuyFacet.sol:BuyFacet",
            "label": "_cancelOnFloor",
            "offset": 1,
            "slot": "7",
            "type": "t_bool"
          },
          {
            "astId": 1127,
            "contract": "contracts/facets/BuyFacet.sol:BuyFacet",
            "label": "_minimumLoss",
            "offset": 0,
            "slot": "8",
            "type": "t_uint256"
          },
          {
            "astId": 1130,
            "contract": "contracts/facets/BuyFacet.sol:BuyFacet",
            "label": "_buyType",
            "offset": 0,
            "slot": "9",
            "type": "t_enum(BuyLegType)1083"
          },
          {
            "astId": 1132,
            "contract": "contracts/facets/BuyFacet.sol:BuyFacet",
            "label": "_buyValue",
            "offset": 0,
            "slot": "10",
            "type": "t_uint256"
          },
          {
            "astId": 1134,
            "contract": "contracts/facets/BuyFacet.sol:BuyFacet",
            "label": "_buyTwapTime",
            "offset": 0,
            "slot": "11",
            "type": "t_uint256"
          },
          {
            "astId": 1137,
            "contract": "contracts/facets/BuyFacet.sol:BuyFacet",
            "label": "_buyTwapTimeUnit",
            "offset": 0,
            "slot": "12",
            "type": "t_enum(TimeUnit)1105"
          },
          {
            "astId": 1139,
            "contract": "contracts/facets/BuyFacet.sol:BuyFacet",
            "label": "_btdValue",
            "offset": 0,
            "slot": "13",
            "type": "t_uint256"
          },
          {
            "astId": 1142,
            "contract": "contracts/facets/BuyFacet.sol:BuyFacet",
            "label": "_btdType",
            "offset": 0,
            "slot": "14",
            "type": "t_enum(DIP_SPIKE)1095"
          },
          {
            "astId": 1145,
            "contract": "contracts/facets/BuyFacet.sol:BuyFacet",
            "label": "_buyDCAUnit",
            "offset": 1,
            "slot": "14",
            "type": "t_enum(DCA_UNIT)1100"
          },
          {
            "astId": 1147,
            "contract": "contracts/facets/BuyFacet.sol:BuyFacet",
            "label": "_buyDCAValue",
            "offset": 0,
            "slot": "15",
            "type": "t_uint256"
          },
          {
            "astId": 1150,
            "contract": "contracts/facets/BuyFacet.sol:BuyFacet",
            "label": "_sellType",
            "offset": 0,
            "slot": "16",
            "type": "t_enum(SellLegType)1088"
          },
          {
            "astId": 1152,
            "contract": "contracts/facets/BuyFacet.sol:BuyFacet",
            "label": "_sellValue",
            "offset": 0,
            "slot": "17",
            "type": "t_uint256"
          },
          {
            "astId": 1154,
            "contract": "contracts/facets/BuyFacet.sol:BuyFacet",
            "label": "_highSellValue",
            "offset": 0,
            "slot": "18",
            "type": "t_uint256"
          },
          {
            "astId": 1156,
            "contract": "contracts/facets/BuyFacet.sol:BuyFacet",
            "label": "_minimumProfit",
            "offset": 0,
            "slot": "19",
            "type": "t_uint256"
          },
          {
            "astId": 1158,
            "contract": "contracts/facets/BuyFacet.sol:BuyFacet",
            "label": "_strValue",
            "offset": 0,
            "slot": "20",
            "type": "t_uint256"
          },
          {
            "astId": 1161,
            "contract": "contracts/facets/BuyFacet.sol:BuyFacet",
            "label": "_strType",
            "offset": 0,
            "slot": "21",
            "type": "t_enum(DIP_SPIKE)1095"
          },
          {
            "astId": 1164,
            "contract": "contracts/facets/BuyFacet.sol:BuyFacet",
            "label": "_sellDCAUnit",
            "offset": 1,
            "slot": "21",
            "type": "t_enum(DCA_UNIT)1100"
          },
          {
            "astId": 1166,
            "contract": "contracts/facets/BuyFacet.sol:BuyFacet",
            "label": "_sellDCAValue",
            "offset": 0,
            "slot": "22",
            "type": "t_uint256"
          },
          {
            "astId": 1168,
            "contract": "contracts/facets/BuyFacet.sol:BuyFacet",
            "label": "_sellTwapTime",
            "offset": 0,
            "slot": "23",
            "type": "t_uint256"
          },
          {
            "astId": 1171,
            "contract": "contracts/facets/BuyFacet.sol:BuyFacet",
            "label": "_sellTwapTimeUnit",
            "offset": 0,
            "slot": "24",
            "type": "t_enum(TimeUnit)1105"
          },
          {
            "astId": 1173,
            "contract": "contracts/facets/BuyFacet.sol:BuyFacet",
            "label": "_completeOnSell",
            "offset": 1,
            "slot": "24",
            "type": "t_bool"
          },
          {
            "astId": 1175,
            "contract": "contracts/facets/BuyFacet.sol:BuyFacet",
            "label": "_current_price_sell",
            "offset": 2,
            "slot": "24",
            "type": "t_bool"
          },
          {
            "astId": 1177,
            "contract": "contracts/facets/BuyFacet.sol:BuyFacet",
            "label": "_current_price_buy",
            "offset": 3,
            "slot": "24",
            "type": "t_bool"
          }
        ],
        "numberOfBytes": "800"
      },
      "t_uint16": {
        "encoding": "inplace",
        "label": "uint16",
        "numberOfBytes": "2"
      },
      "t_uint256": {
        "encoding": "inplace",
        "label": "uint256",
        "numberOfBytes": "32"
      },
      "t_uint80": {
        "encoding": "inplace",
        "label": "uint80",
        "numberOfBytes": "10"
      }
    }
  }
}