{
  "address": "0xBA64856E05C419b210c8fB891e7218415b212e28",
  "abi": [
    {
      "inputs": [],
      "name": "HighImpact",
      "type": "error"
    },
    {
      "inputs": [
        {
          "internalType": "address",
          "name": "fromAsset",
          "type": "address"
        },
        {
          "internalType": "uint256",
          "name": "fromAmount",
          "type": "uint256"
        },
        {
          "internalType": "uint256",
          "name": "toAmount",
          "type": "uint256"
        }
      ],
      "name": "calculateExchangeRate",
      "outputs": [
        {
          "internalType": "uint256",
          "name": "",
          "type": "uint256"
        }
      ],
      "stateMutability": "view",
      "type": "function"
    },
    {
      "inputs": [],
      "name": "getChainId",
      "outputs": [
        {
          "internalType": "uint256",
          "name": "",
          "type": "uint256"
        }
      ],
      "stateMutability": "view",
      "type": "function"
    },
    {
      "inputs": [
        {
          "internalType": "address",
          "name": "account",
          "type": "address"
        }
      ],
      "name": "getNonce",
      "outputs": [
        {
          "internalType": "uint256",
          "name": "nonce",
          "type": "uint256"
        }
      ],
      "stateMutability": "view",
      "type": "function"
    },
    {
      "inputs": [
        {
          "internalType": "uint256",
          "name": "exchangeRate",
          "type": "uint256"
        },
        {
          "internalType": "uint256",
          "name": "price",
          "type": "uint256"
        },
        {
          "internalType": "uint256",
          "name": "maxImpact",
          "type": "uint256"
        },
        {
          "internalType": "bool",
          "name": "isBuy",
          "type": "bool"
        }
      ],
      "name": "validateImpact",
      "outputs": [
        {
          "internalType": "uint256",
          "name": "",
          "type": "uint256"
        }
      ],
      "stateMutability": "pure",
      "type": "function"
    }
  ],
  "transactionHash": "0xaae38ae02c24235b6c5cb3d9b24ec22b64ad72ad7da44bc60e75523aea0714a2",
  "args": [],
  "numDeployments": 1,
  "solcInputHash": "bb307b574d29a41ff19d07668d720a45",
  "bytecode": "0x608060405234801561001057600080fd5b506104d5806100206000396000f3fe608060405234801561001057600080fd5b506004361061004c5760003560e01c80632167860b146100515780632d0335ab146100765780633408e4701461009f5780633633af41146100a5575b600080fd5b61006461005f36600461028d565b6100b8565b60405190815260200160405180910390f35b6100646100843660046102c0565b6001600160a01b031660009081526008602052604090205490565b46610064565b6100646100b33660046102e2565b6100cd565b60006100c58484846100e4565b949350505050565b60006100db8585858561017d565b95945050505050565b6000808490506000816001600160a01b031663313ce5676040518163ffffffff1660e01b8152600401602060405180830381865afa15801561012a573d6000803e3d6000fd5b505050506040513d601f19601f8201168201806040525081019061014e9190610328565b60ff1690508461015f82600a610447565b6101699086610453565b610173919061046a565b9695505050505050565b6000808561018d61271087610453565b610197919061046a565b90508280156101a7575061271081105b80156101bd5750836101bb8261271061048c565b115b156101db57604051630b9750cb60e41b815260040160405180910390fd5b821580156101ea575061271081115b80156102005750836101fe6127108361048c565b115b1561021e57604051630b9750cb60e41b815260040160405180910390fd5b600083801561022e575061271082105b156102465761023f8261271061048c565b9050610173565b83158015610255575061271082115b15610173576102666127108361048c565b979650505050505050565b80356001600160a01b038116811461028857600080fd5b919050565b6000806000606084860312156102a257600080fd5b6102ab84610271565b95602085013595506040909401359392505050565b6000602082840312156102d257600080fd5b6102db82610271565b9392505050565b600080600080608085870312156102f857600080fd5b8435935060208501359250604085013591506060850135801515811461031d57600080fd5b939692955090935050565b60006020828403121561033a57600080fd5b815160ff811681146102db57600080fd5b634e487b7160e01b600052601160045260246000fd5b600181815b8085111561039c5781600019048211156103825761038261034b565b8085161561038f57918102915b93841c9390800290610366565b509250929050565b6000826103b357506001610441565b816103c057506000610441565b81600181146103d657600281146103e0576103fc565b6001915050610441565b60ff8411156103f1576103f161034b565b50506001821b610441565b5060208310610133831016604e8410600b841016171561041f575081810a610441565b6104298383610361565b806000190482111561043d5761043d61034b565b0290505b92915050565b60006102db83836103a4565b80820281158282048414176104415761044161034b565b60008261048757634e487b7160e01b600052601260045260246000fd5b500490565b818103818111156104415761044161034b56fea264697066735822122058d81e3efe38226a75090f1680cc24dbab51d4705672761b98a45e5894eb760664736f6c63430008140033",
  "devdoc": {
    "details": "This contract provides functions for calculating exchange rates and validating impact in trades.",
    "kind": "dev",
    "methods": {
      "calculateExchangeRate(address,uint256,uint256)": {
        "params": {
          "fromAmount": "The amount of the source asset.",
          "fromAsset": "The address of the source asset.",
          "toAmount": "The amount of the target asset."
        },
        "returns": {
          "_0": "The calculated exchange rate."
        }
      },
      "getChainId()": {
        "returns": {
          "_0": "chain ID."
        }
      },
      "getNonce(address)": {
        "params": {
          "account": "The address of the account."
        },
        "returns": {
          "nonce": "current nonce."
        }
      },
      "validateImpact(uint256,uint256,uint256,bool)": {
        "params": {
          "exchangeRate": "The calculated exchange rate for the trade.",
          "isBuy": "A flag indicating whether it's a buy (true) or sell (false) trade.",
          "maxImpact": "The maximum allowable impact percentage.",
          "price": "The current market price."
        },
        "returns": {
          "_0": "The validated impact for the trade."
        }
      }
    },
    "title": "LensFacet",
    "version": 1
  },
  "userdoc": {
    "kind": "user",
    "methods": {
      "calculateExchangeRate(address,uint256,uint256)": {
        "notice": "Calculate the exchange rate between two assets for a given trade."
      },
      "getChainId()": {
        "notice": "Get the current chain ID."
      },
      "getNonce(address)": {
        "notice": "Get the current nonce for a given account."
      },
      "validateImpact(uint256,uint256,uint256,bool)": {
        "notice": "Validate impact for a trade based on exchange rate, price, and maximum allowed impact."
      }
    },
    "version": 1
  },
  "storageLayout": {
    "storage": [
      {
        "astId": 3947,
        "contract": "contracts/facets/LensFacet.sol:LensFacet",
        "label": "s",
        "offset": 0,
        "slot": "0",
        "type": "t_struct(AppStorage)1254_storage"
      }
    ],
    "types": {
      "t_address": {
        "encoding": "inplace",
        "label": "address",
        "numberOfBytes": "20"
      },
      "t_bool": {
        "encoding": "inplace",
        "label": "bool",
        "numberOfBytes": "1"
      },
      "t_bytes32": {
        "encoding": "inplace",
        "label": "bytes32",
        "numberOfBytes": "32"
      },
      "t_bytes4": {
        "encoding": "inplace",
        "label": "bytes4",
        "numberOfBytes": "4"
      },
      "t_enum(BuyLegType)1083": {
        "encoding": "inplace",
        "label": "enum BuyLegType",
        "numberOfBytes": "1"
      },
      "t_enum(DCA_UNIT)1100": {
        "encoding": "inplace",
        "label": "enum DCA_UNIT",
        "numberOfBytes": "1"
      },
      "t_enum(DIP_SPIKE)1095": {
        "encoding": "inplace",
        "label": "enum DIP_SPIKE",
        "numberOfBytes": "1"
      },
      "t_enum(FloorLegType)1079": {
        "encoding": "inplace",
        "label": "enum FloorLegType",
        "numberOfBytes": "1"
      },
      "t_enum(ReentrancyStatus)1069": {
        "encoding": "inplace",
        "label": "enum ReentrancyStatus",
        "numberOfBytes": "1"
      },
      "t_enum(SellLegType)1088": {
        "encoding": "inplace",
        "label": "enum SellLegType",
        "numberOfBytes": "1"
      },
      "t_enum(Status)1074": {
        "encoding": "inplace",
        "label": "enum Status",
        "numberOfBytes": "1"
      },
      "t_enum(TimeUnit)1105": {
        "encoding": "inplace",
        "label": "enum TimeUnit",
        "numberOfBytes": "1"
      },
      "t_mapping(t_address,t_address)": {
        "encoding": "mapping",
        "key": "t_address",
        "label": "mapping(address => address)",
        "numberOfBytes": "32",
        "value": "t_address"
      },
      "t_mapping(t_address,t_uint256)": {
        "encoding": "mapping",
        "key": "t_address",
        "label": "mapping(address => uint256)",
        "numberOfBytes": "32",
        "value": "t_uint256"
      },
      "t_mapping(t_bytes4,t_bool)": {
        "encoding": "mapping",
        "key": "t_bytes4",
        "label": "mapping(bytes4 => bool)",
        "numberOfBytes": "32",
        "value": "t_bool"
      },
      "t_mapping(t_bytes4,t_bytes32)": {
        "encoding": "mapping",
        "key": "t_bytes4",
        "label": "mapping(bytes4 => bytes32)",
        "numberOfBytes": "32",
        "value": "t_bytes32"
      },
      "t_mapping(t_uint256,t_bytes32)": {
        "encoding": "mapping",
        "key": "t_uint256",
        "label": "mapping(uint256 => bytes32)",
        "numberOfBytes": "32",
        "value": "t_bytes32"
      },
      "t_mapping(t_uint256,t_struct(Strategy)1214_storage)": {
        "encoding": "mapping",
        "key": "t_uint256",
        "label": "mapping(uint256 => struct Strategy)",
        "numberOfBytes": "32",
        "value": "t_struct(Strategy)1214_storage"
      },
      "t_struct(AppStorage)1254_storage": {
        "encoding": "inplace",
        "label": "struct AppStorage",
        "members": [
          {
            "astId": 1219,
            "contract": "contracts/facets/LensFacet.sol:LensFacet",
            "label": "facets",
            "offset": 0,
            "slot": "0",
            "type": "t_mapping(t_bytes4,t_bytes32)"
          },
          {
            "astId": 1223,
            "contract": "contracts/facets/LensFacet.sol:LensFacet",
            "label": "selectorSlots",
            "offset": 0,
            "slot": "1",
            "type": "t_mapping(t_uint256,t_bytes32)"
          },
          {
            "astId": 1225,
            "contract": "contracts/facets/LensFacet.sol:LensFacet",
            "label": "selectorCount",
            "offset": 0,
            "slot": "2",
            "type": "t_uint16"
          },
          {
            "astId": 1229,
            "contract": "contracts/facets/LensFacet.sol:LensFacet",
            "label": "supportedInterfaces",
            "offset": 0,
            "slot": "3",
            "type": "t_mapping(t_bytes4,t_bool)"
          },
          {
            "astId": 1231,
            "contract": "contracts/facets/LensFacet.sol:LensFacet",
            "label": "owner",
            "offset": 0,
            "slot": "4",
            "type": "t_address"
          },
          {
            "astId": 1233,
            "contract": "contracts/facets/LensFacet.sol:LensFacet",
            "label": "nextStrategyId",
            "offset": 0,
            "slot": "5",
            "type": "t_uint256"
          },
          {
            "astId": 1238,
            "contract": "contracts/facets/LensFacet.sol:LensFacet",
            "label": "strategies",
            "offset": 0,
            "slot": "6",
            "type": "t_mapping(t_uint256,t_struct(Strategy)1214_storage)"
          },
          {
            "astId": 1242,
            "contract": "contracts/facets/LensFacet.sol:LensFacet",
            "label": "feeds",
            "offset": 0,
            "slot": "7",
            "type": "t_mapping(t_address,t_address)"
          },
          {
            "astId": 1246,
            "contract": "contracts/facets/LensFacet.sol:LensFacet",
            "label": "nonces",
            "offset": 0,
            "slot": "8",
            "type": "t_mapping(t_address,t_uint256)"
          },
          {
            "astId": 1249,
            "contract": "contracts/facets/LensFacet.sol:LensFacet",
            "label": "reentrancyStatus",
            "offset": 0,
            "slot": "9",
            "type": "t_enum(ReentrancyStatus)1069"
          },
          {
            "astId": 1251,
            "contract": "contracts/facets/LensFacet.sol:LensFacet",
            "label": "sequencerUptimeFeed",
            "offset": 1,
            "slot": "9",
            "type": "t_address"
          },
          {
            "astId": 1253,
            "contract": "contracts/facets/LensFacet.sol:LensFacet",
            "label": "maxStalePeriod",
            "offset": 0,
            "slot": "10",
            "type": "t_uint256"
          }
        ],
        "numberOfBytes": "352"
      },
      "t_struct(Strategy)1214_storage": {
        "encoding": "inplace",
        "label": "struct Strategy",
        "members": [
          {
            "astId": 1181,
            "contract": "contracts/facets/LensFacet.sol:LensFacet",
            "label": "user",
            "offset": 0,
            "slot": "0",
            "type": "t_address"
          },
          {
            "astId": 1184,
            "contract": "contracts/facets/LensFacet.sol:LensFacet",
            "label": "parameters",
            "offset": 0,
            "slot": "1",
            "type": "t_struct(StrategyParameters)1178_storage"
          },
          {
            "astId": 1186,
            "contract": "contracts/facets/LensFacet.sol:LensFacet",
            "label": "sellPercentageAmount",
            "offset": 0,
            "slot": "26",
            "type": "t_uint256"
          },
          {
            "astId": 1188,
            "contract": "contracts/facets/LensFacet.sol:LensFacet",
            "label": "buyPercentageAmount",
            "offset": 0,
            "slot": "27",
            "type": "t_uint256"
          },
          {
            "astId": 1190,
            "contract": "contracts/facets/LensFacet.sol:LensFacet",
            "label": "sellPercentageTotalAmount",
            "offset": 0,
            "slot": "28",
            "type": "t_uint256"
          },
          {
            "astId": 1192,
            "contract": "contracts/facets/LensFacet.sol:LensFacet",
            "label": "buyPercentageTotalAmount",
            "offset": 0,
            "slot": "29",
            "type": "t_uint256"
          },
          {
            "astId": 1194,
            "contract": "contracts/facets/LensFacet.sol:LensFacet",
            "label": "sellTwapExecutedAt",
            "offset": 0,
            "slot": "30",
            "type": "t_uint256"
          },
          {
            "astId": 1196,
            "contract": "contracts/facets/LensFacet.sol:LensFacet",
            "label": "buyTwapExecutedAt",
            "offset": 0,
            "slot": "31",
            "type": "t_uint256"
          },
          {
            "astId": 1198,
            "contract": "contracts/facets/LensFacet.sol:LensFacet",
            "label": "investRoundIdForBTD",
            "offset": 0,
            "slot": "32",
            "type": "t_uint80"
          },
          {
            "astId": 1200,
            "contract": "contracts/facets/LensFacet.sol:LensFacet",
            "label": "stableRoundIdForBTD",
            "offset": 10,
            "slot": "32",
            "type": "t_uint80"
          },
          {
            "astId": 1202,
            "contract": "contracts/facets/LensFacet.sol:LensFacet",
            "label": "investRoundIdForSTR",
            "offset": 20,
            "slot": "32",
            "type": "t_uint80"
          },
          {
            "astId": 1204,
            "contract": "contracts/facets/LensFacet.sol:LensFacet",
            "label": "stableRoundIdForSTR",
            "offset": 0,
            "slot": "33",
            "type": "t_uint80"
          },
          {
            "astId": 1206,
            "contract": "contracts/facets/LensFacet.sol:LensFacet",
            "label": "investPrice",
            "offset": 0,
            "slot": "34",
            "type": "t_uint256"
          },
          {
            "astId": 1208,
            "contract": "contracts/facets/LensFacet.sol:LensFacet",
            "label": "profit",
            "offset": 0,
            "slot": "35",
            "type": "t_uint256"
          },
          {
            "astId": 1210,
            "contract": "contracts/facets/LensFacet.sol:LensFacet",
            "label": "budget",
            "offset": 0,
            "slot": "36",
            "type": "t_uint256"
          },
          {
            "astId": 1213,
            "contract": "contracts/facets/LensFacet.sol:LensFacet",
            "label": "status",
            "offset": 0,
            "slot": "37",
            "type": "t_enum(Status)1074"
          }
        ],
        "numberOfBytes": "1216"
      },
      "t_struct(StrategyParameters)1178_storage": {
        "encoding": "inplace",
        "label": "struct StrategyParameters",
        "members": [
          {
            "astId": 1108,
            "contract": "contracts/facets/LensFacet.sol:LensFacet",
            "label": "_investToken",
            "offset": 0,
            "slot": "0",
            "type": "t_address"
          },
          {
            "astId": 1110,
            "contract": "contracts/facets/LensFacet.sol:LensFacet",
            "label": "_investAmount",
            "offset": 0,
            "slot": "1",
            "type": "t_uint256"
          },
          {
            "astId": 1112,
            "contract": "contracts/facets/LensFacet.sol:LensFacet",
            "label": "_stableToken",
            "offset": 0,
            "slot": "2",
            "type": "t_address"
          },
          {
            "astId": 1114,
            "contract": "contracts/facets/LensFacet.sol:LensFacet",
            "label": "_stableAmount",
            "offset": 0,
            "slot": "3",
            "type": "t_uint256"
          },
          {
            "astId": 1116,
            "contract": "contracts/facets/LensFacet.sol:LensFacet",
            "label": "_impact",
            "offset": 0,
            "slot": "4",
            "type": "t_uint256"
          },
          {
            "astId": 1119,
            "contract": "contracts/facets/LensFacet.sol:LensFacet",
            "label": "_floorType",
            "offset": 0,
            "slot": "5",
            "type": "t_enum(FloorLegType)1079"
          },
          {
            "astId": 1121,
            "contract": "contracts/facets/LensFacet.sol:LensFacet",
            "label": "_floorValue",
            "offset": 0,
            "slot": "6",
            "type": "t_uint256"
          },
          {
            "astId": 1123,
            "contract": "contracts/facets/LensFacet.sol:LensFacet",
            "label": "_liquidateOnFloor",
            "offset": 0,
            "slot": "7",
            "type": "t_bool"
          },
          {
            "astId": 1125,
            "contract": "contracts/facets/LensFacet.sol:LensFacet",
            "label": "_cancelOnFloor",
            "offset": 1,
            "slot": "7",
            "type": "t_bool"
          },
          {
            "astId": 1127,
            "contract": "contracts/facets/LensFacet.sol:LensFacet",
            "label": "_minimumLoss",
            "offset": 0,
            "slot": "8",
            "type": "t_uint256"
          },
          {
            "astId": 1130,
            "contract": "contracts/facets/LensFacet.sol:LensFacet",
            "label": "_buyType",
            "offset": 0,
            "slot": "9",
            "type": "t_enum(BuyLegType)1083"
          },
          {
            "astId": 1132,
            "contract": "contracts/facets/LensFacet.sol:LensFacet",
            "label": "_buyValue",
            "offset": 0,
            "slot": "10",
            "type": "t_uint256"
          },
          {
            "astId": 1134,
            "contract": "contracts/facets/LensFacet.sol:LensFacet",
            "label": "_buyTwapTime",
            "offset": 0,
            "slot": "11",
            "type": "t_uint256"
          },
          {
            "astId": 1137,
            "contract": "contracts/facets/LensFacet.sol:LensFacet",
            "label": "_buyTwapTimeUnit",
            "offset": 0,
            "slot": "12",
            "type": "t_enum(TimeUnit)1105"
          },
          {
            "astId": 1139,
            "contract": "contracts/facets/LensFacet.sol:LensFacet",
            "label": "_btdValue",
            "offset": 0,
            "slot": "13",
            "type": "t_uint256"
          },
          {
            "astId": 1142,
            "contract": "contracts/facets/LensFacet.sol:LensFacet",
            "label": "_btdType",
            "offset": 0,
            "slot": "14",
            "type": "t_enum(DIP_SPIKE)1095"
          },
          {
            "astId": 1145,
            "contract": "contracts/facets/LensFacet.sol:LensFacet",
            "label": "_buyDCAUnit",
            "offset": 1,
            "slot": "14",
            "type": "t_enum(DCA_UNIT)1100"
          },
          {
            "astId": 1147,
            "contract": "contracts/facets/LensFacet.sol:LensFacet",
            "label": "_buyDCAValue",
            "offset": 0,
            "slot": "15",
            "type": "t_uint256"
          },
          {
            "astId": 1150,
            "contract": "contracts/facets/LensFacet.sol:LensFacet",
            "label": "_sellType",
            "offset": 0,
            "slot": "16",
            "type": "t_enum(SellLegType)1088"
          },
          {
            "astId": 1152,
            "contract": "contracts/facets/LensFacet.sol:LensFacet",
            "label": "_sellValue",
            "offset": 0,
            "slot": "17",
            "type": "t_uint256"
          },
          {
            "astId": 1154,
            "contract": "contracts/facets/LensFacet.sol:LensFacet",
            "label": "_highSellValue",
            "offset": 0,
            "slot": "18",
            "type": "t_uint256"
          },
          {
            "astId": 1156,
            "contract": "contracts/facets/LensFacet.sol:LensFacet",
            "label": "_minimumProfit",
            "offset": 0,
            "slot": "19",
            "type": "t_uint256"
          },
          {
            "astId": 1158,
            "contract": "contracts/facets/LensFacet.sol:LensFacet",
            "label": "_strValue",
            "offset": 0,
            "slot": "20",
            "type": "t_uint256"
          },
          {
            "astId": 1161,
            "contract": "contracts/facets/LensFacet.sol:LensFacet",
            "label": "_strType",
            "offset": 0,
            "slot": "21",
            "type": "t_enum(DIP_SPIKE)1095"
          },
          {
            "astId": 1164,
            "contract": "contracts/facets/LensFacet.sol:LensFacet",
            "label": "_sellDCAUnit",
            "offset": 1,
            "slot": "21",
            "type": "t_enum(DCA_UNIT)1100"
          },
          {
            "astId": 1166,
            "contract": "contracts/facets/LensFacet.sol:LensFacet",
            "label": "_sellDCAValue",
            "offset": 0,
            "slot": "22",
            "type": "t_uint256"
          },
          {
            "astId": 1168,
            "contract": "contracts/facets/LensFacet.sol:LensFacet",
            "label": "_sellTwapTime",
            "offset": 0,
            "slot": "23",
            "type": "t_uint256"
          },
          {
            "astId": 1171,
            "contract": "contracts/facets/LensFacet.sol:LensFacet",
            "label": "_sellTwapTimeUnit",
            "offset": 0,
            "slot": "24",
            "type": "t_enum(TimeUnit)1105"
          },
          {
            "astId": 1173,
            "contract": "contracts/facets/LensFacet.sol:LensFacet",
            "label": "_completeOnSell",
            "offset": 1,
            "slot": "24",
            "type": "t_bool"
          },
          {
            "astId": 1175,
            "contract": "contracts/facets/LensFacet.sol:LensFacet",
            "label": "_current_price_sell",
            "offset": 2,
            "slot": "24",
            "type": "t_bool"
          },
          {
            "astId": 1177,
            "contract": "contracts/facets/LensFacet.sol:LensFacet",
            "label": "_current_price_buy",
            "offset": 3,
            "slot": "24",
            "type": "t_bool"
          }
        ],
        "numberOfBytes": "800"
      },
      "t_uint16": {
        "encoding": "inplace",
        "label": "uint16",
        "numberOfBytes": "2"
      },
      "t_uint256": {
        "encoding": "inplace",
        "label": "uint256",
        "numberOfBytes": "32"
      },
      "t_uint80": {
        "encoding": "inplace",
        "label": "uint80",
        "numberOfBytes": "10"
      }
    }
  }
}