{
  "address": "0x2D68d899CEB1DFBabB5fAE95D655f34d6f08aA7b",
  "abi": [
    {
      "inputs": [],
      "name": "FeedNotFound",
      "type": "error"
    },
    {
      "inputs": [],
      "name": "GracePeriodNotOver",
      "type": "error"
    },
    {
      "inputs": [],
      "name": "InvalidPrice",
      "type": "error"
    },
    {
      "inputs": [],
      "name": "PriceExpired",
      "type": "error"
    },
    {
      "inputs": [],
      "name": "SequencerDown",
      "type": "error"
    },
    {
      "anonymous": false,
      "inputs": [
        {
          "indexed": true,
          "internalType": "address",
          "name": "asset",
          "type": "address"
        },
        {
          "indexed": true,
          "internalType": "address",
          "name": "feed",
          "type": "address"
        }
      ],
      "name": "AssetFeedConfigured",
      "type": "event"
    },
    {
      "anonymous": false,
      "inputs": [
        {
          "indexed": true,
          "internalType": "uint256",
          "name": "maxStalePeriod",
          "type": "uint256"
        }
      ],
      "name": "MaxStalePricePeriodUpdated",
      "type": "event"
    },
    {
      "anonymous": false,
      "inputs": [
        {
          "indexed": true,
          "internalType": "address",
          "name": "feed",
          "type": "address"
        }
      ],
      "name": "SequencerFeedUpdated",
      "type": "event"
    },
    {
      "inputs": [
        {
          "internalType": "address",
          "name": "asset",
          "type": "address"
        },
        {
          "internalType": "address",
          "name": "unit",
          "type": "address"
        }
      ],
      "name": "getPrice",
      "outputs": [
        {
          "internalType": "uint256",
          "name": "price",
          "type": "uint256"
        },
        {
          "internalType": "uint80",
          "name": "",
          "type": "uint80"
        },
        {
          "internalType": "uint80",
          "name": "",
          "type": "uint80"
        }
      ],
      "stateMutability": "view",
      "type": "function"
    },
    {
      "inputs": [
        {
          "internalType": "address",
          "name": "asset",
          "type": "address"
        },
        {
          "internalType": "uint80",
          "name": "roundId",
          "type": "uint80"
        }
      ],
      "name": "getPriceBasedOnRoundId",
      "outputs": [
        {
          "internalType": "uint256",
          "name": "",
          "type": "uint256"
        }
      ],
      "stateMutability": "view",
      "type": "function"
    },
    {
      "inputs": [
        {
          "internalType": "uint80",
          "name": "investRoundId",
          "type": "uint80"
        },
        {
          "internalType": "uint80",
          "name": "stableRoundId",
          "type": "uint80"
        },
        {
          "internalType": "address",
          "name": "asset",
          "type": "address"
        },
        {
          "internalType": "address",
          "name": "unit",
          "type": "address"
        }
      ],
      "name": "getRoundData",
      "outputs": [
        {
          "internalType": "uint256",
          "name": "",
          "type": "uint256"
        }
      ],
      "stateMutability": "view",
      "type": "function"
    },
    {
      "inputs": [
        {
          "internalType": "address",
          "name": "asset",
          "type": "address"
        }
      ],
      "name": "getUSDPrice",
      "outputs": [
        {
          "internalType": "uint80",
          "name": "",
          "type": "uint80"
        },
        {
          "internalType": "int256",
          "name": "",
          "type": "int256"
        }
      ],
      "stateMutability": "view",
      "type": "function"
    },
    {
      "inputs": [
        {
          "internalType": "address",
          "name": "_asset",
          "type": "address"
        },
        {
          "internalType": "address",
          "name": "_feed",
          "type": "address"
        }
      ],
      "name": "setAssetFeed",
      "outputs": [],
      "stateMutability": "nonpayable",
      "type": "function"
    },
    {
      "inputs": [
        {
          "internalType": "address[]",
          "name": "_assets",
          "type": "address[]"
        },
        {
          "internalType": "address[]",
          "name": "_feeds",
          "type": "address[]"
        }
      ],
      "name": "setAssetFeeds",
      "outputs": [],
      "stateMutability": "nonpayable",
      "type": "function"
    },
    {
      "inputs": [
        {
          "internalType": "uint256",
          "name": "_maxStalePricePeriod",
          "type": "uint256"
        }
      ],
      "name": "setMaxStalePricePeriod",
      "outputs": [],
      "stateMutability": "nonpayable",
      "type": "function"
    },
    {
      "inputs": [
        {
          "internalType": "address",
          "name": "_sequencerUptimeFeed",
          "type": "address"
        }
      ],
      "name": "setSequencerUptimeFeed",
      "outputs": [],
      "stateMutability": "nonpayable",
      "type": "function"
    }
  ],
  "transactionHash": "0x98481b9e365d7d543e78d14110f1e07e101ff82e99e9f0fc7760267624b7ef83",
  "args": [],
  "numDeployments": 1,
  "solcInputHash": "84bbcd242eb302b419f958742bc7a179",
  "bytecode": "0x608060405234801561001057600080fd5b5061105e806100206000396000f3fe608060405234801561001057600080fd5b50600436106100885760003560e01c80638b2f0f4f1161005b5780638b2f0f4f146100ee578063ac41865a14610120578063b8f4496314610158578063fd6fa5231461016b57600080fd5b80633663e2281461008d5780635c049f4f146100b35780637132d68e146100c6578063843b4c35146100db575b600080fd5b6100a061009b366004610c36565b61017e565b6040519081526020015b60405180910390f35b6100a06100c1366004610c6d565b610193565b6100d96100d4366004610d11565b6101aa565b005b6100d96100e9366004610d7d565b610355565b6101016100fc366004610d96565b6103b6565b604080516001600160501b0390931683526020830191909152016100aa565b61013361012e366004610db1565b610449565b604080519384526001600160501b0392831660208501529116908201526060016100aa565b6100d9610166366004610d96565b610465565b6100d9610179366004610db1565b6104e5565b600061018a838361056a565b90505b92915050565b60006101a18585858561065a565b95945050505050565b6004546000906001600160a01b031633146101e05760405162461bcd60e51b81526004016101d790610de4565b60405180910390fd5b8382146102215760405162461bcd60e51b815260206004820152600f60248201526e0d8cadccee8d040dad2e6dac2e8c6d608b1b60448201526064016101d7565b60005b8481101561034d5783838281811061023e5761023e610e25565b90506020020160208101906102539190610d96565b6007600088888581811061026957610269610e25565b905060200201602081019061027e9190610d96565b6001600160a01b039081168252602082019290925260400160002080546001600160a01b031916929091169190911790558383828181106102c1576102c1610e25565b90506020020160208101906102d69190610d96565b6001600160a01b03168686838181106102f1576102f1610e25565b90506020020160208101906103069190610d96565b6001600160a01b03167fafb9322ec85331630024c21eff6971ddbfe147286f2b1a27a1d9fcd4ae565c1e60405160405180910390a38061034581610e51565b915050610224565b505050505050565b6004546000906001600160a01b031633146103825760405162461bcd60e51b81526004016101d790610de4565b600a82905560405182907feceaaf340f55284e0ea31317dc4948f33c670611ec5f00cf0612c5bfc42e62a190600090a25050565b6001600160a01b03808216600090815260076020526040808220548151633fabe5a360e21b8152915192938493849384939092169163feaf968c9160048083019260a09291908290030181865afa158015610415573d6000803e3d6000fd5b505050506040513d601f19601f820116820180604052508101906104399190610e6a565b5092989197509095505050505050565b60008060006104588585610899565b9250925092509250925092565b6004546000906001600160a01b031633146104925760405162461bcd60e51b81526004016101d790610de4565b60098054610100600160a81b0319166101006001600160a01b038516908102919091179091556040517f9b73390021f4ec3e65e073f42c8e5439eac9d932a97bbe405215caf22f90860e90600090a25050565b6004546000906001600160a01b031633146105125760405162461bcd60e51b81526004016101d790610de4565b6001600160a01b0383811660008181526007602052604080822080546001600160a01b0319169487169485179055517fafb9322ec85331630024c21eff6971ddbfe147286f2b1a27a1d9fcd4ae565c1e9190a3505050565b6001600160a01b0382811660009081526007602052604081205490918291166105a657604051637d53846960e11b815260040160405180910390fd5b6001600160a01b038481166000908152600783016020526040808220549051639a6fc8f560e01b81526001600160501b038716600482015291921690639a6fc8f59060240160a060405180830381865afa158015610608573d6000803e3d6000fd5b505050506040513d601f19601f8201168201806040525081019061062c9190610e6a565b505050915050806000036106525760405162bfc92160e01b815260040160405180910390fd5b949350505050565b6001600160a01b038281166000908152600760205260408120549091829116158061069f57506001600160a01b03838116600090815260078301602052604090205416155b156106bd57604051637d53846960e11b815260040160405180910390fd5b6001600160a01b038481166000908152600783016020526040808220549051639a6fc8f560e01b81526001600160501b038a16600482015291921690639a6fc8f59060240160a060405180830381865afa15801561071f573d6000803e3d6000fd5b505050506040513d601f19601f820116820180604052508101906107439190610e6a565b5050506001600160a01b038681166000908152600786016020526040808220549051639a6fc8f560e01b81526001600160501b038c1660048201529395509093501690639a6fc8f59060240160a060405180830381865afa1580156107ac573d6000803e3d6000fd5b505050506040513d601f19601f820116820180604052508101906107d09190610e6a565b50505091505081600014806107e3575080155b156108005760405162bfc92160e01b815260040160405180910390fd5b6000856001600160a01b031663313ce5676040518163ffffffff1660e01b8152600401602060405180830381865afa158015610840573d6000803e3d6000fd5b505050506040513d601f19601f820116820180604052508101906108649190610ec2565b60ff16905060008261087783600a610fd0565b6108819086610fdc565b61088b9190610ff3565b9a9950505050505050505050565b60095460009081908190819061010090046001600160a01b0316801561097b57600080826001600160a01b031663feaf968c6040518163ffffffff1660e01b815260040160a060405180830381865afa1580156108fa573d6000803e3d6000fd5b505050506040513d601f19601f8201168201806040525081019061091e9190610e6a565b5091945092505082159050806109465760405162032b3d60e81b815260040160405180910390fd5b60006109528342611015565b9050610e1081116109765760405163d15f73b560e01b815260040160405180910390fd5b505050505b6001600160a01b0387811660009081526007840160205260409020541615806109be57506001600160a01b03868116600090815260078401602052604090205416155b156109dc57604051637d53846960e11b815260040160405180910390fd5b6001600160a01b038088166000908152600784016020526040808220548151633fabe5a360e21b81529151929384938493929091169163feaf968c9160048083019260a09291908290030181865afa158015610a3c573d6000803e3d6000fd5b505050506040513d601f19601f82011682018060405250810190610a609190610e6a565b506001600160a01b03808e16600090815260078b016020526040808220548151633fabe5a360e21b81529151979a509598509296509485948594509091169163feaf968c9160048083019260a09291908290030181865afa158015610ac9573d6000803e3d6000fd5b505050506040513d601f19601f82011682018060405250810190610aed9190610e6a565b50935050925092508460001480610b02575081155b15610b1f5760405162bfc92160e01b815260040160405180910390fd5b600a880154610b2e8542611015565b1180610b465750600a880154610b448242611015565b115b15610b6457604051632d07c67360e01b815260040160405180910390fd5b60008c6001600160a01b031663313ce5676040518163ffffffff1660e01b8152600401602060405180830381865afa158015610ba4573d6000803e3d6000fd5b505050506040513d601f19601f82011682018060405250810190610bc89190610ec2565b60ff16905082610bd982600a610fd0565b610be39088610fdc565b610bed9190610ff3565b9e969d50929b50949950505050505050505050565b80356001600160a01b0381168114610c1957600080fd5b919050565b6001600160501b0381168114610c3357600080fd5b50565b60008060408385031215610c4957600080fd5b610c5283610c02565b91506020830135610c6281610c1e565b809150509250929050565b60008060008060808587031215610c8357600080fd5b8435610c8e81610c1e565b93506020850135610c9e81610c1e565b9250610cac60408601610c02565b9150610cba60608601610c02565b905092959194509250565b60008083601f840112610cd757600080fd5b50813567ffffffffffffffff811115610cef57600080fd5b6020830191508360208260051b8501011115610d0a57600080fd5b9250929050565b60008060008060408587031215610d2757600080fd5b843567ffffffffffffffff80821115610d3f57600080fd5b610d4b88838901610cc5565b90965094506020870135915080821115610d6457600080fd5b50610d7187828801610cc5565b95989497509550505050565b600060208284031215610d8f57600080fd5b5035919050565b600060208284031215610da857600080fd5b61018a82610c02565b60008060408385031215610dc457600080fd5b610dcd83610c02565b9150610ddb60208401610c02565b90509250929050565b60208082526021908201527f4d6f646966696572733a204d75737420626520636f6e7472616374206f776e656040820152603960f91b606082015260800190565b634e487b7160e01b600052603260045260246000fd5b634e487b7160e01b600052601160045260246000fd5b600060018201610e6357610e63610e3b565b5060010190565b600080600080600060a08688031215610e8257600080fd5b8551610e8d81610c1e565b809550506020860151935060408601519250606086015191506080860151610eb481610c1e565b809150509295509295909350565b600060208284031215610ed457600080fd5b815160ff81168114610ee557600080fd5b9392505050565b600181815b80851115610f27578160001904821115610f0d57610f0d610e3b565b80851615610f1a57918102915b93841c9390800290610ef1565b509250929050565b600082610f3e5750600161018d565b81610f4b5750600061018d565b8160018114610f615760028114610f6b57610f87565b600191505061018d565b60ff841115610f7c57610f7c610e3b565b50506001821b61018d565b5060208310610133831016604e8410600b8410161715610faa575081810a61018d565b610fb48383610eec565b8060001904821115610fc857610fc8610e3b565b029392505050565b600061018a8383610f2f565b808202811582820484141761018d5761018d610e3b565b60008261101057634e487b7160e01b600052601260045260246000fd5b500490565b8181038181111561018d5761018d610e3b56fea2646970667358221220c4afe040372434c281188b756355ee70d0fc76d5bda81f122d3ae294893b5aa464736f6c63430008140033",
  "devdoc": {
    "details": "This contract manages asset price feeds used by the diamond contract.",
    "events": {
      "AssetFeedConfigured(address,address)": {
        "params": {
          "asset": "The address of the asset.",
          "feed": "The address of the price feed for the asset."
        }
      },
      "MaxStalePricePeriodUpdated(uint256)": {
        "params": {
          "maxStalePeriod": "The max stale period for price feeds."
        }
      },
      "SequencerFeedUpdated(address)": {
        "params": {
          "feed": "The address of the sequencer uptime feed."
        }
      }
    },
    "kind": "dev",
    "methods": {
      "getPrice(address,address)": {
        "params": {
          "asset": "The address of the asset.",
          "unit": "The address of the unit (e.g., USD)."
        },
        "returns": {
          "_1": "investRoundId The round ID of the asset's price feed.",
          "_2": "stableRoundId The round ID of the unit's price feed.",
          "price": "The current price of the asset in terms of the unit."
        }
      },
      "getPriceBasedOnRoundId(address,uint80)": {
        "params": {
          "asset": "The address of the asset.",
          "roundId": "the round for which price is required."
        },
        "returns": {
          "_0": "price The price of the asset based on round Id"
        }
      },
      "getRoundData(uint80,uint80,address,address)": {
        "params": {
          "asset": "The address of the asset.",
          "investRoundId": "The round ID of the asset's price feed.",
          "stableRoundId": "The round ID of the unit's price feed.",
          "unit": "The address of the unit (e.g., USD)."
        },
        "returns": {
          "_0": "price The price of the asset in terms of the unit at the specified round IDs."
        }
      },
      "getUSDPrice(address)": {
        "params": {
          "asset": "The address of the asset."
        },
        "returns": {
          "_0": "price The price of the asset in USD"
        }
      },
      "setAssetFeed(address,address)": {
        "params": {
          "_asset": "The address of the asset.",
          "_feed": "The address of the price feed for the asset."
        }
      },
      "setAssetFeeds(address[],address[])": {
        "params": {
          "_assets": "The addresses of the assets.",
          "_feeds": "The addresses of the price feeds for the assets."
        }
      },
      "setMaxStalePricePeriod(uint256)": {
        "params": {
          "_maxStalePricePeriod": "The max stale period for price feeds."
        }
      },
      "setSequencerUptimeFeed(address)": {
        "params": {
          "_sequencerUptimeFeed": "The address of the sequencer uptime feed."
        }
      }
    },
    "title": "PriceOracleFacet",
    "version": 1
  },
  "userdoc": {
    "events": {
      "AssetFeedConfigured(address,address)": {
        "notice": "Emitted when an asset price feed is configured."
      },
      "MaxStalePricePeriodUpdated(uint256)": {
        "notice": "Emitted when the max stale period for price feeds is updated."
      },
      "SequencerFeedUpdated(address)": {
        "notice": "Emitted when the sequencer uptime feed is configured."
      }
    },
    "kind": "user",
    "methods": {
      "getPrice(address,address)": {
        "notice": "Get the current price and round IDs of an asset relative to a unit."
      },
      "getPriceBasedOnRoundId(address,uint80)": {
        "notice": "Get the price of an asset in USD."
      },
      "getRoundData(uint80,uint80,address,address)": {
        "notice": "Get the historical price of an asset relative to a unit at specific round IDs."
      },
      "getUSDPrice(address)": {
        "notice": "Get the price of an asset in USD."
      },
      "setAssetFeed(address,address)": {
        "notice": "Sets the asset price feed address for a specific asset."
      },
      "setAssetFeeds(address[],address[])": {
        "notice": "Sets the asset price feed addresses for a list of assets."
      },
      "setMaxStalePricePeriod(uint256)": {
        "notice": "Sets the max stale period for price feeds."
      },
      "setSequencerUptimeFeed(address)": {
        "notice": "Sets the address of the sequencer uptime feed."
      }
    },
    "version": 1
  },
  "storageLayout": {
    "storage": [
      {
        "astId": 4207,
        "contract": "contracts/facets/PriceOracleFacet.sol:PriceOracleFacet",
        "label": "s",
        "offset": 0,
        "slot": "0",
        "type": "t_struct(AppStorage)1335_storage"
      }
    ],
    "types": {
      "t_address": {
        "encoding": "inplace",
        "label": "address",
        "numberOfBytes": "20"
      },
      "t_array(t_uint256)50_storage": {
        "base": "t_uint256",
        "encoding": "inplace",
        "label": "uint256[50]",
        "numberOfBytes": "1600"
      },
      "t_bool": {
        "encoding": "inplace",
        "label": "bool",
        "numberOfBytes": "1"
      },
      "t_bytes32": {
        "encoding": "inplace",
        "label": "bytes32",
        "numberOfBytes": "32"
      },
      "t_bytes4": {
        "encoding": "inplace",
        "label": "bytes4",
        "numberOfBytes": "4"
      },
      "t_enum(BuyLegType)1083": {
        "encoding": "inplace",
        "label": "enum BuyLegType",
        "numberOfBytes": "1"
      },
      "t_enum(DCA_UNIT)1100": {
        "encoding": "inplace",
        "label": "enum DCA_UNIT",
        "numberOfBytes": "1"
      },
      "t_enum(DIP_SPIKE)1095": {
        "encoding": "inplace",
        "label": "enum DIP_SPIKE",
        "numberOfBytes": "1"
      },
      "t_enum(FloorLegType)1079": {
        "encoding": "inplace",
        "label": "enum FloorLegType",
        "numberOfBytes": "1"
      },
      "t_enum(ReentrancyStatus)1069": {
        "encoding": "inplace",
        "label": "enum ReentrancyStatus",
        "numberOfBytes": "1"
      },
      "t_enum(SellLegType)1088": {
        "encoding": "inplace",
        "label": "enum SellLegType",
        "numberOfBytes": "1"
      },
      "t_enum(Status)1074": {
        "encoding": "inplace",
        "label": "enum Status",
        "numberOfBytes": "1"
      },
      "t_enum(TimeUnit)1105": {
        "encoding": "inplace",
        "label": "enum TimeUnit",
        "numberOfBytes": "1"
      },
      "t_mapping(t_address,t_address)": {
        "encoding": "mapping",
        "key": "t_address",
        "label": "mapping(address => address)",
        "numberOfBytes": "32",
        "value": "t_address"
      },
      "t_mapping(t_address,t_uint256)": {
        "encoding": "mapping",
        "key": "t_address",
        "label": "mapping(address => uint256)",
        "numberOfBytes": "32",
        "value": "t_uint256"
      },
      "t_mapping(t_bytes4,t_bool)": {
        "encoding": "mapping",
        "key": "t_bytes4",
        "label": "mapping(bytes4 => bool)",
        "numberOfBytes": "32",
        "value": "t_bool"
      },
      "t_mapping(t_bytes4,t_bytes32)": {
        "encoding": "mapping",
        "key": "t_bytes4",
        "label": "mapping(bytes4 => bytes32)",
        "numberOfBytes": "32",
        "value": "t_bytes32"
      },
      "t_mapping(t_uint256,t_bytes32)": {
        "encoding": "mapping",
        "key": "t_uint256",
        "label": "mapping(uint256 => bytes32)",
        "numberOfBytes": "32",
        "value": "t_bytes32"
      },
      "t_mapping(t_uint256,t_struct(Strategy)1295_storage)": {
        "encoding": "mapping",
        "key": "t_uint256",
        "label": "mapping(uint256 => struct Strategy)",
        "numberOfBytes": "32",
        "value": "t_struct(Strategy)1295_storage"
      },
      "t_struct(AppStorage)1335_storage": {
        "encoding": "inplace",
        "label": "struct AppStorage",
        "members": [
          {
            "astId": 1300,
            "contract": "contracts/facets/PriceOracleFacet.sol:PriceOracleFacet",
            "label": "facets",
            "offset": 0,
            "slot": "0",
            "type": "t_mapping(t_bytes4,t_bytes32)"
          },
          {
            "astId": 1304,
            "contract": "contracts/facets/PriceOracleFacet.sol:PriceOracleFacet",
            "label": "selectorSlots",
            "offset": 0,
            "slot": "1",
            "type": "t_mapping(t_uint256,t_bytes32)"
          },
          {
            "astId": 1306,
            "contract": "contracts/facets/PriceOracleFacet.sol:PriceOracleFacet",
            "label": "selectorCount",
            "offset": 0,
            "slot": "2",
            "type": "t_uint16"
          },
          {
            "astId": 1310,
            "contract": "contracts/facets/PriceOracleFacet.sol:PriceOracleFacet",
            "label": "supportedInterfaces",
            "offset": 0,
            "slot": "3",
            "type": "t_mapping(t_bytes4,t_bool)"
          },
          {
            "astId": 1312,
            "contract": "contracts/facets/PriceOracleFacet.sol:PriceOracleFacet",
            "label": "owner",
            "offset": 0,
            "slot": "4",
            "type": "t_address"
          },
          {
            "astId": 1314,
            "contract": "contracts/facets/PriceOracleFacet.sol:PriceOracleFacet",
            "label": "nextStrategyId",
            "offset": 0,
            "slot": "5",
            "type": "t_uint256"
          },
          {
            "astId": 1319,
            "contract": "contracts/facets/PriceOracleFacet.sol:PriceOracleFacet",
            "label": "strategies",
            "offset": 0,
            "slot": "6",
            "type": "t_mapping(t_uint256,t_struct(Strategy)1295_storage)"
          },
          {
            "astId": 1323,
            "contract": "contracts/facets/PriceOracleFacet.sol:PriceOracleFacet",
            "label": "feeds",
            "offset": 0,
            "slot": "7",
            "type": "t_mapping(t_address,t_address)"
          },
          {
            "astId": 1327,
            "contract": "contracts/facets/PriceOracleFacet.sol:PriceOracleFacet",
            "label": "nonces",
            "offset": 0,
            "slot": "8",
            "type": "t_mapping(t_address,t_uint256)"
          },
          {
            "astId": 1330,
            "contract": "contracts/facets/PriceOracleFacet.sol:PriceOracleFacet",
            "label": "reentrancyStatus",
            "offset": 0,
            "slot": "9",
            "type": "t_enum(ReentrancyStatus)1069"
          },
          {
            "astId": 1332,
            "contract": "contracts/facets/PriceOracleFacet.sol:PriceOracleFacet",
            "label": "sequencerUptimeFeed",
            "offset": 1,
            "slot": "9",
            "type": "t_address"
          },
          {
            "astId": 1334,
            "contract": "contracts/facets/PriceOracleFacet.sol:PriceOracleFacet",
            "label": "maxStalePeriod",
            "offset": 0,
            "slot": "10",
            "type": "t_uint256"
          }
        ],
        "numberOfBytes": "352"
      },
      "t_struct(Strategy)1295_storage": {
        "encoding": "inplace",
        "label": "struct Strategy",
        "members": [
          {
            "astId": 1258,
            "contract": "contracts/facets/PriceOracleFacet.sol:PriceOracleFacet",
            "label": "user",
            "offset": 0,
            "slot": "0",
            "type": "t_address"
          },
          {
            "astId": 1261,
            "contract": "contracts/facets/PriceOracleFacet.sol:PriceOracleFacet",
            "label": "parameters",
            "offset": 0,
            "slot": "1",
            "type": "t_struct(StrategyParameters)1255_storage"
          },
          {
            "astId": 1263,
            "contract": "contracts/facets/PriceOracleFacet.sol:PriceOracleFacet",
            "label": "sellPercentageAmount",
            "offset": 0,
            "slot": "76",
            "type": "t_uint256"
          },
          {
            "astId": 1265,
            "contract": "contracts/facets/PriceOracleFacet.sol:PriceOracleFacet",
            "label": "buyPercentageAmount",
            "offset": 0,
            "slot": "77",
            "type": "t_uint256"
          },
          {
            "astId": 1267,
            "contract": "contracts/facets/PriceOracleFacet.sol:PriceOracleFacet",
            "label": "sellPercentageTotalAmount",
            "offset": 0,
            "slot": "78",
            "type": "t_uint256"
          },
          {
            "astId": 1269,
            "contract": "contracts/facets/PriceOracleFacet.sol:PriceOracleFacet",
            "label": "buyPercentageTotalAmount",
            "offset": 0,
            "slot": "79",
            "type": "t_uint256"
          },
          {
            "astId": 1271,
            "contract": "contracts/facets/PriceOracleFacet.sol:PriceOracleFacet",
            "label": "sellTwapExecutedAt",
            "offset": 0,
            "slot": "80",
            "type": "t_uint256"
          },
          {
            "astId": 1273,
            "contract": "contracts/facets/PriceOracleFacet.sol:PriceOracleFacet",
            "label": "buyTwapExecutedAt",
            "offset": 0,
            "slot": "81",
            "type": "t_uint256"
          },
          {
            "astId": 1275,
            "contract": "contracts/facets/PriceOracleFacet.sol:PriceOracleFacet",
            "label": "investRoundIdForBTD",
            "offset": 0,
            "slot": "82",
            "type": "t_uint80"
          },
          {
            "astId": 1277,
            "contract": "contracts/facets/PriceOracleFacet.sol:PriceOracleFacet",
            "label": "stableRoundIdForBTD",
            "offset": 10,
            "slot": "82",
            "type": "t_uint80"
          },
          {
            "astId": 1279,
            "contract": "contracts/facets/PriceOracleFacet.sol:PriceOracleFacet",
            "label": "investRoundIdForSTR",
            "offset": 20,
            "slot": "82",
            "type": "t_uint80"
          },
          {
            "astId": 1281,
            "contract": "contracts/facets/PriceOracleFacet.sol:PriceOracleFacet",
            "label": "stableRoundIdForSTR",
            "offset": 0,
            "slot": "83",
            "type": "t_uint80"
          },
          {
            "astId": 1283,
            "contract": "contracts/facets/PriceOracleFacet.sol:PriceOracleFacet",
            "label": "investPrice",
            "offset": 0,
            "slot": "84",
            "type": "t_uint256"
          },
          {
            "astId": 1285,
            "contract": "contracts/facets/PriceOracleFacet.sol:PriceOracleFacet",
            "label": "profit",
            "offset": 0,
            "slot": "85",
            "type": "t_uint256"
          },
          {
            "astId": 1287,
            "contract": "contracts/facets/PriceOracleFacet.sol:PriceOracleFacet",
            "label": "budget",
            "offset": 0,
            "slot": "86",
            "type": "t_uint256"
          },
          {
            "astId": 1290,
            "contract": "contracts/facets/PriceOracleFacet.sol:PriceOracleFacet",
            "label": "status",
            "offset": 0,
            "slot": "87",
            "type": "t_enum(Status)1074"
          },
          {
            "astId": 1294,
            "contract": "contracts/facets/PriceOracleFacet.sol:PriceOracleFacet",
            "label": "__gap",
            "offset": 0,
            "slot": "88",
            "type": "t_array(t_uint256)50_storage"
          }
        ],
        "numberOfBytes": "4416"
      },
      "t_struct(StrategyParameters)1255_storage": {
        "encoding": "inplace",
        "label": "struct StrategyParameters",
        "members": [
          {
            "astId": 1181,
            "contract": "contracts/facets/PriceOracleFacet.sol:PriceOracleFacet",
            "label": "_investToken",
            "offset": 0,
            "slot": "0",
            "type": "t_address"
          },
          {
            "astId": 1183,
            "contract": "contracts/facets/PriceOracleFacet.sol:PriceOracleFacet",
            "label": "_investAmount",
            "offset": 0,
            "slot": "1",
            "type": "t_uint256"
          },
          {
            "astId": 1185,
            "contract": "contracts/facets/PriceOracleFacet.sol:PriceOracleFacet",
            "label": "_stableToken",
            "offset": 0,
            "slot": "2",
            "type": "t_address"
          },
          {
            "astId": 1187,
            "contract": "contracts/facets/PriceOracleFacet.sol:PriceOracleFacet",
            "label": "_stableAmount",
            "offset": 0,
            "slot": "3",
            "type": "t_uint256"
          },
          {
            "astId": 1189,
            "contract": "contracts/facets/PriceOracleFacet.sol:PriceOracleFacet",
            "label": "_impact",
            "offset": 0,
            "slot": "4",
            "type": "t_uint256"
          },
          {
            "astId": 1192,
            "contract": "contracts/facets/PriceOracleFacet.sol:PriceOracleFacet",
            "label": "_floorType",
            "offset": 0,
            "slot": "5",
            "type": "t_enum(FloorLegType)1079"
          },
          {
            "astId": 1194,
            "contract": "contracts/facets/PriceOracleFacet.sol:PriceOracleFacet",
            "label": "_floorValue",
            "offset": 0,
            "slot": "6",
            "type": "t_uint256"
          },
          {
            "astId": 1196,
            "contract": "contracts/facets/PriceOracleFacet.sol:PriceOracleFacet",
            "label": "_liquidateOnFloor",
            "offset": 0,
            "slot": "7",
            "type": "t_bool"
          },
          {
            "astId": 1198,
            "contract": "contracts/facets/PriceOracleFacet.sol:PriceOracleFacet",
            "label": "_cancelOnFloor",
            "offset": 1,
            "slot": "7",
            "type": "t_bool"
          },
          {
            "astId": 1200,
            "contract": "contracts/facets/PriceOracleFacet.sol:PriceOracleFacet",
            "label": "_minimumLoss",
            "offset": 0,
            "slot": "8",
            "type": "t_uint256"
          },
          {
            "astId": 1203,
            "contract": "contracts/facets/PriceOracleFacet.sol:PriceOracleFacet",
            "label": "_buyType",
            "offset": 0,
            "slot": "9",
            "type": "t_enum(BuyLegType)1083"
          },
          {
            "astId": 1205,
            "contract": "contracts/facets/PriceOracleFacet.sol:PriceOracleFacet",
            "label": "_buyValue",
            "offset": 0,
            "slot": "10",
            "type": "t_uint256"
          },
          {
            "astId": 1207,
            "contract": "contracts/facets/PriceOracleFacet.sol:PriceOracleFacet",
            "label": "_buyTwapTime",
            "offset": 0,
            "slot": "11",
            "type": "t_uint256"
          },
          {
            "astId": 1210,
            "contract": "contracts/facets/PriceOracleFacet.sol:PriceOracleFacet",
            "label": "_buyTwapTimeUnit",
            "offset": 0,
            "slot": "12",
            "type": "t_enum(TimeUnit)1105"
          },
          {
            "astId": 1212,
            "contract": "contracts/facets/PriceOracleFacet.sol:PriceOracleFacet",
            "label": "_btdValue",
            "offset": 0,
            "slot": "13",
            "type": "t_uint256"
          },
          {
            "astId": 1215,
            "contract": "contracts/facets/PriceOracleFacet.sol:PriceOracleFacet",
            "label": "_btdType",
            "offset": 0,
            "slot": "14",
            "type": "t_enum(DIP_SPIKE)1095"
          },
          {
            "astId": 1218,
            "contract": "contracts/facets/PriceOracleFacet.sol:PriceOracleFacet",
            "label": "_buyDCAUnit",
            "offset": 1,
            "slot": "14",
            "type": "t_enum(DCA_UNIT)1100"
          },
          {
            "astId": 1220,
            "contract": "contracts/facets/PriceOracleFacet.sol:PriceOracleFacet",
            "label": "_buyDCAValue",
            "offset": 0,
            "slot": "15",
            "type": "t_uint256"
          },
          {
            "astId": 1223,
            "contract": "contracts/facets/PriceOracleFacet.sol:PriceOracleFacet",
            "label": "_sellType",
            "offset": 0,
            "slot": "16",
            "type": "t_enum(SellLegType)1088"
          },
          {
            "astId": 1225,
            "contract": "contracts/facets/PriceOracleFacet.sol:PriceOracleFacet",
            "label": "_sellValue",
            "offset": 0,
            "slot": "17",
            "type": "t_uint256"
          },
          {
            "astId": 1227,
            "contract": "contracts/facets/PriceOracleFacet.sol:PriceOracleFacet",
            "label": "_highSellValue",
            "offset": 0,
            "slot": "18",
            "type": "t_uint256"
          },
          {
            "astId": 1229,
            "contract": "contracts/facets/PriceOracleFacet.sol:PriceOracleFacet",
            "label": "_minimumProfit",
            "offset": 0,
            "slot": "19",
            "type": "t_uint256"
          },
          {
            "astId": 1231,
            "contract": "contracts/facets/PriceOracleFacet.sol:PriceOracleFacet",
            "label": "_strValue",
            "offset": 0,
            "slot": "20",
            "type": "t_uint256"
          },
          {
            "astId": 1234,
            "contract": "contracts/facets/PriceOracleFacet.sol:PriceOracleFacet",
            "label": "_strType",
            "offset": 0,
            "slot": "21",
            "type": "t_enum(DIP_SPIKE)1095"
          },
          {
            "astId": 1237,
            "contract": "contracts/facets/PriceOracleFacet.sol:PriceOracleFacet",
            "label": "_sellDCAUnit",
            "offset": 1,
            "slot": "21",
            "type": "t_enum(DCA_UNIT)1100"
          },
          {
            "astId": 1239,
            "contract": "contracts/facets/PriceOracleFacet.sol:PriceOracleFacet",
            "label": "_sellDCAValue",
            "offset": 0,
            "slot": "22",
            "type": "t_uint256"
          },
          {
            "astId": 1241,
            "contract": "contracts/facets/PriceOracleFacet.sol:PriceOracleFacet",
            "label": "_sellTwapTime",
            "offset": 0,
            "slot": "23",
            "type": "t_uint256"
          },
          {
            "astId": 1244,
            "contract": "contracts/facets/PriceOracleFacet.sol:PriceOracleFacet",
            "label": "_sellTwapTimeUnit",
            "offset": 0,
            "slot": "24",
            "type": "t_enum(TimeUnit)1105"
          },
          {
            "astId": 1246,
            "contract": "contracts/facets/PriceOracleFacet.sol:PriceOracleFacet",
            "label": "_completeOnSell",
            "offset": 1,
            "slot": "24",
            "type": "t_bool"
          },
          {
            "astId": 1248,
            "contract": "contracts/facets/PriceOracleFacet.sol:PriceOracleFacet",
            "label": "_current_price_sell",
            "offset": 2,
            "slot": "24",
            "type": "t_bool"
          },
          {
            "astId": 1250,
            "contract": "contracts/facets/PriceOracleFacet.sol:PriceOracleFacet",
            "label": "_current_price_buy",
            "offset": 3,
            "slot": "24",
            "type": "t_bool"
          },
          {
            "astId": 1254,
            "contract": "contracts/facets/PriceOracleFacet.sol:PriceOracleFacet",
            "label": "__gap",
            "offset": 0,
            "slot": "25",
            "type": "t_array(t_uint256)50_storage"
          }
        ],
        "numberOfBytes": "2400"
      },
      "t_uint16": {
        "encoding": "inplace",
        "label": "uint16",
        "numberOfBytes": "2"
      },
      "t_uint256": {
        "encoding": "inplace",
        "label": "uint256",
        "numberOfBytes": "32"
      },
      "t_uint80": {
        "encoding": "inplace",
        "label": "uint80",
        "numberOfBytes": "10"
      }
    }
  }
}