{
  "address": "0x627b31c539286Ca6887D17ce6cfA7117e312FA18",
  "abi": [
    {
      "inputs": [],
      "name": "AlreadyCancelled",
      "type": "error"
    },
    {
      "inputs": [],
      "name": "AtLeastOneOptionRequired",
      "type": "error"
    },
    {
      "inputs": [],
      "name": "BTDIsNotSet",
      "type": "error"
    },
    {
      "inputs": [],
      "name": "BTDWithoutBTDType",
      "type": "error"
    },
    {
      "inputs": [],
      "name": "BothBuyTwapAndBTD",
      "type": "error"
    },
    {
      "inputs": [],
      "name": "BothSellTwapAndSTR",
      "type": "error"
    },
    {
      "inputs": [],
      "name": "BothStableAndInvestAmountProvided",
      "type": "error"
    },
    {
      "inputs": [],
      "name": "BtdValueGreaterThan100",
      "type": "error"
    },
    {
      "inputs": [],
      "name": "BuyAndSellAtMisorder",
      "type": "error"
    },
    {
      "inputs": [],
      "name": "BuyDCANotSet",
      "type": "error"
    },
    {
      "inputs": [],
      "name": "BuyDCAUnitWithoutBuyDCAValue",
      "type": "error"
    },
    {
      "inputs": [],
      "name": "BuyDCAValueRangeIsNotValid",
      "type": "error"
    },
    {
      "inputs": [],
      "name": "BuyDCAWithoutBuy",
      "type": "error"
    },
    {
      "inputs": [],
      "name": "BuyDCAWithoutBuyDCAUnit",
      "type": "error"
    },
    {
      "inputs": [],
      "name": "BuyNeverExecute",
      "type": "error"
    },
    {
      "inputs": [],
      "name": "BuyNotSet",
      "type": "error"
    },
    {
      "inputs": [],
      "name": "BuySellCurrentPrice",
      "type": "error"
    },
    {
      "inputs": [],
      "name": "BuyTwapNotSelected",
      "type": "error"
    },
    {
      "inputs": [],
      "name": "BuyTwapTimeUnitNotSelected",
      "type": "error"
    },
    {
      "inputs": [],
      "name": "DCAValueShouldBeLessThanIntitialAmount",
      "type": "error"
    },
    {
      "inputs": [],
      "name": "DCAValueWithoutDCA",
      "type": "error"
    },
    {
      "inputs": [],
      "name": "FeedNotFound",
      "type": "error"
    },
    {
      "inputs": [],
      "name": "FloorNotSet",
      "type": "error"
    },
    {
      "inputs": [],
      "name": "FloorPercentageNotSet",
      "type": "error"
    },
    {
      "inputs": [],
      "name": "FloorValueGreaterThanBuyValue",
      "type": "error"
    },
    {
      "inputs": [],
      "name": "FloorValueGreaterThanSellValue",
      "type": "error"
    },
    {
      "inputs": [],
      "name": "GracePeriodNotOver",
      "type": "error"
    },
    {
      "inputs": [],
      "name": "HighSellValueIsChosenWithoutSeLLDCA",
      "type": "error"
    },
    {
      "inputs": [],
      "name": "InvalidBuyType",
      "type": "error"
    },
    {
      "inputs": [],
      "name": "InvalidFloorType",
      "type": "error"
    },
    {
      "inputs": [],
      "name": "InvalidHighSellValue",
      "type": "error"
    },
    {
      "inputs": [],
      "name": "InvalidImpact",
      "type": "error"
    },
    {
      "inputs": [],
      "name": "InvalidInvestToken",
      "type": "error"
    },
    {
      "inputs": [],
      "name": "InvalidNonce",
      "type": "error"
    },
    {
      "inputs": [],
      "name": "InvalidPrice",
      "type": "error"
    },
    {
      "inputs": [],
      "name": "InvalidSellType",
      "type": "error"
    },
    {
      "inputs": [],
      "name": "InvalidSellValue",
      "type": "error"
    },
    {
      "inputs": [],
      "name": "InvalidSigner",
      "type": "error"
    },
    {
      "inputs": [],
      "name": "InvalidStableAmount",
      "type": "error"
    },
    {
      "inputs": [],
      "name": "InvalidStableToken",
      "type": "error"
    },
    {
      "inputs": [],
      "name": "InvestAmountMustBeProvided",
      "type": "error"
    },
    {
      "inputs": [],
      "name": "NoAmountProvided",
      "type": "error"
    },
    {
      "inputs": [],
      "name": "NothingToUpdate",
      "type": "error"
    },
    {
      "inputs": [],
      "name": "OnlyOwnerCanCancelStrategies",
      "type": "error"
    },
    {
      "inputs": [],
      "name": "OnlyOwnerCanUpdateStrategies",
      "type": "error"
    },
    {
      "inputs": [],
      "name": "OrphandStrategy",
      "type": "error"
    },
    {
      "inputs": [],
      "name": "PercentageNotInRange",
      "type": "error"
    },
    {
      "inputs": [],
      "name": "PriceExpired",
      "type": "error"
    },
    {
      "inputs": [],
      "name": "ReentrancyGuardReentrantCall",
      "type": "error"
    },
    {
      "inputs": [],
      "name": "STRIsNotSet",
      "type": "error"
    },
    {
      "inputs": [],
      "name": "SellDCANotSet",
      "type": "error"
    },
    {
      "inputs": [],
      "name": "SellDCAUnitWithoutSellDCAValue",
      "type": "error"
    },
    {
      "inputs": [],
      "name": "SellDCAValueRangeIsNotValid",
      "type": "error"
    },
    {
      "inputs": [],
      "name": "SellDCAWithoutSell",
      "type": "error"
    },
    {
      "inputs": [],
      "name": "SellNotSelected",
      "type": "error"
    },
    {
      "inputs": [],
      "name": "SellPercentageNotSet",
      "type": "error"
    },
    {
      "inputs": [],
      "name": "SellTwapNotSelected",
      "type": "error"
    },
    {
      "inputs": [],
      "name": "SellTwapOrStrWithoutSellDCAUnit",
      "type": "error"
    },
    {
      "inputs": [],
      "name": "SellTwapTimeUnitNotSelected",
      "type": "error"
    },
    {
      "inputs": [],
      "name": "SequencerDown",
      "type": "error"
    },
    {
      "inputs": [],
      "name": "StrValueGreaterThan100",
      "type": "error"
    },
    {
      "inputs": [],
      "name": "StrWithoutStrType",
      "type": "error"
    },
    {
      "inputs": [],
      "name": "StrategyIsNotActive",
      "type": "error"
    },
    {
      "inputs": [],
      "name": "TokensMustDiffer",
      "type": "error"
    },
    {
      "inputs": [],
      "name": "TypeChosenWithoutValue",
      "type": "error"
    },
    {
      "anonymous": false,
      "inputs": [
        {
          "indexed": true,
          "internalType": "uint256",
          "name": "strategyId",
          "type": "uint256"
        },
        {
          "indexed": false,
          "internalType": "uint256",
          "name": "investTokenPrice",
          "type": "uint256"
        },
        {
          "indexed": false,
          "internalType": "uint256",
          "name": "stableTokenPrice",
          "type": "uint256"
        }
      ],
      "name": "StrategyCancelled",
      "type": "event"
    },
    {
      "anonymous": false,
      "inputs": [
        {
          "indexed": true,
          "internalType": "uint256",
          "name": "strategyId",
          "type": "uint256"
        },
        {
          "indexed": false,
          "internalType": "address",
          "name": "user",
          "type": "address"
        },
        {
          "components": [
            {
              "internalType": "address",
              "name": "_investToken",
              "type": "address"
            },
            {
              "internalType": "uint256",
              "name": "_investAmount",
              "type": "uint256"
            },
            {
              "internalType": "address",
              "name": "_stableToken",
              "type": "address"
            },
            {
              "internalType": "uint256",
              "name": "_stableAmount",
              "type": "uint256"
            },
            {
              "internalType": "uint256",
              "name": "_impact",
              "type": "uint256"
            },
            {
              "internalType": "enum FloorLegType",
              "name": "_floorType",
              "type": "uint8"
            },
            {
              "internalType": "uint256",
              "name": "_floorValue",
              "type": "uint256"
            },
            {
              "internalType": "bool",
              "name": "_liquidateOnFloor",
              "type": "bool"
            },
            {
              "internalType": "bool",
              "name": "_cancelOnFloor",
              "type": "bool"
            },
            {
              "internalType": "uint256",
              "name": "_minimumLoss",
              "type": "uint256"
            },
            {
              "internalType": "enum BuyLegType",
              "name": "_buyType",
              "type": "uint8"
            },
            {
              "internalType": "uint256",
              "name": "_buyValue",
              "type": "uint256"
            },
            {
              "internalType": "uint256",
              "name": "_buyTwapTime",
              "type": "uint256"
            },
            {
              "internalType": "enum TimeUnit",
              "name": "_buyTwapTimeUnit",
              "type": "uint8"
            },
            {
              "internalType": "uint256",
              "name": "_btdValue",
              "type": "uint256"
            },
            {
              "internalType": "enum DIP_SPIKE",
              "name": "_btdType",
              "type": "uint8"
            },
            {
              "internalType": "enum DCA_UNIT",
              "name": "_buyDCAUnit",
              "type": "uint8"
            },
            {
              "internalType": "uint256",
              "name": "_buyDCAValue",
              "type": "uint256"
            },
            {
              "internalType": "enum SellLegType",
              "name": "_sellType",
              "type": "uint8"
            },
            {
              "internalType": "uint256",
              "name": "_sellValue",
              "type": "uint256"
            },
            {
              "internalType": "uint256",
              "name": "_highSellValue",
              "type": "uint256"
            },
            {
              "internalType": "uint256",
              "name": "_minimumProfit",
              "type": "uint256"
            },
            {
              "internalType": "uint256",
              "name": "_strValue",
              "type": "uint256"
            },
            {
              "internalType": "enum DIP_SPIKE",
              "name": "_strType",
              "type": "uint8"
            },
            {
              "internalType": "enum DCA_UNIT",
              "name": "_sellDCAUnit",
              "type": "uint8"
            },
            {
              "internalType": "uint256",
              "name": "_sellDCAValue",
              "type": "uint256"
            },
            {
              "internalType": "uint256",
              "name": "_sellTwapTime",
              "type": "uint256"
            },
            {
              "internalType": "enum TimeUnit",
              "name": "_sellTwapTimeUnit",
              "type": "uint8"
            },
            {
              "internalType": "bool",
              "name": "_completeOnSell",
              "type": "bool"
            },
            {
              "internalType": "bool",
              "name": "_current_price_sell",
              "type": "bool"
            },
            {
              "internalType": "bool",
              "name": "_current_price_buy",
              "type": "bool"
            }
          ],
          "indexed": false,
          "internalType": "struct StrategyParametersInput",
          "name": "parameter",
          "type": "tuple"
        },
        {
          "indexed": false,
          "internalType": "uint80",
          "name": "investRoundId",
          "type": "uint80"
        },
        {
          "indexed": false,
          "internalType": "uint80",
          "name": "stableRoundId",
          "type": "uint80"
        },
        {
          "indexed": false,
          "internalType": "uint256",
          "name": "budget",
          "type": "uint256"
        },
        {
          "indexed": false,
          "internalType": "uint256",
          "name": "price",
          "type": "uint256"
        }
      ],
      "name": "StrategyCreated",
      "type": "event"
    },
    {
      "anonymous": false,
      "inputs": [
        {
          "indexed": true,
          "internalType": "uint256",
          "name": "strategyId",
          "type": "uint256"
        },
        {
          "components": [
            {
              "internalType": "address",
              "name": "_investToken",
              "type": "address"
            },
            {
              "internalType": "uint256",
              "name": "_investAmount",
              "type": "uint256"
            },
            {
              "internalType": "address",
              "name": "_stableToken",
              "type": "address"
            },
            {
              "internalType": "uint256",
              "name": "_stableAmount",
              "type": "uint256"
            },
            {
              "internalType": "uint256",
              "name": "_impact",
              "type": "uint256"
            },
            {
              "internalType": "enum FloorLegType",
              "name": "_floorType",
              "type": "uint8"
            },
            {
              "internalType": "uint256",
              "name": "_floorValue",
              "type": "uint256"
            },
            {
              "internalType": "bool",
              "name": "_liquidateOnFloor",
              "type": "bool"
            },
            {
              "internalType": "bool",
              "name": "_cancelOnFloor",
              "type": "bool"
            },
            {
              "internalType": "uint256",
              "name": "_minimumLoss",
              "type": "uint256"
            },
            {
              "internalType": "enum BuyLegType",
              "name": "_buyType",
              "type": "uint8"
            },
            {
              "internalType": "uint256",
              "name": "_buyValue",
              "type": "uint256"
            },
            {
              "internalType": "uint256",
              "name": "_buyTwapTime",
              "type": "uint256"
            },
            {
              "internalType": "enum TimeUnit",
              "name": "_buyTwapTimeUnit",
              "type": "uint8"
            },
            {
              "internalType": "uint256",
              "name": "_btdValue",
              "type": "uint256"
            },
            {
              "internalType": "enum DIP_SPIKE",
              "name": "_btdType",
              "type": "uint8"
            },
            {
              "internalType": "enum DCA_UNIT",
              "name": "_buyDCAUnit",
              "type": "uint8"
            },
            {
              "internalType": "uint256",
              "name": "_buyDCAValue",
              "type": "uint256"
            },
            {
              "internalType": "enum SellLegType",
              "name": "_sellType",
              "type": "uint8"
            },
            {
              "internalType": "uint256",
              "name": "_sellValue",
              "type": "uint256"
            },
            {
              "internalType": "uint256",
              "name": "_highSellValue",
              "type": "uint256"
            },
            {
              "internalType": "uint256",
              "name": "_minimumProfit",
              "type": "uint256"
            },
            {
              "internalType": "uint256",
              "name": "_strValue",
              "type": "uint256"
            },
            {
              "internalType": "enum DIP_SPIKE",
              "name": "_strType",
              "type": "uint8"
            },
            {
              "internalType": "enum DCA_UNIT",
              "name": "_sellDCAUnit",
              "type": "uint8"
            },
            {
              "internalType": "uint256",
              "name": "_sellDCAValue",
              "type": "uint256"
            },
            {
              "internalType": "uint256",
              "name": "_sellTwapTime",
              "type": "uint256"
            },
            {
              "internalType": "enum TimeUnit",
              "name": "_sellTwapTimeUnit",
              "type": "uint8"
            },
            {
              "internalType": "bool",
              "name": "_completeOnSell",
              "type": "bool"
            },
            {
              "internalType": "bool",
              "name": "_current_price_sell",
              "type": "bool"
            },
            {
              "internalType": "bool",
              "name": "_current_price_buy",
              "type": "bool"
            }
          ],
          "indexed": false,
          "internalType": "struct StrategyParametersInput",
          "name": "updateStruct",
          "type": "tuple"
        }
      ],
      "name": "StrategyUpdated",
      "type": "event"
    },
    {
      "inputs": [
        {
          "internalType": "uint256",
          "name": "id",
          "type": "uint256"
        }
      ],
      "name": "cancelStrategy",
      "outputs": [],
      "stateMutability": "nonpayable",
      "type": "function"
    },
    {
      "inputs": [
        {
          "internalType": "uint256",
          "name": "id",
          "type": "uint256"
        },
        {
          "internalType": "uint256",
          "name": "nonce",
          "type": "uint256"
        },
        {
          "internalType": "bytes",
          "name": "signature",
          "type": "bytes"
        },
        {
          "internalType": "address",
          "name": "account",
          "type": "address"
        }
      ],
      "name": "cancelStrategyOnBehalf",
      "outputs": [],
      "stateMutability": "nonpayable",
      "type": "function"
    },
    {
      "inputs": [
        {
          "components": [
            {
              "internalType": "address",
              "name": "_investToken",
              "type": "address"
            },
            {
              "internalType": "uint256",
              "name": "_investAmount",
              "type": "uint256"
            },
            {
              "internalType": "address",
              "name": "_stableToken",
              "type": "address"
            },
            {
              "internalType": "uint256",
              "name": "_stableAmount",
              "type": "uint256"
            },
            {
              "internalType": "uint256",
              "name": "_impact",
              "type": "uint256"
            },
            {
              "internalType": "enum FloorLegType",
              "name": "_floorType",
              "type": "uint8"
            },
            {
              "internalType": "uint256",
              "name": "_floorValue",
              "type": "uint256"
            },
            {
              "internalType": "bool",
              "name": "_liquidateOnFloor",
              "type": "bool"
            },
            {
              "internalType": "bool",
              "name": "_cancelOnFloor",
              "type": "bool"
            },
            {
              "internalType": "uint256",
              "name": "_minimumLoss",
              "type": "uint256"
            },
            {
              "internalType": "enum BuyLegType",
              "name": "_buyType",
              "type": "uint8"
            },
            {
              "internalType": "uint256",
              "name": "_buyValue",
              "type": "uint256"
            },
            {
              "internalType": "uint256",
              "name": "_buyTwapTime",
              "type": "uint256"
            },
            {
              "internalType": "enum TimeUnit",
              "name": "_buyTwapTimeUnit",
              "type": "uint8"
            },
            {
              "internalType": "uint256",
              "name": "_btdValue",
              "type": "uint256"
            },
            {
              "internalType": "enum DIP_SPIKE",
              "name": "_btdType",
              "type": "uint8"
            },
            {
              "internalType": "enum DCA_UNIT",
              "name": "_buyDCAUnit",
              "type": "uint8"
            },
            {
              "internalType": "uint256",
              "name": "_buyDCAValue",
              "type": "uint256"
            },
            {
              "internalType": "enum SellLegType",
              "name": "_sellType",
              "type": "uint8"
            },
            {
              "internalType": "uint256",
              "name": "_sellValue",
              "type": "uint256"
            },
            {
              "internalType": "uint256",
              "name": "_highSellValue",
              "type": "uint256"
            },
            {
              "internalType": "uint256",
              "name": "_minimumProfit",
              "type": "uint256"
            },
            {
              "internalType": "uint256",
              "name": "_strValue",
              "type": "uint256"
            },
            {
              "internalType": "enum DIP_SPIKE",
              "name": "_strType",
              "type": "uint8"
            },
            {
              "internalType": "enum DCA_UNIT",
              "name": "_sellDCAUnit",
              "type": "uint8"
            },
            {
              "internalType": "uint256",
              "name": "_sellDCAValue",
              "type": "uint256"
            },
            {
              "internalType": "uint256",
              "name": "_sellTwapTime",
              "type": "uint256"
            },
            {
              "internalType": "enum TimeUnit",
              "name": "_sellTwapTimeUnit",
              "type": "uint8"
            },
            {
              "internalType": "bool",
              "name": "_completeOnSell",
              "type": "bool"
            },
            {
              "internalType": "bool",
              "name": "_current_price_sell",
              "type": "bool"
            },
            {
              "internalType": "bool",
              "name": "_current_price_buy",
              "type": "bool"
            }
          ],
          "internalType": "struct StrategyParametersInput",
          "name": "_parameter",
          "type": "tuple"
        }
      ],
      "name": "createStrategy",
      "outputs": [],
      "stateMutability": "nonpayable",
      "type": "function"
    },
    {
      "inputs": [
        {
          "components": [
            {
              "internalType": "address",
              "name": "token",
              "type": "address"
            },
            {
              "internalType": "address",
              "name": "owner",
              "type": "address"
            },
            {
              "internalType": "address",
              "name": "spender",
              "type": "address"
            },
            {
              "internalType": "uint256",
              "name": "value",
              "type": "uint256"
            },
            {
              "internalType": "uint256",
              "name": "deadline",
              "type": "uint256"
            },
            {
              "internalType": "uint8",
              "name": "v",
              "type": "uint8"
            },
            {
              "internalType": "bytes32",
              "name": "r",
              "type": "bytes32"
            },
            {
              "internalType": "bytes32",
              "name": "s",
              "type": "bytes32"
            }
          ],
          "internalType": "struct StrategyFacet.Permit[]",
          "name": "permits",
          "type": "tuple[]"
        },
        {
          "components": [
            {
              "internalType": "address",
              "name": "_investToken",
              "type": "address"
            },
            {
              "internalType": "uint256",
              "name": "_investAmount",
              "type": "uint256"
            },
            {
              "internalType": "address",
              "name": "_stableToken",
              "type": "address"
            },
            {
              "internalType": "uint256",
              "name": "_stableAmount",
              "type": "uint256"
            },
            {
              "internalType": "uint256",
              "name": "_impact",
              "type": "uint256"
            },
            {
              "internalType": "enum FloorLegType",
              "name": "_floorType",
              "type": "uint8"
            },
            {
              "internalType": "uint256",
              "name": "_floorValue",
              "type": "uint256"
            },
            {
              "internalType": "bool",
              "name": "_liquidateOnFloor",
              "type": "bool"
            },
            {
              "internalType": "bool",
              "name": "_cancelOnFloor",
              "type": "bool"
            },
            {
              "internalType": "uint256",
              "name": "_minimumLoss",
              "type": "uint256"
            },
            {
              "internalType": "enum BuyLegType",
              "name": "_buyType",
              "type": "uint8"
            },
            {
              "internalType": "uint256",
              "name": "_buyValue",
              "type": "uint256"
            },
            {
              "internalType": "uint256",
              "name": "_buyTwapTime",
              "type": "uint256"
            },
            {
              "internalType": "enum TimeUnit",
              "name": "_buyTwapTimeUnit",
              "type": "uint8"
            },
            {
              "internalType": "uint256",
              "name": "_btdValue",
              "type": "uint256"
            },
            {
              "internalType": "enum DIP_SPIKE",
              "name": "_btdType",
              "type": "uint8"
            },
            {
              "internalType": "enum DCA_UNIT",
              "name": "_buyDCAUnit",
              "type": "uint8"
            },
            {
              "internalType": "uint256",
              "name": "_buyDCAValue",
              "type": "uint256"
            },
            {
              "internalType": "enum SellLegType",
              "name": "_sellType",
              "type": "uint8"
            },
            {
              "internalType": "uint256",
              "name": "_sellValue",
              "type": "uint256"
            },
            {
              "internalType": "uint256",
              "name": "_highSellValue",
              "type": "uint256"
            },
            {
              "internalType": "uint256",
              "name": "_minimumProfit",
              "type": "uint256"
            },
            {
              "internalType": "uint256",
              "name": "_strValue",
              "type": "uint256"
            },
            {
              "internalType": "enum DIP_SPIKE",
              "name": "_strType",
              "type": "uint8"
            },
            {
              "internalType": "enum DCA_UNIT",
              "name": "_sellDCAUnit",
              "type": "uint8"
            },
            {
              "internalType": "uint256",
              "name": "_sellDCAValue",
              "type": "uint256"
            },
            {
              "internalType": "uint256",
              "name": "_sellTwapTime",
              "type": "uint256"
            },
            {
              "internalType": "enum TimeUnit",
              "name": "_sellTwapTimeUnit",
              "type": "uint8"
            },
            {
              "internalType": "bool",
              "name": "_completeOnSell",
              "type": "bool"
            },
            {
              "internalType": "bool",
              "name": "_current_price_sell",
              "type": "bool"
            },
            {
              "internalType": "bool",
              "name": "_current_price_buy",
              "type": "bool"
            }
          ],
          "internalType": "struct StrategyParametersInput",
          "name": "_parameter",
          "type": "tuple"
        },
        {
          "internalType": "address",
          "name": "account",
          "type": "address"
        },
        {
          "internalType": "uint256",
          "name": "nonce",
          "type": "uint256"
        },
        {
          "internalType": "bytes",
          "name": "signature",
          "type": "bytes"
        }
      ],
      "name": "createStrategyOnBehalf",
      "outputs": [],
      "stateMutability": "nonpayable",
      "type": "function"
    },
    {
      "inputs": [
        {
          "internalType": "uint256",
          "name": "id",
          "type": "uint256"
        },
        {
          "internalType": "uint256",
          "name": "nonce",
          "type": "uint256"
        },
        {
          "internalType": "address",
          "name": "account",
          "type": "address"
        }
      ],
      "name": "getMessageHashToCancel",
      "outputs": [
        {
          "internalType": "bytes32",
          "name": "",
          "type": "bytes32"
        }
      ],
      "stateMutability": "view",
      "type": "function"
    },
    {
      "inputs": [
        {
          "components": [
            {
              "internalType": "address",
              "name": "_investToken",
              "type": "address"
            },
            {
              "internalType": "uint256",
              "name": "_investAmount",
              "type": "uint256"
            },
            {
              "internalType": "address",
              "name": "_stableToken",
              "type": "address"
            },
            {
              "internalType": "uint256",
              "name": "_stableAmount",
              "type": "uint256"
            },
            {
              "internalType": "uint256",
              "name": "_impact",
              "type": "uint256"
            },
            {
              "internalType": "enum FloorLegType",
              "name": "_floorType",
              "type": "uint8"
            },
            {
              "internalType": "uint256",
              "name": "_floorValue",
              "type": "uint256"
            },
            {
              "internalType": "bool",
              "name": "_liquidateOnFloor",
              "type": "bool"
            },
            {
              "internalType": "bool",
              "name": "_cancelOnFloor",
              "type": "bool"
            },
            {
              "internalType": "uint256",
              "name": "_minimumLoss",
              "type": "uint256"
            },
            {
              "internalType": "enum BuyLegType",
              "name": "_buyType",
              "type": "uint8"
            },
            {
              "internalType": "uint256",
              "name": "_buyValue",
              "type": "uint256"
            },
            {
              "internalType": "uint256",
              "name": "_buyTwapTime",
              "type": "uint256"
            },
            {
              "internalType": "enum TimeUnit",
              "name": "_buyTwapTimeUnit",
              "type": "uint8"
            },
            {
              "internalType": "uint256",
              "name": "_btdValue",
              "type": "uint256"
            },
            {
              "internalType": "enum DIP_SPIKE",
              "name": "_btdType",
              "type": "uint8"
            },
            {
              "internalType": "enum DCA_UNIT",
              "name": "_buyDCAUnit",
              "type": "uint8"
            },
            {
              "internalType": "uint256",
              "name": "_buyDCAValue",
              "type": "uint256"
            },
            {
              "internalType": "enum SellLegType",
              "name": "_sellType",
              "type": "uint8"
            },
            {
              "internalType": "uint256",
              "name": "_sellValue",
              "type": "uint256"
            },
            {
              "internalType": "uint256",
              "name": "_highSellValue",
              "type": "uint256"
            },
            {
              "internalType": "uint256",
              "name": "_minimumProfit",
              "type": "uint256"
            },
            {
              "internalType": "uint256",
              "name": "_strValue",
              "type": "uint256"
            },
            {
              "internalType": "enum DIP_SPIKE",
              "name": "_strType",
              "type": "uint8"
            },
            {
              "internalType": "enum DCA_UNIT",
              "name": "_sellDCAUnit",
              "type": "uint8"
            },
            {
              "internalType": "uint256",
              "name": "_sellDCAValue",
              "type": "uint256"
            },
            {
              "internalType": "uint256",
              "name": "_sellTwapTime",
              "type": "uint256"
            },
            {
              "internalType": "enum TimeUnit",
              "name": "_sellTwapTimeUnit",
              "type": "uint8"
            },
            {
              "internalType": "bool",
              "name": "_completeOnSell",
              "type": "bool"
            },
            {
              "internalType": "bool",
              "name": "_current_price_sell",
              "type": "bool"
            },
            {
              "internalType": "bool",
              "name": "_current_price_buy",
              "type": "bool"
            }
          ],
          "internalType": "struct StrategyParametersInput",
          "name": "_parameter",
          "type": "tuple"
        },
        {
          "internalType": "uint256",
          "name": "nonce",
          "type": "uint256"
        },
        {
          "internalType": "address",
          "name": "account",
          "type": "address"
        }
      ],
      "name": "getMessageHashToCreate",
      "outputs": [
        {
          "internalType": "bytes32",
          "name": "",
          "type": "bytes32"
        }
      ],
      "stateMutability": "view",
      "type": "function"
    },
    {
      "inputs": [
        {
          "internalType": "uint256",
          "name": "id",
          "type": "uint256"
        },
        {
          "components": [
            {
              "internalType": "uint256",
              "name": "sellValue",
              "type": "uint256"
            },
            {
              "internalType": "uint256",
              "name": "buyValue",
              "type": "uint256"
            },
            {
              "internalType": "uint256",
              "name": "strValue",
              "type": "uint256"
            },
            {
              "internalType": "uint256",
              "name": "btdValue",
              "type": "uint256"
            },
            {
              "internalType": "uint256",
              "name": "floorValue",
              "type": "uint256"
            },
            {
              "internalType": "uint256",
              "name": "highSellValue",
              "type": "uint256"
            },
            {
              "internalType": "uint256",
              "name": "buyTwapTime",
              "type": "uint256"
            },
            {
              "internalType": "enum TimeUnit",
              "name": "buyTwapTimeUnit",
              "type": "uint8"
            },
            {
              "internalType": "uint256",
              "name": "buyDCAValue",
              "type": "uint256"
            },
            {
              "internalType": "uint256",
              "name": "sellDCAValue",
              "type": "uint256"
            },
            {
              "internalType": "uint256",
              "name": "sellTwapTime",
              "type": "uint256"
            },
            {
              "internalType": "enum TimeUnit",
              "name": "sellTwapTimeUnit",
              "type": "uint8"
            },
            {
              "internalType": "bool",
              "name": "toggleCompleteOnSell",
              "type": "bool"
            },
            {
              "internalType": "bool",
              "name": "toggleLiquidateOnFloor",
              "type": "bool"
            },
            {
              "internalType": "bool",
              "name": "toggleCancelOnFloor",
              "type": "bool"
            },
            {
              "internalType": "uint256",
              "name": "impact",
              "type": "uint256"
            },
            {
              "internalType": "bool",
              "name": "current_price_sell",
              "type": "bool"
            },
            {
              "internalType": "bool",
              "name": "current_price_buy",
              "type": "bool"
            },
            {
              "internalType": "uint256",
              "name": "minimumLoss",
              "type": "uint256"
            },
            {
              "internalType": "uint256",
              "name": "minimumProfit",
              "type": "uint256"
            }
          ],
          "internalType": "struct UpdateStruct",
          "name": "updateStruct",
          "type": "tuple"
        },
        {
          "internalType": "uint256",
          "name": "nonce",
          "type": "uint256"
        },
        {
          "internalType": "address",
          "name": "account",
          "type": "address"
        }
      ],
      "name": "getMessageHashToUpdate",
      "outputs": [
        {
          "internalType": "bytes32",
          "name": "",
          "type": "bytes32"
        }
      ],
      "stateMutability": "view",
      "type": "function"
    },
    {
      "inputs": [
        {
          "internalType": "uint256",
          "name": "id",
          "type": "uint256"
        }
      ],
      "name": "getStrategy",
      "outputs": [
        {
          "components": [
            {
              "internalType": "address",
              "name": "user",
              "type": "address"
            },
            {
              "components": [
                {
                  "internalType": "address",
                  "name": "_investToken",
                  "type": "address"
                },
                {
                  "internalType": "uint256",
                  "name": "_investAmount",
                  "type": "uint256"
                },
                {
                  "internalType": "address",
                  "name": "_stableToken",
                  "type": "address"
                },
                {
                  "internalType": "uint256",
                  "name": "_stableAmount",
                  "type": "uint256"
                },
                {
                  "internalType": "uint256",
                  "name": "_impact",
                  "type": "uint256"
                },
                {
                  "internalType": "enum FloorLegType",
                  "name": "_floorType",
                  "type": "uint8"
                },
                {
                  "internalType": "uint256",
                  "name": "_floorValue",
                  "type": "uint256"
                },
                {
                  "internalType": "bool",
                  "name": "_liquidateOnFloor",
                  "type": "bool"
                },
                {
                  "internalType": "bool",
                  "name": "_cancelOnFloor",
                  "type": "bool"
                },
                {
                  "internalType": "uint256",
                  "name": "_minimumLoss",
                  "type": "uint256"
                },
                {
                  "internalType": "enum BuyLegType",
                  "name": "_buyType",
                  "type": "uint8"
                },
                {
                  "internalType": "uint256",
                  "name": "_buyValue",
                  "type": "uint256"
                },
                {
                  "internalType": "uint256",
                  "name": "_buyTwapTime",
                  "type": "uint256"
                },
                {
                  "internalType": "enum TimeUnit",
                  "name": "_buyTwapTimeUnit",
                  "type": "uint8"
                },
                {
                  "internalType": "uint256",
                  "name": "_btdValue",
                  "type": "uint256"
                },
                {
                  "internalType": "enum DIP_SPIKE",
                  "name": "_btdType",
                  "type": "uint8"
                },
                {
                  "internalType": "enum DCA_UNIT",
                  "name": "_buyDCAUnit",
                  "type": "uint8"
                },
                {
                  "internalType": "uint256",
                  "name": "_buyDCAValue",
                  "type": "uint256"
                },
                {
                  "internalType": "enum SellLegType",
                  "name": "_sellType",
                  "type": "uint8"
                },
                {
                  "internalType": "uint256",
                  "name": "_sellValue",
                  "type": "uint256"
                },
                {
                  "internalType": "uint256",
                  "name": "_highSellValue",
                  "type": "uint256"
                },
                {
                  "internalType": "uint256",
                  "name": "_minimumProfit",
                  "type": "uint256"
                },
                {
                  "internalType": "uint256",
                  "name": "_strValue",
                  "type": "uint256"
                },
                {
                  "internalType": "enum DIP_SPIKE",
                  "name": "_strType",
                  "type": "uint8"
                },
                {
                  "internalType": "enum DCA_UNIT",
                  "name": "_sellDCAUnit",
                  "type": "uint8"
                },
                {
                  "internalType": "uint256",
                  "name": "_sellDCAValue",
                  "type": "uint256"
                },
                {
                  "internalType": "uint256",
                  "name": "_sellTwapTime",
                  "type": "uint256"
                },
                {
                  "internalType": "enum TimeUnit",
                  "name": "_sellTwapTimeUnit",
                  "type": "uint8"
                },
                {
                  "internalType": "bool",
                  "name": "_completeOnSell",
                  "type": "bool"
                },
                {
                  "internalType": "bool",
                  "name": "_current_price_sell",
                  "type": "bool"
                },
                {
                  "internalType": "bool",
                  "name": "_current_price_buy",
                  "type": "bool"
                },
                {
                  "internalType": "uint256[50]",
                  "name": "__gap",
                  "type": "uint256[50]"
                }
              ],
              "internalType": "struct StrategyParameters",
              "name": "parameters",
              "type": "tuple"
            },
            {
              "internalType": "uint256",
              "name": "sellPercentageAmount",
              "type": "uint256"
            },
            {
              "internalType": "uint256",
              "name": "buyPercentageAmount",
              "type": "uint256"
            },
            {
              "internalType": "uint256",
              "name": "sellPercentageTotalAmount",
              "type": "uint256"
            },
            {
              "internalType": "uint256",
              "name": "buyPercentageTotalAmount",
              "type": "uint256"
            },
            {
              "internalType": "uint256",
              "name": "sellTwapExecutedAt",
              "type": "uint256"
            },
            {
              "internalType": "uint256",
              "name": "buyTwapExecutedAt",
              "type": "uint256"
            },
            {
              "internalType": "uint80",
              "name": "investRoundIdForBTD",
              "type": "uint80"
            },
            {
              "internalType": "uint80",
              "name": "stableRoundIdForBTD",
              "type": "uint80"
            },
            {
              "internalType": "uint80",
              "name": "investRoundIdForSTR",
              "type": "uint80"
            },
            {
              "internalType": "uint80",
              "name": "stableRoundIdForSTR",
              "type": "uint80"
            },
            {
              "internalType": "uint256",
              "name": "investPrice",
              "type": "uint256"
            },
            {
              "internalType": "uint256",
              "name": "profit",
              "type": "uint256"
            },
            {
              "internalType": "uint256",
              "name": "budget",
              "type": "uint256"
            },
            {
              "internalType": "enum Status",
              "name": "status",
              "type": "uint8"
            },
            {
              "internalType": "uint256[50]",
              "name": "__gap",
              "type": "uint256[50]"
            }
          ],
          "internalType": "struct Strategy",
          "name": "",
          "type": "tuple"
        }
      ],
      "stateMutability": "view",
      "type": "function"
    },
    {
      "inputs": [],
      "name": "nextStrategyId",
      "outputs": [
        {
          "internalType": "uint256",
          "name": "",
          "type": "uint256"
        }
      ],
      "stateMutability": "view",
      "type": "function"
    },
    {
      "inputs": [
        {
          "internalType": "uint256",
          "name": "strategyId",
          "type": "uint256"
        },
        {
          "components": [
            {
              "internalType": "uint256",
              "name": "sellValue",
              "type": "uint256"
            },
            {
              "internalType": "uint256",
              "name": "buyValue",
              "type": "uint256"
            },
            {
              "internalType": "uint256",
              "name": "strValue",
              "type": "uint256"
            },
            {
              "internalType": "uint256",
              "name": "btdValue",
              "type": "uint256"
            },
            {
              "internalType": "uint256",
              "name": "floorValue",
              "type": "uint256"
            },
            {
              "internalType": "uint256",
              "name": "highSellValue",
              "type": "uint256"
            },
            {
              "internalType": "uint256",
              "name": "buyTwapTime",
              "type": "uint256"
            },
            {
              "internalType": "enum TimeUnit",
              "name": "buyTwapTimeUnit",
              "type": "uint8"
            },
            {
              "internalType": "uint256",
              "name": "buyDCAValue",
              "type": "uint256"
            },
            {
              "internalType": "uint256",
              "name": "sellDCAValue",
              "type": "uint256"
            },
            {
              "internalType": "uint256",
              "name": "sellTwapTime",
              "type": "uint256"
            },
            {
              "internalType": "enum TimeUnit",
              "name": "sellTwapTimeUnit",
              "type": "uint8"
            },
            {
              "internalType": "bool",
              "name": "toggleCompleteOnSell",
              "type": "bool"
            },
            {
              "internalType": "bool",
              "name": "toggleLiquidateOnFloor",
              "type": "bool"
            },
            {
              "internalType": "bool",
              "name": "toggleCancelOnFloor",
              "type": "bool"
            },
            {
              "internalType": "uint256",
              "name": "impact",
              "type": "uint256"
            },
            {
              "internalType": "bool",
              "name": "current_price_sell",
              "type": "bool"
            },
            {
              "internalType": "bool",
              "name": "current_price_buy",
              "type": "bool"
            },
            {
              "internalType": "uint256",
              "name": "minimumLoss",
              "type": "uint256"
            },
            {
              "internalType": "uint256",
              "name": "minimumProfit",
              "type": "uint256"
            }
          ],
          "internalType": "struct UpdateStruct",
          "name": "updateStruct",
          "type": "tuple"
        }
      ],
      "name": "updateStrategy",
      "outputs": [],
      "stateMutability": "nonpayable",
      "type": "function"
    },
    {
      "inputs": [
        {
          "internalType": "uint256",
          "name": "strategyId",
          "type": "uint256"
        },
        {
          "components": [
            {
              "internalType": "uint256",
              "name": "sellValue",
              "type": "uint256"
            },
            {
              "internalType": "uint256",
              "name": "buyValue",
              "type": "uint256"
            },
            {
              "internalType": "uint256",
              "name": "strValue",
              "type": "uint256"
            },
            {
              "internalType": "uint256",
              "name": "btdValue",
              "type": "uint256"
            },
            {
              "internalType": "uint256",
              "name": "floorValue",
              "type": "uint256"
            },
            {
              "internalType": "uint256",
              "name": "highSellValue",
              "type": "uint256"
            },
            {
              "internalType": "uint256",
              "name": "buyTwapTime",
              "type": "uint256"
            },
            {
              "internalType": "enum TimeUnit",
              "name": "buyTwapTimeUnit",
              "type": "uint8"
            },
            {
              "internalType": "uint256",
              "name": "buyDCAValue",
              "type": "uint256"
            },
            {
              "internalType": "uint256",
              "name": "sellDCAValue",
              "type": "uint256"
            },
            {
              "internalType": "uint256",
              "name": "sellTwapTime",
              "type": "uint256"
            },
            {
              "internalType": "enum TimeUnit",
              "name": "sellTwapTimeUnit",
              "type": "uint8"
            },
            {
              "internalType": "bool",
              "name": "toggleCompleteOnSell",
              "type": "bool"
            },
            {
              "internalType": "bool",
              "name": "toggleLiquidateOnFloor",
              "type": "bool"
            },
            {
              "internalType": "bool",
              "name": "toggleCancelOnFloor",
              "type": "bool"
            },
            {
              "internalType": "uint256",
              "name": "impact",
              "type": "uint256"
            },
            {
              "internalType": "bool",
              "name": "current_price_sell",
              "type": "bool"
            },
            {
              "internalType": "bool",
              "name": "current_price_buy",
              "type": "bool"
            },
            {
              "internalType": "uint256",
              "name": "minimumLoss",
              "type": "uint256"
            },
            {
              "internalType": "uint256",
              "name": "minimumProfit",
              "type": "uint256"
            }
          ],
          "internalType": "struct UpdateStruct",
          "name": "updateStruct",
          "type": "tuple"
        },
        {
          "internalType": "address",
          "name": "account",
          "type": "address"
        },
        {
          "internalType": "uint256",
          "name": "nonce",
          "type": "uint256"
        },
        {
          "internalType": "bytes",
          "name": "signature",
          "type": "bytes"
        }
      ],
      "name": "updateStrategyOnBehalf",
      "outputs": [],
      "stateMutability": "nonpayable",
      "type": "function"
    }
  ],
  "transactionHash": "0x71ff432469e0c307d4cc67daf733d647a0bc2ec0f3282a92b79bf450f5ea8aa3",
  "args": [],
  "numDeployments": 1,
  "solcInputHash": "46d6c79dc9bf7401972a02a52f0a0e28",
  "bytecode": "0x608060405234801561001057600080fd5b50615478806100206000396000f3fe608060405234801561001057600080fd5b50600436106100a95760003560e01c806366d372df1161007157806366d372df146101135780638dce189714610126578063cfc0cc3414610139578063e502f6c714610159578063e819da351461016c578063ffc24bf51461017f57600080fd5b8063185f8447146100ae578063223bec6b146100c557806330c9943d146100da57806351becab2146100ed578063600949f514610100575b600080fd5b6005545b6040519081526020015b60405180910390f35b6100d86100d33660046146b7565b610192565b005b6100d86100e83660046146ed565b6101af565b6100d86100fb36600461478b565b6101ce565b6100d861010e3660046147fb565b6102b5565b6100b261012136600461497a565b61054b565b6100d86101343660046149af565b610597565b61014c610147366004614a19565b61066f565b6040516100bc9190614c7e565b6100b2610167366004614d79565b610ad6565b6100b261017a366004614db0565b610aef565b6100d861018d366004614a19565b610b2a565b61019a610b3c565b6101a48133610b90565b6101ac612497565b50565b6101b7610b3c565b6101c23383836124ac565b6101ca612497565b5050565b6101d6610b3c565b6001600160a01b038116600090815260086020526040902054831461020e57604051633ab3447f60e11b815260040160405180910390fd5b600061021b85858461054b565b9050600061022882613b49565b905060006102368286613b9c565b6001600160a01b03851660009081526008602052604090205490915061025d906001614e05565b6001600160a01b0380861660008181526008602052604090209290925582161461029a57604051632057875960e21b815260040160405180910390fd5b6102a48488613c1c565b5050506102af612497565b50505050565b6102bd610b3c565b60005b855181101561046a578581815181106102db576102db614e18565b6020026020010151600001516001600160a01b031663d505accf87838151811061030757610307614e18565b60200260200101516020015188848151811061032557610325614e18565b60200260200101516040015189858151811061034357610343614e18565b6020026020010151606001518a868151811061036157610361614e18565b6020026020010151608001518b878151811061037f5761037f614e18565b602002602001015160a001518c888151811061039d5761039d614e18565b602002602001015160c001518d89815181106103bb576103bb614e18565b602002602001015160e001516040518863ffffffff1660e01b815260040161042597969594939291906001600160a01b0397881681529590961660208601526040850193909352606084019190915260ff16608083015260a082015260c081019190915260e00190565b600060405180830381600087803b15801561043f57600080fd5b505af1158015610453573d6000803e3d6000fd5b50505050808061046290614e2e565b9150506102c0565b506001600160a01b03831660009081526008602052604090205482146104a357604051633ab3447f60e11b815260040160405180910390fd5b60006104b0858486610ad6565b905060006104bd82613b49565b905060006104cb8285613b9c565b6001600160a01b0387166000908152600860205260409020549091506104f2906001614e05565b6001600160a01b0380881660008181526008602052604090209290925582161461052f57604051632057875960e21b815260040160405180910390fd5b6105398787610b90565b505050610544612497565b5050505050565b604080516001600160a01b03831660208201529081018390526060810184905246608082015260009060a0015b6040516020818303038152906040528051906020012090509392505050565b61059f610b3c565b6001600160a01b03831660009081526008602052604090205482146105d757604051633ab3447f60e11b815260040160405180910390fd5b60006105e586868587610aef565b905060006105f282613b49565b905060006106008285613b9c565b6001600160a01b038716600090815260086020526040902054909150610627906001614e05565b6001600160a01b0380881660008181526008602052604090209290925582161461066457604051632057875960e21b815260040160405180910390fd5b6105398189896124ac565b6106776141e4565b60008281526006602081815260409283902083516102208101855281546001600160a01b03908116825285516104008101875260018401805483168252600280860154838801526003860154909316978201979097526004840154606082015260058401546080820152948301549195929493860193929160a084019160ff9091169081111561070957610709614a32565b600281111561071a5761071a614a32565b815260068201546020820152600782015460ff8082161515604084015261010090910481161515606083015260088301546080830152600983015460a09092019116600181111561076d5761076d614a32565b600181111561077e5761077e614a32565b8152600a8201546020820152600b8201546040820152600c82015460609091019060ff1660028111156107b3576107b3614a32565b60028111156107c4576107c4614a32565b8152600d8201546020820152600e82015460409091019060ff1660048111156107ef576107ef614a32565b600481111561080057610800614a32565b8152602001600e820160019054906101000a900460ff16600281111561082857610828614a32565b600281111561083957610839614a32565b8152600f8201546020820152601082015460409091019060ff16600281111561086457610864614a32565b600281111561087557610875614a32565b815260118201546020820152601282015460408201526013820154606082015260148201546080820152601582015460a09091019060ff1660048111156108be576108be614a32565b60048111156108cf576108cf614a32565b81526020016015820160019054906101000a900460ff1660028111156108f7576108f7614a32565b600281111561090857610908614a32565b81526016820154602082015260178201546040820152601882015460609091019060ff16600281111561093d5761093d614a32565b600281111561094e5761094e614a32565b8152601882015460ff61010082048116151560208401526201000082048116151560408085019190915263010000009092041615156060830152805161064081019182905260809092019190601984019060329082845b8154815260200190600101908083116109a557505050919092525050508152604c8201546020820152604d8201546040820152604e8201546060820152604f8201546080820152605082015460a0820152605182015460c082015260528201546001600160501b0380821660e0840152600160501b82048116610100840152600160a01b90910481166101208301526053830154166101408201526054820154610160820152605582015461018082015260568201546101a082015260578201546101c09091019060ff166002811115610a8157610a81614a32565b6002811115610a9257610a92614a32565b81526040805161064081019182905260209092019190605884019060329082845b815481526020019060010190808311610ab3575050505050815250509050919050565b6000818385466040516020016105789493929190615019565b60008183868646604051602001610b0a95949392919061504e565b604051602081830303815290604052805190602001209050949350505050565b610b32610b3c565b6101a43382613c1c565b60006001600982015460ff166001811115610b5957610b59614a32565b03610b7757604051633ee5aeb560e01b815260040160405180910390fd5b6009810180546001919060ff191682805b021790555050565b81516001600160a01b0316610bb857604051634700286b60e01b815260040160405180910390fd5b60408201516001600160a01b0316610be3576040516312848d8760e11b815260040160405180910390fd5b81604001516001600160a01b031682600001516001600160a01b031603610c1d5760405163a755ce0160e01b815260040160405180910390fd5b6000806000610c3485600001518660400151613d1c565b925092509250846103c0015115156001151503610c81576001610140860152608085015161271090610c6690856151da565b610c7091906151f1565b610c7a9084614e05565b6101608601525b6103a08501511515600103610cc6576001610240860152608085015161271090610cab90856151da565b610cb591906151f1565b610cbf9084615213565b6102608601525b6103c085015115156001148015610ce457506103a085015115156001145b15610d2857602085015115610d10576001856102600151610d059190615213565b610160860152610d28565b610160850151610d21906001614e05565b6102608601525b60c0850151158015610d3d5750610260850151155b8015610d4c5750610160850151155b15610d6a57604051631faf5bf560e01b815260040160405180910390fd5b6000856101600151118015610d8457506000856101800151115b8015610d9557506000856101c00151115b15610db357604051636aadef8760e01b815260040160405180910390fd5b60008561018001511180610dcc57506000856101c00151115b8015610ddb5750610160850151155b15610df95760405163c14db2a960e01b815260040160405180910390fd5b6000856101800151118015610e2457506000856101a001516002811115610e2257610e22614a32565b145b15610e42576040516312100f4f60e11b815260040160405180910390fd5b6000856103400151118015610e5c57506000856102c00151115b15610e7a576040516302960e3f60e41b815260040160405180910390fd5b60008561034001511180610e9357506000856102c00151115b8015610ea25750610260850151155b15610ebf5760405162b4fc9f60e61b815260040160405180910390fd5b6000856103400151118015610eea575060008561036001516002811115610ee857610ee8614a32565b145b15610f08576040516340d3c82560e01b815260040160405180910390fd5b60008561034001511180610f2157506000856102c00151115b8015610f43575060008561030001516002811115610f4157610f41614a32565b145b15610f6157604051633229152160e11b815260040160405180910390fd5b60008561030001516002811115610f7a57610f7a614a32565b14158015610f8b5750610320850151155b15610fa957604051635b06ca5560e11b815260040160405180910390fd5b6000856102c00151118015610fd457506000856102e001516004811115610fd257610fd2614a32565b145b15610ff257604051632808ffb560e01b815260040160405180910390fd5b6000856102c0015111801561101d57506001856102e00151600481111561101b5761101b614a32565b145b801561102f5750612710856102c00151115b1561104d57604051635030d31360e11b815260040160405180910390fd5b6000856101c0015111801561107857506000856101e00151600481111561107657611076614a32565b145b156110965760405163788eae0d60e11b815260040160405180910390fd5b6000856101c001511180156110c157506001856101e0015160048111156110bf576110bf614a32565b145b80156110d35750612710856101c00151115b156110f15760405163a9824fd360e01b815260040160405180910390fd5b6000856101c00151118061110a57506000856101800151115b801561112c57506000856102000151600281111561112a5761112a614a32565b145b1561114a57604051630f8edcbd60e01b815260040160405180910390fd5b6000856102000151600281111561116357611163614a32565b141580156111745750610220850151155b156111915760405162e6267960e61b815260040160405180910390fd5b60008561016001511180156111bc5750600085610140015160018111156111ba576111ba614a32565b145b156111da5760405163772cbc6d60e01b815260040160405180910390fd5b60008560c00151118015611203575060008560a00151600281111561120157611201614a32565b145b1561122157604051638a46642d60e01b815260040160405180910390fd5b61028085015115611262576000856102c00151118061124557506000856103400151115b61126257604051638dd5089b60e01b815260040160405180910390fd5b6000856102600151118061127b57506000856102c00151115b8061128b57506000856103400151115b1561132857600085610240015160028111156112a9576112a9614a32565b036112c7576040516317d70c1360e11b815260040160405180910390fd5b8461026001516000036112ed576040516310c1c29560e21b815260040160405180910390fd5b6102808501511580159061130a5750846102800151856102600151115b156113285760405163473f955b60e11b815260040160405180910390fd5b6000856101600151118015611350575060008561026001511180611350575060008560c00151115b156113d557606085015115801561136957506020850151155b1561138757604051630a942a3f60e41b815260040160405180910390fd5b846102600151856101600151101580156113b75750600185610240015160028111156113b5576113b5614a32565b145b156113d5576040516307a6f80d60e21b815260040160405180910390fd5b60008561016001511180156113ed5750610260850151155b80156113fb575060c0850151155b15611448578460600151600003611425576040516307d3ad8960e01b815260040160405180910390fd5b6020850151156114485760405163682d022760e01b815260040160405180910390fd5b61016085015115801561146057506000856102600151115b8015611470575060008560c00151115b15611498576060850151156114985760405163682d022760e01b815260040160405180910390fd5b600085610260015111806114b0575060008560c00151115b80156114be57506020850151155b80156114cd5750610160850151155b156114eb5760405163015bdc8360e71b815260040160405180910390fd5b60008561026001511180611503575060008560c00151115b8015611513575060008560200151115b801561152d57508461038001518061152d57508461010001515b801561153e57506000856101600151115b1561155c5760405163011187e360e61b815260040160405180910390fd5b60008560c0015111801561157557506000856102600151115b801561159757506001856102400151600281111561159557611595614a32565b145b80156115b8575060018560a0015160028111156115b6576115b6614a32565b145b156115e6578461026001518560c00151106115e65760405163e70d136560e01b815260040160405180910390fd5b60008560c0015111801561160f575060028560a00151600281111561160d5761160d614a32565b145b1561163b576127108560c00151111561163b5760405163a1a6e45760e01b815260040160405180910390fd5b60008560c0015111801561165457506000856101600151115b8015611675575060018560a00151600281111561167357611673614a32565b145b156116a3578461016001518560c00151106116a357604051632a07240560e11b815260040160405180910390fd5b612710856080015111806116b957506080850151155b156116d75760405163249dae1160e01b815260040160405180910390fd5b600085610340015111806116f057506000856102c00151115b801561171257506001856103000151600281111561171057611710614a32565b145b1561174d57610320850151158061172f5750612710856103200151115b1561174d576040516315cb6b0b60e11b815260040160405180910390fd5b6000856103400151118061176657506000856102c00151115b801561178857506002856103000151600281111561178657611786614a32565b145b8015611798575060008560200151115b80156117ac57508460200151856103200151115b156117ca576040516309e7941360e41b815260040160405180910390fd5b600085610180015111806117e357506000856101c00151115b801561180557506002856102000151600281111561180357611803614a32565b145b8015611815575060008560600151115b801561182957508460600151856102200151115b15611847576040516309e7941360e41b815260040160405180910390fd5b6000856101800151118061186057506000856101c00151115b801561188257506001856102000151600281111561188057611880614a32565b145b156118bd57610220850151158061189f5750612710856102200151115b156118bd5760405163378f7ea360e01b815260040160405180910390fd5b6000856102a001511180156118e95750600285610240015160028111156118e6576118e6614a32565b14155b156119075760405163018f017560e21b815260040160405180910390fd5b6000856101200151118015611932575060028560a00151600281111561192f5761192f614a32565b14155b1561195057604051632ecab07960e11b815260040160405180910390fd5b6000856101e00151600481111561196957611969614a32565b1415801561197a57506101c0850151155b15611998576040516306535e0360e31b815260040160405180910390fd5b6000856102e0015160048111156119b1576119b1614a32565b141580156119c257506102c0850151155b156119e0576040516306535e0360e31b815260040160405180910390fd5b6000856101a0015160028111156119f9576119f9614a32565b14158015611a0a5750610180850151155b15611a28576040516306535e0360e31b815260040160405180910390fd5b60008561036001516002811115611a4157611a41614a32565b14158015611a525750610340850151155b15611a70576040516306535e0360e31b815260040160405180910390fd5b60008560a001516002811115611a8857611a88614a32565b14158015611a98575060c0850151155b15611ab6576040516306535e0360e31b815260040160405180910390fd5b60008561024001516002811115611acf57611acf614a32565b14158015611ae05750610260850151155b15611afe576040516306535e0360e31b815260040160405180910390fd5b60008561014001516001811115611b1757611b17614a32565b14158015611b285750610160850151155b15611b46576040516306535e0360e31b815260040160405180910390fd5b6102c0850151158015611b5c5750610340850151155b8015611b6d57506000856103200151115b15611b8b57604051633c46227760e21b815260040160405180910390fd5b6101c0850151158015611ba15750610180850151155b8015611bb257506000856102200151115b15611bd057604051633c46227760e21b815260040160405180910390fd5b600085600001516001600160a01b031663313ce5676040518163ffffffff1660e01b8152600401602060405180830381865afa158015611c14573d6000803e3d6000fd5b505050506040513d601f19601f82011682018060405250810190611c389190615226565b611c4390600a615327565b905060008660200151118015611c5d575060008660600151115b15611c7b57604051631dbe758760e11b815260040160405180910390fd5b602086015160009015611ca65781858860200151611c9991906151da565b611ca391906151f1565b90505b606087015115611cb7575060608601515b602087015160009015611cc75750845b600060018961030001516002811115611ce257611ce2614a32565b03611d0c5761271089602001518a6103200151611cff91906151da565b611d0991906151f1565b90505b600060018a61020001516002811115611d2757611d27614a32565b03611d51576127108a606001518b6102200151611d4491906151da565b611d4e91906151f1565b90505b6005805460009081526006602052604080822080546001600160a01b0319166001600160a01b038e161790558254825280822060500182905582548252808220605101829055825482528082206052908101805469ffffffffffffffffffff199081166001600160501b038e8116918217909355865486528486208401805469ffffffffffffffffffff60501b1916600160501b948f1694850217905586548652848620909301805469ffffffffffffffffffff60a01b1916600160a01b9094029390931790925584548452828420605301805490921617905582548252808220605401869055825482528082206055018290559154815220604c0182905581611e5c576000611e62565b89602001515b60058054600090815260066020526040808220604e01939093559054815220604d0181905580611e93576000611e99565b89606001515b60058054600090815260066020526040808220604f01939093558154815282812060560187905590548152908120605701805460ff191660018302179055508960000151600060060160008060050154815260200190815260200160002060010160000160006101000a8154816001600160a01b0302191690836001600160a01b031602179055508960400151600060060160008060050154815260200190815260200160002060010160020160006101000a8154816001600160a01b0302191690836001600160a01b031602179055508960200151600060060160008060050154815260200190815260200160002060010160010181905550896060015160006006016000806005015481526020019081526020016000206001016003018190555089608001516000600601600080600501548152602001908152602001600020600101600401819055508960a00151600060060160008060050154815260200190815260200160002060010160050160006101000a81548160ff0219169083600281111561202b5761202b614a32565b02179055508960c001516000600601600080600501548152602001908152602001600020600101600601819055508960e00151600060060160008060050154815260200190815260200160002060010160070160006101000a81548160ff021916908315150217905550896101000151600060060160008060050154815260200190815260200160002060010160070160016101000a81548160ff021916908315150217905550896101200151600060060160008060050154815260200190815260200160002060010160080181905550896101400151600060060160008060050154815260200190815260200160002060010160090160006101000a81548160ff0219169083600181111561214357612143614a32565b02179055506101608a015160058054600090815260066020526040808220600b01939093556101808d015182548252838220600c01556101a08d01519154815291909120600d01805460ff191660018360028111156121a4576121a4614a32565b02179055506101c08a015160058054600090815260066020526040808220600e01939093556101e08d01519154815291909120600f01805460ff191660018360048111156121f4576121f4614a32565b02179055506102008a01516005546000908152600660205260409020600f01805461ff00191661010083600281111561222f5761222f614a32565b02179055506102208a015160058054600090815260066020526040808220601001939093556102408d01519154815291909120601101805460ff1916600183600281111561227f5761227f614a32565b02179055506102608a015160058054600090815260066020526040808220601201939093556102808d015182548252838220601301556102a08d015182548252838220601401556102c08d015182548252838220601501556102e08d01519154815291909120601601805460ff1916600183600481111561230257612302614a32565b02179055506103008a01516005546000908152600660205260409020601601805461ff00191661010083600281111561233d5761233d614a32565b02179055506103208a015160058054600090815260066020526040808220601701939093556103408d015182548252838220601801556103608d01519154815291909120601901805460ff1916600183600281111561239e5761239e614a32565b02179055506103808a015160058054600090815260066020526040808220601990810180549515156101000261ff0019909616959095179094556103a08e01518354835281832085018054911515620100000262ff0000199092169190911790556103c08e015183548352908220909301805493151563010000000263ff000000199094169390931790925580549161243683614e2e565b909155505060055461244a90600190615213565b7f6f487ff45e99dc63b7265bb895bcced153db9bd3cae13a82559397dee7f1bfc08a8c8a8a898e60405161248396959493929190615336565b60405180910390a250505050505050505050565b60098054600091829160ff1916600183610b88565b80351580156124bd57506020810135155b80156124cb57506080810135155b80156124d9575060a0810135155b80156124e7575060c0810135155b801561251457506000612501610100830160e08401615388565b600281111561251257612512614a32565b145b80156125235750610100810135155b80156125325750610120810135155b801561254057506040810135155b801561254e57506060810135155b801561255d5750610140810135155b801561258b5750600061257861018083016101608401615388565b600281111561258957612589614a32565b145b80156125a657506125a46101a0820161018083016153a5565b155b80156125c157506125bf6101c082016101a083016153a5565b155b80156125dc57506125da6101e082016101c083016153a5565b155b80156125eb57506101e0810135155b80156125fa5750610260810135155b80156126095750610240810135155b80156126245750612622610240820161022083016153a5565b155b801561263f575061263d610220820161020083016153a5565b155b1561265d57604051632995fef160e01b815260040160405180910390fd5b600082815260066020526040902080546001600160a01b0385811691161461269857604051632b5aad9f60e21b815260040160405180910390fd5b6000605782015460ff1660028111156126b3576126b3614a32565b146126d15760405163432aa98d60e11b815260040160405180910390fd5b8135158015906126e357506012810154155b156127015760405163ae00bdd560e01b815260040160405180910390fd5b600082602001351180156127175750600b810154155b156127355760405163c5d53c0b60e01b815260040160405180910390fd5b6000826080013511801561274b57506007810154155b156127695760405163452234a560e11b815260040160405180910390fd5b60008260a00135118061278157506000826101200135115b801561279c5750601581015415801561279c57506018810154155b156127ba57604051634dcdad0d60e11b815260040160405180910390fd5b60158101541580156127d0575060008260400135115b156127ee5760405163a741c3cf60e01b815260040160405180910390fd5b612710826040013511801561281b57506001601682015460ff16600481111561281957612819614a32565b145b156128395760405163a1a6e45760e01b815260040160405180910390fd5b6000826040013511801561288757506002601682015460ff16600481111561286357612863614a32565b148061288757506001601682015460ff16600481111561288557612885614a32565b145b1561289757604082013560158201555b600082604001351180156128e557506004601682015460ff1660048111156128c1576128c1614a32565b14806128e557506003601682015460ff1660048111156128e3576128e3614a32565b145b156128f557604082013560158201555b600e81015415801561290b575060008260600135115b1561292957604051630121ca8160e11b815260040160405180910390fd5b612710826060013511801561295657506001600f82015460ff16600481111561295457612954614a32565b145b156129745760405163a1a6e45760e01b815260040160405180910390fd5b600082606001351180156129c257506002600f82015460ff16600481111561299e5761299e614a32565b14806129c257506001600f82015460ff1660048111156129c0576129c0614a32565b145b156129d2576060820135600e8201555b60008260600135118015612a2057506004600f82015460ff1660048111156129fc576129fc614a32565b1480612a2057506003600f82015460ff166004811115612a1e57612a1e614a32565b145b15612a30576060820135600e8201555b6000826101000135118015612a535750600e8101541580612a535750600c810154155b15612a71576040516344d1f28560e11b815260040160405180910390fd5b60008260c001351180612aa657506000612a92610100840160e08501615388565b6002811115612aa357612aa3614a32565b14155b8015612ab45750600c810154155b15612ad25760405163634c458f60e11b815260040160405180910390fd5b60008261014001351180612b0957506000612af561018084016101608501615388565b6002811115612b0657612b06614a32565b14155b8015612b1757506018810154155b15612b3557604051635f2775bb60e01b815260040160405180910390fd5b612710826101e001351115612b5d5760405163249dae1160e01b815260040160405180910390fd5b6101e082013515612b74576101e082013560058201555b60018101546003820154600091612b97916001600160a01b039182169116613d1c565b50909150612baf9050610240840161022085016153a5565b1515600103612c0c57600b82015415612bf357600582015461271090612bd590836151da565b612bdf91906151f1565b612be99082614e05565b600b830155612c0c565b60405163c5d53c0b60e01b815260040160405180910390fd5b612c1e610220840161020085016153a5565b1515600103612ca157601282015415801590612c5257506001601183015460ff166002811115612c5057612c50614a32565b145b15612c8857600582015461271090612c6a90836151da565b612c7491906151f1565b612c7e9082615213565b6012830155612ca1565b60405163ae00bdd560e01b815260040160405180910390fd5b612cb3610240840161022085016153a5565b15156001148015612cd75750612cd1610220840161020085016153a5565b15156001145b15612cf557604051631e72c9e760e31b815260040160405180910390fd5b60008360800135118015612d0d575060008360200135115b8015612d3157506001600683015460ff166002811115612d2f57612d2f614a32565b145b8015612d405750600b82015415155b8015612d5457508260200135836080013510155b15612d7257604051632a07240560e11b815260040160405180910390fd5b60008360800135118015612d9e57506001600683015460ff166002811115612d9c57612d9c614a32565b145b8015612dad5750600b82015415155b8015612dc15750600b820154608084013510155b15612ddf57604051632a07240560e11b815260040160405180910390fd5b60008360800135118015612e0b57506002600683015460ff166002811115612e0957612e09614a32565b145b15612e425761271083608001351115612e375760405163a1a6e45760e01b815260040160405180910390fd5b608083013560078301555b60008360800135118015612e565750823515155b8015612e7a57506001600683015460ff166002811115612e7857612e78614a32565b145b8015612e895750601282015415155b8015612ead57506001601183015460ff166002811115612eab57612eab614a32565b145b8015612ebe57508235608084013510155b15612edc5760405163e70d136560e01b815260040160405180910390fd5b823515801590612f0457506001600683015460ff166002811115612f0257612f02614a32565b145b8015612f135750601282015415155b8015612f3757506001601183015460ff166002811115612f3557612f35614a32565b145b8015612f4857506007820154833511155b15612f665760405163e70d136560e01b815260040160405180910390fd5b60008360800135118015612f9257506001600683015460ff166002811115612f9057612f90614a32565b145b8015612fa15750601282015415155b8015612fc557506001601183015460ff166002811115612fc357612fc3614a32565b145b8015612fd957506012820154608084013510155b15612ff75760405163e70d136560e01b815260040160405180910390fd5b6000836020013511801561300b5750823515155b801561301a5750600b82015415155b80156130295750601282015415155b801561304d57506001601183015460ff16600281111561304b5761304b614a32565b145b801561305e57508235602084013510155b1561307c576040516307a6f80d60e21b815260040160405180910390fd5b600083602001351180156130a857506001601183015460ff1660028111156130a6576130a6614a32565b145b80156130cc57506001600a83015460ff1660018111156130ca576130ca614a32565b145b80156130e057506012820154602084013510155b156130fe576040516307a6f80d60e21b815260040160405180910390fd5b8235158015906131115750600b82015415155b80156131205750601282015415155b801561314457506001601183015460ff16600281111561314257613142614a32565b145b80156131555750600b820154833511155b15613173576040516307a6f80d60e21b815260040160405180910390fd5b60078201541580159061319e57506001600683015460ff16600281111561319c5761319c614a32565b145b80156131ae575060008360800135115b156131be57608083013560078301555b600b820154158015906131d5575060008360200135115b156131e5576020830135600b8301555b6012820154158015906131f85750823515155b1561320557823560128301555b600c82015415158061321a5750600e82015415155b801561324357506001600f830154610100900460ff16600281111561324157613241614a32565b145b1561327e5761010083013515806132605750612710836101000135115b1561327e5760405163378f7ea360e01b815260040160405180910390fd5b600c8201541515806132935750600e82015415155b80156132bc57506002600f830154610100900460ff1660028111156132ba576132ba614a32565b145b80156132cb5750600482015415155b80156132df57506004820154610100840135115b156132fd576040516309e7941360e41b815260040160405180910390fd5b600e8201541515806133125750600c82015415155b801561332357506000836101000135115b156133345761010083013560108301555b60188201541515806133495750601582015415155b8015613372575060016016830154610100900460ff16600281111561337057613370614a32565b145b156133ad57610120830135158061338f5750612710836101200135115b156133ad576040516315cb6b0b60e11b815260040160405180910390fd5b60188201541515806133c25750601582015415155b80156133eb575060026016830154610100900460ff1660028111156133e9576133e9614a32565b145b80156133fa5750600282015415155b801561340e57506002820154610120840135115b1561342c576040516309e7941360e41b815260040160405180910390fd5b600083610240013511801561345a57506002600683015460ff16600281111561345757613457614a32565b14155b1561347857604051632ecab07960e11b815260040160405180910390fd5b60008361026001351180156134a657506002601183015460ff1660028111156134a3576134a3614a32565b14155b156134c45760405163018f017560e21b815260040160405180910390fd5b610240830135156134db5761024083013560098301555b610260830135156134f25761026083013560148301555b60158201541515806135075750601882015415155b801561351857506000836101200135115b156135295761012083013560178301555b600c820154158015906135875750600c82015460c08401351415806135875750600d82015460ff16600281111561356257613562614a32565b613573610100850160e08601615388565b600281111561358457613584614a32565b14155b156135f45760c0830135600c83015560006135a9610100850160e08601615388565b60028111156135ba576135ba614a32565b146135f4576135d0610100840160e08501615388565b600d8301805460ff191660018360028111156135ee576135ee614a32565b02179055505b601882015415801590613654575060188201546101408401351415806136545750601982015460ff16600281111561362e5761362e614a32565b61364061018085016101608601615388565b600281111561365157613651614a32565b14155b1561371857610140830135156136705761014083013560188301555b601982015460ff16600281111561368957613689614a32565b61369b61018085016101608601615388565b60028111156136ac576136ac614a32565b141580156136dd575060006136c961018085016101608601615388565b60028111156136da576136da614a32565b14155b15613718576136f461018084016101608501615388565b60198301805460ff1916600183600281111561371257613712614a32565b02179055505b61372a6101a0840161018085016153a5565b1561374d5760198201805461ff001981166101009182900460ff16159091021790555b61375f6101c084016101a085016153a5565b156137795760088201805460ff19811660ff909116151790555b61378b6101e084016101c085016153a5565b156137ae5760088201805461ff001981166101009182900460ff16159091021790555b60a0830135156137ea5760158201541580156137cc57506018820154155b156137ea57604051638dd5089b60e01b815260040160405180910390fd5b60158201541515806137ff5750601882015415155b1561383c5760a08301351580159061381e5750601282015460a0840135105b1561383c5760405163473f955b60e11b815260040160405180910390fd5b60a0830135156138515760a083013560138301555b6101008301351561388357604f820154601083015461271091613873916151da565b61387d91906151f1565b604d8301555b610120830135156138b557604e8201546017830154612710916138a5916151da565b6138af91906151f1565b604c8301555b604080516103e08101825260018401546001600160a01b03908116825260028086015460208401526003860154909116928201929092526004840154606082015260058401546080820152600684015460009260a083019160ff169081111561392057613920614a32565b815260078501546020820152600885015460ff8082161515604084015261010090910481161515606083015260098601546080830152600a86015460a09092019116600181111561397357613973614a32565b8152600b8501546020820152600c8501546040820152600d85015460609091019060ff1660028111156139a8576139a8614a32565b8152600e8501546020820152600f85015460409091019060ff1660048111156139d3576139d3614a32565b8152600f850154602090910190610100900460ff1660028111156139f9576139f9614a32565b815260108501546020820152601185015460409091019060ff166002811115613a2457613a24614a32565b815260128501546020820152601385015460408201526014850154606082015260158501546080820152601685015460a09091019060ff166004811115613a6d57613a6d614a32565b81526016850154602090910190610100900460ff166002811115613a9357613a93614a32565b81526017850154602082015260188501546040820152601985015460609091019060ff166002811115613ac857613ac8614a32565b8152601985015460ff61010082048116151560208401526201000082048116151560408085019190915263010000009092041615156060909201919091525190915085907fd214548c137217ee863b73f8586ae9c2b1ca0bde3e615e7ed7926dfcaf47dfee90613b399084906153c0565b60405180910390a2505050505050565b6040517f19457468657265756d205369676e6564204d6573736167653a0a3332000000006020820152603c8101829052600090605c01604051602081830303815290604052805190602001209050919050565b600080600080613bab85614085565b6040805160008152602081018083528b905260ff8316918101919091526060810184905260808101839052929550909350915060019060a0016020604051602081039080840390855afa158015613c06573d6000803e3d6000fd5b5050506020604051035193505050505b92915050565b600081815260066020526040902080546001600160a01b03848116911614613c5757604051630332420960e01b815260040160405180910390fd5b6001605782015460ff166002811115613c7257613c72614a32565b03613c90576040516354e3762560e01b815260040160405180910390fd5b60578101805460ff19166001908117909155810154600090613cba906001600160a01b03166140fd565b6003830154909150600090613cd7906001600160a01b03166140fd565b604080518481526020810183905291925085917f8b59944fefbac177fb9b4127d4d37da2d50b72e4d47b82e54a81945b166c62cd910160405180910390a25050505050565b60095460009081908190819061010090046001600160a01b03168015613dfe57600080826001600160a01b031663feaf968c6040518163ffffffff1660e01b815260040160a060405180830381865afa158015613d7d573d6000803e3d6000fd5b505050506040513d601f19601f82011682018060405250810190613da191906153e6565b509194509250508215905080613dc95760405162032b3d60e81b815260040160405180910390fd5b6000613dd58342615213565b9050610e108111613df95760405163d15f73b560e01b815260040160405180910390fd5b505050505b6001600160a01b038781166000908152600784016020526040902054161580613e4157506001600160a01b03868116600090815260078401602052604090205416155b15613e5f57604051637d53846960e11b815260040160405180910390fd5b6001600160a01b038088166000908152600784016020526040808220548151633fabe5a360e21b81529151929384938493929091169163feaf968c9160048083019260a09291908290030181865afa158015613ebf573d6000803e3d6000fd5b505050506040513d601f19601f82011682018060405250810190613ee391906153e6565b506001600160a01b03808e16600090815260078b016020526040808220548151633fabe5a360e21b81529151979a509598509296509485948594509091169163feaf968c9160048083019260a09291908290030181865afa158015613f4c573d6000803e3d6000fd5b505050506040513d601f19601f82011682018060405250810190613f7091906153e6565b50935050925092508460001480613f85575081155b15613fa25760405162bfc92160e01b815260040160405180910390fd5b600a880154613fb18542615213565b1180613fc95750600a880154613fc78242615213565b115b15613fe757604051632d07c67360e01b815260040160405180910390fd5b60008c6001600160a01b031663313ce5676040518163ffffffff1660e01b8152600401602060405180830381865afa158015614027573d6000803e3d6000fd5b505050506040513d601f19601f8201168201806040525081019061404b9190615226565b60ff1690508261405c82600a615436565b61406690886151da565b61407091906151f1565b9e969d50929b50949950505050505050505050565b600080600083516041146140df5760405162461bcd60e51b815260206004820152601860248201527f696e76616c6964207369676e6174757265206c656e6774680000000000000000604482015260640160405180910390fd5b50505060208101516040820151606090920151909260009190911a90565b6001600160a01b03818116600090815260076020526040812054909182911661413957604051637d53846960e11b815260040160405180910390fd5b6001600160a01b038084166000908152600783016020526040808220548151633fabe5a360e21b815291519293169163feaf968c9160048082019260a0929091908290030181865afa158015614193573d6000803e3d6000fd5b505050506040513d601f19601f820116820180604052508101906141b791906153e6565b505050915050806000036141dd5760405162bfc92160e01b815260040160405180910390fd5b9392505050565b60405180610220016040528060006001600160a01b031681526020016142086142b1565b815260200160008152602001600081526020016000815260200160008152602001600081526020016000815260200160006001600160501b0316815260200160006001600160501b0316815260200160006001600160501b0316815260200160006001600160501b031681526020016000815260200160008152602001600081526020016000600281111561429f5761429f614a32565b81526020016142ac6143c7565b905290565b6040805161040081018252600080825260208201819052918101829052606081018290526080810182905260a0810182905260c0810182905260e08101829052610100810182905261012081018290526101408101829052610160810182905261018081018290526101a081018290526101c081018290526101e0810182905261020081018290526102208101829052906102408201908152602001600081526020016000815260200160008152602001600081526020016000600481111561437c5761437c614a32565b8152602001600081526020016000815260200160008152602001600060028111156143a9576143a9614a32565b81526000602082018190526040820181905260608201526080016142ac5b6040518061064001604052806032906020820280368337509192915050565b634e487b7160e01b600052604160045260246000fd5b6040516103e0810167ffffffffffffffff81118282101715614420576144206143e6565b60405290565b604051610100810167ffffffffffffffff81118282101715614420576144206143e6565b604051601f8201601f1916810167ffffffffffffffff81118282101715614473576144736143e6565b604052919050565b80356001600160a01b038116811461449257600080fd5b919050565b600381106101ac57600080fd5b803561449281614497565b8035801515811461449257600080fd5b80356002811061449257600080fd5b80356005811061449257600080fd5b60006103e082840312156144f057600080fd5b6144f86143fc565b90506145038261447b565b81526020820135602082015261451b6040830161447b565b6040820152606082013560608201526080820135608082015261454060a083016144a4565b60a082015260c082013560c082015261455b60e083016144af565b60e082015261010061456e8184016144af565b90820152610120828101359082015261014061458b8184016144bf565b90820152610160828101359082015261018080830135908201526101a06145b38184016144a4565b908201526101c082810135908201526101e06145d08184016144ce565b908201526102006145e28382016144a4565b9082015261022082810135908201526102406145ff8184016144a4565b90820152610260828101359082015261028080830135908201526102a080830135908201526102c080830135908201526102e061463d8184016144ce565b9082015261030061464f8382016144a4565b90820152610320828101359082015261034080830135908201526103606146778184016144a4565b908201526103806146898382016144af565b908201526103a061469b8382016144af565b908201526103c06146ad8382016144af565b9082015292915050565b60006103e082840312156146ca57600080fd5b6141dd83836144dd565b600061028082840312156146e757600080fd5b50919050565b6000806102a0838503121561470157600080fd5b8235915061471284602085016146d4565b90509250929050565b600082601f83011261472c57600080fd5b813567ffffffffffffffff811115614746576147466143e6565b614759601f8201601f191660200161444a565b81815284602083860101111561476e57600080fd5b816020850160208301376000918101602001919091529392505050565b600080600080608085870312156147a157600080fd5b8435935060208501359250604085013567ffffffffffffffff8111156147c657600080fd5b6147d28782880161471b565b9250506147e16060860161447b565b905092959194509250565b60ff811681146101ac57600080fd5b6000806000806000610460868803121561481457600080fd5b853567ffffffffffffffff8082111561482c57600080fd5b818801915088601f83011261484057600080fd5b8135602082821115614854576148546143e6565b614862818360051b0161444a565b82815260089290921b8401810191818101908c84111561488157600080fd5b948201945b8386101561492057610100868e0312156148a05760008081fd5b6148a8614426565b6148b18761447b565b81526148be84880161447b565b8482015260406148cf81890161447b565b90820152606087810135908201526080808801359082015260a0808801356148f6816147ec565b9082015260c0878101359082015260e0808801359082015282526101009095019490820190614886565b995061493090508b8b83016144dd565b97505050614941610400890161447b565b9450610420880135935061044088013591508082111561496057600080fd5b5061496d8882890161471b565b9150509295509295909350565b60008060006060848603121561498f57600080fd5b83359250602084013591506149a66040850161447b565b90509250925092565b600080600080600061030086880312156149c857600080fd5b853594506149d987602088016146d4565b93506149e86102a0870161447b565b92506102c086013591506102e086013567ffffffffffffffff811115614a0d57600080fd5b61496d8882890161471b565b600060208284031215614a2b57600080fd5b5035919050565b634e487b7160e01b600052602160045260246000fd5b60038110614a5857614a58614a32565b9052565b60028110614a5857614a58614a32565b60058110614a5857614a58614a32565b8060005b60328110156102af578151845260209384019390910190600101614a80565b80516001600160a01b03168252602081015160208301526040810151614ad060408401826001600160a01b03169052565b50606081015160608301526080810151608083015260a0810151614af760a0840182614a48565b5060c081015160c083015260e0810151614b1560e084018215159052565b5061010081810151151590830152610120808201519083015261014080820151614b4182850182614a5c565b5050610160818101519083015261018080820151908301526101a080820151614b6c82850182614a48565b50506101c081810151908301526101e080820151614b8c82850182614a6c565b505061020080820151614ba182850182614a48565b5050610220818101519083015261024080820151614bc182850182614a48565b5050610260818101519083015261028080820151908301526102a080820151908301526102c080820151908301526102e080820151614c0282850182614a6c565b505061030080820151614c1782850182614a48565b50506103208181015190830152610340808201519083015261036080820151614c4282850182614a48565b5050610380818101511515908301526103a0808201511515908301526103c0808201511515908301526103e0808201516102af82850182614a7c565b81516001600160a01b0316815261124081016020830151614ca26020840182614a9f565b506040830151610a408301526060830151610a608301526080830151610a8083015260a0830151610aa083015260c0830151610ac083015260e0830151610ae08301526101008301516001600160501b03908116610b008401526101208401518116610b208401526101408401518116610b4084015261016084015116610b60830152610180830151610b808301526101a0830151610ba08301526101c0830151610bc08301526101e0830151614d5d610be0840182614a48565b50610200830151614d72610c00840182614a7c565b5092915050565b60008060006104208486031215614d8f57600080fd5b614d9985856144dd565b92506103e084013591506149a6610400850161447b565b6000806000806102e08587031215614dc757600080fd5b84359350614dd886602087016146d4565b92506102a085013591506147e16102c0860161447b565b634e487b7160e01b600052601160045260246000fd5b80820180821115613c1657613c16614def565b634e487b7160e01b600052603260045260246000fd5b600060018201614e4057614e40614def565b5060010190565b80516001600160a01b03168252602081015160208301526040810151614e7860408401826001600160a01b03169052565b50606081015160608301526080810151608083015260a0810151614e9f60a0840182614a48565b5060c081015160c083015260e0810151614ebd60e084018215159052565b5061010081810151151590830152610120808201519083015261014080820151614ee982850182614a5c565b5050610160818101519083015261018080820151908301526101a080820151614f1482850182614a48565b50506101c081810151908301526101e080820151614f3482850182614a6c565b505061020080820151614f4982850182614a48565b5050610220818101519083015261024080820151614f6982850182614a48565b5050610260818101519083015261028080820151908301526102a080820151908301526102c080820151908301526102e080820151614faa82850182614a6c565b505061030080820151614fbf82850182614a48565b50506103208181015190830152610340808201519083015261036080820151614fea82850182614a48565b5050610380818101511515908301526103a0808201511515908301526103c080820151801515828501526102af565b6001600160a01b038516815260208101849052610440810161503e6040830185614e47565b8261042083015295945050505050565b60006103008201905060018060a01b03871682528560208301528460408301528335606083015260208401356080830152604084013560a0830152606084013560c0830152608084013560e083015261010060a08501358184015261012060c0860135818501526150c160e087016144a4565b6101406150d081870183614a48565b61016091508388013582870152610180935082880135848701526101a092508088013583870152506151038188016144a4565b90506101c061511481870183614a48565b61511f8489016144af565b93506101e091506151338287018515159052565b61513e8389016144af565b935061020092506151528387018515159052565b61515d8189016144af565b9350506102206151708187018515159052565b610240935081880135848701526151888389016144af565b9250610260915061519c8287018415159052565b6151a78189016144af565b9250506151b961028086018315159052565b918601356102a085015250909301356102c08201526102e001529392505050565b8082028115828204841417613c1657613c16614def565b60008261520e57634e487b7160e01b600052601260045260246000fd5b500490565b81810381811115613c1657613c16614def565b60006020828403121561523857600080fd5b81516141dd816147ec565b600181815b8085111561527e57816000190482111561526457615264614def565b8085161561527157918102915b93841c9390800290615248565b509250929050565b60008261529557506001613c16565b816152a257506000613c16565b81600181146152b857600281146152c2576152de565b6001915050613c16565b60ff8411156152d3576152d3614def565b50506001821b613c16565b5060208310610133831016604e8410600b8410161715615301575081810a613c16565b61530b8383615243565b806000190482111561531f5761531f614def565b029392505050565b60006141dd60ff841683615286565b6001600160a01b038716815261048081016153546020830188614e47565b6001600160501b03808716610400840152808616610420840152508361044083015282610460830152979650505050505050565b60006020828403121561539a57600080fd5b81356141dd81614497565b6000602082840312156153b757600080fd5b6141dd826144af565b6103e08101613c168284614e47565b80516001600160501b038116811461449257600080fd5b600080600080600060a086880312156153fe57600080fd5b615407866153cf565b945060208601519350604086015192506060860151915061542a608087016153cf565b90509295509295909350565b60006141dd838361528656fea264697066735822122090dba169efe9c736b17fe7ed89d3f6821ce025347052de7d0f0df9ff1b096bf464736f6c63430008140033",
  "devdoc": {
    "details": "StrategyFacet is one of the facets of the system, dedicated to strategy management.",
    "events": {
      "StrategyCancelled(uint256,uint256,uint256)": {
        "params": {
          "investTokenPrice": "The price of the invest token in USD.",
          "stableTokenPrice": "The price of the stable token in USD.",
          "strategyId": "The unique ID of the cancelled strategy."
        }
      },
      "StrategyCreated(uint256,address,(address,uint256,address,uint256,uint256,uint8,uint256,bool,bool,uint256,uint8,uint256,uint256,uint8,uint256,uint8,uint8,uint256,uint8,uint256,uint256,uint256,uint256,uint8,uint8,uint256,uint256,uint8,bool,bool,bool),uint80,uint80,uint256,uint256)": {
        "params": {
          "budget": "total budget of the user in the stable token",
          "investRoundId": "Round ID for the invest token price when the strategy is created.",
          "parameter": "The strategy parameter including settings for buying and selling.",
          "price": "price of the invest token w.r.t. the stable when strategy was created",
          "stableRoundId": "Round ID for the stable token price when the strategy is created.",
          "strategyId": "The unique ID of the strategy.",
          "user": "address of the user whose  for whose strategy is created"
        }
      },
      "StrategyUpdated(uint256,(address,uint256,address,uint256,uint256,uint8,uint256,bool,bool,uint256,uint8,uint256,uint256,uint8,uint256,uint8,uint8,uint256,uint8,uint256,uint256,uint256,uint256,uint8,uint8,uint256,uint256,uint8,bool,bool,bool))": {
        "params": {
          "strategyId": "The unique ID of the strategy.",
          "updateStruct": "updated parameters of the strategy"
        }
      }
    },
    "kind": "dev",
    "methods": {
      "cancelStrategy(uint256)": {
        "details": "This function allows users to cancel a trade execution strategy based on its unique ID.      When cancelled, the strategy's status is updated to \"CANCELLED.\"",
        "params": {
          "id": "The unique ID of the strategy to cancel."
        }
      },
      "cancelStrategyOnBehalf(uint256,uint256,bytes,address)": {
        "details": "This function allows users to cancel a trade execution strategy based on its unique ID.      When cancelled, the strategy's status is updated to \"CANCELLED.\"",
        "params": {
          "id": "The unique ID of the strategy to cancel."
        }
      },
      "createStrategy((address,uint256,address,uint256,uint256,uint8,uint256,bool,bool,uint256,uint8,uint256,uint256,uint8,uint256,uint8,uint8,uint256,uint8,uint256,uint256,uint256,uint256,uint8,uint8,uint256,uint256,uint8,bool,bool,bool))": {
        "details": "This function validates the input parameters to ensure they satisfy the criteria for creating a strategy.      If the parameters are valid, a new strategy is created and an event is emitted to indicate the successful creation.      If the parameters do not meet the criteria, an error is thrown.",
        "params": {
          "_parameter": "The strategy parameters defining the behavior and conditions of the strategy."
        }
      },
      "createStrategyOnBehalf((address,address,address,uint256,uint256,uint8,bytes32,bytes32)[],(address,uint256,address,uint256,uint256,uint8,uint256,bool,bool,uint256,uint8,uint256,uint256,uint8,uint256,uint8,uint8,uint256,uint8,uint256,uint256,uint256,uint256,uint8,uint8,uint256,uint256,uint8,bool,bool,bool),address,uint256,bytes)": {
        "details": "This function validates the input parameters to ensure they satisfy the criteria for creating a strategy.      If the parameters are valid, a new strategy is created and an event is emitted to indicate the successful creation.      If the parameters do not meet the criteria, an error is thrown.",
        "params": {
          "_parameter": "The strategy parameters defining the behavior and conditions of the strategy.",
          "account": "The address of the user who created the strategy.",
          "nonce": "The nonce of the user who created the strategy.",
          "permits": "The array of `Permit` structs containing the parameters for the permit function.",
          "signature": "The signature of the user who created the strategy."
        }
      },
      "getMessageHashToCancel(uint256,uint256,address)": {
        "details": "This function returns the message hash that must be signed by the user in order to cancel a strategy on behalf of another user.",
        "params": {
          "account": "The address of the user who created the strategy.",
          "id": "The strategy id",
          "nonce": "The nonce of the user who created the strategy."
        },
        "returns": {
          "_0": "The message hash for the given strategy."
        }
      },
      "getMessageHashToCreate((address,uint256,address,uint256,uint256,uint8,uint256,bool,bool,uint256,uint8,uint256,uint256,uint8,uint256,uint8,uint8,uint256,uint8,uint256,uint256,uint256,uint256,uint8,uint8,uint256,uint256,uint8,bool,bool,bool),uint256,address)": {
        "details": "This function returns the message hash that must be signed by the user in order to create a strategy on behalf of another user.",
        "params": {
          "_parameter": "The strategy parameters defining the behavior and conditions of the strategy.",
          "account": "The address of the user who created the strategy.",
          "nonce": "The nonce of the user who created the strategy."
        },
        "returns": {
          "_0": "The message hash for the given strategy."
        }
      },
      "getMessageHashToUpdate(uint256,(uint256,uint256,uint256,uint256,uint256,uint256,uint256,uint8,uint256,uint256,uint256,uint8,bool,bool,bool,uint256,bool,bool,uint256,uint256),uint256,address)": {
        "details": "This function returns the message hash that must be signed by the user in order to update a strategy on behalf of another user.",
        "params": {
          "account": "The address of the user who created the strategy.",
          "id": "The strategy id",
          "nonce": "The nonce of the user who created the strategy.",
          "updateStruct": "updated parameters of the strategy"
        },
        "returns": {
          "_0": "The message hash for the given strategy."
        }
      },
      "getStrategy(uint256)": {
        "details": "This function allows users to query and retrieve information about a trade execution strategy      based on its unique ID.",
        "params": {
          "id": "The unique ID of the strategy to retrieve."
        },
        "returns": {
          "_0": "A `Strategy` struct containing details of the specified strategy."
        }
      },
      "nextStrategyId()": {
        "details": "This function returns the unique ID that will be assigned to the next created strategy.",
        "returns": {
          "_0": "The next available strategy ID."
        }
      },
      "updateStrategy(uint256,(uint256,uint256,uint256,uint256,uint256,uint256,uint256,uint8,uint256,uint256,uint256,uint8,bool,bool,bool,uint256,bool,bool,uint256,uint256))": {
        "details": "Update an existing strategy with new parameters.",
        "params": {
          "strategyId": "The unique identifier of the strategy to update.",
          "updateStruct": "A struct containing the updated parameters for the strategy."
        }
      },
      "updateStrategyOnBehalf(uint256,(uint256,uint256,uint256,uint256,uint256,uint256,uint256,uint8,uint256,uint256,uint256,uint8,bool,bool,bool,uint256,bool,bool,uint256,uint256),address,uint256,bytes)": {
        "details": "Update an existing strategy with new parameters on behalf of another user.",
        "params": {
          "account": "The address of the user who created the strategy.",
          "nonce": "The nonce of the user who created the strategy.",
          "signature": "The signature of the user who created the strategy.",
          "strategyId": "The unique identifier of the strategy to update.",
          "updateStruct": "A struct containing the updated parameters for the strategy."
        }
      }
    },
    "title": "StrategyFacet",
    "version": 1
  },
  "userdoc": {
    "events": {
      "StrategyCancelled(uint256,uint256,uint256)": {
        "notice": "Emitted when a trade execution strategy is cancelled."
      },
      "StrategyCreated(uint256,address,(address,uint256,address,uint256,uint256,uint8,uint256,bool,bool,uint256,uint8,uint256,uint256,uint8,uint256,uint8,uint8,uint256,uint8,uint256,uint256,uint256,uint256,uint8,uint8,uint256,uint256,uint8,bool,bool,bool),uint80,uint80,uint256,uint256)": {
        "notice": "Emitted when a new trading strategy is created."
      },
      "StrategyUpdated(uint256,(address,uint256,address,uint256,uint256,uint8,uint256,bool,bool,uint256,uint8,uint256,uint256,uint8,uint256,uint8,uint8,uint256,uint8,uint256,uint256,uint256,uint256,uint8,uint8,uint256,uint256,uint8,bool,bool,bool))": {
        "notice": "Emitted when a strategy is updated."
      }
    },
    "kind": "user",
    "methods": {
      "cancelStrategy(uint256)": {
        "notice": "Cancel a trade execution strategy."
      },
      "cancelStrategyOnBehalf(uint256,uint256,bytes,address)": {
        "notice": "Cancel a trade execution strategy on behalf of another user."
      },
      "createStrategy((address,uint256,address,uint256,uint256,uint8,uint256,bool,bool,uint256,uint8,uint256,uint256,uint8,uint256,uint8,uint8,uint256,uint8,uint256,uint256,uint256,uint256,uint8,uint8,uint256,uint256,uint8,bool,bool,bool))": {
        "notice": "Create a new trade execution strategy based on the provided parameters."
      },
      "createStrategyOnBehalf((address,address,address,uint256,uint256,uint8,bytes32,bytes32)[],(address,uint256,address,uint256,uint256,uint8,uint256,bool,bool,uint256,uint8,uint256,uint256,uint8,uint256,uint8,uint8,uint256,uint8,uint256,uint256,uint256,uint256,uint8,uint8,uint256,uint256,uint8,bool,bool,bool),address,uint256,bytes)": {
        "notice": "Create a new trade execution strategy based on the provided parameters on behalf of another user."
      },
      "getMessageHashToCancel(uint256,uint256,address)": {
        "notice": "Get the message hash for a given strategy to cancel."
      },
      "getMessageHashToCreate((address,uint256,address,uint256,uint256,uint8,uint256,bool,bool,uint256,uint8,uint256,uint256,uint8,uint256,uint8,uint8,uint256,uint8,uint256,uint256,uint256,uint256,uint8,uint8,uint256,uint256,uint8,bool,bool,bool),uint256,address)": {
        "notice": "Get the message hash for a given strategy to create it."
      },
      "getMessageHashToUpdate(uint256,(uint256,uint256,uint256,uint256,uint256,uint256,uint256,uint8,uint256,uint256,uint256,uint8,bool,bool,bool,uint256,bool,bool,uint256,uint256),uint256,address)": {
        "notice": "Get the message hash for a given strategy to update it."
      },
      "getStrategy(uint256)": {
        "notice": "Retrieve the details of a trade execution strategy."
      },
      "nextStrategyId()": {
        "notice": "Get the next available strategy ID."
      }
    },
    "notice": "This contract handles the creation, retrieval, and cancellation of strategies. Strategies define specific trade execution conditions and actions.",
    "version": 1
  },
  "storageLayout": {
    "storage": [
      {
        "astId": 823,
        "contract": "contracts/facets/StrategyFacet.sol:StrategyFacet",
        "label": "s",
        "offset": 0,
        "slot": "0",
        "type": "t_struct(AppStorage)629_storage"
      }
    ],
    "types": {
      "t_address": {
        "encoding": "inplace",
        "label": "address",
        "numberOfBytes": "20"
      },
      "t_array(t_uint256)50_storage": {
        "base": "t_uint256",
        "encoding": "inplace",
        "label": "uint256[50]",
        "numberOfBytes": "1600"
      },
      "t_bool": {
        "encoding": "inplace",
        "label": "bool",
        "numberOfBytes": "1"
      },
      "t_bytes32": {
        "encoding": "inplace",
        "label": "bytes32",
        "numberOfBytes": "32"
      },
      "t_bytes4": {
        "encoding": "inplace",
        "label": "bytes4",
        "numberOfBytes": "4"
      },
      "t_enum(BuyLegType)377": {
        "encoding": "inplace",
        "label": "enum BuyLegType",
        "numberOfBytes": "1"
      },
      "t_enum(DCA_UNIT)394": {
        "encoding": "inplace",
        "label": "enum DCA_UNIT",
        "numberOfBytes": "1"
      },
      "t_enum(DIP_SPIKE)389": {
        "encoding": "inplace",
        "label": "enum DIP_SPIKE",
        "numberOfBytes": "1"
      },
      "t_enum(FloorLegType)373": {
        "encoding": "inplace",
        "label": "enum FloorLegType",
        "numberOfBytes": "1"
      },
      "t_enum(ReentrancyStatus)363": {
        "encoding": "inplace",
        "label": "enum ReentrancyStatus",
        "numberOfBytes": "1"
      },
      "t_enum(SellLegType)382": {
        "encoding": "inplace",
        "label": "enum SellLegType",
        "numberOfBytes": "1"
      },
      "t_enum(Status)368": {
        "encoding": "inplace",
        "label": "enum Status",
        "numberOfBytes": "1"
      },
      "t_enum(TimeUnit)399": {
        "encoding": "inplace",
        "label": "enum TimeUnit",
        "numberOfBytes": "1"
      },
      "t_mapping(t_address,t_address)": {
        "encoding": "mapping",
        "key": "t_address",
        "label": "mapping(address => address)",
        "numberOfBytes": "32",
        "value": "t_address"
      },
      "t_mapping(t_address,t_uint256)": {
        "encoding": "mapping",
        "key": "t_address",
        "label": "mapping(address => uint256)",
        "numberOfBytes": "32",
        "value": "t_uint256"
      },
      "t_mapping(t_bytes4,t_bool)": {
        "encoding": "mapping",
        "key": "t_bytes4",
        "label": "mapping(bytes4 => bool)",
        "numberOfBytes": "32",
        "value": "t_bool"
      },
      "t_mapping(t_bytes4,t_bytes32)": {
        "encoding": "mapping",
        "key": "t_bytes4",
        "label": "mapping(bytes4 => bytes32)",
        "numberOfBytes": "32",
        "value": "t_bytes32"
      },
      "t_mapping(t_uint256,t_bytes32)": {
        "encoding": "mapping",
        "key": "t_uint256",
        "label": "mapping(uint256 => bytes32)",
        "numberOfBytes": "32",
        "value": "t_bytes32"
      },
      "t_mapping(t_uint256,t_struct(Strategy)589_storage)": {
        "encoding": "mapping",
        "key": "t_uint256",
        "label": "mapping(uint256 => struct Strategy)",
        "numberOfBytes": "32",
        "value": "t_struct(Strategy)589_storage"
      },
      "t_struct(AppStorage)629_storage": {
        "encoding": "inplace",
        "label": "struct AppStorage",
        "members": [
          {
            "astId": 594,
            "contract": "contracts/facets/StrategyFacet.sol:StrategyFacet",
            "label": "facets",
            "offset": 0,
            "slot": "0",
            "type": "t_mapping(t_bytes4,t_bytes32)"
          },
          {
            "astId": 598,
            "contract": "contracts/facets/StrategyFacet.sol:StrategyFacet",
            "label": "selectorSlots",
            "offset": 0,
            "slot": "1",
            "type": "t_mapping(t_uint256,t_bytes32)"
          },
          {
            "astId": 600,
            "contract": "contracts/facets/StrategyFacet.sol:StrategyFacet",
            "label": "selectorCount",
            "offset": 0,
            "slot": "2",
            "type": "t_uint16"
          },
          {
            "astId": 604,
            "contract": "contracts/facets/StrategyFacet.sol:StrategyFacet",
            "label": "supportedInterfaces",
            "offset": 0,
            "slot": "3",
            "type": "t_mapping(t_bytes4,t_bool)"
          },
          {
            "astId": 606,
            "contract": "contracts/facets/StrategyFacet.sol:StrategyFacet",
            "label": "owner",
            "offset": 0,
            "slot": "4",
            "type": "t_address"
          },
          {
            "astId": 608,
            "contract": "contracts/facets/StrategyFacet.sol:StrategyFacet",
            "label": "nextStrategyId",
            "offset": 0,
            "slot": "5",
            "type": "t_uint256"
          },
          {
            "astId": 613,
            "contract": "contracts/facets/StrategyFacet.sol:StrategyFacet",
            "label": "strategies",
            "offset": 0,
            "slot": "6",
            "type": "t_mapping(t_uint256,t_struct(Strategy)589_storage)"
          },
          {
            "astId": 617,
            "contract": "contracts/facets/StrategyFacet.sol:StrategyFacet",
            "label": "feeds",
            "offset": 0,
            "slot": "7",
            "type": "t_mapping(t_address,t_address)"
          },
          {
            "astId": 621,
            "contract": "contracts/facets/StrategyFacet.sol:StrategyFacet",
            "label": "nonces",
            "offset": 0,
            "slot": "8",
            "type": "t_mapping(t_address,t_uint256)"
          },
          {
            "astId": 624,
            "contract": "contracts/facets/StrategyFacet.sol:StrategyFacet",
            "label": "reentrancyStatus",
            "offset": 0,
            "slot": "9",
            "type": "t_enum(ReentrancyStatus)363"
          },
          {
            "astId": 626,
            "contract": "contracts/facets/StrategyFacet.sol:StrategyFacet",
            "label": "sequencerUptimeFeed",
            "offset": 1,
            "slot": "9",
            "type": "t_address"
          },
          {
            "astId": 628,
            "contract": "contracts/facets/StrategyFacet.sol:StrategyFacet",
            "label": "maxStalePeriod",
            "offset": 0,
            "slot": "10",
            "type": "t_uint256"
          }
        ],
        "numberOfBytes": "352"
      },
      "t_struct(Strategy)589_storage": {
        "encoding": "inplace",
        "label": "struct Strategy",
        "members": [
          {
            "astId": 552,
            "contract": "contracts/facets/StrategyFacet.sol:StrategyFacet",
            "label": "user",
            "offset": 0,
            "slot": "0",
            "type": "t_address"
          },
          {
            "astId": 555,
            "contract": "contracts/facets/StrategyFacet.sol:StrategyFacet",
            "label": "parameters",
            "offset": 0,
            "slot": "1",
            "type": "t_struct(StrategyParameters)549_storage"
          },
          {
            "astId": 557,
            "contract": "contracts/facets/StrategyFacet.sol:StrategyFacet",
            "label": "sellPercentageAmount",
            "offset": 0,
            "slot": "76",
            "type": "t_uint256"
          },
          {
            "astId": 559,
            "contract": "contracts/facets/StrategyFacet.sol:StrategyFacet",
            "label": "buyPercentageAmount",
            "offset": 0,
            "slot": "77",
            "type": "t_uint256"
          },
          {
            "astId": 561,
            "contract": "contracts/facets/StrategyFacet.sol:StrategyFacet",
            "label": "sellPercentageTotalAmount",
            "offset": 0,
            "slot": "78",
            "type": "t_uint256"
          },
          {
            "astId": 563,
            "contract": "contracts/facets/StrategyFacet.sol:StrategyFacet",
            "label": "buyPercentageTotalAmount",
            "offset": 0,
            "slot": "79",
            "type": "t_uint256"
          },
          {
            "astId": 565,
            "contract": "contracts/facets/StrategyFacet.sol:StrategyFacet",
            "label": "sellTwapExecutedAt",
            "offset": 0,
            "slot": "80",
            "type": "t_uint256"
          },
          {
            "astId": 567,
            "contract": "contracts/facets/StrategyFacet.sol:StrategyFacet",
            "label": "buyTwapExecutedAt",
            "offset": 0,
            "slot": "81",
            "type": "t_uint256"
          },
          {
            "astId": 569,
            "contract": "contracts/facets/StrategyFacet.sol:StrategyFacet",
            "label": "investRoundIdForBTD",
            "offset": 0,
            "slot": "82",
            "type": "t_uint80"
          },
          {
            "astId": 571,
            "contract": "contracts/facets/StrategyFacet.sol:StrategyFacet",
            "label": "stableRoundIdForBTD",
            "offset": 10,
            "slot": "82",
            "type": "t_uint80"
          },
          {
            "astId": 573,
            "contract": "contracts/facets/StrategyFacet.sol:StrategyFacet",
            "label": "investRoundIdForSTR",
            "offset": 20,
            "slot": "82",
            "type": "t_uint80"
          },
          {
            "astId": 575,
            "contract": "contracts/facets/StrategyFacet.sol:StrategyFacet",
            "label": "stableRoundIdForSTR",
            "offset": 0,
            "slot": "83",
            "type": "t_uint80"
          },
          {
            "astId": 577,
            "contract": "contracts/facets/StrategyFacet.sol:StrategyFacet",
            "label": "investPrice",
            "offset": 0,
            "slot": "84",
            "type": "t_uint256"
          },
          {
            "astId": 579,
            "contract": "contracts/facets/StrategyFacet.sol:StrategyFacet",
            "label": "profit",
            "offset": 0,
            "slot": "85",
            "type": "t_uint256"
          },
          {
            "astId": 581,
            "contract": "contracts/facets/StrategyFacet.sol:StrategyFacet",
            "label": "budget",
            "offset": 0,
            "slot": "86",
            "type": "t_uint256"
          },
          {
            "astId": 584,
            "contract": "contracts/facets/StrategyFacet.sol:StrategyFacet",
            "label": "status",
            "offset": 0,
            "slot": "87",
            "type": "t_enum(Status)368"
          },
          {
            "astId": 588,
            "contract": "contracts/facets/StrategyFacet.sol:StrategyFacet",
            "label": "__gap",
            "offset": 0,
            "slot": "88",
            "type": "t_array(t_uint256)50_storage"
          }
        ],
        "numberOfBytes": "4416"
      },
      "t_struct(StrategyParameters)549_storage": {
        "encoding": "inplace",
        "label": "struct StrategyParameters",
        "members": [
          {
            "astId": 475,
            "contract": "contracts/facets/StrategyFacet.sol:StrategyFacet",
            "label": "_investToken",
            "offset": 0,
            "slot": "0",
            "type": "t_address"
          },
          {
            "astId": 477,
            "contract": "contracts/facets/StrategyFacet.sol:StrategyFacet",
            "label": "_investAmount",
            "offset": 0,
            "slot": "1",
            "type": "t_uint256"
          },
          {
            "astId": 479,
            "contract": "contracts/facets/StrategyFacet.sol:StrategyFacet",
            "label": "_stableToken",
            "offset": 0,
            "slot": "2",
            "type": "t_address"
          },
          {
            "astId": 481,
            "contract": "contracts/facets/StrategyFacet.sol:StrategyFacet",
            "label": "_stableAmount",
            "offset": 0,
            "slot": "3",
            "type": "t_uint256"
          },
          {
            "astId": 483,
            "contract": "contracts/facets/StrategyFacet.sol:StrategyFacet",
            "label": "_impact",
            "offset": 0,
            "slot": "4",
            "type": "t_uint256"
          },
          {
            "astId": 486,
            "contract": "contracts/facets/StrategyFacet.sol:StrategyFacet",
            "label": "_floorType",
            "offset": 0,
            "slot": "5",
            "type": "t_enum(FloorLegType)373"
          },
          {
            "astId": 488,
            "contract": "contracts/facets/StrategyFacet.sol:StrategyFacet",
            "label": "_floorValue",
            "offset": 0,
            "slot": "6",
            "type": "t_uint256"
          },
          {
            "astId": 490,
            "contract": "contracts/facets/StrategyFacet.sol:StrategyFacet",
            "label": "_liquidateOnFloor",
            "offset": 0,
            "slot": "7",
            "type": "t_bool"
          },
          {
            "astId": 492,
            "contract": "contracts/facets/StrategyFacet.sol:StrategyFacet",
            "label": "_cancelOnFloor",
            "offset": 1,
            "slot": "7",
            "type": "t_bool"
          },
          {
            "astId": 494,
            "contract": "contracts/facets/StrategyFacet.sol:StrategyFacet",
            "label": "_minimumLoss",
            "offset": 0,
            "slot": "8",
            "type": "t_uint256"
          },
          {
            "astId": 497,
            "contract": "contracts/facets/StrategyFacet.sol:StrategyFacet",
            "label": "_buyType",
            "offset": 0,
            "slot": "9",
            "type": "t_enum(BuyLegType)377"
          },
          {
            "astId": 499,
            "contract": "contracts/facets/StrategyFacet.sol:StrategyFacet",
            "label": "_buyValue",
            "offset": 0,
            "slot": "10",
            "type": "t_uint256"
          },
          {
            "astId": 501,
            "contract": "contracts/facets/StrategyFacet.sol:StrategyFacet",
            "label": "_buyTwapTime",
            "offset": 0,
            "slot": "11",
            "type": "t_uint256"
          },
          {
            "astId": 504,
            "contract": "contracts/facets/StrategyFacet.sol:StrategyFacet",
            "label": "_buyTwapTimeUnit",
            "offset": 0,
            "slot": "12",
            "type": "t_enum(TimeUnit)399"
          },
          {
            "astId": 506,
            "contract": "contracts/facets/StrategyFacet.sol:StrategyFacet",
            "label": "_btdValue",
            "offset": 0,
            "slot": "13",
            "type": "t_uint256"
          },
          {
            "astId": 509,
            "contract": "contracts/facets/StrategyFacet.sol:StrategyFacet",
            "label": "_btdType",
            "offset": 0,
            "slot": "14",
            "type": "t_enum(DIP_SPIKE)389"
          },
          {
            "astId": 512,
            "contract": "contracts/facets/StrategyFacet.sol:StrategyFacet",
            "label": "_buyDCAUnit",
            "offset": 1,
            "slot": "14",
            "type": "t_enum(DCA_UNIT)394"
          },
          {
            "astId": 514,
            "contract": "contracts/facets/StrategyFacet.sol:StrategyFacet",
            "label": "_buyDCAValue",
            "offset": 0,
            "slot": "15",
            "type": "t_uint256"
          },
          {
            "astId": 517,
            "contract": "contracts/facets/StrategyFacet.sol:StrategyFacet",
            "label": "_sellType",
            "offset": 0,
            "slot": "16",
            "type": "t_enum(SellLegType)382"
          },
          {
            "astId": 519,
            "contract": "contracts/facets/StrategyFacet.sol:StrategyFacet",
            "label": "_sellValue",
            "offset": 0,
            "slot": "17",
            "type": "t_uint256"
          },
          {
            "astId": 521,
            "contract": "contracts/facets/StrategyFacet.sol:StrategyFacet",
            "label": "_highSellValue",
            "offset": 0,
            "slot": "18",
            "type": "t_uint256"
          },
          {
            "astId": 523,
            "contract": "contracts/facets/StrategyFacet.sol:StrategyFacet",
            "label": "_minimumProfit",
            "offset": 0,
            "slot": "19",
            "type": "t_uint256"
          },
          {
            "astId": 525,
            "contract": "contracts/facets/StrategyFacet.sol:StrategyFacet",
            "label": "_strValue",
            "offset": 0,
            "slot": "20",
            "type": "t_uint256"
          },
          {
            "astId": 528,
            "contract": "contracts/facets/StrategyFacet.sol:StrategyFacet",
            "label": "_strType",
            "offset": 0,
            "slot": "21",
            "type": "t_enum(DIP_SPIKE)389"
          },
          {
            "astId": 531,
            "contract": "contracts/facets/StrategyFacet.sol:StrategyFacet",
            "label": "_sellDCAUnit",
            "offset": 1,
            "slot": "21",
            "type": "t_enum(DCA_UNIT)394"
          },
          {
            "astId": 533,
            "contract": "contracts/facets/StrategyFacet.sol:StrategyFacet",
            "label": "_sellDCAValue",
            "offset": 0,
            "slot": "22",
            "type": "t_uint256"
          },
          {
            "astId": 535,
            "contract": "contracts/facets/StrategyFacet.sol:StrategyFacet",
            "label": "_sellTwapTime",
            "offset": 0,
            "slot": "23",
            "type": "t_uint256"
          },
          {
            "astId": 538,
            "contract": "contracts/facets/StrategyFacet.sol:StrategyFacet",
            "label": "_sellTwapTimeUnit",
            "offset": 0,
            "slot": "24",
            "type": "t_enum(TimeUnit)399"
          },
          {
            "astId": 540,
            "contract": "contracts/facets/StrategyFacet.sol:StrategyFacet",
            "label": "_completeOnSell",
            "offset": 1,
            "slot": "24",
            "type": "t_bool"
          },
          {
            "astId": 542,
            "contract": "contracts/facets/StrategyFacet.sol:StrategyFacet",
            "label": "_current_price_sell",
            "offset": 2,
            "slot": "24",
            "type": "t_bool"
          },
          {
            "astId": 544,
            "contract": "contracts/facets/StrategyFacet.sol:StrategyFacet",
            "label": "_current_price_buy",
            "offset": 3,
            "slot": "24",
            "type": "t_bool"
          },
          {
            "astId": 548,
            "contract": "contracts/facets/StrategyFacet.sol:StrategyFacet",
            "label": "__gap",
            "offset": 0,
            "slot": "25",
            "type": "t_array(t_uint256)50_storage"
          }
        ],
        "numberOfBytes": "2400"
      },
      "t_uint16": {
        "encoding": "inplace",
        "label": "uint16",
        "numberOfBytes": "2"
      },
      "t_uint256": {
        "encoding": "inplace",
        "label": "uint256",
        "numberOfBytes": "32"
      },
      "t_uint80": {
        "encoding": "inplace",
        "label": "uint80",
        "numberOfBytes": "10"
      }
    }
  }
}