{
  "address": "0x6DA5fF43098263B9b804Ba24c48cAfcE86C5f13C",
  "abi": [
    {
      "inputs": [],
      "name": "AlreadyCancelled",
      "type": "error"
    },
    {
      "inputs": [],
      "name": "AtLeastOneOptionRequired",
      "type": "error"
    },
    {
      "inputs": [],
      "name": "BTDIsNotSet",
      "type": "error"
    },
    {
      "inputs": [],
      "name": "BTDWithoutBTDType",
      "type": "error"
    },
    {
      "inputs": [],
      "name": "BothBuyTwapAndBTD",
      "type": "error"
    },
    {
      "inputs": [],
      "name": "BothSellTwapAndSTR",
      "type": "error"
    },
    {
      "inputs": [],
      "name": "BothStableAndInvestAmountProvided",
      "type": "error"
    },
    {
      "inputs": [],
      "name": "BtdValueGreaterThan100",
      "type": "error"
    },
    {
      "inputs": [],
      "name": "BuyAndSellAtMisorder",
      "type": "error"
    },
    {
      "inputs": [],
      "name": "BuyDCANotSet",
      "type": "error"
    },
    {
      "inputs": [],
      "name": "BuyDCAUnitWithoutBuyDCAValue",
      "type": "error"
    },
    {
      "inputs": [],
      "name": "BuyDCAValueRangeIsNotValid",
      "type": "error"
    },
    {
      "inputs": [],
      "name": "BuyDCAWithoutBuy",
      "type": "error"
    },
    {
      "inputs": [],
      "name": "BuyDCAWithoutBuyDCAUnit",
      "type": "error"
    },
    {
      "inputs": [],
      "name": "BuyNeverExecute",
      "type": "error"
    },
    {
      "inputs": [],
      "name": "BuyNotSet",
      "type": "error"
    },
    {
      "inputs": [],
      "name": "BuySellCurrentPrice",
      "type": "error"
    },
    {
      "inputs": [],
      "name": "BuyTwapNotSelected",
      "type": "error"
    },
    {
      "inputs": [],
      "name": "BuyTwapTimeUnitNotSelected",
      "type": "error"
    },
    {
      "inputs": [],
      "name": "DCAValueShouldBeLessThanIntitialAmount",
      "type": "error"
    },
    {
      "inputs": [],
      "name": "FeedNotFound",
      "type": "error"
    },
    {
      "inputs": [],
      "name": "FloorNotSet",
      "type": "error"
    },
    {
      "inputs": [],
      "name": "FloorPercentageNotSet",
      "type": "error"
    },
    {
      "inputs": [],
      "name": "FloorValueGreaterThanBuyValue",
      "type": "error"
    },
    {
      "inputs": [],
      "name": "FloorValueGreaterThanSellValue",
      "type": "error"
    },
    {
      "inputs": [],
      "name": "HighSellValueIsChosenWithoutSeLLDCA",
      "type": "error"
    },
    {
      "inputs": [],
      "name": "InvalidBuyType",
      "type": "error"
    },
    {
      "inputs": [],
      "name": "InvalidFloorType",
      "type": "error"
    },
    {
      "inputs": [],
      "name": "InvalidHighSellValue",
      "type": "error"
    },
    {
      "inputs": [],
      "name": "InvalidImpact",
      "type": "error"
    },
    {
      "inputs": [],
      "name": "InvalidInvestToken",
      "type": "error"
    },
    {
      "inputs": [],
      "name": "InvalidNonce",
      "type": "error"
    },
    {
      "inputs": [],
      "name": "InvalidPrice",
      "type": "error"
    },
    {
      "inputs": [],
      "name": "InvalidSellType",
      "type": "error"
    },
    {
      "inputs": [],
      "name": "InvalidSellValue",
      "type": "error"
    },
    {
      "inputs": [],
      "name": "InvalidSigner",
      "type": "error"
    },
    {
      "inputs": [],
      "name": "InvalidStableAmount",
      "type": "error"
    },
    {
      "inputs": [],
      "name": "InvalidStableToken",
      "type": "error"
    },
    {
      "inputs": [],
      "name": "InvestAmountMustBeProvided",
      "type": "error"
    },
    {
      "inputs": [],
      "name": "NoAmountProvided",
      "type": "error"
    },
    {
      "inputs": [],
      "name": "NothingToUpdate",
      "type": "error"
    },
    {
      "inputs": [],
      "name": "OnlyOwnerCanCancelStrategies",
      "type": "error"
    },
    {
      "inputs": [],
      "name": "OnlyOwnerCanUpdateStrategies",
      "type": "error"
    },
    {
      "inputs": [],
      "name": "OrphandStrategy",
      "type": "error"
    },
    {
      "inputs": [],
      "name": "PercentageNotInRange",
      "type": "error"
    },
    {
      "inputs": [],
      "name": "ReentrancyGuardReentrantCall",
      "type": "error"
    },
    {
      "inputs": [],
      "name": "STRIsNotSet",
      "type": "error"
    },
    {
      "inputs": [],
      "name": "SellDCANotSet",
      "type": "error"
    },
    {
      "inputs": [],
      "name": "SellDCAUnitWithoutSellDCAValue",
      "type": "error"
    },
    {
      "inputs": [],
      "name": "SellDCAValueRangeIsNotValid",
      "type": "error"
    },
    {
      "inputs": [],
      "name": "SellDCAWithoutSell",
      "type": "error"
    },
    {
      "inputs": [],
      "name": "SellNotSelected",
      "type": "error"
    },
    {
      "inputs": [],
      "name": "SellPercentageNotSet",
      "type": "error"
    },
    {
      "inputs": [],
      "name": "SellTwapNotSelected",
      "type": "error"
    },
    {
      "inputs": [],
      "name": "SellTwapOrStrWithoutSellDCAUnit",
      "type": "error"
    },
    {
      "inputs": [],
      "name": "SellTwapTimeUnitNotSelected",
      "type": "error"
    },
    {
      "inputs": [],
      "name": "StrValueGreaterThan100",
      "type": "error"
    },
    {
      "inputs": [],
      "name": "StrWithoutStrType",
      "type": "error"
    },
    {
      "inputs": [],
      "name": "StrategyIsNotActive",
      "type": "error"
    },
    {
      "inputs": [],
      "name": "TokensMustDiffer",
      "type": "error"
    },
    {
      "anonymous": false,
      "inputs": [
        {
          "indexed": true,
          "internalType": "uint256",
          "name": "strategyId",
          "type": "uint256"
        },
        {
          "indexed": false,
          "internalType": "uint256",
          "name": "investTokenPrice",
          "type": "uint256"
        },
        {
          "indexed": false,
          "internalType": "uint256",
          "name": "stableTokenPrice",
          "type": "uint256"
        }
      ],
      "name": "StrategyCancelled",
      "type": "event"
    },
    {
      "anonymous": false,
      "inputs": [
        {
          "indexed": true,
          "internalType": "uint256",
          "name": "strategyId",
          "type": "uint256"
        },
        {
          "indexed": false,
          "internalType": "address",
          "name": "user",
          "type": "address"
        },
        {
          "components": [
            {
              "internalType": "address",
              "name": "_investToken",
              "type": "address"
            },
            {
              "internalType": "uint256",
              "name": "_investAmount",
              "type": "uint256"
            },
            {
              "internalType": "address",
              "name": "_stableToken",
              "type": "address"
            },
            {
              "internalType": "uint256",
              "name": "_stableAmount",
              "type": "uint256"
            },
            {
              "internalType": "uint256",
              "name": "_impact",
              "type": "uint256"
            },
            {
              "internalType": "enum FloorLegType",
              "name": "_floorType",
              "type": "uint8"
            },
            {
              "internalType": "uint256",
              "name": "_floorValue",
              "type": "uint256"
            },
            {
              "internalType": "bool",
              "name": "_liquidateOnFloor",
              "type": "bool"
            },
            {
              "internalType": "bool",
              "name": "_cancelOnFloor",
              "type": "bool"
            },
            {
              "internalType": "uint256",
              "name": "_minimumLoss",
              "type": "uint256"
            },
            {
              "internalType": "enum BuyLegType",
              "name": "_buyType",
              "type": "uint8"
            },
            {
              "internalType": "uint256",
              "name": "_buyValue",
              "type": "uint256"
            },
            {
              "internalType": "uint256",
              "name": "_buyTwapTime",
              "type": "uint256"
            },
            {
              "internalType": "enum TimeUnit",
              "name": "_buyTwapTimeUnit",
              "type": "uint8"
            },
            {
              "internalType": "uint256",
              "name": "_btdValue",
              "type": "uint256"
            },
            {
              "internalType": "enum DIP_SPIKE",
              "name": "_btdType",
              "type": "uint8"
            },
            {
              "internalType": "enum DCA_UNIT",
              "name": "_buyDCAUnit",
              "type": "uint8"
            },
            {
              "internalType": "uint256",
              "name": "_buyDCAValue",
              "type": "uint256"
            },
            {
              "internalType": "enum SellLegType",
              "name": "_sellType",
              "type": "uint8"
            },
            {
              "internalType": "uint256",
              "name": "_sellValue",
              "type": "uint256"
            },
            {
              "internalType": "uint256",
              "name": "_highSellValue",
              "type": "uint256"
            },
            {
              "internalType": "uint256",
              "name": "_minimumProfit",
              "type": "uint256"
            },
            {
              "internalType": "uint256",
              "name": "_strValue",
              "type": "uint256"
            },
            {
              "internalType": "enum DIP_SPIKE",
              "name": "_strType",
              "type": "uint8"
            },
            {
              "internalType": "enum DCA_UNIT",
              "name": "_sellDCAUnit",
              "type": "uint8"
            },
            {
              "internalType": "uint256",
              "name": "_sellDCAValue",
              "type": "uint256"
            },
            {
              "internalType": "uint256",
              "name": "_sellTwapTime",
              "type": "uint256"
            },
            {
              "internalType": "enum TimeUnit",
              "name": "_sellTwapTimeUnit",
              "type": "uint8"
            },
            {
              "internalType": "bool",
              "name": "_completeOnSell",
              "type": "bool"
            },
            {
              "internalType": "bool",
              "name": "_current_price_sell",
              "type": "bool"
            },
            {
              "internalType": "bool",
              "name": "_current_price_buy",
              "type": "bool"
            }
          ],
          "indexed": false,
          "internalType": "struct StrategyParameters",
          "name": "parameter",
          "type": "tuple"
        },
        {
          "indexed": false,
          "internalType": "uint80",
          "name": "investRoundId",
          "type": "uint80"
        },
        {
          "indexed": false,
          "internalType": "uint80",
          "name": "stableRoundId",
          "type": "uint80"
        },
        {
          "indexed": false,
          "internalType": "uint256",
          "name": "budget",
          "type": "uint256"
        },
        {
          "indexed": false,
          "internalType": "uint256",
          "name": "price",
          "type": "uint256"
        }
      ],
      "name": "StrategyCreated",
      "type": "event"
    },
    {
      "anonymous": false,
      "inputs": [
        {
          "indexed": true,
          "internalType": "uint256",
          "name": "strategyId",
          "type": "uint256"
        },
        {
          "components": [
            {
              "internalType": "address",
              "name": "_investToken",
              "type": "address"
            },
            {
              "internalType": "uint256",
              "name": "_investAmount",
              "type": "uint256"
            },
            {
              "internalType": "address",
              "name": "_stableToken",
              "type": "address"
            },
            {
              "internalType": "uint256",
              "name": "_stableAmount",
              "type": "uint256"
            },
            {
              "internalType": "uint256",
              "name": "_impact",
              "type": "uint256"
            },
            {
              "internalType": "enum FloorLegType",
              "name": "_floorType",
              "type": "uint8"
            },
            {
              "internalType": "uint256",
              "name": "_floorValue",
              "type": "uint256"
            },
            {
              "internalType": "bool",
              "name": "_liquidateOnFloor",
              "type": "bool"
            },
            {
              "internalType": "bool",
              "name": "_cancelOnFloor",
              "type": "bool"
            },
            {
              "internalType": "uint256",
              "name": "_minimumLoss",
              "type": "uint256"
            },
            {
              "internalType": "enum BuyLegType",
              "name": "_buyType",
              "type": "uint8"
            },
            {
              "internalType": "uint256",
              "name": "_buyValue",
              "type": "uint256"
            },
            {
              "internalType": "uint256",
              "name": "_buyTwapTime",
              "type": "uint256"
            },
            {
              "internalType": "enum TimeUnit",
              "name": "_buyTwapTimeUnit",
              "type": "uint8"
            },
            {
              "internalType": "uint256",
              "name": "_btdValue",
              "type": "uint256"
            },
            {
              "internalType": "enum DIP_SPIKE",
              "name": "_btdType",
              "type": "uint8"
            },
            {
              "internalType": "enum DCA_UNIT",
              "name": "_buyDCAUnit",
              "type": "uint8"
            },
            {
              "internalType": "uint256",
              "name": "_buyDCAValue",
              "type": "uint256"
            },
            {
              "internalType": "enum SellLegType",
              "name": "_sellType",
              "type": "uint8"
            },
            {
              "internalType": "uint256",
              "name": "_sellValue",
              "type": "uint256"
            },
            {
              "internalType": "uint256",
              "name": "_highSellValue",
              "type": "uint256"
            },
            {
              "internalType": "uint256",
              "name": "_minimumProfit",
              "type": "uint256"
            },
            {
              "internalType": "uint256",
              "name": "_strValue",
              "type": "uint256"
            },
            {
              "internalType": "enum DIP_SPIKE",
              "name": "_strType",
              "type": "uint8"
            },
            {
              "internalType": "enum DCA_UNIT",
              "name": "_sellDCAUnit",
              "type": "uint8"
            },
            {
              "internalType": "uint256",
              "name": "_sellDCAValue",
              "type": "uint256"
            },
            {
              "internalType": "uint256",
              "name": "_sellTwapTime",
              "type": "uint256"
            },
            {
              "internalType": "enum TimeUnit",
              "name": "_sellTwapTimeUnit",
              "type": "uint8"
            },
            {
              "internalType": "bool",
              "name": "_completeOnSell",
              "type": "bool"
            },
            {
              "internalType": "bool",
              "name": "_current_price_sell",
              "type": "bool"
            },
            {
              "internalType": "bool",
              "name": "_current_price_buy",
              "type": "bool"
            }
          ],
          "indexed": false,
          "internalType": "struct StrategyParameters",
          "name": "updateStruct",
          "type": "tuple"
        }
      ],
      "name": "StrategyUpdated",
      "type": "event"
    },
    {
      "inputs": [
        {
          "internalType": "uint256",
          "name": "id",
          "type": "uint256"
        }
      ],
      "name": "cancelStrategy",
      "outputs": [],
      "stateMutability": "nonpayable",
      "type": "function"
    },
    {
      "inputs": [
        {
          "internalType": "uint256",
          "name": "id",
          "type": "uint256"
        },
        {
          "internalType": "uint256",
          "name": "nonce",
          "type": "uint256"
        },
        {
          "internalType": "bytes",
          "name": "signature",
          "type": "bytes"
        },
        {
          "internalType": "address",
          "name": "account",
          "type": "address"
        }
      ],
      "name": "cancelStrategyOnBehalf",
      "outputs": [],
      "stateMutability": "nonpayable",
      "type": "function"
    },
    {
      "inputs": [
        {
          "components": [
            {
              "internalType": "address",
              "name": "_investToken",
              "type": "address"
            },
            {
              "internalType": "uint256",
              "name": "_investAmount",
              "type": "uint256"
            },
            {
              "internalType": "address",
              "name": "_stableToken",
              "type": "address"
            },
            {
              "internalType": "uint256",
              "name": "_stableAmount",
              "type": "uint256"
            },
            {
              "internalType": "uint256",
              "name": "_impact",
              "type": "uint256"
            },
            {
              "internalType": "enum FloorLegType",
              "name": "_floorType",
              "type": "uint8"
            },
            {
              "internalType": "uint256",
              "name": "_floorValue",
              "type": "uint256"
            },
            {
              "internalType": "bool",
              "name": "_liquidateOnFloor",
              "type": "bool"
            },
            {
              "internalType": "bool",
              "name": "_cancelOnFloor",
              "type": "bool"
            },
            {
              "internalType": "uint256",
              "name": "_minimumLoss",
              "type": "uint256"
            },
            {
              "internalType": "enum BuyLegType",
              "name": "_buyType",
              "type": "uint8"
            },
            {
              "internalType": "uint256",
              "name": "_buyValue",
              "type": "uint256"
            },
            {
              "internalType": "uint256",
              "name": "_buyTwapTime",
              "type": "uint256"
            },
            {
              "internalType": "enum TimeUnit",
              "name": "_buyTwapTimeUnit",
              "type": "uint8"
            },
            {
              "internalType": "uint256",
              "name": "_btdValue",
              "type": "uint256"
            },
            {
              "internalType": "enum DIP_SPIKE",
              "name": "_btdType",
              "type": "uint8"
            },
            {
              "internalType": "enum DCA_UNIT",
              "name": "_buyDCAUnit",
              "type": "uint8"
            },
            {
              "internalType": "uint256",
              "name": "_buyDCAValue",
              "type": "uint256"
            },
            {
              "internalType": "enum SellLegType",
              "name": "_sellType",
              "type": "uint8"
            },
            {
              "internalType": "uint256",
              "name": "_sellValue",
              "type": "uint256"
            },
            {
              "internalType": "uint256",
              "name": "_highSellValue",
              "type": "uint256"
            },
            {
              "internalType": "uint256",
              "name": "_minimumProfit",
              "type": "uint256"
            },
            {
              "internalType": "uint256",
              "name": "_strValue",
              "type": "uint256"
            },
            {
              "internalType": "enum DIP_SPIKE",
              "name": "_strType",
              "type": "uint8"
            },
            {
              "internalType": "enum DCA_UNIT",
              "name": "_sellDCAUnit",
              "type": "uint8"
            },
            {
              "internalType": "uint256",
              "name": "_sellDCAValue",
              "type": "uint256"
            },
            {
              "internalType": "uint256",
              "name": "_sellTwapTime",
              "type": "uint256"
            },
            {
              "internalType": "enum TimeUnit",
              "name": "_sellTwapTimeUnit",
              "type": "uint8"
            },
            {
              "internalType": "bool",
              "name": "_completeOnSell",
              "type": "bool"
            },
            {
              "internalType": "bool",
              "name": "_current_price_sell",
              "type": "bool"
            },
            {
              "internalType": "bool",
              "name": "_current_price_buy",
              "type": "bool"
            }
          ],
          "internalType": "struct StrategyParameters",
          "name": "_parameter",
          "type": "tuple"
        }
      ],
      "name": "createStrategy",
      "outputs": [],
      "stateMutability": "nonpayable",
      "type": "function"
    },
    {
      "inputs": [
        {
          "components": [
            {
              "internalType": "address",
              "name": "token",
              "type": "address"
            },
            {
              "internalType": "address",
              "name": "owner",
              "type": "address"
            },
            {
              "internalType": "address",
              "name": "spender",
              "type": "address"
            },
            {
              "internalType": "uint256",
              "name": "value",
              "type": "uint256"
            },
            {
              "internalType": "uint256",
              "name": "deadline",
              "type": "uint256"
            },
            {
              "internalType": "uint8",
              "name": "v",
              "type": "uint8"
            },
            {
              "internalType": "bytes32",
              "name": "r",
              "type": "bytes32"
            },
            {
              "internalType": "bytes32",
              "name": "s",
              "type": "bytes32"
            }
          ],
          "internalType": "struct StrategyFacet.Permit[]",
          "name": "permits",
          "type": "tuple[]"
        },
        {
          "components": [
            {
              "internalType": "address",
              "name": "_investToken",
              "type": "address"
            },
            {
              "internalType": "uint256",
              "name": "_investAmount",
              "type": "uint256"
            },
            {
              "internalType": "address",
              "name": "_stableToken",
              "type": "address"
            },
            {
              "internalType": "uint256",
              "name": "_stableAmount",
              "type": "uint256"
            },
            {
              "internalType": "uint256",
              "name": "_impact",
              "type": "uint256"
            },
            {
              "internalType": "enum FloorLegType",
              "name": "_floorType",
              "type": "uint8"
            },
            {
              "internalType": "uint256",
              "name": "_floorValue",
              "type": "uint256"
            },
            {
              "internalType": "bool",
              "name": "_liquidateOnFloor",
              "type": "bool"
            },
            {
              "internalType": "bool",
              "name": "_cancelOnFloor",
              "type": "bool"
            },
            {
              "internalType": "uint256",
              "name": "_minimumLoss",
              "type": "uint256"
            },
            {
              "internalType": "enum BuyLegType",
              "name": "_buyType",
              "type": "uint8"
            },
            {
              "internalType": "uint256",
              "name": "_buyValue",
              "type": "uint256"
            },
            {
              "internalType": "uint256",
              "name": "_buyTwapTime",
              "type": "uint256"
            },
            {
              "internalType": "enum TimeUnit",
              "name": "_buyTwapTimeUnit",
              "type": "uint8"
            },
            {
              "internalType": "uint256",
              "name": "_btdValue",
              "type": "uint256"
            },
            {
              "internalType": "enum DIP_SPIKE",
              "name": "_btdType",
              "type": "uint8"
            },
            {
              "internalType": "enum DCA_UNIT",
              "name": "_buyDCAUnit",
              "type": "uint8"
            },
            {
              "internalType": "uint256",
              "name": "_buyDCAValue",
              "type": "uint256"
            },
            {
              "internalType": "enum SellLegType",
              "name": "_sellType",
              "type": "uint8"
            },
            {
              "internalType": "uint256",
              "name": "_sellValue",
              "type": "uint256"
            },
            {
              "internalType": "uint256",
              "name": "_highSellValue",
              "type": "uint256"
            },
            {
              "internalType": "uint256",
              "name": "_minimumProfit",
              "type": "uint256"
            },
            {
              "internalType": "uint256",
              "name": "_strValue",
              "type": "uint256"
            },
            {
              "internalType": "enum DIP_SPIKE",
              "name": "_strType",
              "type": "uint8"
            },
            {
              "internalType": "enum DCA_UNIT",
              "name": "_sellDCAUnit",
              "type": "uint8"
            },
            {
              "internalType": "uint256",
              "name": "_sellDCAValue",
              "type": "uint256"
            },
            {
              "internalType": "uint256",
              "name": "_sellTwapTime",
              "type": "uint256"
            },
            {
              "internalType": "enum TimeUnit",
              "name": "_sellTwapTimeUnit",
              "type": "uint8"
            },
            {
              "internalType": "bool",
              "name": "_completeOnSell",
              "type": "bool"
            },
            {
              "internalType": "bool",
              "name": "_current_price_sell",
              "type": "bool"
            },
            {
              "internalType": "bool",
              "name": "_current_price_buy",
              "type": "bool"
            }
          ],
          "internalType": "struct StrategyParameters",
          "name": "_parameter",
          "type": "tuple"
        },
        {
          "internalType": "address",
          "name": "account",
          "type": "address"
        },
        {
          "internalType": "uint256",
          "name": "nonce",
          "type": "uint256"
        },
        {
          "internalType": "bytes",
          "name": "signature",
          "type": "bytes"
        }
      ],
      "name": "createStrategyOnBehalf",
      "outputs": [],
      "stateMutability": "nonpayable",
      "type": "function"
    },
    {
      "inputs": [
        {
          "internalType": "uint256",
          "name": "id",
          "type": "uint256"
        },
        {
          "internalType": "uint256",
          "name": "nonce",
          "type": "uint256"
        },
        {
          "internalType": "address",
          "name": "account",
          "type": "address"
        }
      ],
      "name": "getMessageHashToCancel",
      "outputs": [
        {
          "internalType": "bytes32",
          "name": "",
          "type": "bytes32"
        }
      ],
      "stateMutability": "view",
      "type": "function"
    },
    {
      "inputs": [
        {
          "components": [
            {
              "internalType": "address",
              "name": "_investToken",
              "type": "address"
            },
            {
              "internalType": "uint256",
              "name": "_investAmount",
              "type": "uint256"
            },
            {
              "internalType": "address",
              "name": "_stableToken",
              "type": "address"
            },
            {
              "internalType": "uint256",
              "name": "_stableAmount",
              "type": "uint256"
            },
            {
              "internalType": "uint256",
              "name": "_impact",
              "type": "uint256"
            },
            {
              "internalType": "enum FloorLegType",
              "name": "_floorType",
              "type": "uint8"
            },
            {
              "internalType": "uint256",
              "name": "_floorValue",
              "type": "uint256"
            },
            {
              "internalType": "bool",
              "name": "_liquidateOnFloor",
              "type": "bool"
            },
            {
              "internalType": "bool",
              "name": "_cancelOnFloor",
              "type": "bool"
            },
            {
              "internalType": "uint256",
              "name": "_minimumLoss",
              "type": "uint256"
            },
            {
              "internalType": "enum BuyLegType",
              "name": "_buyType",
              "type": "uint8"
            },
            {
              "internalType": "uint256",
              "name": "_buyValue",
              "type": "uint256"
            },
            {
              "internalType": "uint256",
              "name": "_buyTwapTime",
              "type": "uint256"
            },
            {
              "internalType": "enum TimeUnit",
              "name": "_buyTwapTimeUnit",
              "type": "uint8"
            },
            {
              "internalType": "uint256",
              "name": "_btdValue",
              "type": "uint256"
            },
            {
              "internalType": "enum DIP_SPIKE",
              "name": "_btdType",
              "type": "uint8"
            },
            {
              "internalType": "enum DCA_UNIT",
              "name": "_buyDCAUnit",
              "type": "uint8"
            },
            {
              "internalType": "uint256",
              "name": "_buyDCAValue",
              "type": "uint256"
            },
            {
              "internalType": "enum SellLegType",
              "name": "_sellType",
              "type": "uint8"
            },
            {
              "internalType": "uint256",
              "name": "_sellValue",
              "type": "uint256"
            },
            {
              "internalType": "uint256",
              "name": "_highSellValue",
              "type": "uint256"
            },
            {
              "internalType": "uint256",
              "name": "_minimumProfit",
              "type": "uint256"
            },
            {
              "internalType": "uint256",
              "name": "_strValue",
              "type": "uint256"
            },
            {
              "internalType": "enum DIP_SPIKE",
              "name": "_strType",
              "type": "uint8"
            },
            {
              "internalType": "enum DCA_UNIT",
              "name": "_sellDCAUnit",
              "type": "uint8"
            },
            {
              "internalType": "uint256",
              "name": "_sellDCAValue",
              "type": "uint256"
            },
            {
              "internalType": "uint256",
              "name": "_sellTwapTime",
              "type": "uint256"
            },
            {
              "internalType": "enum TimeUnit",
              "name": "_sellTwapTimeUnit",
              "type": "uint8"
            },
            {
              "internalType": "bool",
              "name": "_completeOnSell",
              "type": "bool"
            },
            {
              "internalType": "bool",
              "name": "_current_price_sell",
              "type": "bool"
            },
            {
              "internalType": "bool",
              "name": "_current_price_buy",
              "type": "bool"
            }
          ],
          "internalType": "struct StrategyParameters",
          "name": "_parameter",
          "type": "tuple"
        },
        {
          "internalType": "uint256",
          "name": "nonce",
          "type": "uint256"
        },
        {
          "internalType": "address",
          "name": "account",
          "type": "address"
        }
      ],
      "name": "getMessageHashToCreate",
      "outputs": [
        {
          "internalType": "bytes32",
          "name": "",
          "type": "bytes32"
        }
      ],
      "stateMutability": "view",
      "type": "function"
    },
    {
      "inputs": [
        {
          "internalType": "uint256",
          "name": "id",
          "type": "uint256"
        },
        {
          "components": [
            {
              "internalType": "uint256",
              "name": "sellValue",
              "type": "uint256"
            },
            {
              "internalType": "uint256",
              "name": "buyValue",
              "type": "uint256"
            },
            {
              "internalType": "uint256",
              "name": "strValue",
              "type": "uint256"
            },
            {
              "internalType": "uint256",
              "name": "btdValue",
              "type": "uint256"
            },
            {
              "internalType": "uint256",
              "name": "floorValue",
              "type": "uint256"
            },
            {
              "internalType": "uint256",
              "name": "highSellValue",
              "type": "uint256"
            },
            {
              "internalType": "uint256",
              "name": "buyTwapTime",
              "type": "uint256"
            },
            {
              "internalType": "enum TimeUnit",
              "name": "buyTwapTimeUnit",
              "type": "uint8"
            },
            {
              "internalType": "uint256",
              "name": "buyDCAValue",
              "type": "uint256"
            },
            {
              "internalType": "uint256",
              "name": "sellDCAValue",
              "type": "uint256"
            },
            {
              "internalType": "uint256",
              "name": "sellTwapTime",
              "type": "uint256"
            },
            {
              "internalType": "enum TimeUnit",
              "name": "sellTwapTimeUnit",
              "type": "uint8"
            },
            {
              "internalType": "bool",
              "name": "toggleCompleteOnSell",
              "type": "bool"
            },
            {
              "internalType": "bool",
              "name": "toggleLiquidateOnFloor",
              "type": "bool"
            },
            {
              "internalType": "bool",
              "name": "toggleCancelOnFloor",
              "type": "bool"
            },
            {
              "internalType": "uint256",
              "name": "impact",
              "type": "uint256"
            },
            {
              "internalType": "bool",
              "name": "current_price_sell",
              "type": "bool"
            },
            {
              "internalType": "bool",
              "name": "current_price_buy",
              "type": "bool"
            },
            {
              "internalType": "uint256",
              "name": "minimumLoss",
              "type": "uint256"
            },
            {
              "internalType": "uint256",
              "name": "minimumProfit",
              "type": "uint256"
            }
          ],
          "internalType": "struct UpdateStruct",
          "name": "updateStruct",
          "type": "tuple"
        },
        {
          "internalType": "uint256",
          "name": "nonce",
          "type": "uint256"
        },
        {
          "internalType": "address",
          "name": "account",
          "type": "address"
        }
      ],
      "name": "getMessageHashToUpdate",
      "outputs": [
        {
          "internalType": "bytes32",
          "name": "",
          "type": "bytes32"
        }
      ],
      "stateMutability": "view",
      "type": "function"
    },
    {
      "inputs": [
        {
          "internalType": "uint256",
          "name": "id",
          "type": "uint256"
        }
      ],
      "name": "getStrategy",
      "outputs": [
        {
          "components": [
            {
              "internalType": "address",
              "name": "user",
              "type": "address"
            },
            {
              "components": [
                {
                  "internalType": "address",
                  "name": "_investToken",
                  "type": "address"
                },
                {
                  "internalType": "uint256",
                  "name": "_investAmount",
                  "type": "uint256"
                },
                {
                  "internalType": "address",
                  "name": "_stableToken",
                  "type": "address"
                },
                {
                  "internalType": "uint256",
                  "name": "_stableAmount",
                  "type": "uint256"
                },
                {
                  "internalType": "uint256",
                  "name": "_impact",
                  "type": "uint256"
                },
                {
                  "internalType": "enum FloorLegType",
                  "name": "_floorType",
                  "type": "uint8"
                },
                {
                  "internalType": "uint256",
                  "name": "_floorValue",
                  "type": "uint256"
                },
                {
                  "internalType": "bool",
                  "name": "_liquidateOnFloor",
                  "type": "bool"
                },
                {
                  "internalType": "bool",
                  "name": "_cancelOnFloor",
                  "type": "bool"
                },
                {
                  "internalType": "uint256",
                  "name": "_minimumLoss",
                  "type": "uint256"
                },
                {
                  "internalType": "enum BuyLegType",
                  "name": "_buyType",
                  "type": "uint8"
                },
                {
                  "internalType": "uint256",
                  "name": "_buyValue",
                  "type": "uint256"
                },
                {
                  "internalType": "uint256",
                  "name": "_buyTwapTime",
                  "type": "uint256"
                },
                {
                  "internalType": "enum TimeUnit",
                  "name": "_buyTwapTimeUnit",
                  "type": "uint8"
                },
                {
                  "internalType": "uint256",
                  "name": "_btdValue",
                  "type": "uint256"
                },
                {
                  "internalType": "enum DIP_SPIKE",
                  "name": "_btdType",
                  "type": "uint8"
                },
                {
                  "internalType": "enum DCA_UNIT",
                  "name": "_buyDCAUnit",
                  "type": "uint8"
                },
                {
                  "internalType": "uint256",
                  "name": "_buyDCAValue",
                  "type": "uint256"
                },
                {
                  "internalType": "enum SellLegType",
                  "name": "_sellType",
                  "type": "uint8"
                },
                {
                  "internalType": "uint256",
                  "name": "_sellValue",
                  "type": "uint256"
                },
                {
                  "internalType": "uint256",
                  "name": "_highSellValue",
                  "type": "uint256"
                },
                {
                  "internalType": "uint256",
                  "name": "_minimumProfit",
                  "type": "uint256"
                },
                {
                  "internalType": "uint256",
                  "name": "_strValue",
                  "type": "uint256"
                },
                {
                  "internalType": "enum DIP_SPIKE",
                  "name": "_strType",
                  "type": "uint8"
                },
                {
                  "internalType": "enum DCA_UNIT",
                  "name": "_sellDCAUnit",
                  "type": "uint8"
                },
                {
                  "internalType": "uint256",
                  "name": "_sellDCAValue",
                  "type": "uint256"
                },
                {
                  "internalType": "uint256",
                  "name": "_sellTwapTime",
                  "type": "uint256"
                },
                {
                  "internalType": "enum TimeUnit",
                  "name": "_sellTwapTimeUnit",
                  "type": "uint8"
                },
                {
                  "internalType": "bool",
                  "name": "_completeOnSell",
                  "type": "bool"
                },
                {
                  "internalType": "bool",
                  "name": "_current_price_sell",
                  "type": "bool"
                },
                {
                  "internalType": "bool",
                  "name": "_current_price_buy",
                  "type": "bool"
                }
              ],
              "internalType": "struct StrategyParameters",
              "name": "parameters",
              "type": "tuple"
            },
            {
              "internalType": "uint256",
              "name": "sellPercentageAmount",
              "type": "uint256"
            },
            {
              "internalType": "uint256",
              "name": "buyPercentageAmount",
              "type": "uint256"
            },
            {
              "internalType": "uint256",
              "name": "sellPercentageTotalAmount",
              "type": "uint256"
            },
            {
              "internalType": "uint256",
              "name": "buyPercentageTotalAmount",
              "type": "uint256"
            },
            {
              "internalType": "uint256",
              "name": "sellTwapExecutedAt",
              "type": "uint256"
            },
            {
              "internalType": "uint256",
              "name": "buyTwapExecutedAt",
              "type": "uint256"
            },
            {
              "internalType": "uint80",
              "name": "investRoundIdForBTD",
              "type": "uint80"
            },
            {
              "internalType": "uint80",
              "name": "stableRoundIdForBTD",
              "type": "uint80"
            },
            {
              "internalType": "uint80",
              "name": "investRoundIdForSTR",
              "type": "uint80"
            },
            {
              "internalType": "uint80",
              "name": "stableRoundIdForSTR",
              "type": "uint80"
            },
            {
              "internalType": "uint256",
              "name": "investPrice",
              "type": "uint256"
            },
            {
              "internalType": "uint256",
              "name": "profit",
              "type": "uint256"
            },
            {
              "internalType": "uint256",
              "name": "budget",
              "type": "uint256"
            },
            {
              "internalType": "enum Status",
              "name": "status",
              "type": "uint8"
            }
          ],
          "internalType": "struct Strategy",
          "name": "",
          "type": "tuple"
        }
      ],
      "stateMutability": "view",
      "type": "function"
    },
    {
      "inputs": [],
      "name": "nextStrategyId",
      "outputs": [
        {
          "internalType": "uint256",
          "name": "",
          "type": "uint256"
        }
      ],
      "stateMutability": "view",
      "type": "function"
    },
    {
      "inputs": [
        {
          "internalType": "uint256",
          "name": "strategyId",
          "type": "uint256"
        },
        {
          "components": [
            {
              "internalType": "uint256",
              "name": "sellValue",
              "type": "uint256"
            },
            {
              "internalType": "uint256",
              "name": "buyValue",
              "type": "uint256"
            },
            {
              "internalType": "uint256",
              "name": "strValue",
              "type": "uint256"
            },
            {
              "internalType": "uint256",
              "name": "btdValue",
              "type": "uint256"
            },
            {
              "internalType": "uint256",
              "name": "floorValue",
              "type": "uint256"
            },
            {
              "internalType": "uint256",
              "name": "highSellValue",
              "type": "uint256"
            },
            {
              "internalType": "uint256",
              "name": "buyTwapTime",
              "type": "uint256"
            },
            {
              "internalType": "enum TimeUnit",
              "name": "buyTwapTimeUnit",
              "type": "uint8"
            },
            {
              "internalType": "uint256",
              "name": "buyDCAValue",
              "type": "uint256"
            },
            {
              "internalType": "uint256",
              "name": "sellDCAValue",
              "type": "uint256"
            },
            {
              "internalType": "uint256",
              "name": "sellTwapTime",
              "type": "uint256"
            },
            {
              "internalType": "enum TimeUnit",
              "name": "sellTwapTimeUnit",
              "type": "uint8"
            },
            {
              "internalType": "bool",
              "name": "toggleCompleteOnSell",
              "type": "bool"
            },
            {
              "internalType": "bool",
              "name": "toggleLiquidateOnFloor",
              "type": "bool"
            },
            {
              "internalType": "bool",
              "name": "toggleCancelOnFloor",
              "type": "bool"
            },
            {
              "internalType": "uint256",
              "name": "impact",
              "type": "uint256"
            },
            {
              "internalType": "bool",
              "name": "current_price_sell",
              "type": "bool"
            },
            {
              "internalType": "bool",
              "name": "current_price_buy",
              "type": "bool"
            },
            {
              "internalType": "uint256",
              "name": "minimumLoss",
              "type": "uint256"
            },
            {
              "internalType": "uint256",
              "name": "minimumProfit",
              "type": "uint256"
            }
          ],
          "internalType": "struct UpdateStruct",
          "name": "updateStruct",
          "type": "tuple"
        }
      ],
      "name": "updateStrategy",
      "outputs": [],
      "stateMutability": "nonpayable",
      "type": "function"
    },
    {
      "inputs": [
        {
          "internalType": "uint256",
          "name": "strategyId",
          "type": "uint256"
        },
        {
          "components": [
            {
              "internalType": "uint256",
              "name": "sellValue",
              "type": "uint256"
            },
            {
              "internalType": "uint256",
              "name": "buyValue",
              "type": "uint256"
            },
            {
              "internalType": "uint256",
              "name": "strValue",
              "type": "uint256"
            },
            {
              "internalType": "uint256",
              "name": "btdValue",
              "type": "uint256"
            },
            {
              "internalType": "uint256",
              "name": "floorValue",
              "type": "uint256"
            },
            {
              "internalType": "uint256",
              "name": "highSellValue",
              "type": "uint256"
            },
            {
              "internalType": "uint256",
              "name": "buyTwapTime",
              "type": "uint256"
            },
            {
              "internalType": "enum TimeUnit",
              "name": "buyTwapTimeUnit",
              "type": "uint8"
            },
            {
              "internalType": "uint256",
              "name": "buyDCAValue",
              "type": "uint256"
            },
            {
              "internalType": "uint256",
              "name": "sellDCAValue",
              "type": "uint256"
            },
            {
              "internalType": "uint256",
              "name": "sellTwapTime",
              "type": "uint256"
            },
            {
              "internalType": "enum TimeUnit",
              "name": "sellTwapTimeUnit",
              "type": "uint8"
            },
            {
              "internalType": "bool",
              "name": "toggleCompleteOnSell",
              "type": "bool"
            },
            {
              "internalType": "bool",
              "name": "toggleLiquidateOnFloor",
              "type": "bool"
            },
            {
              "internalType": "bool",
              "name": "toggleCancelOnFloor",
              "type": "bool"
            },
            {
              "internalType": "uint256",
              "name": "impact",
              "type": "uint256"
            },
            {
              "internalType": "bool",
              "name": "current_price_sell",
              "type": "bool"
            },
            {
              "internalType": "bool",
              "name": "current_price_buy",
              "type": "bool"
            },
            {
              "internalType": "uint256",
              "name": "minimumLoss",
              "type": "uint256"
            },
            {
              "internalType": "uint256",
              "name": "minimumProfit",
              "type": "uint256"
            }
          ],
          "internalType": "struct UpdateStruct",
          "name": "updateStruct",
          "type": "tuple"
        },
        {
          "internalType": "address",
          "name": "account",
          "type": "address"
        },
        {
          "internalType": "uint256",
          "name": "nonce",
          "type": "uint256"
        },
        {
          "internalType": "bytes",
          "name": "signature",
          "type": "bytes"
        }
      ],
      "name": "updateStrategyOnBehalf",
      "outputs": [],
      "stateMutability": "nonpayable",
      "type": "function"
    }
  ],
  "transactionHash": "0xc0f0c3c9c9ad60850f7055d3f335e3711ff389f27e6530999e2f78b5fcf4ca1a",
  "args": [],
  "numDeployments": 1,
  "solcInputHash": "8758efc6836d60167b6d86981cbcb7fb",
  "bytecode": "0x608060405234801561001057600080fd5b50614b7d806100206000396000f3fe608060405234801561001057600080fd5b50600436106100a95760003560e01c806366d372df1161007157806366d372df146101135780638dce189714610126578063cfc0cc3414610139578063e502f6c714610159578063e819da351461016c578063ffc24bf51461017f57600080fd5b8063185f8447146100ae578063223bec6b146100c557806330c9943d146100da57806351becab2146100ed578063600949f514610100575b600080fd5b6005545b6040519081526020015b60405180910390f35b6100d86100d3366004613dea565b610192565b005b6100d86100e8366004613e20565b6101af565b6100d86100fb366004613ebe565b6101ce565b6100d861010e366004613f2e565b61027d565b6100b26101213660046140ad565b610513565b6100d86101343660046140e2565b61055f565b61014c61014736600461414c565b610637565b6040516100bc9190614381565b6100b2610167366004614467565b610a34565b6100b261017a36600461449e565b610a4d565b6100d861018d36600461414c565b610a88565b61019a610a9a565b6101a48133610aee565b6101ac611f80565b50565b6101b7610a9a565b6101c2338383611f95565b6101ca611f80565b5050565b6101d6610a9a565b60006101e3858584610513565b905060006101f0826133e0565b905060006101fe8286613433565b6001600160a01b0385166000908152600860205260409020549091506102259060016144f3565b6001600160a01b0380861660008181526008602052604090209290925582161461026257604051632057875960e21b815260040160405180910390fd5b61026c84886134b3565b505050610277611f80565b50505050565b610285610a9a565b60005b8551811015610432578581815181106102a3576102a3614506565b6020026020010151600001516001600160a01b031663d505accf8783815181106102cf576102cf614506565b6020026020010151602001518884815181106102ed576102ed614506565b60200260200101516040015189858151811061030b5761030b614506565b6020026020010151606001518a868151811061032957610329614506565b6020026020010151608001518b878151811061034757610347614506565b602002602001015160a001518c888151811061036557610365614506565b602002602001015160c001518d898151811061038357610383614506565b602002602001015160e001516040518863ffffffff1660e01b81526004016103ed97969594939291906001600160a01b0397881681529590961660208601526040850193909352606084019190915260ff16608083015260a082015260c081019190915260e00190565b600060405180830381600087803b15801561040757600080fd5b505af115801561041b573d6000803e3d6000fd5b50505050808061042a9061451c565b915050610288565b506001600160a01b038316600090815260086020526040902054821461046b57604051633ab3447f60e11b815260040160405180910390fd5b6000610478858486610a34565b90506000610485826133e0565b905060006104938285613433565b6001600160a01b0387166000908152600860205260409020549091506104ba9060016144f3565b6001600160a01b038088166000818152600860205260409020929092558216146104f757604051632057875960e21b815260040160405180910390fd5b6105018787610aee565b50505061050c611f80565b5050505050565b604080516001600160a01b03831660208201529081018390526060810184905246608082015260009060a0015b6040516020818303038152906040528051906020012090509392505050565b610567610a9a565b6001600160a01b038316600090815260086020526040902054821461059f57604051633ab3447f60e11b815260040160405180910390fd5b60006105ad86868587610a4d565b905060006105ba826133e0565b905060006105c88285613433565b6001600160a01b0387166000908152600860205260409020549091506105ef9060016144f3565b6001600160a01b0380881660008181526008602052604090209290925582161461062c57604051632057875960e21b815260040160405180910390fd5b610501818989611f95565b61063f613946565b60008281526006602081815260409283902083516102008101855281546001600160a01b03908116825285516103e08101875260018401805483168252600280860154838801526003860154909316978201979097526004840154606082015260058401546080820152948301549195929493860193929160a084019160ff909116908111156106d1576106d1614165565b60028111156106e2576106e2614165565b815260068201546020820152600782015460ff8082161515604084015261010090910481161515606083015260088301546080830152600983015460a09092019116600181111561073557610735614165565b600181111561074657610746614165565b8152600a8201546020820152600b8201546040820152600c82015460609091019060ff16600281111561077b5761077b614165565b600281111561078c5761078c614165565b8152600d8201546020820152600e82015460409091019060ff1660048111156107b7576107b7614165565b60048111156107c8576107c8614165565b8152602001600e820160019054906101000a900460ff1660028111156107f0576107f0614165565b600281111561080157610801614165565b8152600f8201546020820152601082015460409091019060ff16600281111561082c5761082c614165565b600281111561083d5761083d614165565b815260118201546020820152601282015460408201526013820154606082015260148201546080820152601582015460a09091019060ff16600481111561088657610886614165565b600481111561089757610897614165565b81526020016015820160019054906101000a900460ff1660028111156108bf576108bf614165565b60028111156108d0576108d0614165565b81526016820154602082015260178201546040820152601882015460609091019060ff16600281111561090557610905614165565b600281111561091657610916614165565b81526018919091015461010080820460ff908116151560208086019190915262010000840482161515604080870191909152630100000090940482161515606095860152948652601a87015486860152601b87015492860192909252601c86015492850192909252601d8501546080850152601e85015460a0850152601f85015460c0850152918401546001600160501b0380821660e0860152600160501b8204811692850192909252600160a01b900481166101208401526021840154166101408301526022830154610160830152602383015461018083015260248301546101a083015260258301546101c090920191166002811115610a1a57610a1a614165565b6002811115610a2b57610a2b614165565b90525092915050565b6000818385466040516020016105409493929190614535565b60008183868646604051602001610a6895949392919061456a565b604051602081830303815290604052805190602001209050949350505050565b610a90610a9a565b6101a433826134b3565b60006001600982015460ff166001811115610ab757610ab7614165565b03610ad557604051633ee5aeb560e01b815260040160405180910390fd5b6009810180546001919060ff191682805b021790555050565b81516001600160a01b0316610b1657604051634700286b60e01b815260040160405180910390fd5b60408201516001600160a01b0316610b41576040516312848d8760e11b815260040160405180910390fd5b81604001516001600160a01b031682600001516001600160a01b031603610b7b5760405163a755ce0160e01b815260040160405180910390fd5b6000806000610b92856000015186604001516135a9565b925092509250846103c0015115156001151503610bdf576001610140860152608085015161271090610bc490856146f6565b610bce919061470d565b610bd890846144f3565b6101608601525b6103a08501511515600103610c24576001610240860152608085015161271090610c0990856146f6565b610c13919061470d565b610c1d908461472f565b6102608601525b6103c085015115156001148015610c4257506103a085015115156001145b15610c8657602085015115610c6e576001856102600151610c63919061472f565b610160860152610c86565b610160850151610c7f9060016144f3565b6102608601525b60c0850151158015610c9b5750610260850151155b8015610caa5750610160850151155b15610cc857604051631faf5bf560e01b815260040160405180910390fd5b6000856101600151118015610ce257506000856101800151115b8015610cf357506000856101c00151115b15610d1157604051636aadef8760e01b815260040160405180910390fd5b60008561018001511180610d2a57506000856101c00151115b8015610d395750610160850151155b15610d575760405163c14db2a960e01b815260040160405180910390fd5b6000856101800151118015610d8257506000856101a001516002811115610d8057610d80614165565b145b15610da0576040516312100f4f60e11b815260040160405180910390fd5b6000856103400151118015610dba57506000856102c00151115b15610dd8576040516302960e3f60e41b815260040160405180910390fd5b60008561034001511180610df157506000856102c00151115b8015610e005750610260850151155b15610e1d5760405162b4fc9f60e61b815260040160405180910390fd5b6000856103400151118015610e48575060008561036001516002811115610e4657610e46614165565b145b15610e66576040516340d3c82560e01b815260040160405180910390fd5b60008561034001511180610e7f57506000856102c00151115b8015610ea1575060008561030001516002811115610e9f57610e9f614165565b145b15610ebf57604051633229152160e11b815260040160405180910390fd5b60008561030001516002811115610ed857610ed8614165565b14158015610ee95750610320850151155b15610f0757604051635b06ca5560e11b815260040160405180910390fd5b6000856102c00151118015610f3257506000856102e001516004811115610f3057610f30614165565b145b15610f5057604051632808ffb560e01b815260040160405180910390fd5b6000856102c00151118015610f7b57506001856102e001516004811115610f7957610f79614165565b145b8015610f8d5750612710856102c00151115b15610fab57604051635030d31360e11b815260040160405180910390fd5b6000856101c00151118015610fd657506000856101e001516004811115610fd457610fd4614165565b145b15610ff45760405163788eae0d60e11b815260040160405180910390fd5b6000856101c0015111801561101f57506001856101e00151600481111561101d5761101d614165565b145b80156110315750612710856101c00151115b1561104f5760405163a9824fd360e01b815260040160405180910390fd5b6000856101c00151118061106857506000856101800151115b801561108a57506000856102000151600281111561108857611088614165565b145b156110a857604051630f8edcbd60e01b815260040160405180910390fd5b600085610200015160028111156110c1576110c1614165565b141580156110d25750610220850151155b156110ef5760405162e6267960e61b815260040160405180910390fd5b600085610160015111801561111a57506000856101400151600181111561111857611118614165565b145b156111385760405163772cbc6d60e01b815260040160405180910390fd5b60008560c00151118015611161575060008560a00151600281111561115f5761115f614165565b145b1561117f57604051638a46642d60e01b815260040160405180910390fd5b610280850151156111c0576000856102c0015111806111a357506000856103400151115b6111c057604051638dd5089b60e01b815260040160405180910390fd5b600085610260015111806111d957506000856102c00151115b806111e957506000856103400151115b15611286576000856102400151600281111561120757611207614165565b03611225576040516317d70c1360e11b815260040160405180910390fd5b84610260015160000361124b576040516310c1c29560e21b815260040160405180910390fd5b610280850151158015906112685750846102800151856102600151115b156112865760405163473f955b60e11b815260040160405180910390fd5b60008561016001511180156112ae5750600085610260015111806112ae575060008560c00151115b156113335760608501511580156112c757506020850151155b156112e557604051630a942a3f60e41b815260040160405180910390fd5b8461026001518561016001511015801561131557506001856102400151600281111561131357611313614165565b145b15611333576040516307a6f80d60e21b815260040160405180910390fd5b600085610160015111801561134b5750610260850151155b8015611359575060c0850151155b156113a6578460600151600003611383576040516307d3ad8960e01b815260040160405180910390fd5b6020850151156113a65760405163682d022760e01b815260040160405180910390fd5b6101608501511580156113be57506000856102600151115b80156113ce575060008560c00151115b156113f6576060850151156113f65760405163682d022760e01b815260040160405180910390fd5b6000856102600151118061140e575060008560c00151115b801561141c57506020850151155b801561142b5750610160850151155b156114495760405163015bdc8360e71b815260040160405180910390fd5b60008561026001511180611461575060008560c00151115b8015611471575060008560200151115b801561148b57508461038001518061148b57508461010001515b801561149c57506000856101600151115b156114ba5760405163011187e360e61b815260040160405180910390fd5b60008560c001511180156114d357506000856102600151115b80156114f55750600185610240015160028111156114f3576114f3614165565b145b8015611516575060018560a00151600281111561151457611514614165565b145b15611544578461026001518560c00151106115445760405163e70d136560e01b815260040160405180910390fd5b60008560c0015111801561156d575060028560a00151600281111561156b5761156b614165565b145b15611599576127108560c0015111156115995760405163a1a6e45760e01b815260040160405180910390fd5b60008560c001511180156115b257506000856101600151115b80156115d3575060018560a0015160028111156115d1576115d1614165565b145b15611601578461016001518560c001511061160157604051632a07240560e11b815260040160405180910390fd5b6127108560800151118061161757506080850151155b156116355760405163249dae1160e01b815260040160405180910390fd5b6000856103400151118061164e57506000856102c00151115b801561167057506001856103000151600281111561166e5761166e614165565b145b156116ab57610320850151158061168d5750612710856103200151115b156116ab576040516315cb6b0b60e11b815260040160405180910390fd5b600085610340015111806116c457506000856102c00151115b80156116e65750600285610300015160028111156116e4576116e4614165565b145b80156116f6575060008560200151115b801561170a57508460200151856103200151115b15611728576040516309e7941360e41b815260040160405180910390fd5b6000856101800151118061174157506000856101c00151115b801561176357506002856102000151600281111561176157611761614165565b145b8015611773575060008560600151115b801561178757508460600151856102200151115b156117a5576040516309e7941360e41b815260040160405180910390fd5b600085610180015111806117be57506000856101c00151115b80156117e05750600185610200015160028111156117de576117de614165565b145b1561181b5761022085015115806117fd5750612710856102200151115b1561181b5760405163378f7ea360e01b815260040160405180910390fd5b6000856102a0015111801561184757506002856102400151600281111561184457611844614165565b14155b156118655760405163018f017560e21b815260040160405180910390fd5b6000856101200151118015611890575060028560a00151600281111561188d5761188d614165565b14155b156118ae57604051632ecab07960e11b815260040160405180910390fd5b600085600001516001600160a01b031663313ce5676040518163ffffffff1660e01b8152600401602060405180830381865afa1580156118f2573d6000803e3d6000fd5b505050506040513d601f19601f820116820180604052508101906119169190614742565b61192190600a614843565b90506000866020015111801561193b575060008660600151115b1561195957604051631dbe758760e11b815260040160405180910390fd5b602086015160009015611984578185886020015161197791906146f6565b611981919061470d565b90505b606087015115611995575060608601515b6020870151600090156119a55750845b6000600189610300015160028111156119c0576119c0614165565b036119ea5761271089602001518a61032001516119dd91906146f6565b6119e7919061470d565b90505b600060018a61020001516002811115611a0557611a05614165565b03611a2f576127108a606001518b6102200151611a2291906146f6565b611a2c919061470d565b90505b6040518061020001604052808a6001600160a01b031681526020018b815260200183815260200182815260200160008411611a6b576000611a71565b8b602001515b815260200160008311611a85576000611a8b565b8b606001515b81526020016000815260200160008152602001886001600160501b03168152602001876001600160501b03168152602001886001600160501b03168152602001876001600160501b031681526020018481526020016000815260200185815260200160006002811115611b0057611b00614165565b905260058054600090815260066020818152604092839020855181546001600160a01b03199081166001600160a01b0392831617835587840151805160018086018054851692861692909217825595820151600280870191909155978201516003860180549094169416939093179091556060810151600484015560808101519683019690965560a08601519382018054929695919493909260ff1916918490811115611baf57611baf614165565b021790555060c0820151600682015560e08201516007820180546101008086015115150261ff00199315159390931661ffff1990911617919091179055610120820151600882015561014082015160098201805460ff191660018381811115611c1a57611c1a614165565b0217905550610160820151600a820155610180820151600b8201556101a0820151600c8201805460ff19166001836002811115611c5957611c59614165565b02179055506101c0820151600d8201556101e0820151600e8201805460ff19166001836004811115611c8d57611c8d614165565b0217905550610200820151600e8201805461ff001916610100836002811115611cb857611cb8614165565b0217905550610220820151600f82015561024082015160108201805460ff19166001836002811115611cec57611cec614165565b0217905550610260820151601182015561028082015160128201556102a082015160138201556102c082015160148201556102e082015160158201805460ff19166001836004811115611d4157611d41614165565b021790555061030082015160158201805461ff001916610100836002811115611d6c57611d6c614165565b02179055506103208201516016820155610340820151601782015561036082015160188201805460ff19166001836002811115611dab57611dab614165565b021790555061038082015160189190910180546103a08401516103c09094015162ffff0019909116610100931515840262ff000019161762010000941515949094029390931763ff0000001916630100000093151593909302929092179091556040830151601a8301556060830151601b8301556080830151601c83015560a0830151601d83015560c0830151601e83015560e0830151601f8301558201516020820180546101208501516101408601516001600160501b039485166001600160a01b031990931692909217600160501b918516919091021769ffffffffffffffffffff60a01b1916600160a01b9184169190910217905561016083015160218301805469ffffffffffffffffffff19169190921617905561018082015160228201556101a082015160238201556101c082015160248201556101e082015160258201805460ff19166001836002811115611f0857611f08614165565b0217905550506005805491506000611f1f8361451c565b9091555050600554611f339060019061472f565b7f6f487ff45e99dc63b7265bb895bcced153db9bd3cae13a82559397dee7f1bfc08a8c8a8a898e604051611f6c96959493929190614852565b60405180910390a250505050505050505050565b60098054600091829160ff1916600183610ae6565b8035158015611fa657506020810135155b8015611fb457506080810135155b8015611fc2575060a0810135155b8015611fd0575060c0810135155b8015611ffd57506000611fea610100830160e084016148a4565b6002811115611ffb57611ffb614165565b145b801561200c5750610100810135155b801561201b5750610120810135155b801561202957506040810135155b801561203757506060810135155b80156120465750610140810135155b801561207457506000612061610180830161016084016148a4565b600281111561207257612072614165565b145b801561208f575061208d6101a0820161018083016148c1565b155b80156120aa57506120a86101c082016101a083016148c1565b155b80156120c557506120c36101e082016101c083016148c1565b155b80156120d457506101e0810135155b80156120e35750610260810135155b80156120f25750610240810135155b801561210d575061210b610240820161022083016148c1565b155b80156121285750612126610220820161020083016148c1565b155b1561214657604051632995fef160e01b815260040160405180910390fd5b600082815260066020526040902080546001600160a01b0385811691161461218157604051632b5aad9f60e21b815260040160405180910390fd5b6000602582015460ff16600281111561219c5761219c614165565b146121ba5760405163432aa98d60e11b815260040160405180910390fd5b8135158015906121cc57506012810154155b156121ea5760405163ae00bdd560e01b815260040160405180910390fd5b600082602001351180156122005750600b810154155b1561221e5760405163c5d53c0b60e01b815260040160405180910390fd5b6000826080013511801561223457506007810154155b156122525760405163452234a560e11b815260040160405180910390fd5b60008260a00135118061226a57506000826101200135115b80156122855750601581015415801561228557506018810154155b156122a357604051634dcdad0d60e11b815260040160405180910390fd5b60158101541580156122b9575060008260400135115b156122d75760405163a741c3cf60e01b815260040160405180910390fd5b612710826040013511801561230457506001601682015460ff16600481111561230257612302614165565b145b156123225760405163a1a6e45760e01b815260040160405180910390fd5b6000826040013511801561237057506002601682015460ff16600481111561234c5761234c614165565b148061237057506001601682015460ff16600481111561236e5761236e614165565b145b1561238057604082013560158201555b600082604001351180156123ce57506004601682015460ff1660048111156123aa576123aa614165565b14806123ce57506003601682015460ff1660048111156123cc576123cc614165565b145b156123de57604082013560158201555b600e8101541580156123f4575060008260600135115b1561241257604051630121ca8160e11b815260040160405180910390fd5b612710826060013511801561243f57506001600f82015460ff16600481111561243d5761243d614165565b145b1561245d5760405163a1a6e45760e01b815260040160405180910390fd5b600082606001351180156124ab57506002600f82015460ff16600481111561248757612487614165565b14806124ab57506001600f82015460ff1660048111156124a9576124a9614165565b145b156124bb576060820135600e8201555b6000826060013511801561250957506004600f82015460ff1660048111156124e5576124e5614165565b148061250957506003600f82015460ff16600481111561250757612507614165565b145b15612519576060820135600e8201555b600082610100013511801561253c5750600e810154158061253c5750600c810154155b1561255a576040516344d1f28560e11b815260040160405180910390fd5b60008260c00135118061258f5750600061257b610100840160e085016148a4565b600281111561258c5761258c614165565b14155b801561259d5750600c810154155b156125bb5760405163634c458f60e11b815260040160405180910390fd5b600082610140013511806125f2575060006125de610180840161016085016148a4565b60028111156125ef576125ef614165565b14155b801561260057506018810154155b1561261e57604051635f2775bb60e01b815260040160405180910390fd5b612710826101e0013511156126465760405163249dae1160e01b815260040160405180910390fd5b6101e08201351561265d576101e082013560058201555b60018101546003820154600091612680916001600160a01b0391821691166135a9565b509091506126989050610240840161022085016148c1565b15156001036126f557600b820154156126dc576005820154612710906126be90836146f6565b6126c8919061470d565b6126d290826144f3565b600b8301556126f5565b60405163c5d53c0b60e01b815260040160405180910390fd5b612707610220840161020085016148c1565b151560010361278a5760128201541580159061273b57506001601183015460ff16600281111561273957612739614165565b145b156127715760058201546127109061275390836146f6565b61275d919061470d565b612767908261472f565b601283015561278a565b60405163ae00bdd560e01b815260040160405180910390fd5b61279c610240840161022085016148c1565b151560011480156127c057506127ba610220840161020085016148c1565b15156001145b156127de57604051631e72c9e760e31b815260040160405180910390fd5b600083608001351180156127f6575060008360200135115b801561281a57506001600683015460ff16600281111561281857612818614165565b145b80156128295750600b82015415155b801561283d57508260200135836080013510155b1561285b57604051632a07240560e11b815260040160405180910390fd5b6000836080013511801561288757506001600683015460ff16600281111561288557612885614165565b145b80156128965750600b82015415155b80156128aa5750600b820154608084013510155b156128c857604051632a07240560e11b815260040160405180910390fd5b600083608001351180156128f457506002600683015460ff1660028111156128f2576128f2614165565b145b1561292b57612710836080013511156129205760405163a1a6e45760e01b815260040160405180910390fd5b608083013560078301555b6000836080013511801561293f5750823515155b801561296357506001600683015460ff16600281111561296157612961614165565b145b80156129725750601282015415155b801561299657506001601183015460ff16600281111561299457612994614165565b145b80156129a757508235608084013510155b156129c55760405163e70d136560e01b815260040160405180910390fd5b8235158015906129ed57506001600683015460ff1660028111156129eb576129eb614165565b145b80156129fc5750601282015415155b8015612a2057506001601183015460ff166002811115612a1e57612a1e614165565b145b8015612a3157506007820154833511155b15612a4f5760405163e70d136560e01b815260040160405180910390fd5b60008360800135118015612a7b57506001600683015460ff166002811115612a7957612a79614165565b145b8015612a8a5750601282015415155b8015612aae57506001601183015460ff166002811115612aac57612aac614165565b145b8015612ac257506012820154608084013510155b15612ae05760405163e70d136560e01b815260040160405180910390fd5b60008360200135118015612af45750823515155b8015612b035750600b82015415155b8015612b125750601282015415155b8015612b3657506001601183015460ff166002811115612b3457612b34614165565b145b8015612b4757508235602084013510155b15612b65576040516307a6f80d60e21b815260040160405180910390fd5b60008360200135118015612b9157506001601183015460ff166002811115612b8f57612b8f614165565b145b8015612bb557506001600a83015460ff166001811115612bb357612bb3614165565b145b8015612bc957506012820154602084013510155b15612be7576040516307a6f80d60e21b815260040160405180910390fd5b823515801590612bfa5750600b82015415155b8015612c095750601282015415155b8015612c2d57506001601183015460ff166002811115612c2b57612c2b614165565b145b8015612c3e5750600b820154833511155b15612c5c576040516307a6f80d60e21b815260040160405180910390fd5b600782015415801590612c8757506001600683015460ff166002811115612c8557612c85614165565b145b8015612c97575060008360800135115b15612ca757608083013560078301555b600b82015415801590612cbe575060008360200135115b15612cce576020830135600b8301555b601282015415801590612ce15750823515155b15612cee57823560128301555b600c820154151580612d035750600e82015415155b8015612d2c57506001600f830154610100900460ff166002811115612d2a57612d2a614165565b145b15612d67576101008301351580612d495750612710836101000135115b15612d675760405163378f7ea360e01b815260040160405180910390fd5b600c820154151580612d7c5750600e82015415155b8015612da557506002600f830154610100900460ff166002811115612da357612da3614165565b145b8015612db45750600482015415155b8015612dc857506004820154610100840135115b15612de6576040516309e7941360e41b815260040160405180910390fd5b600e820154151580612dfb5750600c82015415155b8015612e0c57506000836101000135115b15612e1d5761010083013560108301555b6018820154151580612e325750601582015415155b8015612e5b575060016016830154610100900460ff166002811115612e5957612e59614165565b145b15612e96576101208301351580612e785750612710836101200135115b15612e96576040516315cb6b0b60e11b815260040160405180910390fd5b6018820154151580612eab5750601582015415155b8015612ed4575060026016830154610100900460ff166002811115612ed257612ed2614165565b145b8015612ee35750600282015415155b8015612ef757506002820154610120840135115b15612f15576040516309e7941360e41b815260040160405180910390fd5b6000836102400135118015612f4357506002600683015460ff166002811115612f4057612f40614165565b14155b15612f6157604051632ecab07960e11b815260040160405180910390fd5b6000836102600135118015612f8f57506002601183015460ff166002811115612f8c57612f8c614165565b14155b15612fad5760405163018f017560e21b815260040160405180910390fd5b61024083013515612fc45761024083013560098301555b61026083013515612fdb5761026083013560148301555b6015820154151580612ff05750601882015415155b801561300157506000836101200135115b156130125761012083013560178301555b600c820154158015906130705750600c82015460c08401351415806130705750600d82015460ff16600281111561304b5761304b614165565b61305c610100850160e086016148a4565b600281111561306d5761306d614165565b14155b156130dd5760c0830135600c8301556000613092610100850160e086016148a4565b60028111156130a3576130a3614165565b146130dd576130b9610100840160e085016148a4565b600d8301805460ff191660018360028111156130d7576130d7614165565b02179055505b60188201541580159061313d5750601882015461014084013514158061313d5750601982015460ff16600281111561311757613117614165565b613129610180850161016086016148a4565b600281111561313a5761313a614165565b14155b1561320157610140830135156131595761014083013560188301555b601982015460ff16600281111561317257613172614165565b613184610180850161016086016148a4565b600281111561319557613195614165565b141580156131c6575060006131b2610180850161016086016148a4565b60028111156131c3576131c3614165565b14155b15613201576131dd610180840161016085016148a4565b60198301805460ff191660018360028111156131fb576131fb614165565b02179055505b6132136101a0840161018085016148c1565b156132365760198201805461ff001981166101009182900460ff16159091021790555b6132486101c084016101a085016148c1565b156132625760088201805460ff19811660ff909116151790555b6132746101e084016101c085016148c1565b156132975760088201805461ff001981166101009182900460ff16159091021790555b60a0830135156132d35760158201541580156132b557506018820154155b156132d357604051638dd5089b60e01b815260040160405180910390fd5b60158201541515806132e85750601882015415155b156133255760a0830135158015906133075750601282015460a0840135105b156133255760405163473f955b60e11b815260040160405180910390fd5b60a08301351561333a5760a083013560138301555b6101008301351561336c57601d82015460108301546127109161335c916146f6565b613366919061470d565b601b8301555b6101208301351561339e57601c82015460178301546127109161338e916146f6565b613398919061470d565b601a8301555b837fd214548c137217ee863b73f8586ae9c2b1ca0bde3e615e7ed7926dfcaf47dfee836001016040516133d191906148dc565b60405180910390a25050505050565b6040517f19457468657265756d205369676e6564204d6573736167653a0a3332000000006020820152603c8101829052600090605c01604051602081830303815290604052805190602001209050919050565b600080600080613442856137e7565b6040805160008152602081018083528b905260ff8316918101919091526060810184905260808101839052929550909350915060019060a0016020604051602081039080840390855afa15801561349d573d6000803e3d6000fd5b5050506020604051035193505050505b92915050565b600081815260066020526040902080546001600160a01b038481169116146134ee57604051630332420960e01b815260040160405180910390fd5b6001602582015460ff16600281111561350957613509614165565b03613527576040516354e3762560e01b815260040160405180910390fd5b60258101805460ff19166001908117909155810154600090613551906001600160a01b031661385f565b600383015490915060009061356e906001600160a01b031661385f565b604080518481526020810183905291925085917f8b59944fefbac177fb9b4127d4d37da2d50b72e4d47b82e54a81945b166c62cd91016133d1565b6001600160a01b0382811660009081526007602052604081205490918291829182911615806135f257506001600160a01b03858116600090815260078301602052604090205416155b1561361057604051637d53846960e11b815260040160405180910390fd5b6001600160a01b038087166000908152600783016020526040808220548151633fabe5a360e21b815291519293849391169163feaf968c9160048083019260a09291908290030181865afa15801561366c573d6000803e3d6000fd5b505050506040513d601f19601f820116820180604052508101906136909190614aeb565b5050506001600160a01b03808a166000908152600787016020526040808220548151633fabe5a360e21b81529151959750939550909384939092169163feaf968c9160048082019260a0929091908290030181865afa1580156136f7573d6000803e3d6000fd5b505050506040513d601f19601f8201168201806040525081019061371b9190614aeb565b50505091509150826000148061372f575080155b1561374c5760405162bfc92160e01b815260040160405180910390fd5b6000896001600160a01b031663313ce5676040518163ffffffff1660e01b8152600401602060405180830381865afa15801561378c573d6000803e3d6000fd5b505050506040513d601f19601f820116820180604052508101906137b09190614742565b60ff169050816137c182600a614b3b565b6137cb90866146f6565b6137d5919061470d565b9b949a50919850929650505050505050565b600080600083516041146138415760405162461bcd60e51b815260206004820152601860248201527f696e76616c6964207369676e6174757265206c656e6774680000000000000000604482015260640160405180910390fd5b50505060208101516040820151606090920151909260009190911a90565b6001600160a01b03818116600090815260076020526040812054909182911661389b57604051637d53846960e11b815260040160405180910390fd5b6001600160a01b038084166000908152600783016020526040808220548151633fabe5a360e21b815291519293169163feaf968c9160048082019260a0929091908290030181865afa1580156138f5573d6000803e3d6000fd5b505050506040513d601f19601f820116820180604052508101906139199190614aeb565b5050509150508060000361393f5760405162bfc92160e01b815260040160405180910390fd5b9392505050565b60405180610200016040528060006001600160a01b0316815260200161396a613a06565b815260200160008152602001600081526020016000815260200160008152602001600081526020016000815260200160006001600160501b0316815260200160006001600160501b0316815260200160006001600160501b0316815260200160006001600160501b0316815260200160008152602001600081526020016000815260200160006002811115613a0157613a01614165565b905290565b604080516103e081018252600080825260208201819052918101829052606081018290526080810182905260a0810182905260c0810182905260e08101829052610100810182905261012081018290526101408101829052610160810182905261018081018290526101a081018290526101c081018290526101e08101829052610200810182905261022081018290529061024082019081526020016000815260200160008152602001600081526020016000815260200160006004811115613ad157613ad1614165565b815260200160008152602001600081526020016000815260200160006002811115613afe57613afe614165565b81526000602082018190526040820181905260609091015290565b634e487b7160e01b600052604160045260246000fd5b6040516103e0810167ffffffffffffffff81118282101715613b5357613b53613b19565b60405290565b604051610100810167ffffffffffffffff81118282101715613b5357613b53613b19565b604051601f8201601f1916810167ffffffffffffffff81118282101715613ba657613ba6613b19565b604052919050565b80356001600160a01b0381168114613bc557600080fd5b919050565b600381106101ac57600080fd5b8035613bc581613bca565b80358015158114613bc557600080fd5b803560028110613bc557600080fd5b803560058110613bc557600080fd5b60006103e08284031215613c2357600080fd5b613c2b613b2f565b9050613c3682613bae565b815260208201356020820152613c4e60408301613bae565b60408201526060820135606082015260808201356080820152613c7360a08301613bd7565b60a082015260c082013560c0820152613c8e60e08301613be2565b60e0820152610100613ca1818401613be2565b908201526101208281013590820152610140613cbe818401613bf2565b90820152610160828101359082015261018080830135908201526101a0613ce6818401613bd7565b908201526101c082810135908201526101e0613d03818401613c01565b90820152610200613d15838201613bd7565b908201526102208281013590820152610240613d32818401613bd7565b90820152610260828101359082015261028080830135908201526102a080830135908201526102c080830135908201526102e0613d70818401613c01565b90820152610300613d82838201613bd7565b9082015261032082810135908201526103408083013590820152610360613daa818401613bd7565b90820152610380613dbc838201613be2565b908201526103a0613dce838201613be2565b908201526103c0613de0838201613be2565b9082015292915050565b60006103e08284031215613dfd57600080fd5b61393f8383613c10565b60006102808284031215613e1a57600080fd5b50919050565b6000806102a08385031215613e3457600080fd5b82359150613e458460208501613e07565b90509250929050565b600082601f830112613e5f57600080fd5b813567ffffffffffffffff811115613e7957613e79613b19565b613e8c601f8201601f1916602001613b7d565b818152846020838601011115613ea157600080fd5b816020850160208301376000918101602001919091529392505050565b60008060008060808587031215613ed457600080fd5b8435935060208501359250604085013567ffffffffffffffff811115613ef957600080fd5b613f0587828801613e4e565b925050613f1460608601613bae565b905092959194509250565b60ff811681146101ac57600080fd5b60008060008060006104608688031215613f4757600080fd5b853567ffffffffffffffff80821115613f5f57600080fd5b818801915088601f830112613f7357600080fd5b8135602082821115613f8757613f87613b19565b613f95818360051b01613b7d565b82815260089290921b8401810191818101908c841115613fb457600080fd5b948201945b8386101561405357610100868e031215613fd35760008081fd5b613fdb613b59565b613fe487613bae565b8152613ff1848801613bae565b848201526040614002818901613bae565b90820152606087810135908201526080808801359082015260a08088013561402981613f1f565b9082015260c0878101359082015260e0808801359082015282526101009095019490820190613fb9565b995061406390508b8b8301613c10565b975050506140746104008901613bae565b9450610420880135935061044088013591508082111561409357600080fd5b506140a088828901613e4e565b9150509295509295909350565b6000806000606084860312156140c257600080fd5b83359250602084013591506140d960408501613bae565b90509250925092565b600080600080600061030086880312156140fb57600080fd5b8535945061410c8760208801613e07565b935061411b6102a08701613bae565b92506102c086013591506102e086013567ffffffffffffffff81111561414057600080fd5b6140a088828901613e4e565b60006020828403121561415e57600080fd5b5035919050565b634e487b7160e01b600052602160045260246000fd5b6003811061418b5761418b614165565b9052565b6002811061418b5761418b614165565b6005811061418b5761418b614165565b80516001600160a01b031682526020810151602083015260408101516141e060408401826001600160a01b03169052565b50606081015160608301526080810151608083015260a081015161420760a084018261417b565b5060c081015160c083015260e081015161422560e084018215159052565b50610100818101511515908301526101208082015190830152610140808201516142518285018261418f565b5050610160818101519083015261018080820151908301526101a08082015161427c8285018261417b565b50506101c081810151908301526101e08082015161429c8285018261419f565b5050610200808201516142b18285018261417b565b50506102208181015190830152610240808201516142d18285018261417b565b5050610260818101519083015261028080820151908301526102a080820151908301526102c080820151908301526102e0808201516143128285018261419f565b5050610300808201516143278285018261417b565b505061032081810151908301526103408082015190830152610360808201516143528285018261417b565b5050610380818101511515908301526103a0808201511515908301526103c08082015180151582850152610277565b81516001600160a01b031681526105c0810160208301516143a560208401826141af565b5060408301516104008301526060830151610420830152608083015161044083015260a083015161046083015260c083015161048083015260e08301516104a08301526101008301516001600160501b039081166104c084015261012084015181166104e08401526101408401518116610500840152610160840151166105208301526101808301516105408301526101a08301516105608301526101c08301516105808301526101e08301516144606105a084018261417b565b5092915050565b6000806000610420848603121561447d57600080fd5b6144878585613c10565b92506103e084013591506140d96104008501613bae565b6000806000806102e085870312156144b557600080fd5b843593506144c68660208701613e07565b92506102a08501359150613f146102c08601613bae565b634e487b7160e01b600052601160045260246000fd5b808201808211156134ad576134ad6144dd565b634e487b7160e01b600052603260045260246000fd5b60006001820161452e5761452e6144dd565b5060010190565b6001600160a01b038516815260208101849052610440810161455a60408301856141af565b8261042083015295945050505050565b60006103008201905060018060a01b03871682528560208301528460408301528335606083015260208401356080830152604084013560a0830152606084013560c0830152608084013560e083015261010060a08501358184015261012060c0860135818501526145dd60e08701613bd7565b6101406145ec8187018361417b565b61016091508388013582870152610180935082880135848701526101a0925080880135838701525061461f818801613bd7565b90506101c06146308187018361417b565b61463b848901613be2565b93506101e0915061464f8287018515159052565b61465a838901613be2565b9350610200925061466e8387018515159052565b614679818901613be2565b93505061022061468c8187018515159052565b610240935081880135848701526146a4838901613be2565b925061026091506146b88287018415159052565b6146c3818901613be2565b9250506146d561028086018315159052565b918601356102a085015250909301356102c08201526102e001529392505050565b80820281158282048414176134ad576134ad6144dd565b60008261472a57634e487b7160e01b600052601260045260246000fd5b500490565b818103818111156134ad576134ad6144dd565b60006020828403121561475457600080fd5b815161393f81613f1f565b600181815b8085111561479a578160001904821115614780576147806144dd565b8085161561478d57918102915b93841c9390800290614764565b509250929050565b6000826147b1575060016134ad565b816147be575060006134ad565b81600181146147d457600281146147de576147fa565b60019150506134ad565b60ff8411156147ef576147ef6144dd565b50506001821b6134ad565b5060208310610133831016604e8410600b841016171561481d575081810a6134ad565b614827838361475f565b806000190482111561483b5761483b6144dd565b029392505050565b600061393f60ff8416836147a2565b6001600160a01b0387168152610480810161487060208301886141af565b6001600160501b03808716610400840152808616610420840152508361044083015282610460830152979650505050505050565b6000602082840312156148b657600080fd5b813561393f81613bca565b6000602082840312156148d357600080fd5b61393f82613be2565b81546001600160a01b031681526103e081016001830154602083015260028301546001600160a01b031660408301526003830154606083015260048301546080830152600583015460ff1661493460a084018261417b565b50600683015460c0830152600783015460ff808216151560e08501526149646101008501828460081c1615159052565b6008850154610120850152600985015460ff16915061498761014085018361418f565b600a850154610160850152600b850154610180850152600c85015460ff1691506149b56101a085018361417b565b600d8501546101c0850152600e85015491506149d76101e0850182841661419f565b6149ea6102008501828460081c1661417b565b600f850154610220850152601085015460ff169150614a0d61024085018361417b565b6011850154610260850152601285015461028085015260138501546102a085015260148501546102c085015260158501549150614a506102e0850182841661419f565b614a636103008501828460081c1661417b565b6016850154610320850152601785015461034085015260188501549150614a90610360850182841661417b565b614aa46103808501828460081c1615159052565b614ab86103a08501828460101c1615159052565b614acc6103c08501828460181c1615159052565b505092915050565b80516001600160501b0381168114613bc557600080fd5b600080600080600060a08688031215614b0357600080fd5b614b0c86614ad4565b9450602086015193506040860151925060608601519150614b2f60808701614ad4565b90509295509295909350565b600061393f83836147a256fea264697066735822122073d9df21eda19b2505ecf0a3c02ea0317e98d5579b44df077f8c24194263759f64736f6c63430008140033",
  "devdoc": {
    "details": "StrategyFacet is one of the facets of the system, dedicated to strategy management.",
    "events": {
      "StrategyCancelled(uint256,uint256,uint256)": {
        "params": {
          "investTokenPrice": "The price of the invest token in USD.",
          "stableTokenPrice": "The price of the stable token in USD.",
          "strategyId": "The unique ID of the cancelled strategy."
        }
      },
      "StrategyCreated(uint256,address,(address,uint256,address,uint256,uint256,uint8,uint256,bool,bool,uint256,uint8,uint256,uint256,uint8,uint256,uint8,uint8,uint256,uint8,uint256,uint256,uint256,uint256,uint8,uint8,uint256,uint256,uint8,bool,bool,bool),uint80,uint80,uint256,uint256)": {
        "params": {
          "budget": "total budget of the user in the stable token",
          "investRoundId": "Round ID for the invest token price when the strategy is created.",
          "parameter": "The strategy parameter including settings for buying and selling.",
          "price": "price of the invest token w.r.t. the stable when strategy was created",
          "stableRoundId": "Round ID for the stable token price when the strategy is created.",
          "strategyId": "The unique ID of the strategy.",
          "user": "address of the user whose  for whose strategy is created"
        }
      },
      "StrategyUpdated(uint256,(address,uint256,address,uint256,uint256,uint8,uint256,bool,bool,uint256,uint8,uint256,uint256,uint8,uint256,uint8,uint8,uint256,uint8,uint256,uint256,uint256,uint256,uint8,uint8,uint256,uint256,uint8,bool,bool,bool))": {
        "params": {
          "strategyId": "The unique ID of the strategy.",
          "updateStruct": "updated parameters of the strategy"
        }
      }
    },
    "kind": "dev",
    "methods": {
      "cancelStrategy(uint256)": {
        "details": "This function allows users to cancel a trade execution strategy based on its unique ID.      When cancelled, the strategy's status is updated to \"CANCELLED.\"",
        "params": {
          "id": "The unique ID of the strategy to cancel."
        }
      },
      "cancelStrategyOnBehalf(uint256,uint256,bytes,address)": {
        "details": "This function allows users to cancel a trade execution strategy based on its unique ID.      When cancelled, the strategy's status is updated to \"CANCELLED.\"",
        "params": {
          "id": "The unique ID of the strategy to cancel."
        }
      },
      "createStrategy((address,uint256,address,uint256,uint256,uint8,uint256,bool,bool,uint256,uint8,uint256,uint256,uint8,uint256,uint8,uint8,uint256,uint8,uint256,uint256,uint256,uint256,uint8,uint8,uint256,uint256,uint8,bool,bool,bool))": {
        "details": "This function validates the input parameters to ensure they satisfy the criteria for creating a strategy.      If the parameters are valid, a new strategy is created and an event is emitted to indicate the successful creation.      If the parameters do not meet the criteria, an error is thrown.",
        "params": {
          "_parameter": "The strategy parameters defining the behavior and conditions of the strategy."
        }
      },
      "createStrategyOnBehalf((address,address,address,uint256,uint256,uint8,bytes32,bytes32)[],(address,uint256,address,uint256,uint256,uint8,uint256,bool,bool,uint256,uint8,uint256,uint256,uint8,uint256,uint8,uint8,uint256,uint8,uint256,uint256,uint256,uint256,uint8,uint8,uint256,uint256,uint8,bool,bool,bool),address,uint256,bytes)": {
        "details": "This function validates the input parameters to ensure they satisfy the criteria for creating a strategy.      If the parameters are valid, a new strategy is created and an event is emitted to indicate the successful creation.      If the parameters do not meet the criteria, an error is thrown.",
        "params": {
          "_parameter": "The strategy parameters defining the behavior and conditions of the strategy.",
          "account": "The address of the user who created the strategy.",
          "nonce": "The nonce of the user who created the strategy.",
          "permits": "The array of `Permit` structs containing the parameters for the permit function.",
          "signature": "The signature of the user who created the strategy."
        }
      },
      "getMessageHashToCancel(uint256,uint256,address)": {
        "details": "This function returns the message hash that must be signed by the user in order to cancel a strategy on behalf of another user.",
        "params": {
          "account": "The address of the user who created the strategy.",
          "id": "The strategy id",
          "nonce": "The nonce of the user who created the strategy."
        },
        "returns": {
          "_0": "The message hash for the given strategy."
        }
      },
      "getMessageHashToCreate((address,uint256,address,uint256,uint256,uint8,uint256,bool,bool,uint256,uint8,uint256,uint256,uint8,uint256,uint8,uint8,uint256,uint8,uint256,uint256,uint256,uint256,uint8,uint8,uint256,uint256,uint8,bool,bool,bool),uint256,address)": {
        "details": "This function returns the message hash that must be signed by the user in order to create a strategy on behalf of another user.",
        "params": {
          "_parameter": "The strategy parameters defining the behavior and conditions of the strategy.",
          "account": "The address of the user who created the strategy.",
          "nonce": "The nonce of the user who created the strategy."
        },
        "returns": {
          "_0": "The message hash for the given strategy."
        }
      },
      "getMessageHashToUpdate(uint256,(uint256,uint256,uint256,uint256,uint256,uint256,uint256,uint8,uint256,uint256,uint256,uint8,bool,bool,bool,uint256,bool,bool,uint256,uint256),uint256,address)": {
        "details": "This function returns the message hash that must be signed by the user in order to update a strategy on behalf of another user.",
        "params": {
          "account": "The address of the user who created the strategy.",
          "id": "The strategy id",
          "nonce": "The nonce of the user who created the strategy.",
          "updateStruct": "updated parameters of the strategy"
        },
        "returns": {
          "_0": "The message hash for the given strategy."
        }
      },
      "getStrategy(uint256)": {
        "details": "This function allows users to query and retrieve information about a trade execution strategy      based on its unique ID.",
        "params": {
          "id": "The unique ID of the strategy to retrieve."
        },
        "returns": {
          "_0": "A `Strategy` struct containing details of the specified strategy."
        }
      },
      "nextStrategyId()": {
        "details": "This function returns the unique ID that will be assigned to the next created strategy.",
        "returns": {
          "_0": "The next available strategy ID."
        }
      },
      "updateStrategy(uint256,(uint256,uint256,uint256,uint256,uint256,uint256,uint256,uint8,uint256,uint256,uint256,uint8,bool,bool,bool,uint256,bool,bool,uint256,uint256))": {
        "details": "Update an existing strategy with new parameters.",
        "params": {
          "strategyId": "The unique identifier of the strategy to update.",
          "updateStruct": "A struct containing the updated parameters for the strategy."
        }
      },
      "updateStrategyOnBehalf(uint256,(uint256,uint256,uint256,uint256,uint256,uint256,uint256,uint8,uint256,uint256,uint256,uint8,bool,bool,bool,uint256,bool,bool,uint256,uint256),address,uint256,bytes)": {
        "details": "Update an existing strategy with new parameters on behalf of another user.",
        "params": {
          "account": "The address of the user who created the strategy.",
          "nonce": "The nonce of the user who created the strategy.",
          "signature": "The signature of the user who created the strategy.",
          "strategyId": "The unique identifier of the strategy to update.",
          "updateStruct": "A struct containing the updated parameters for the strategy."
        }
      }
    },
    "title": "StrategyFacet",
    "version": 1
  },
  "userdoc": {
    "events": {
      "StrategyCancelled(uint256,uint256,uint256)": {
        "notice": "Emitted when a trade execution strategy is cancelled."
      },
      "StrategyCreated(uint256,address,(address,uint256,address,uint256,uint256,uint8,uint256,bool,bool,uint256,uint8,uint256,uint256,uint8,uint256,uint8,uint8,uint256,uint8,uint256,uint256,uint256,uint256,uint8,uint8,uint256,uint256,uint8,bool,bool,bool),uint80,uint80,uint256,uint256)": {
        "notice": "Emitted when a new trading strategy is created."
      },
      "StrategyUpdated(uint256,(address,uint256,address,uint256,uint256,uint8,uint256,bool,bool,uint256,uint8,uint256,uint256,uint8,uint256,uint8,uint8,uint256,uint8,uint256,uint256,uint256,uint256,uint8,uint8,uint256,uint256,uint8,bool,bool,bool))": {
        "notice": "Emitted when a strategy is updated."
      }
    },
    "kind": "user",
    "methods": {
      "cancelStrategy(uint256)": {
        "notice": "Cancel a trade execution strategy."
      },
      "cancelStrategyOnBehalf(uint256,uint256,bytes,address)": {
        "notice": "Cancel a trade execution strategy on behalf of another user."
      },
      "createStrategy((address,uint256,address,uint256,uint256,uint8,uint256,bool,bool,uint256,uint8,uint256,uint256,uint8,uint256,uint8,uint8,uint256,uint8,uint256,uint256,uint256,uint256,uint8,uint8,uint256,uint256,uint8,bool,bool,bool))": {
        "notice": "Create a new trade execution strategy based on the provided parameters."
      },
      "createStrategyOnBehalf((address,address,address,uint256,uint256,uint8,bytes32,bytes32)[],(address,uint256,address,uint256,uint256,uint8,uint256,bool,bool,uint256,uint8,uint256,uint256,uint8,uint256,uint8,uint8,uint256,uint8,uint256,uint256,uint256,uint256,uint8,uint8,uint256,uint256,uint8,bool,bool,bool),address,uint256,bytes)": {
        "notice": "Create a new trade execution strategy based on the provided parameters on behalf of another user."
      },
      "getMessageHashToCancel(uint256,uint256,address)": {
        "notice": "Get the message hash for a given strategy to cancel."
      },
      "getMessageHashToCreate((address,uint256,address,uint256,uint256,uint8,uint256,bool,bool,uint256,uint8,uint256,uint256,uint8,uint256,uint8,uint8,uint256,uint8,uint256,uint256,uint256,uint256,uint8,uint8,uint256,uint256,uint8,bool,bool,bool),uint256,address)": {
        "notice": "Get the message hash for a given strategy to create it."
      },
      "getMessageHashToUpdate(uint256,(uint256,uint256,uint256,uint256,uint256,uint256,uint256,uint8,uint256,uint256,uint256,uint8,bool,bool,bool,uint256,bool,bool,uint256,uint256),uint256,address)": {
        "notice": "Get the message hash for a given strategy to update it."
      },
      "getStrategy(uint256)": {
        "notice": "Retrieve the details of a trade execution strategy."
      },
      "nextStrategyId()": {
        "notice": "Get the next available strategy ID."
      }
    },
    "notice": "This contract handles the creation, retrieval, and cancellation of strategies. Strategies define specific trade execution conditions and actions.",
    "version": 1
  },
  "storageLayout": {
    "storage": [
      {
        "astId": 5872,
        "contract": "contracts/facets/StrategyFacet.sol:StrategyFacet",
        "label": "s",
        "offset": 0,
        "slot": "0",
        "type": "t_struct(AppStorage)1250_storage"
      }
    ],
    "types": {
      "t_address": {
        "encoding": "inplace",
        "label": "address",
        "numberOfBytes": "20"
      },
      "t_bool": {
        "encoding": "inplace",
        "label": "bool",
        "numberOfBytes": "1"
      },
      "t_bytes32": {
        "encoding": "inplace",
        "label": "bytes32",
        "numberOfBytes": "32"
      },
      "t_bytes4": {
        "encoding": "inplace",
        "label": "bytes4",
        "numberOfBytes": "4"
      },
      "t_enum(BuyLegType)1083": {
        "encoding": "inplace",
        "label": "enum BuyLegType",
        "numberOfBytes": "1"
      },
      "t_enum(DCA_UNIT)1100": {
        "encoding": "inplace",
        "label": "enum DCA_UNIT",
        "numberOfBytes": "1"
      },
      "t_enum(DIP_SPIKE)1095": {
        "encoding": "inplace",
        "label": "enum DIP_SPIKE",
        "numberOfBytes": "1"
      },
      "t_enum(FloorLegType)1079": {
        "encoding": "inplace",
        "label": "enum FloorLegType",
        "numberOfBytes": "1"
      },
      "t_enum(ReentrancyStatus)1069": {
        "encoding": "inplace",
        "label": "enum ReentrancyStatus",
        "numberOfBytes": "1"
      },
      "t_enum(SellLegType)1088": {
        "encoding": "inplace",
        "label": "enum SellLegType",
        "numberOfBytes": "1"
      },
      "t_enum(Status)1074": {
        "encoding": "inplace",
        "label": "enum Status",
        "numberOfBytes": "1"
      },
      "t_enum(TimeUnit)1105": {
        "encoding": "inplace",
        "label": "enum TimeUnit",
        "numberOfBytes": "1"
      },
      "t_mapping(t_address,t_address)": {
        "encoding": "mapping",
        "key": "t_address",
        "label": "mapping(address => address)",
        "numberOfBytes": "32",
        "value": "t_address"
      },
      "t_mapping(t_address,t_uint256)": {
        "encoding": "mapping",
        "key": "t_address",
        "label": "mapping(address => uint256)",
        "numberOfBytes": "32",
        "value": "t_uint256"
      },
      "t_mapping(t_bytes4,t_bool)": {
        "encoding": "mapping",
        "key": "t_bytes4",
        "label": "mapping(bytes4 => bool)",
        "numberOfBytes": "32",
        "value": "t_bool"
      },
      "t_mapping(t_bytes4,t_bytes32)": {
        "encoding": "mapping",
        "key": "t_bytes4",
        "label": "mapping(bytes4 => bytes32)",
        "numberOfBytes": "32",
        "value": "t_bytes32"
      },
      "t_mapping(t_uint256,t_bytes32)": {
        "encoding": "mapping",
        "key": "t_uint256",
        "label": "mapping(uint256 => bytes32)",
        "numberOfBytes": "32",
        "value": "t_bytes32"
      },
      "t_mapping(t_uint256,t_struct(Strategy)1214_storage)": {
        "encoding": "mapping",
        "key": "t_uint256",
        "label": "mapping(uint256 => struct Strategy)",
        "numberOfBytes": "32",
        "value": "t_struct(Strategy)1214_storage"
      },
      "t_struct(AppStorage)1250_storage": {
        "encoding": "inplace",
        "label": "struct AppStorage",
        "members": [
          {
            "astId": 1219,
            "contract": "contracts/facets/StrategyFacet.sol:StrategyFacet",
            "label": "facets",
            "offset": 0,
            "slot": "0",
            "type": "t_mapping(t_bytes4,t_bytes32)"
          },
          {
            "astId": 1223,
            "contract": "contracts/facets/StrategyFacet.sol:StrategyFacet",
            "label": "selectorSlots",
            "offset": 0,
            "slot": "1",
            "type": "t_mapping(t_uint256,t_bytes32)"
          },
          {
            "astId": 1225,
            "contract": "contracts/facets/StrategyFacet.sol:StrategyFacet",
            "label": "selectorCount",
            "offset": 0,
            "slot": "2",
            "type": "t_uint16"
          },
          {
            "astId": 1229,
            "contract": "contracts/facets/StrategyFacet.sol:StrategyFacet",
            "label": "supportedInterfaces",
            "offset": 0,
            "slot": "3",
            "type": "t_mapping(t_bytes4,t_bool)"
          },
          {
            "astId": 1231,
            "contract": "contracts/facets/StrategyFacet.sol:StrategyFacet",
            "label": "owner",
            "offset": 0,
            "slot": "4",
            "type": "t_address"
          },
          {
            "astId": 1233,
            "contract": "contracts/facets/StrategyFacet.sol:StrategyFacet",
            "label": "nextStrategyId",
            "offset": 0,
            "slot": "5",
            "type": "t_uint256"
          },
          {
            "astId": 1238,
            "contract": "contracts/facets/StrategyFacet.sol:StrategyFacet",
            "label": "strategies",
            "offset": 0,
            "slot": "6",
            "type": "t_mapping(t_uint256,t_struct(Strategy)1214_storage)"
          },
          {
            "astId": 1242,
            "contract": "contracts/facets/StrategyFacet.sol:StrategyFacet",
            "label": "feeds",
            "offset": 0,
            "slot": "7",
            "type": "t_mapping(t_address,t_address)"
          },
          {
            "astId": 1246,
            "contract": "contracts/facets/StrategyFacet.sol:StrategyFacet",
            "label": "nonces",
            "offset": 0,
            "slot": "8",
            "type": "t_mapping(t_address,t_uint256)"
          },
          {
            "astId": 1249,
            "contract": "contracts/facets/StrategyFacet.sol:StrategyFacet",
            "label": "reentrancyStatus",
            "offset": 0,
            "slot": "9",
            "type": "t_enum(ReentrancyStatus)1069"
          }
        ],
        "numberOfBytes": "320"
      },
      "t_struct(Strategy)1214_storage": {
        "encoding": "inplace",
        "label": "struct Strategy",
        "members": [
          {
            "astId": 1181,
            "contract": "contracts/facets/StrategyFacet.sol:StrategyFacet",
            "label": "user",
            "offset": 0,
            "slot": "0",
            "type": "t_address"
          },
          {
            "astId": 1184,
            "contract": "contracts/facets/StrategyFacet.sol:StrategyFacet",
            "label": "parameters",
            "offset": 0,
            "slot": "1",
            "type": "t_struct(StrategyParameters)1178_storage"
          },
          {
            "astId": 1186,
            "contract": "contracts/facets/StrategyFacet.sol:StrategyFacet",
            "label": "sellPercentageAmount",
            "offset": 0,
            "slot": "26",
            "type": "t_uint256"
          },
          {
            "astId": 1188,
            "contract": "contracts/facets/StrategyFacet.sol:StrategyFacet",
            "label": "buyPercentageAmount",
            "offset": 0,
            "slot": "27",
            "type": "t_uint256"
          },
          {
            "astId": 1190,
            "contract": "contracts/facets/StrategyFacet.sol:StrategyFacet",
            "label": "sellPercentageTotalAmount",
            "offset": 0,
            "slot": "28",
            "type": "t_uint256"
          },
          {
            "astId": 1192,
            "contract": "contracts/facets/StrategyFacet.sol:StrategyFacet",
            "label": "buyPercentageTotalAmount",
            "offset": 0,
            "slot": "29",
            "type": "t_uint256"
          },
          {
            "astId": 1194,
            "contract": "contracts/facets/StrategyFacet.sol:StrategyFacet",
            "label": "sellTwapExecutedAt",
            "offset": 0,
            "slot": "30",
            "type": "t_uint256"
          },
          {
            "astId": 1196,
            "contract": "contracts/facets/StrategyFacet.sol:StrategyFacet",
            "label": "buyTwapExecutedAt",
            "offset": 0,
            "slot": "31",
            "type": "t_uint256"
          },
          {
            "astId": 1198,
            "contract": "contracts/facets/StrategyFacet.sol:StrategyFacet",
            "label": "investRoundIdForBTD",
            "offset": 0,
            "slot": "32",
            "type": "t_uint80"
          },
          {
            "astId": 1200,
            "contract": "contracts/facets/StrategyFacet.sol:StrategyFacet",
            "label": "stableRoundIdForBTD",
            "offset": 10,
            "slot": "32",
            "type": "t_uint80"
          },
          {
            "astId": 1202,
            "contract": "contracts/facets/StrategyFacet.sol:StrategyFacet",
            "label": "investRoundIdForSTR",
            "offset": 20,
            "slot": "32",
            "type": "t_uint80"
          },
          {
            "astId": 1204,
            "contract": "contracts/facets/StrategyFacet.sol:StrategyFacet",
            "label": "stableRoundIdForSTR",
            "offset": 0,
            "slot": "33",
            "type": "t_uint80"
          },
          {
            "astId": 1206,
            "contract": "contracts/facets/StrategyFacet.sol:StrategyFacet",
            "label": "investPrice",
            "offset": 0,
            "slot": "34",
            "type": "t_uint256"
          },
          {
            "astId": 1208,
            "contract": "contracts/facets/StrategyFacet.sol:StrategyFacet",
            "label": "profit",
            "offset": 0,
            "slot": "35",
            "type": "t_uint256"
          },
          {
            "astId": 1210,
            "contract": "contracts/facets/StrategyFacet.sol:StrategyFacet",
            "label": "budget",
            "offset": 0,
            "slot": "36",
            "type": "t_uint256"
          },
          {
            "astId": 1213,
            "contract": "contracts/facets/StrategyFacet.sol:StrategyFacet",
            "label": "status",
            "offset": 0,
            "slot": "37",
            "type": "t_enum(Status)1074"
          }
        ],
        "numberOfBytes": "1216"
      },
      "t_struct(StrategyParameters)1178_storage": {
        "encoding": "inplace",
        "label": "struct StrategyParameters",
        "members": [
          {
            "astId": 1108,
            "contract": "contracts/facets/StrategyFacet.sol:StrategyFacet",
            "label": "_investToken",
            "offset": 0,
            "slot": "0",
            "type": "t_address"
          },
          {
            "astId": 1110,
            "contract": "contracts/facets/StrategyFacet.sol:StrategyFacet",
            "label": "_investAmount",
            "offset": 0,
            "slot": "1",
            "type": "t_uint256"
          },
          {
            "astId": 1112,
            "contract": "contracts/facets/StrategyFacet.sol:StrategyFacet",
            "label": "_stableToken",
            "offset": 0,
            "slot": "2",
            "type": "t_address"
          },
          {
            "astId": 1114,
            "contract": "contracts/facets/StrategyFacet.sol:StrategyFacet",
            "label": "_stableAmount",
            "offset": 0,
            "slot": "3",
            "type": "t_uint256"
          },
          {
            "astId": 1116,
            "contract": "contracts/facets/StrategyFacet.sol:StrategyFacet",
            "label": "_impact",
            "offset": 0,
            "slot": "4",
            "type": "t_uint256"
          },
          {
            "astId": 1119,
            "contract": "contracts/facets/StrategyFacet.sol:StrategyFacet",
            "label": "_floorType",
            "offset": 0,
            "slot": "5",
            "type": "t_enum(FloorLegType)1079"
          },
          {
            "astId": 1121,
            "contract": "contracts/facets/StrategyFacet.sol:StrategyFacet",
            "label": "_floorValue",
            "offset": 0,
            "slot": "6",
            "type": "t_uint256"
          },
          {
            "astId": 1123,
            "contract": "contracts/facets/StrategyFacet.sol:StrategyFacet",
            "label": "_liquidateOnFloor",
            "offset": 0,
            "slot": "7",
            "type": "t_bool"
          },
          {
            "astId": 1125,
            "contract": "contracts/facets/StrategyFacet.sol:StrategyFacet",
            "label": "_cancelOnFloor",
            "offset": 1,
            "slot": "7",
            "type": "t_bool"
          },
          {
            "astId": 1127,
            "contract": "contracts/facets/StrategyFacet.sol:StrategyFacet",
            "label": "_minimumLoss",
            "offset": 0,
            "slot": "8",
            "type": "t_uint256"
          },
          {
            "astId": 1130,
            "contract": "contracts/facets/StrategyFacet.sol:StrategyFacet",
            "label": "_buyType",
            "offset": 0,
            "slot": "9",
            "type": "t_enum(BuyLegType)1083"
          },
          {
            "astId": 1132,
            "contract": "contracts/facets/StrategyFacet.sol:StrategyFacet",
            "label": "_buyValue",
            "offset": 0,
            "slot": "10",
            "type": "t_uint256"
          },
          {
            "astId": 1134,
            "contract": "contracts/facets/StrategyFacet.sol:StrategyFacet",
            "label": "_buyTwapTime",
            "offset": 0,
            "slot": "11",
            "type": "t_uint256"
          },
          {
            "astId": 1137,
            "contract": "contracts/facets/StrategyFacet.sol:StrategyFacet",
            "label": "_buyTwapTimeUnit",
            "offset": 0,
            "slot": "12",
            "type": "t_enum(TimeUnit)1105"
          },
          {
            "astId": 1139,
            "contract": "contracts/facets/StrategyFacet.sol:StrategyFacet",
            "label": "_btdValue",
            "offset": 0,
            "slot": "13",
            "type": "t_uint256"
          },
          {
            "astId": 1142,
            "contract": "contracts/facets/StrategyFacet.sol:StrategyFacet",
            "label": "_btdType",
            "offset": 0,
            "slot": "14",
            "type": "t_enum(DIP_SPIKE)1095"
          },
          {
            "astId": 1145,
            "contract": "contracts/facets/StrategyFacet.sol:StrategyFacet",
            "label": "_buyDCAUnit",
            "offset": 1,
            "slot": "14",
            "type": "t_enum(DCA_UNIT)1100"
          },
          {
            "astId": 1147,
            "contract": "contracts/facets/StrategyFacet.sol:StrategyFacet",
            "label": "_buyDCAValue",
            "offset": 0,
            "slot": "15",
            "type": "t_uint256"
          },
          {
            "astId": 1150,
            "contract": "contracts/facets/StrategyFacet.sol:StrategyFacet",
            "label": "_sellType",
            "offset": 0,
            "slot": "16",
            "type": "t_enum(SellLegType)1088"
          },
          {
            "astId": 1152,
            "contract": "contracts/facets/StrategyFacet.sol:StrategyFacet",
            "label": "_sellValue",
            "offset": 0,
            "slot": "17",
            "type": "t_uint256"
          },
          {
            "astId": 1154,
            "contract": "contracts/facets/StrategyFacet.sol:StrategyFacet",
            "label": "_highSellValue",
            "offset": 0,
            "slot": "18",
            "type": "t_uint256"
          },
          {
            "astId": 1156,
            "contract": "contracts/facets/StrategyFacet.sol:StrategyFacet",
            "label": "_minimumProfit",
            "offset": 0,
            "slot": "19",
            "type": "t_uint256"
          },
          {
            "astId": 1158,
            "contract": "contracts/facets/StrategyFacet.sol:StrategyFacet",
            "label": "_strValue",
            "offset": 0,
            "slot": "20",
            "type": "t_uint256"
          },
          {
            "astId": 1161,
            "contract": "contracts/facets/StrategyFacet.sol:StrategyFacet",
            "label": "_strType",
            "offset": 0,
            "slot": "21",
            "type": "t_enum(DIP_SPIKE)1095"
          },
          {
            "astId": 1164,
            "contract": "contracts/facets/StrategyFacet.sol:StrategyFacet",
            "label": "_sellDCAUnit",
            "offset": 1,
            "slot": "21",
            "type": "t_enum(DCA_UNIT)1100"
          },
          {
            "astId": 1166,
            "contract": "contracts/facets/StrategyFacet.sol:StrategyFacet",
            "label": "_sellDCAValue",
            "offset": 0,
            "slot": "22",
            "type": "t_uint256"
          },
          {
            "astId": 1168,
            "contract": "contracts/facets/StrategyFacet.sol:StrategyFacet",
            "label": "_sellTwapTime",
            "offset": 0,
            "slot": "23",
            "type": "t_uint256"
          },
          {
            "astId": 1171,
            "contract": "contracts/facets/StrategyFacet.sol:StrategyFacet",
            "label": "_sellTwapTimeUnit",
            "offset": 0,
            "slot": "24",
            "type": "t_enum(TimeUnit)1105"
          },
          {
            "astId": 1173,
            "contract": "contracts/facets/StrategyFacet.sol:StrategyFacet",
            "label": "_completeOnSell",
            "offset": 1,
            "slot": "24",
            "type": "t_bool"
          },
          {
            "astId": 1175,
            "contract": "contracts/facets/StrategyFacet.sol:StrategyFacet",
            "label": "_current_price_sell",
            "offset": 2,
            "slot": "24",
            "type": "t_bool"
          },
          {
            "astId": 1177,
            "contract": "contracts/facets/StrategyFacet.sol:StrategyFacet",
            "label": "_current_price_buy",
            "offset": 3,
            "slot": "24",
            "type": "t_bool"
          }
        ],
        "numberOfBytes": "800"
      },
      "t_uint16": {
        "encoding": "inplace",
        "label": "uint16",
        "numberOfBytes": "2"
      },
      "t_uint256": {
        "encoding": "inplace",
        "label": "uint256",
        "numberOfBytes": "32"
      },
      "t_uint80": {
        "encoding": "inplace",
        "label": "uint80",
        "numberOfBytes": "10"
      }
    }
  }
}