{
  "address": "0xFaa3B1976Ec6cd5CF2a084133F6a09B63b2CE076",
  "abi": [
    {
      "inputs": [],
      "name": "MAX_SLIPPAGE",
      "outputs": [
        {
          "internalType": "uint256",
          "name": "",
          "type": "uint256"
        }
      ],
      "stateMutability": "view",
      "type": "function"
    },
    {
      "inputs": [],
      "name": "USD_DECIMALS",
      "outputs": [
        {
          "internalType": "uint256",
          "name": "",
          "type": "uint256"
        }
      ],
      "stateMutability": "view",
      "type": "function"
    },
    {
      "inputs": [
        {
          "internalType": "address",
          "name": "",
          "type": "address"
        }
      ],
      "name": "exchangeRate",
      "outputs": [
        {
          "internalType": "uint256",
          "name": "",
          "type": "uint256"
        }
      ],
      "stateMutability": "view",
      "type": "function"
    },
    {
      "inputs": [
        {
          "internalType": "address",
          "name": "",
          "type": "address"
        }
      ],
      "name": "feeds",
      "outputs": [
        {
          "internalType": "address",
          "name": "",
          "type": "address"
        }
      ],
      "stateMutability": "view",
      "type": "function"
    },
    {
      "inputs": [
        {
          "internalType": "address",
          "name": "asset",
          "type": "address"
        }
      ],
      "name": "getPrice",
      "outputs": [
        {
          "internalType": "uint256",
          "name": "",
          "type": "uint256"
        }
      ],
      "stateMutability": "view",
      "type": "function"
    },
    {
      "inputs": [],
      "name": "slippage",
      "outputs": [
        {
          "internalType": "uint256",
          "name": "",
          "type": "uint256"
        }
      ],
      "stateMutability": "view",
      "type": "function"
    },
    {
      "inputs": [
        {
          "internalType": "address",
          "name": "fromAsset",
          "type": "address"
        },
        {
          "internalType": "address",
          "name": "toAsset",
          "type": "address"
        },
        {
          "internalType": "uint256",
          "name": "fromAmount",
          "type": "uint256"
        }
      ],
      "name": "swap",
      "outputs": [],
      "stateMutability": "nonpayable",
      "type": "function"
    },
    {
      "inputs": [
        {
          "internalType": "address",
          "name": "asset",
          "type": "address"
        },
        {
          "internalType": "uint256",
          "name": "rate",
          "type": "uint256"
        }
      ],
      "name": "updateExchangeRate",
      "outputs": [],
      "stateMutability": "nonpayable",
      "type": "function"
    },
    {
      "inputs": [
        {
          "internalType": "address",
          "name": "asset",
          "type": "address"
        },
        {
          "internalType": "address",
          "name": "feed",
          "type": "address"
        }
      ],
      "name": "updateFeed",
      "outputs": [],
      "stateMutability": "nonpayable",
      "type": "function"
    },
    {
      "inputs": [
        {
          "internalType": "uint256",
          "name": "_slippage",
          "type": "uint256"
        }
      ],
      "name": "updateSlippage",
      "outputs": [],
      "stateMutability": "nonpayable",
      "type": "function"
    }
  ],
  "transactionHash": "0x8e1c34f312a4befab14344fab7ef6a2d6f29155fd8e0075ae32f0c2f3b24d83b",
  "args": [],
  "numDeployments": 2,
  "solcInputHash": "4979a3ef1d67635d50cce628e54b3085",
  "bytecode": "0x6080604052600060025534801561001557600080fd5b50610c33806100256000396000f3fe608060405234801561001057600080fd5b506004361061009e5760003560e01c806341976e091161006657806341976e09146101475780636d8682601461015a578063dc3b7c8b14610196578063df791e50146101b6578063f9759518146101c957600080fd5b806315b0d496146100a35780632d2ee26e146100b85780632f6ee695146100e25780632fba4aa9146100fd5780633e032a3b1461013e575b600080fd5b6100b66100b13660046108ec565b6101d2565b005b6100b66100c636600461091c565b6001600160a01b03909116600090815260208190526040902055565b6100ea600881565b6040519081526020015b60405180910390f35b61012661010b366004610946565b6001602052600090815260409020546001600160a01b031681565b6040516001600160a01b0390911681526020016100f4565b6100ea60025481565b6100ea610155366004610946565b610243565b6100b6610168366004610968565b6001600160a01b03918216600090815260016020526040902080546001600160a01b03191691909216179055565b6100ea6101a4366004610946565b60006020819052908152604090205481565b6100b66101c436600461099b565b610391565b6100ea61271081565b61271081111561023e5760405162461bcd60e51b815260206004820152602c60248201527f5363656e6172696f4445583a20736c697070616765206d757374206265206c6560448201526b7373207468616e203130302560a01b60648201526084015b60405180910390fd5b600255565b6001600160a01b0381811660009081526001602052604081205490911615158061028457506001600160a01b03821660009081526020819052604090205415155b6102d05760405162461bcd60e51b815260206004820152601a60248201527f5363656e6172696f4445583a207072696365206e6f74207365740000000000006044820152606401610235565b6001600160a01b038281166000908152600160205260409020541615610370576001600160a01b038083166000908152600160209081526040918290205482516350d25bcd60e01b815292519316926350d25bcd9260048082019392918290030181865afa158015610346573d6000803e3d6000fd5b505050506040513d601f19601f8201168201806040525081019061036a91906109d7565b92915050565b506001600160a01b031660009081526020819052604090205490565b919050565b600081116103f85760405162461bcd60e51b815260206004820152602e60248201527f5363656e6172696f4445583a2066726f6d416d6f756e74206d7573742062652060448201526d067726561746572207468616e20360941b6064820152608401610235565b600083905060008390506000826001600160a01b031663313ce5676040518163ffffffff1660e01b8152600401602060405180830381865afa158015610442573d6000803e3d6000fd5b505050506040513d601f19601f8201168201806040525081019061046691906109f0565b61047190600a610b0d565b61047a87610243565b6104849086610b1c565b61048e9190610b33565b9050600061049b86610243565b836001600160a01b031663313ce5676040518163ffffffff1660e01b8152600401602060405180830381865afa1580156104d9573d6000803e3d6000fd5b505050506040513d601f19601f820116820180604052508101906104fd91906109f0565b61050890600a610b0d565b6105129084610b1c565b61051c9190610b33565b90506000612710600254836105319190610b1c565b61053b9190610b33565b90506001600160a01b0387166340c10f19306105578486610b55565b6040516001600160e01b031960e085901b1681526001600160a01b0390921660048301526024820152604401600060405180830381600087803b15801561059d57600080fd5b505af11580156105b1573d6000803e3d6000fd5b505050506105cb873383856105c69190610b55565b6105e1565b6105d788333089610649565b5050505050505050565b6040516001600160a01b03831660248201526044810182905261064490849063a9059cbb60e01b906064015b60408051601f198184030181529190526020810180516001600160e01b03166001600160e01b031990931692909217909152610687565b505050565b6040516001600160a01b03808516602483015283166044820152606481018290526106819085906323b872dd60e01b9060840161060d565b50505050565b60006106dc826040518060400160405280602081526020017f5361666545524332303a206c6f772d6c6576656c2063616c6c206661696c6564815250856001600160a01b031661075c9092919063ffffffff16565b90508051600014806106fd5750808060200190518101906106fd9190610b68565b6106445760405162461bcd60e51b815260206004820152602a60248201527f5361666545524332303a204552433230206f7065726174696f6e20646964206e6044820152691bdd081cdd58d8d9595960b21b6064820152608401610235565b606061076b8484600085610773565b949350505050565b6060824710156107d45760405162461bcd60e51b815260206004820152602660248201527f416464726573733a20696e73756666696369656e742062616c616e636520666f6044820152651c8818d85b1b60d21b6064820152608401610235565b600080866001600160a01b031685876040516107f09190610bae565b60006040518083038185875af1925050503d806000811461082d576040519150601f19603f3d011682016040523d82523d6000602084013e610832565b606091505b50915091506108438783838761084e565b979650505050505050565b606083156108bd5782516000036108b6576001600160a01b0385163b6108b65760405162461bcd60e51b815260206004820152601d60248201527f416464726573733a2063616c6c20746f206e6f6e2d636f6e74726163740000006044820152606401610235565b508161076b565b61076b83838151156108d25781518083602001fd5b8060405162461bcd60e51b81526004016102359190610bca565b6000602082840312156108fe57600080fd5b5035919050565b80356001600160a01b038116811461038c57600080fd5b6000806040838503121561092f57600080fd5b61093883610905565b946020939093013593505050565b60006020828403121561095857600080fd5b61096182610905565b9392505050565b6000806040838503121561097b57600080fd5b61098483610905565b915061099260208401610905565b90509250929050565b6000806000606084860312156109b057600080fd5b6109b984610905565b92506109c760208501610905565b9150604084013590509250925092565b6000602082840312156109e957600080fd5b5051919050565b600060208284031215610a0257600080fd5b815160ff8116811461096157600080fd5b634e487b7160e01b600052601160045260246000fd5b600181815b80851115610a64578160001904821115610a4a57610a4a610a13565b80851615610a5757918102915b93841c9390800290610a2e565b509250929050565b600082610a7b5750600161036a565b81610a885750600061036a565b8160018114610a9e5760028114610aa857610ac4565b600191505061036a565b60ff841115610ab957610ab9610a13565b50506001821b61036a565b5060208310610133831016604e8410600b8410161715610ae7575081810a61036a565b610af18383610a29565b8060001904821115610b0557610b05610a13565b029392505050565b600061096160ff841683610a6c565b808202811582820484141761036a5761036a610a13565b600082610b5057634e487b7160e01b600052601260045260246000fd5b500490565b8181038181111561036a5761036a610a13565b600060208284031215610b7a57600080fd5b8151801515811461096157600080fd5b60005b83811015610ba5578181015183820152602001610b8d565b50506000910152565b60008251610bc0818460208701610b8a565b9190910192915050565b6020815260008251806020840152610be9816040850160208701610b8a565b601f01601f1916919091016040019291505056fea2646970667358221220e4741fabee49a1ef22c2a5a3ee395828d2fa7e6873a6c103d862f24de9b200e564736f6c63430008140033",
  "devdoc": {
    "kind": "dev",
    "methods": {},
    "version": 1
  },
  "userdoc": {
    "kind": "user",
    "methods": {},
    "version": 1
  },
  "storageLayout": {
    "storage": [
      {
        "astId": 1573,
        "contract": "contracts/test/ScenarioDEX.sol:ScenarioDEX",
        "label": "exchangeRate",
        "offset": 0,
        "slot": "0",
        "type": "t_mapping(t_address,t_uint256)"
      },
      {
        "astId": 1577,
        "contract": "contracts/test/ScenarioDEX.sol:ScenarioDEX",
        "label": "feeds",
        "offset": 0,
        "slot": "1",
        "type": "t_mapping(t_address,t_address)"
      },
      {
        "astId": 1580,
        "contract": "contracts/test/ScenarioDEX.sol:ScenarioDEX",
        "label": "slippage",
        "offset": 0,
        "slot": "2",
        "type": "t_uint256"
      }
    ],
    "types": {
      "t_address": {
        "encoding": "inplace",
        "label": "address",
        "numberOfBytes": "20"
      },
      "t_mapping(t_address,t_address)": {
        "encoding": "mapping",
        "key": "t_address",
        "label": "mapping(address => address)",
        "numberOfBytes": "32",
        "value": "t_address"
      },
      "t_mapping(t_address,t_uint256)": {
        "encoding": "mapping",
        "key": "t_address",
        "label": "mapping(address => uint256)",
        "numberOfBytes": "32",
        "value": "t_uint256"
      },
      "t_uint256": {
        "encoding": "inplace",
        "label": "uint256",
        "numberOfBytes": "32"
      }
    }
  }
}