{
  "address": "0x3a2BecF6E99b6B92eF6977d771d8Fd1bAc4e0a8C",
  "abi": [
    {
      "inputs": [],
      "name": "FeedNotFound",
      "type": "error"
    },
    {
      "inputs": [],
      "name": "InvalidPrice",
      "type": "error"
    },
    {
      "inputs": [
        {
          "internalType": "address",
          "name": "asset",
          "type": "address"
        },
        {
          "internalType": "address",
          "name": "unit",
          "type": "address"
        }
      ],
      "name": "getPrice",
      "outputs": [
        {
          "internalType": "uint256",
          "name": "price",
          "type": "uint256"
        },
        {
          "internalType": "uint80",
          "name": "",
          "type": "uint80"
        },
        {
          "internalType": "uint80",
          "name": "",
          "type": "uint80"
        }
      ],
      "stateMutability": "view",
      "type": "function"
    },
    {
      "inputs": [
        {
          "internalType": "address",
          "name": "asset",
          "type": "address"
        },
        {
          "internalType": "uint80",
          "name": "roundId",
          "type": "uint80"
        }
      ],
      "name": "getPriceBasedOnRoundId",
      "outputs": [
        {
          "internalType": "uint256",
          "name": "",
          "type": "uint256"
        }
      ],
      "stateMutability": "view",
      "type": "function"
    },
    {
      "inputs": [
        {
          "internalType": "uint80",
          "name": "investRoundId",
          "type": "uint80"
        },
        {
          "internalType": "uint80",
          "name": "stableRoundId",
          "type": "uint80"
        },
        {
          "internalType": "address",
          "name": "asset",
          "type": "address"
        },
        {
          "internalType": "address",
          "name": "unit",
          "type": "address"
        }
      ],
      "name": "getRoundData",
      "outputs": [
        {
          "internalType": "uint256",
          "name": "",
          "type": "uint256"
        }
      ],
      "stateMutability": "view",
      "type": "function"
    },
    {
      "inputs": [
        {
          "internalType": "address",
          "name": "asset",
          "type": "address"
        }
      ],
      "name": "getUSDPrice",
      "outputs": [
        {
          "internalType": "uint80",
          "name": "",
          "type": "uint80"
        },
        {
          "internalType": "int256",
          "name": "",
          "type": "int256"
        }
      ],
      "stateMutability": "view",
      "type": "function"
    },
    {
      "inputs": [
        {
          "internalType": "address",
          "name": "_asset",
          "type": "address"
        },
        {
          "internalType": "address",
          "name": "_feed",
          "type": "address"
        }
      ],
      "name": "setAssetFeed",
      "outputs": [],
      "stateMutability": "nonpayable",
      "type": "function"
    }
  ],
  "transactionHash": "0xad4c7d12fd5e8dcaad6f18d51705b36d5f3e58128cfe21bfce5c4f9aa5eda091",
  "args": [],
  "numDeployments": 1,
  "solcInputHash": "8758efc6836d60167b6d86981cbcb7fb",
  "bytecode": "0x608060405234801561001057600080fd5b50610afe806100206000396000f3fe608060405234801561001057600080fd5b50600436106100575760003560e01c80633663e2281461005c5780635c049f4f146100825780638b2f0f4f14610095578063ac41865a146100c7578063fd6fa523146100ff575b600080fd5b61006f61006a36600461082a565b610114565b6040519081526020015b60405180910390f35b61006f610090366004610861565b610129565b6100a86100a33660046108b9565b610140565b604080516001600160501b039093168352602083019190915201610079565b6100da6100d53660046108d4565b6101d3565b604080519384526001600160501b039283166020850152911690820152606001610079565b61011261010d3660046108d4565b6101ef565b005b60006101208383610289565b90505b92915050565b600061013785858585610379565b95945050505050565b6001600160a01b03808216600090815260076020526040808220548151633fabe5a360e21b8152915192938493849384939092169163feaf968c9160048083019260a09291908290030181865afa15801561019f573d6000803e3d6000fd5b505050506040513d601f19601f820116820180604052508101906101c39190610907565b5092989197509095505050505050565b60008060006101e285856105b8565b9250925092509250925092565b6004546000906001600160a01b0316331461025a5760405162461bcd60e51b815260206004820152602160248201527f4d6f646966696572733a204d75737420626520636f6e7472616374206f776e656044820152603960f91b606482015260840160405180910390fd5b506001600160a01b03918216600090815260076020526040902080546001600160a01b03191691909216179055565b6001600160a01b0382811660009081526007602052604081205490918291166102c557604051637d53846960e11b815260040160405180910390fd5b6001600160a01b038481166000908152600783016020526040808220549051639a6fc8f560e01b81526001600160501b038716600482015291921690639a6fc8f59060240160a060405180830381865afa158015610327573d6000803e3d6000fd5b505050506040513d601f19601f8201168201806040525081019061034b9190610907565b505050915050806000036103715760405162bfc92160e01b815260040160405180910390fd5b949350505050565b6001600160a01b03828116600090815260076020526040812054909182911615806103be57506001600160a01b03838116600090815260078301602052604090205416155b156103dc57604051637d53846960e11b815260040160405180910390fd5b6001600160a01b038481166000908152600783016020526040808220549051639a6fc8f560e01b81526001600160501b038a16600482015291921690639a6fc8f59060240160a060405180830381865afa15801561043e573d6000803e3d6000fd5b505050506040513d601f19601f820116820180604052508101906104629190610907565b5050506001600160a01b038681166000908152600786016020526040808220549051639a6fc8f560e01b81526001600160501b038c1660048201529395509093501690639a6fc8f59060240160a060405180830381865afa1580156104cb573d6000803e3d6000fd5b505050506040513d601f19601f820116820180604052508101906104ef9190610907565b5050509150508160001480610502575080155b1561051f5760405162bfc92160e01b815260040160405180910390fd5b6000856001600160a01b031663313ce5676040518163ffffffff1660e01b8152600401602060405180830381865afa15801561055f573d6000803e3d6000fd5b505050506040513d601f19601f82011682018060405250810190610583919061095f565b60ff16905060008261059683600a610a83565b6105a09086610a8f565b6105aa9190610aa6565b9a9950505050505050505050565b6001600160a01b03828116600090815260076020526040812054909182918291829116158061060157506001600160a01b03858116600090815260078301602052604090205416155b1561061f57604051637d53846960e11b815260040160405180910390fd5b6001600160a01b038087166000908152600783016020526040808220548151633fabe5a360e21b815291519293849391169163feaf968c9160048083019260a09291908290030181865afa15801561067b573d6000803e3d6000fd5b505050506040513d601f19601f8201168201806040525081019061069f9190610907565b5050506001600160a01b03808a166000908152600787016020526040808220548151633fabe5a360e21b81529151959750939550909384939092169163feaf968c9160048082019260a0929091908290030181865afa158015610706573d6000803e3d6000fd5b505050506040513d601f19601f8201168201806040525081019061072a9190610907565b50505091509150826000148061073e575080155b1561075b5760405162bfc92160e01b815260040160405180910390fd5b6000896001600160a01b031663313ce5676040518163ffffffff1660e01b8152600401602060405180830381865afa15801561079b573d6000803e3d6000fd5b505050506040513d601f19601f820116820180604052508101906107bf919061095f565b60ff169050816107d082600a610a83565b6107da9086610a8f565b6107e49190610aa6565b9b949a50919850929650505050505050565b80356001600160a01b038116811461080d57600080fd5b919050565b6001600160501b038116811461082757600080fd5b50565b6000806040838503121561083d57600080fd5b610846836107f6565b9150602083013561085681610812565b809150509250929050565b6000806000806080858703121561087757600080fd5b843561088281610812565b9350602085013561089281610812565b92506108a0604086016107f6565b91506108ae606086016107f6565b905092959194509250565b6000602082840312156108cb57600080fd5b610120826107f6565b600080604083850312156108e757600080fd5b6108f0836107f6565b91506108fe602084016107f6565b90509250929050565b600080600080600060a0868803121561091f57600080fd5b855161092a81610812565b80955050602086015193506040860151925060608601519150608086015161095181610812565b809150509295509295909350565b60006020828403121561097157600080fd5b815160ff8116811461098257600080fd5b9392505050565b634e487b7160e01b600052601160045260246000fd5b600181815b808511156109da5781600019048211156109c0576109c0610989565b808516156109cd57918102915b93841c93908002906109a4565b509250929050565b6000826109f157506001610123565b816109fe57506000610123565b8160018114610a145760028114610a1e57610a3a565b6001915050610123565b60ff841115610a2f57610a2f610989565b50506001821b610123565b5060208310610133831016604e8410600b8410161715610a5d575081810a610123565b610a67838361099f565b8060001904821115610a7b57610a7b610989565b029392505050565b600061012083836109e2565b808202811582820484141761012357610123610989565b600082610ac357634e487b7160e01b600052601260045260246000fd5b50049056fea2646970667358221220c898c78e90e6dad1426852557f46fea8c7a9c5a3d721af03fd35197481cbc60964736f6c63430008140033",
  "devdoc": {
    "details": "This contract manages asset price feeds used by the diamond contract.",
    "kind": "dev",
    "methods": {
      "getPrice(address,address)": {
        "params": {
          "asset": "The address of the asset.",
          "unit": "The address of the unit (e.g., USD)."
        },
        "returns": {
          "_1": "investRoundId The round ID of the asset's price feed.",
          "_2": "stableRoundId The round ID of the unit's price feed.",
          "price": "The current price of the asset in terms of the unit."
        }
      },
      "getPriceBasedOnRoundId(address,uint80)": {
        "params": {
          "asset": "The address of the asset.",
          "roundId": "the round for which price is required."
        },
        "returns": {
          "_0": "price The price of the asset based on round Id"
        }
      },
      "getRoundData(uint80,uint80,address,address)": {
        "params": {
          "asset": "The address of the asset.",
          "investRoundId": "The round ID of the asset's price feed.",
          "stableRoundId": "The round ID of the unit's price feed.",
          "unit": "The address of the unit (e.g., USD)."
        },
        "returns": {
          "_0": "price The price of the asset in terms of the unit at the specified round IDs."
        }
      },
      "getUSDPrice(address)": {
        "params": {
          "asset": "The address of the asset."
        },
        "returns": {
          "_0": "price The price of the asset in USD"
        }
      },
      "setAssetFeed(address,address)": {
        "params": {
          "_asset": "The address of the asset.",
          "_feed": "The address of the price feed for the asset."
        }
      }
    },
    "title": "PriceOracleFacet",
    "version": 1
  },
  "userdoc": {
    "kind": "user",
    "methods": {
      "getPrice(address,address)": {
        "notice": "Get the current price and round IDs of an asset relative to a unit."
      },
      "getPriceBasedOnRoundId(address,uint80)": {
        "notice": "Get the price of an asset in USD."
      },
      "getRoundData(uint80,uint80,address,address)": {
        "notice": "Get the historical price of an asset relative to a unit at specific round IDs."
      },
      "getUSDPrice(address)": {
        "notice": "Get the price of an asset in USD."
      },
      "setAssetFeed(address,address)": {
        "notice": "Sets the asset price feed address for a specific asset."
      }
    },
    "version": 1
  },
  "storageLayout": {
    "storage": [
      {
        "astId": 4051,
        "contract": "contracts/facets/PriceOracleFacet.sol:PriceOracleFacet",
        "label": "s",
        "offset": 0,
        "slot": "0",
        "type": "t_struct(AppStorage)1250_storage"
      }
    ],
    "types": {
      "t_address": {
        "encoding": "inplace",
        "label": "address",
        "numberOfBytes": "20"
      },
      "t_bool": {
        "encoding": "inplace",
        "label": "bool",
        "numberOfBytes": "1"
      },
      "t_bytes32": {
        "encoding": "inplace",
        "label": "bytes32",
        "numberOfBytes": "32"
      },
      "t_bytes4": {
        "encoding": "inplace",
        "label": "bytes4",
        "numberOfBytes": "4"
      },
      "t_enum(BuyLegType)1083": {
        "encoding": "inplace",
        "label": "enum BuyLegType",
        "numberOfBytes": "1"
      },
      "t_enum(DCA_UNIT)1100": {
        "encoding": "inplace",
        "label": "enum DCA_UNIT",
        "numberOfBytes": "1"
      },
      "t_enum(DIP_SPIKE)1095": {
        "encoding": "inplace",
        "label": "enum DIP_SPIKE",
        "numberOfBytes": "1"
      },
      "t_enum(FloorLegType)1079": {
        "encoding": "inplace",
        "label": "enum FloorLegType",
        "numberOfBytes": "1"
      },
      "t_enum(ReentrancyStatus)1069": {
        "encoding": "inplace",
        "label": "enum ReentrancyStatus",
        "numberOfBytes": "1"
      },
      "t_enum(SellLegType)1088": {
        "encoding": "inplace",
        "label": "enum SellLegType",
        "numberOfBytes": "1"
      },
      "t_enum(Status)1074": {
        "encoding": "inplace",
        "label": "enum Status",
        "numberOfBytes": "1"
      },
      "t_enum(TimeUnit)1105": {
        "encoding": "inplace",
        "label": "enum TimeUnit",
        "numberOfBytes": "1"
      },
      "t_mapping(t_address,t_address)": {
        "encoding": "mapping",
        "key": "t_address",
        "label": "mapping(address => address)",
        "numberOfBytes": "32",
        "value": "t_address"
      },
      "t_mapping(t_address,t_uint256)": {
        "encoding": "mapping",
        "key": "t_address",
        "label": "mapping(address => uint256)",
        "numberOfBytes": "32",
        "value": "t_uint256"
      },
      "t_mapping(t_bytes4,t_bool)": {
        "encoding": "mapping",
        "key": "t_bytes4",
        "label": "mapping(bytes4 => bool)",
        "numberOfBytes": "32",
        "value": "t_bool"
      },
      "t_mapping(t_bytes4,t_bytes32)": {
        "encoding": "mapping",
        "key": "t_bytes4",
        "label": "mapping(bytes4 => bytes32)",
        "numberOfBytes": "32",
        "value": "t_bytes32"
      },
      "t_mapping(t_uint256,t_bytes32)": {
        "encoding": "mapping",
        "key": "t_uint256",
        "label": "mapping(uint256 => bytes32)",
        "numberOfBytes": "32",
        "value": "t_bytes32"
      },
      "t_mapping(t_uint256,t_struct(Strategy)1214_storage)": {
        "encoding": "mapping",
        "key": "t_uint256",
        "label": "mapping(uint256 => struct Strategy)",
        "numberOfBytes": "32",
        "value": "t_struct(Strategy)1214_storage"
      },
      "t_struct(AppStorage)1250_storage": {
        "encoding": "inplace",
        "label": "struct AppStorage",
        "members": [
          {
            "astId": 1219,
            "contract": "contracts/facets/PriceOracleFacet.sol:PriceOracleFacet",
            "label": "facets",
            "offset": 0,
            "slot": "0",
            "type": "t_mapping(t_bytes4,t_bytes32)"
          },
          {
            "astId": 1223,
            "contract": "contracts/facets/PriceOracleFacet.sol:PriceOracleFacet",
            "label": "selectorSlots",
            "offset": 0,
            "slot": "1",
            "type": "t_mapping(t_uint256,t_bytes32)"
          },
          {
            "astId": 1225,
            "contract": "contracts/facets/PriceOracleFacet.sol:PriceOracleFacet",
            "label": "selectorCount",
            "offset": 0,
            "slot": "2",
            "type": "t_uint16"
          },
          {
            "astId": 1229,
            "contract": "contracts/facets/PriceOracleFacet.sol:PriceOracleFacet",
            "label": "supportedInterfaces",
            "offset": 0,
            "slot": "3",
            "type": "t_mapping(t_bytes4,t_bool)"
          },
          {
            "astId": 1231,
            "contract": "contracts/facets/PriceOracleFacet.sol:PriceOracleFacet",
            "label": "owner",
            "offset": 0,
            "slot": "4",
            "type": "t_address"
          },
          {
            "astId": 1233,
            "contract": "contracts/facets/PriceOracleFacet.sol:PriceOracleFacet",
            "label": "nextStrategyId",
            "offset": 0,
            "slot": "5",
            "type": "t_uint256"
          },
          {
            "astId": 1238,
            "contract": "contracts/facets/PriceOracleFacet.sol:PriceOracleFacet",
            "label": "strategies",
            "offset": 0,
            "slot": "6",
            "type": "t_mapping(t_uint256,t_struct(Strategy)1214_storage)"
          },
          {
            "astId": 1242,
            "contract": "contracts/facets/PriceOracleFacet.sol:PriceOracleFacet",
            "label": "feeds",
            "offset": 0,
            "slot": "7",
            "type": "t_mapping(t_address,t_address)"
          },
          {
            "astId": 1246,
            "contract": "contracts/facets/PriceOracleFacet.sol:PriceOracleFacet",
            "label": "nonces",
            "offset": 0,
            "slot": "8",
            "type": "t_mapping(t_address,t_uint256)"
          },
          {
            "astId": 1249,
            "contract": "contracts/facets/PriceOracleFacet.sol:PriceOracleFacet",
            "label": "reentrancyStatus",
            "offset": 0,
            "slot": "9",
            "type": "t_enum(ReentrancyStatus)1069"
          }
        ],
        "numberOfBytes": "320"
      },
      "t_struct(Strategy)1214_storage": {
        "encoding": "inplace",
        "label": "struct Strategy",
        "members": [
          {
            "astId": 1181,
            "contract": "contracts/facets/PriceOracleFacet.sol:PriceOracleFacet",
            "label": "user",
            "offset": 0,
            "slot": "0",
            "type": "t_address"
          },
          {
            "astId": 1184,
            "contract": "contracts/facets/PriceOracleFacet.sol:PriceOracleFacet",
            "label": "parameters",
            "offset": 0,
            "slot": "1",
            "type": "t_struct(StrategyParameters)1178_storage"
          },
          {
            "astId": 1186,
            "contract": "contracts/facets/PriceOracleFacet.sol:PriceOracleFacet",
            "label": "sellPercentageAmount",
            "offset": 0,
            "slot": "26",
            "type": "t_uint256"
          },
          {
            "astId": 1188,
            "contract": "contracts/facets/PriceOracleFacet.sol:PriceOracleFacet",
            "label": "buyPercentageAmount",
            "offset": 0,
            "slot": "27",
            "type": "t_uint256"
          },
          {
            "astId": 1190,
            "contract": "contracts/facets/PriceOracleFacet.sol:PriceOracleFacet",
            "label": "sellPercentageTotalAmount",
            "offset": 0,
            "slot": "28",
            "type": "t_uint256"
          },
          {
            "astId": 1192,
            "contract": "contracts/facets/PriceOracleFacet.sol:PriceOracleFacet",
            "label": "buyPercentageTotalAmount",
            "offset": 0,
            "slot": "29",
            "type": "t_uint256"
          },
          {
            "astId": 1194,
            "contract": "contracts/facets/PriceOracleFacet.sol:PriceOracleFacet",
            "label": "sellTwapExecutedAt",
            "offset": 0,
            "slot": "30",
            "type": "t_uint256"
          },
          {
            "astId": 1196,
            "contract": "contracts/facets/PriceOracleFacet.sol:PriceOracleFacet",
            "label": "buyTwapExecutedAt",
            "offset": 0,
            "slot": "31",
            "type": "t_uint256"
          },
          {
            "astId": 1198,
            "contract": "contracts/facets/PriceOracleFacet.sol:PriceOracleFacet",
            "label": "investRoundIdForBTD",
            "offset": 0,
            "slot": "32",
            "type": "t_uint80"
          },
          {
            "astId": 1200,
            "contract": "contracts/facets/PriceOracleFacet.sol:PriceOracleFacet",
            "label": "stableRoundIdForBTD",
            "offset": 10,
            "slot": "32",
            "type": "t_uint80"
          },
          {
            "astId": 1202,
            "contract": "contracts/facets/PriceOracleFacet.sol:PriceOracleFacet",
            "label": "investRoundIdForSTR",
            "offset": 20,
            "slot": "32",
            "type": "t_uint80"
          },
          {
            "astId": 1204,
            "contract": "contracts/facets/PriceOracleFacet.sol:PriceOracleFacet",
            "label": "stableRoundIdForSTR",
            "offset": 0,
            "slot": "33",
            "type": "t_uint80"
          },
          {
            "astId": 1206,
            "contract": "contracts/facets/PriceOracleFacet.sol:PriceOracleFacet",
            "label": "investPrice",
            "offset": 0,
            "slot": "34",
            "type": "t_uint256"
          },
          {
            "astId": 1208,
            "contract": "contracts/facets/PriceOracleFacet.sol:PriceOracleFacet",
            "label": "profit",
            "offset": 0,
            "slot": "35",
            "type": "t_uint256"
          },
          {
            "astId": 1210,
            "contract": "contracts/facets/PriceOracleFacet.sol:PriceOracleFacet",
            "label": "budget",
            "offset": 0,
            "slot": "36",
            "type": "t_uint256"
          },
          {
            "astId": 1213,
            "contract": "contracts/facets/PriceOracleFacet.sol:PriceOracleFacet",
            "label": "status",
            "offset": 0,
            "slot": "37",
            "type": "t_enum(Status)1074"
          }
        ],
        "numberOfBytes": "1216"
      },
      "t_struct(StrategyParameters)1178_storage": {
        "encoding": "inplace",
        "label": "struct StrategyParameters",
        "members": [
          {
            "astId": 1108,
            "contract": "contracts/facets/PriceOracleFacet.sol:PriceOracleFacet",
            "label": "_investToken",
            "offset": 0,
            "slot": "0",
            "type": "t_address"
          },
          {
            "astId": 1110,
            "contract": "contracts/facets/PriceOracleFacet.sol:PriceOracleFacet",
            "label": "_investAmount",
            "offset": 0,
            "slot": "1",
            "type": "t_uint256"
          },
          {
            "astId": 1112,
            "contract": "contracts/facets/PriceOracleFacet.sol:PriceOracleFacet",
            "label": "_stableToken",
            "offset": 0,
            "slot": "2",
            "type": "t_address"
          },
          {
            "astId": 1114,
            "contract": "contracts/facets/PriceOracleFacet.sol:PriceOracleFacet",
            "label": "_stableAmount",
            "offset": 0,
            "slot": "3",
            "type": "t_uint256"
          },
          {
            "astId": 1116,
            "contract": "contracts/facets/PriceOracleFacet.sol:PriceOracleFacet",
            "label": "_impact",
            "offset": 0,
            "slot": "4",
            "type": "t_uint256"
          },
          {
            "astId": 1119,
            "contract": "contracts/facets/PriceOracleFacet.sol:PriceOracleFacet",
            "label": "_floorType",
            "offset": 0,
            "slot": "5",
            "type": "t_enum(FloorLegType)1079"
          },
          {
            "astId": 1121,
            "contract": "contracts/facets/PriceOracleFacet.sol:PriceOracleFacet",
            "label": "_floorValue",
            "offset": 0,
            "slot": "6",
            "type": "t_uint256"
          },
          {
            "astId": 1123,
            "contract": "contracts/facets/PriceOracleFacet.sol:PriceOracleFacet",
            "label": "_liquidateOnFloor",
            "offset": 0,
            "slot": "7",
            "type": "t_bool"
          },
          {
            "astId": 1125,
            "contract": "contracts/facets/PriceOracleFacet.sol:PriceOracleFacet",
            "label": "_cancelOnFloor",
            "offset": 1,
            "slot": "7",
            "type": "t_bool"
          },
          {
            "astId": 1127,
            "contract": "contracts/facets/PriceOracleFacet.sol:PriceOracleFacet",
            "label": "_minimumLoss",
            "offset": 0,
            "slot": "8",
            "type": "t_uint256"
          },
          {
            "astId": 1130,
            "contract": "contracts/facets/PriceOracleFacet.sol:PriceOracleFacet",
            "label": "_buyType",
            "offset": 0,
            "slot": "9",
            "type": "t_enum(BuyLegType)1083"
          },
          {
            "astId": 1132,
            "contract": "contracts/facets/PriceOracleFacet.sol:PriceOracleFacet",
            "label": "_buyValue",
            "offset": 0,
            "slot": "10",
            "type": "t_uint256"
          },
          {
            "astId": 1134,
            "contract": "contracts/facets/PriceOracleFacet.sol:PriceOracleFacet",
            "label": "_buyTwapTime",
            "offset": 0,
            "slot": "11",
            "type": "t_uint256"
          },
          {
            "astId": 1137,
            "contract": "contracts/facets/PriceOracleFacet.sol:PriceOracleFacet",
            "label": "_buyTwapTimeUnit",
            "offset": 0,
            "slot": "12",
            "type": "t_enum(TimeUnit)1105"
          },
          {
            "astId": 1139,
            "contract": "contracts/facets/PriceOracleFacet.sol:PriceOracleFacet",
            "label": "_btdValue",
            "offset": 0,
            "slot": "13",
            "type": "t_uint256"
          },
          {
            "astId": 1142,
            "contract": "contracts/facets/PriceOracleFacet.sol:PriceOracleFacet",
            "label": "_btdType",
            "offset": 0,
            "slot": "14",
            "type": "t_enum(DIP_SPIKE)1095"
          },
          {
            "astId": 1145,
            "contract": "contracts/facets/PriceOracleFacet.sol:PriceOracleFacet",
            "label": "_buyDCAUnit",
            "offset": 1,
            "slot": "14",
            "type": "t_enum(DCA_UNIT)1100"
          },
          {
            "astId": 1147,
            "contract": "contracts/facets/PriceOracleFacet.sol:PriceOracleFacet",
            "label": "_buyDCAValue",
            "offset": 0,
            "slot": "15",
            "type": "t_uint256"
          },
          {
            "astId": 1150,
            "contract": "contracts/facets/PriceOracleFacet.sol:PriceOracleFacet",
            "label": "_sellType",
            "offset": 0,
            "slot": "16",
            "type": "t_enum(SellLegType)1088"
          },
          {
            "astId": 1152,
            "contract": "contracts/facets/PriceOracleFacet.sol:PriceOracleFacet",
            "label": "_sellValue",
            "offset": 0,
            "slot": "17",
            "type": "t_uint256"
          },
          {
            "astId": 1154,
            "contract": "contracts/facets/PriceOracleFacet.sol:PriceOracleFacet",
            "label": "_highSellValue",
            "offset": 0,
            "slot": "18",
            "type": "t_uint256"
          },
          {
            "astId": 1156,
            "contract": "contracts/facets/PriceOracleFacet.sol:PriceOracleFacet",
            "label": "_minimumProfit",
            "offset": 0,
            "slot": "19",
            "type": "t_uint256"
          },
          {
            "astId": 1158,
            "contract": "contracts/facets/PriceOracleFacet.sol:PriceOracleFacet",
            "label": "_strValue",
            "offset": 0,
            "slot": "20",
            "type": "t_uint256"
          },
          {
            "astId": 1161,
            "contract": "contracts/facets/PriceOracleFacet.sol:PriceOracleFacet",
            "label": "_strType",
            "offset": 0,
            "slot": "21",
            "type": "t_enum(DIP_SPIKE)1095"
          },
          {
            "astId": 1164,
            "contract": "contracts/facets/PriceOracleFacet.sol:PriceOracleFacet",
            "label": "_sellDCAUnit",
            "offset": 1,
            "slot": "21",
            "type": "t_enum(DCA_UNIT)1100"
          },
          {
            "astId": 1166,
            "contract": "contracts/facets/PriceOracleFacet.sol:PriceOracleFacet",
            "label": "_sellDCAValue",
            "offset": 0,
            "slot": "22",
            "type": "t_uint256"
          },
          {
            "astId": 1168,
            "contract": "contracts/facets/PriceOracleFacet.sol:PriceOracleFacet",
            "label": "_sellTwapTime",
            "offset": 0,
            "slot": "23",
            "type": "t_uint256"
          },
          {
            "astId": 1171,
            "contract": "contracts/facets/PriceOracleFacet.sol:PriceOracleFacet",
            "label": "_sellTwapTimeUnit",
            "offset": 0,
            "slot": "24",
            "type": "t_enum(TimeUnit)1105"
          },
          {
            "astId": 1173,
            "contract": "contracts/facets/PriceOracleFacet.sol:PriceOracleFacet",
            "label": "_completeOnSell",
            "offset": 1,
            "slot": "24",
            "type": "t_bool"
          },
          {
            "astId": 1175,
            "contract": "contracts/facets/PriceOracleFacet.sol:PriceOracleFacet",
            "label": "_current_price_sell",
            "offset": 2,
            "slot": "24",
            "type": "t_bool"
          },
          {
            "astId": 1177,
            "contract": "contracts/facets/PriceOracleFacet.sol:PriceOracleFacet",
            "label": "_current_price_buy",
            "offset": 3,
            "slot": "24",
            "type": "t_bool"
          }
        ],
        "numberOfBytes": "800"
      },
      "t_uint16": {
        "encoding": "inplace",
        "label": "uint16",
        "numberOfBytes": "2"
      },
      "t_uint256": {
        "encoding": "inplace",
        "label": "uint256",
        "numberOfBytes": "32"
      },
      "t_uint80": {
        "encoding": "inplace",
        "label": "uint80",
        "numberOfBytes": "10"
      }
    }
  }
}