{
  "address": "0xD865d56acf4e0bbA692822F1a590e5d35eFfEF3a",
  "abi": [
    {
      "inputs": [],
      "name": "FeedNotFound",
      "type": "error"
    },
    {
      "inputs": [],
      "name": "HighImpact",
      "type": "error"
    },
    {
      "inputs": [
        {
          "internalType": "uint256",
          "name": "required",
          "type": "uint256"
        },
        {
          "internalType": "uint256",
          "name": "actual",
          "type": "uint256"
        }
      ],
      "name": "InvalidExchangeRate",
      "type": "error"
    },
    {
      "inputs": [],
      "name": "InvalidPrice",
      "type": "error"
    },
    {
      "inputs": [],
      "name": "InvalidUnit",
      "type": "error"
    },
    {
      "inputs": [],
      "name": "MinimumProfitRequired",
      "type": "error"
    },
    {
      "inputs": [],
      "name": "NoSwapFromZeroBalance",
      "type": "error"
    },
    {
      "inputs": [],
      "name": "PriceIsNotInTheRange",
      "type": "error"
    },
    {
      "inputs": [],
      "name": "PriceLessThanHighSellValue",
      "type": "error"
    },
    {
      "inputs": [],
      "name": "PriceLessThanSellValue",
      "type": "error"
    },
    {
      "inputs": [],
      "name": "PriceNotInRange",
      "type": "error"
    },
    {
      "inputs": [],
      "name": "ReentrancyGuardReentrantCall",
      "type": "error"
    },
    {
      "inputs": [],
      "name": "RoundDataDoesNotMatch",
      "type": "error"
    },
    {
      "inputs": [],
      "name": "STRNotSelected",
      "type": "error"
    },
    {
      "inputs": [],
      "name": "SellDCASelected",
      "type": "error"
    },
    {
      "inputs": [],
      "name": "SellNotSelected",
      "type": "error"
    },
    {
      "inputs": [],
      "name": "SellTwapNotSelected",
      "type": "error"
    },
    {
      "inputs": [],
      "name": "SliceOutOfBounds",
      "type": "error"
    },
    {
      "inputs": [],
      "name": "SliceOverflow",
      "type": "error"
    },
    {
      "inputs": [],
      "name": "StrategyIsNotActive",
      "type": "error"
    },
    {
      "inputs": [],
      "name": "SwapFailed",
      "type": "error"
    },
    {
      "inputs": [],
      "name": "TWAPTimeDifferenceIsLess",
      "type": "error"
    },
    {
      "inputs": [],
      "name": "TransferFailed",
      "type": "error"
    },
    {
      "inputs": [],
      "name": "WrongPreviousIDs",
      "type": "error"
    },
    {
      "anonymous": false,
      "inputs": [
        {
          "indexed": false,
          "internalType": "address",
          "name": "dex",
          "type": "address"
        },
        {
          "indexed": false,
          "internalType": "address",
          "name": "fromAsset",
          "type": "address"
        },
        {
          "indexed": false,
          "internalType": "address",
          "name": "toAsset",
          "type": "address"
        },
        {
          "indexed": false,
          "internalType": "uint256",
          "name": "fromAmount",
          "type": "uint256"
        },
        {
          "indexed": false,
          "internalType": "uint256",
          "name": "receivedAmount",
          "type": "uint256"
        },
        {
          "indexed": false,
          "internalType": "address",
          "name": "account",
          "type": "address"
        }
      ],
      "name": "AssetSwapped",
      "type": "event"
    },
    {
      "anonymous": false,
      "inputs": [
        {
          "indexed": true,
          "internalType": "uint256",
          "name": "strategyId",
          "type": "uint256"
        },
        {
          "indexed": false,
          "internalType": "uint256",
          "name": "impact",
          "type": "uint256"
        },
        {
          "components": [
            {
              "internalType": "uint256",
              "name": "tokenSubstracted",
              "type": "uint256"
            },
            {
              "internalType": "uint256",
              "name": "tokenAdded",
              "type": "uint256"
            },
            {
              "internalType": "uint256",
              "name": "stableAmount",
              "type": "uint256"
            },
            {
              "internalType": "uint256",
              "name": "investAmount",
              "type": "uint256"
            }
          ],
          "indexed": false,
          "internalType": "struct TokensTransaction",
          "name": "tokens",
          "type": "tuple"
        },
        {
          "indexed": false,
          "internalType": "uint256",
          "name": "profit",
          "type": "uint256"
        },
        {
          "indexed": false,
          "internalType": "uint256",
          "name": "investPrice",
          "type": "uint256"
        },
        {
          "components": [
            {
              "internalType": "uint80",
              "name": "investRoundId",
              "type": "uint80"
            },
            {
              "internalType": "uint80",
              "name": "stableRoundId",
              "type": "uint80"
            }
          ],
          "indexed": false,
          "internalType": "struct RoundIds",
          "name": "rounds",
          "type": "tuple"
        }
      ],
      "name": "STRExecuted",
      "type": "event"
    },
    {
      "anonymous": false,
      "inputs": [
        {
          "indexed": true,
          "internalType": "uint256",
          "name": "strategyId",
          "type": "uint256"
        },
        {
          "indexed": false,
          "internalType": "uint256",
          "name": "impact",
          "type": "uint256"
        },
        {
          "components": [
            {
              "internalType": "uint256",
              "name": "tokenSubstracted",
              "type": "uint256"
            },
            {
              "internalType": "uint256",
              "name": "tokenAdded",
              "type": "uint256"
            },
            {
              "internalType": "uint256",
              "name": "stableAmount",
              "type": "uint256"
            },
            {
              "internalType": "uint256",
              "name": "investAmount",
              "type": "uint256"
            }
          ],
          "indexed": false,
          "internalType": "struct TokensTransaction",
          "name": "tokens",
          "type": "tuple"
        },
        {
          "indexed": false,
          "internalType": "uint256",
          "name": "profit",
          "type": "uint256"
        },
        {
          "indexed": false,
          "internalType": "uint256",
          "name": "investPrice",
          "type": "uint256"
        },
        {
          "indexed": false,
          "internalType": "uint256",
          "name": "stablePriceInUSD",
          "type": "uint256"
        }
      ],
      "name": "SellExecuted",
      "type": "event"
    },
    {
      "anonymous": false,
      "inputs": [
        {
          "indexed": true,
          "internalType": "uint256",
          "name": "strategyId",
          "type": "uint256"
        },
        {
          "indexed": false,
          "internalType": "uint256",
          "name": "impact",
          "type": "uint256"
        },
        {
          "components": [
            {
              "internalType": "uint256",
              "name": "tokenSubstracted",
              "type": "uint256"
            },
            {
              "internalType": "uint256",
              "name": "tokenAdded",
              "type": "uint256"
            },
            {
              "internalType": "uint256",
              "name": "stableAmount",
              "type": "uint256"
            },
            {
              "internalType": "uint256",
              "name": "investAmount",
              "type": "uint256"
            }
          ],
          "indexed": false,
          "internalType": "struct TokensTransaction",
          "name": "tokens",
          "type": "tuple"
        },
        {
          "indexed": false,
          "internalType": "uint256",
          "name": "profit",
          "type": "uint256"
        },
        {
          "indexed": false,
          "internalType": "uint256",
          "name": "investPrice",
          "type": "uint256"
        },
        {
          "indexed": false,
          "internalType": "uint256",
          "name": "stablePriceInUSD",
          "type": "uint256"
        }
      ],
      "name": "SellTwapExecuted",
      "type": "event"
    },
    {
      "anonymous": false,
      "inputs": [
        {
          "indexed": true,
          "internalType": "uint256",
          "name": "strategyId",
          "type": "uint256"
        },
        {
          "indexed": false,
          "internalType": "uint256",
          "name": "investTokenPrice",
          "type": "uint256"
        },
        {
          "indexed": false,
          "internalType": "uint256",
          "name": "stableTokenPrice",
          "type": "uint256"
        }
      ],
      "name": "StrategyCompleted",
      "type": "event"
    },
    {
      "inputs": [
        {
          "internalType": "uint256",
          "name": "strategyId",
          "type": "uint256"
        },
        {
          "internalType": "uint80",
          "name": "fromInvestRoundId",
          "type": "uint80"
        },
        {
          "internalType": "uint80",
          "name": "fromStableRoundId",
          "type": "uint80"
        },
        {
          "internalType": "uint80",
          "name": "toInvestRoundId",
          "type": "uint80"
        },
        {
          "internalType": "uint80",
          "name": "toStableRoundId",
          "type": "uint80"
        },
        {
          "components": [
            {
              "internalType": "address",
              "name": "dex",
              "type": "address"
            },
            {
              "internalType": "bytes",
              "name": "callData",
              "type": "bytes"
            }
          ],
          "internalType": "struct Swap",
          "name": "swap",
          "type": "tuple"
        }
      ],
      "name": "executeSTR",
      "outputs": [],
      "stateMutability": "nonpayable",
      "type": "function"
    },
    {
      "inputs": [
        {
          "internalType": "uint256",
          "name": "strategyId",
          "type": "uint256"
        },
        {
          "components": [
            {
              "internalType": "address",
              "name": "dex",
              "type": "address"
            },
            {
              "internalType": "bytes",
              "name": "callData",
              "type": "bytes"
            }
          ],
          "internalType": "struct Swap",
          "name": "swap",
          "type": "tuple"
        }
      ],
      "name": "executeSell",
      "outputs": [],
      "stateMutability": "nonpayable",
      "type": "function"
    },
    {
      "inputs": [
        {
          "internalType": "uint256",
          "name": "strategyId",
          "type": "uint256"
        },
        {
          "components": [
            {
              "internalType": "address",
              "name": "dex",
              "type": "address"
            },
            {
              "internalType": "bytes",
              "name": "callData",
              "type": "bytes"
            }
          ],
          "internalType": "struct Swap",
          "name": "swap",
          "type": "tuple"
        }
      ],
      "name": "executeSellTwap",
      "outputs": [],
      "stateMutability": "nonpayable",
      "type": "function"
    },
    {
      "inputs": [
        {
          "internalType": "bool",
          "name": "investValue",
          "type": "bool"
        },
        {
          "internalType": "uint256",
          "name": "strategyId",
          "type": "uint256"
        }
      ],
      "name": "executionSellAmount",
      "outputs": [
        {
          "internalType": "uint256",
          "name": "",
          "type": "uint256"
        }
      ],
      "stateMutability": "view",
      "type": "function"
    }
  ],
  "transactionHash": "0x529ee2fd407e10f2e97eaffbe90b0e96a3e8f8795c56f45fc81d094ca9023ca8",
  "args": [],
  "numDeployments": 3,
  "solcInputHash": "fa35e170c71d07cec65b5eb16fb6cb1a",
  "bytecode": "0x608060405234801561001057600080fd5b506133eb806100206000396000f3fe608060405234801561001057600080fd5b506004361061004c5760003560e01c8063320c1da7146100515780638750fedf14610066578063c69bdad61461008b578063c95530e31461009e575b600080fd5b61006461005f366004612d8c565b6100b1565b005b610079610074366004612e2a565b610379565b60405190815260200160405180910390f35b610064610099366004612e56565b610836565b6100646100ac366004612e56565b610ae2565b6100b9610d98565b600086815260066020526040812090602582015460ff1660028111156100e1576100e1612e9d565b146100ff5760405163432aa98d60e11b815260040160405180910390fd5b601581015460000361012457604051633a0fdb3b60e11b815260040160405180910390fd5b60028101546000036101495760405163391b81e760e21b815260040160405180910390fd5b6001810154600382015460009182918291610170916001600160a01b039182169116610dec565b601287015492955090935091506002601186015460ff16600281111561019857610198612e9d565b036101d45760128501546000906101b190612710612ec9565b90506127108187602201546101c69190612edc565b6101d09190612ef3565b9150505b808410806101f457506013850154158015906101f4575060138501548410155b156102125760405163fa035d6160e01b815260040160405180910390fd5b6102208b858c8c8c8c61102a565b60208501805469ffffffffffffffffffff60a01b1916600160a01b6001600160501b03868116919091029190911790915560218601805469ffffffffffffffffffff19169184169190911790556000610279818d610379565b90506102af8c60405180608001604052808481526020018a61029a90612fad565b8152602001888152602001858152508861186c565b600b86015415806102c957506019860154610100900460ff165b80156102d757506002860154155b156103635760018601546000906102f6906001600160a01b0316611b20565b6003880154909150600090610313906001600160a01b0316611b20565b60258901805460ff1916600217905560408051848152602081018390529192508f917f37c8380b2284767eac942c610487f999ad4aa72b275e8af54bf32e4de2fc7d74910160405180910390a250505b505050505050610371611c07565b505050505050565b600081815260066020818152604080842081516102008101835281546001600160a01b03908116825283516103c0810185526001840180548316825260028086015483890152600386015490931695820195909552600484015460608201526005840154608082015295830154879687969395938601939092909160a084019160ff9091169081111561040e5761040e612e9d565b600281111561041f5761041f612e9d565b815260068201546020820152600782015460ff8082161515604084015261010090910481161515606083015260088301546080830152600983015460a09092019116600181111561047257610472612e9d565b600181111561048357610483612e9d565b8152600a8201546020820152600b8201546040820152600c82015460609091019060ff1660028111156104b8576104b8612e9d565b60028111156104c9576104c9612e9d565b8152600d8201546020820152600e82015460409091019060ff1660048111156104f4576104f4612e9d565b600481111561050557610505612e9d565b8152602001600e820160019054906101000a900460ff16600281111561052d5761052d612e9d565b600281111561053e5761053e612e9d565b8152600f8201546020820152601082015460409091019060ff16600281111561056957610569612e9d565b600281111561057a5761057a612e9d565b815260118201546020820152601282015460408201526013820154606082015260148201546080820152601582015460a09091019060ff1660048111156105c3576105c3612e9d565b60048111156105d4576105d4612e9d565b81526020016015820160019054906101000a900460ff1660028111156105fc576105fc612e9d565b600281111561060d5761060d612e9d565b81526016820154602082015260178201546040820152601882015460609091019060ff16600281111561064257610642612e9d565b600281111561065357610653612e9d565b8152601882015460ff61010082048116151560208401526040909201916201000090910416600281111561068957610689612e9d565b600281111561069a5761069a612e9d565b9052508152601a820154602080830191909152601b8301546040830152601c8301546060830152601d8301546080830152601e83015460a0830152601f83015460c08301528201546001600160501b0380821660e0840152600160501b82048116610100840152600160a01b90910481166101208301526021830154166101408201526022820154610160820152602382015461018082015260248201546101a082015260258201546101c09091019060ff16600281111561075e5761075e612e9d565b600281111561076f5761076f612e9d565b9052509050841561078a57806020015160200151915061082c565b60028160200151610300015160028111156107a7576107a7612e9d565b036107e057602080820151610320810151910151116107ce578060200151602001516107d9565b806020015161032001515b915061082c565b60018160200151610300015160028111156107fd576107fd612e9d565b0361082c5780604001518160200151602001511161082357806020015160200151610829565b80604001515b91505b5090505b92915050565b61083e610d98565b600082815260066020526040812090602582015460ff16600281111561086657610866612e9d565b146108845760405163432aa98d60e11b815260040160405180910390fd5b60128101546000036108a95760405163ae00bdd560e01b815260040160405180910390fd5b60028101546000036108ce5760405163391b81e760e21b815260040160405180910390fd5b600181015460038201546000916108f1916001600160a01b039182169116610dec565b505060128301549091506002601184015460ff16600281111561091657610916612e9d565b0361095257601283015460009061092f90612710612ec9565b90506127108185602201546109449190612edc565b61094e9190612ef3565b9150505b818111156109735760405163166dc4f160e21b815260040160405180910390fd5b6013830154156109a957506013820154808210156109a457604051634992bde560e11b815260040160405180910390fd5b6109db565b60158301541515806109be5750601883015415155b156109db57604051625f5ef560e81b815260040160405180910390fd5b60006109e8600187610379565b9050610a1e86604051806080016040528084815260200188610a0990612fad565b8152602001868152602001858152508661186c565b600b8401541580610a3857506019840154610100900460ff165b8015610a4657506002840154155b15610ad2576001840154600090610a65906001600160a01b0316611b20565b6003860154909150600090610a82906001600160a01b0316611b20565b60258701805460ff19166002179055604080518481526020810183905291925089917f37c8380b2284767eac942c610487f999ad4aa72b275e8af54bf32e4de2fc7d74910160405180910390a250505b50505050610ade611c07565b5050565b610aea610d98565b600082815260066020526040812090602582015460ff166002811115610b1257610b12612e9d565b14610b305760405163432aa98d60e11b815260040160405180910390fd5b6018810154600003610b5557604051635f2775bb60e01b815260040160405180910390fd5b6002810154600003610b7a5760405163391b81e760e21b815260040160405180910390fd5b60018101546003820154600091610b9d916001600160a01b039182169116610dec565b505060128301549091506002601184015460ff166002811115610bc257610bc2612e9d565b03610bfe576012830154600090610bdb90612710612ec9565b9050612710818560220154610bf09190612edc565b610bfa9190612ef3565b9150505b80821080610c1e5750601383015415801590610c1e575060138301548210155b15610c3c5760405163fa035d6160e01b815260040160405180910390fd5b6000610c49600087610379565b60188501546019860154919250600091610c66919060ff16611c1c565b90506000610c794287601e015484611c89565b905080610c99576040516377617c5560e01b815260040160405180910390fd5b4286601e0181905550610cd68860405180608001604052808681526020018a610cc190612fad565b8152602001888152602001878152508861186c565b600b8601541580610cf057506019860154610100900460ff165b8015610cfe57506002860154155b15610d8a576001860154600090610d1d906001600160a01b0316611b20565b6003880154909150600090610d3a906001600160a01b0316611b20565b60258901805460ff1916600217905560408051848152602081018390529192508b917f37c8380b2284767eac942c610487f999ad4aa72b275e8af54bf32e4de2fc7d74910160405180910390a250505b505050505050610ade611c07565b60006001600982015460ff166001811115610db557610db5612e9d565b03610dd357604051633ee5aeb560e01b815260040160405180910390fd5b6009810180546001919060ff191682805b021790555050565b6001600160a01b038281166000908152600760205260408120549091829182918291161580610e3557506001600160a01b03858116600090815260078301602052604090205416155b15610e5357604051637d53846960e11b815260040160405180910390fd5b6001600160a01b038087166000908152600783016020526040808220548151633fabe5a360e21b815291519293849391169163feaf968c9160048083019260a09291908290030181865afa158015610eaf573d6000803e3d6000fd5b505050506040513d601f19601f82011682018060405250810190610ed39190613054565b5050506001600160a01b03808a166000908152600787016020526040808220548151633fabe5a360e21b81529151959750939550909384939092169163feaf968c9160048082019260a0929091908290030181865afa158015610f3a573d6000803e3d6000fd5b505050506040513d601f19601f82011682018060405250810190610f5e9190613054565b505050915091508260001480610f72575080155b15610f8f5760405162bfc92160e01b815260040160405180910390fd5b6000896001600160a01b031663313ce5676040518163ffffffff1660e01b8152600401602060405180830381865afa158015610fcf573d6000803e3d6000fd5b505050506040513d601f19601f82011682018060405250810190610ff391906130ac565b60ff1690508161100482600a6131b3565b61100e9086612edc565b6110189190612ef3565b9b949a50919850929650505050505050565b600086815260066020818152604080842081516102008101835281546001600160a01b03908116825283516103c0810185526001840180548316825260028086015483890152600386015490931695820195909552600484015460608201526005840154608082015295830154919592948601939160a084019160ff909116908111156110b9576110b9612e9d565b60028111156110ca576110ca612e9d565b815260068201546020820152600782015460ff8082161515604084015261010090910481161515606083015260088301546080830152600983015460a09092019116600181111561111d5761111d612e9d565b600181111561112e5761112e612e9d565b8152600a8201546020820152600b8201546040820152600c82015460609091019060ff16600281111561116357611163612e9d565b600281111561117457611174612e9d565b8152600d8201546020820152600e82015460409091019060ff16600481111561119f5761119f612e9d565b60048111156111b0576111b0612e9d565b8152602001600e820160019054906101000a900460ff1660028111156111d8576111d8612e9d565b60028111156111e9576111e9612e9d565b8152600f8201546020820152601082015460409091019060ff16600281111561121457611214612e9d565b600281111561122557611225612e9d565b815260118201546020820152601282015460408201526013820154606082015260148201546080820152601582015460a09091019060ff16600481111561126e5761126e612e9d565b600481111561127f5761127f612e9d565b81526020016015820160019054906101000a900460ff1660028111156112a7576112a7612e9d565b60028111156112b8576112b8612e9d565b81526016820154602082015260178201546040820152601882015460609091019060ff1660028111156112ed576112ed612e9d565b60028111156112fe576112fe612e9d565b8152601882015460ff61010082048116151560208401526040909201916201000090910416600281111561133457611334612e9d565b600281111561134557611345612e9d565b9052508152601a820154602080830191909152601b8301546040830152601c8301546060830152601d8301546080830152601e83015460a0830152601f83015460c08301528201546001600160501b0380821660e0840152600160501b82048116610100840152600160a01b90910481166101208301526021830154166101408201526022820154610160820152602382015461018082015260248201546101a082015260258201546101c09091019060ff16600281111561140957611409612e9d565b600281111561141a5761141a612e9d565b815250509050846001600160501b0316836001600160501b031610806114515750836001600160501b0316826001600160501b0316105b1561146f5760405163de6cbbaf60e01b815260040160405180910390fd5b846001600160501b03168161014001516001600160501b031611806114aa5750826001600160501b03168161014001516001600160501b0316115b806114cb5750836001600160501b03168161016001516001600160501b0316115b806114ec5750816001600160501b03168161016001516001600160501b0316115b1561150a5760405163de6cbbaf60e01b815260040160405180910390fd5b60006115288686846020015160000151856020015160400151611cc1565b905060006115488585856020015160000151866020015160400151611cc1565b60208401516102c00151909150600080600386602001516102e00151600481111561157557611575612e9d565b148061159b5750600286602001516102e00151600481111561159957611599612e9d565b145b156115c157838b10156115c15760405163aac9fd8760e01b815260040160405180910390fd5b600486602001516102e0015160048111156115de576115de612e9d565b14806116045750600186602001516102e00151600481111561160257611602612e9d565b145b1561162a57838b111561162a5760405163aac9fd8760e01b815260040160405180910390fd5b600386602001516102e00151600481111561164757611647612e9d565b148061166d5750600286602001516102e00151600481111561166b5761166b612e9d565b145b156116a05784841015611693576040516321376cef60e21b815260040160405180910390fd5b61169d85856131bf565b90505b600486602001516102e0015160048111156116bd576116bd612e9d565b14806116e35750600186602001516102e0015160048111156116e1576116e1612e9d565b145b156117165784841115611709576040516321376cef60e21b815260040160405180910390fd5b61171384866131bf565b91505b600386602001516102e00151600481111561173357611733612e9d565b14801561173f57508083115b1561175d576040516321376cef60e21b815260040160405180910390fd5b600486602001516102e00151600481111561177a5761177a612e9d565b14801561178657508183115b156117a4576040516321376cef60e21b815260040160405180910390fd5b600286602001516102e0015160048111156117c1576117c1612e9d565b1480156117e35750846117d682612710612edc565b6117e09190612ef3565b83115b15611801576040516321376cef60e21b815260040160405180910390fd5b600186602001516102e00151600481111561181e5761181e612e9d565b14801561184057508461183383612710612edc565b61183d9190612ef3565b83115b1561185e576040516321376cef60e21b815260040160405180910390fd5b505050505050505050505050565b6040805160c08101825260208085018051516001600160a01b03908116845260018601548116838501526003860154811694840194909452855160608401525101516080820152825490911660a082015260006118c882611f02565b600184015485519192506000916118e9916001600160a01b031690846120e4565b9050846060015181101561192557606085015160405163ba639fe360e01b81526004810191909152602481018290526044015b60405180910390fd5b61192f828561217d565b600061194982876040015187600101600401546000612282565b905060008560010160000160009054906101000a90046001600160a01b03166001600160a01b031663313ce5676040518163ffffffff1660e01b8152600401602060405180830381865afa1580156119a5573d6000803e3d6000fd5b505050506040513d601f19601f820116820180604052508101906119c991906130ac565b6119d490600a6131d2565b875160028801549192506119e7916131bf565b600287018190556000036119fd57600060228701555b6004860154611a0d908590612ec9565b6004870155604087015160028701546000918391611a2b9190612edc565b611a359190612ef3565b90506000818860010160030154611a4c9190612ec9565b90508088602401541015611a9357818860240154611a6a91906131bf565b600489015560238801546024890154611a8390836131bf565b611a8d9190612ec9565b60238901555b6001600f890154610100900460ff166002811115611ab357611ab3612e9d565b03611ae9576004880154601089015461271091611acf91612edc565b611ad99190612ef3565b601b8901556004880154601d8901555b6003880154600090611b03906001600160a01b0316611b20565b9050611b138b868c848d8c612376565b5050505050505050505050565b6001600160a01b038181166000908152600760205260408120549091829116611b5c57604051637d53846960e11b815260040160405180910390fd5b6001600160a01b038084166000908152600783016020526040808220548151633fabe5a360e21b815291519293169163feaf968c9160048082019260a0929091908290030181865afa158015611bb6573d6000803e3d6000fd5b505050506040513d601f19601f82011682018060405250810190611bda9190613054565b50505091505080600003611c005760405162bfc92160e01b815260040160405180910390fd5b9392505050565b60098054600091829160ff1916600183610de4565b60006001826002811115611c3257611c32612e9d565b03611c4a57611c4383610e10612edc565b9050610830565b6002826002811115611c5e57611c5e612e9d565b03611c7057611c438362015180612edc565b60405163265f13bd60e21b815260040160405180910390fd5b600082600003611c9b57506001611c00565b6000611ca784866131bf565b831115611cb5576000611cb8565b60015b95945050505050565b6001600160a01b0382811660009081526007602052604081205490918291161580611d0657506001600160a01b03838116600090815260078301602052604090205416155b15611d2457604051637d53846960e11b815260040160405180910390fd5b6001600160a01b038481166000908152600783016020526040808220549051639a6fc8f560e01b81526001600160501b038a16600482015291921690639a6fc8f59060240160a060405180830381865afa158015611d86573d6000803e3d6000fd5b505050506040513d601f19601f82011682018060405250810190611daa9190613054565b5050506001600160a01b038681166000908152600786016020526040808220549051639a6fc8f560e01b81526001600160501b038c1660048201529395509093501690639a6fc8f59060240160a060405180830381865afa158015611e13573d6000803e3d6000fd5b505050506040513d601f19601f82011682018060405250810190611e379190613054565b5050509150508160001480611e4a575080155b15611e675760405162bfc92160e01b815260040160405180910390fd5b6000856001600160a01b031663313ce5676040518163ffffffff1660e01b8152600401602060405180830381865afa158015611ea7573d6000803e3d6000fd5b505050506040513d601f19601f82011682018060405250810190611ecb91906130ac565b60ff169050600082611ede83600a6131b3565b611ee89086612edc565b611ef29190612ef3565b955050505050505b949350505050565b6060810151600090808203611f2a5760405163391b81e760e21b815260040160405180910390fd5b611f3e83602001518460a001513084612556565b6000611f4e84604001513061266f565b9050611f678460200151856000015186606001516126dd565b60008085600001516001600160a01b03168660800151604051611f8a9190613205565b6000604051808303816000865af19150503d8060008114611fc7576040519150601f19603f3d011682016040523d82523d6000602084013e611fcc565b606091505b509150915081611ffd576000611fe182612772565b90508060405162461bcd60e51b815260040161191c9190613221565b600061200d87604001513061266f565b9050600061201b85836131bf565b90508060000361203e5760405163081ceff360e41b815260040160405180910390fd5b61205188604001518960a00151836127e9565b7f4abed91e53b10abbb1440578b29fa1b1d1b2fd1aea643d553ccf19cd4642f4d8886000015189602001518a604001518b60600151858d60a001516040516120d1969594939291906001600160a01b039687168152948616602086015292851660408501526060840191909152608083015290911660a082015260c00190565b60405180910390a1979650505050505050565b6000808490506000816001600160a01b031663313ce5676040518163ffffffff1660e01b8152600401602060405180830381865afa15801561212a573d6000803e3d6000fd5b505050506040513d601f19601f8201168201806040525081019061214e91906130ac565b60ff1690508461215f82600a6131b3565b6121699086612edc565b6121739190612ef3565b9695505050505050565b6002601182015460ff16600281111561219857612198612e9d565b1480156121a85750601481015415155b15610ade5760018101546040805163313ce56760e01b815290516000926001600160a01b03169163313ce5679160048083019260209291908290030181865afa1580156121f9573d6000803e3d6000fd5b505050506040513d601f19601f8201168201806040525081019061221d91906130ac565b61222890600a6131d2565b6022830154600284015461223c9190612edc565b6122469190612ef3565b9050600061225482856131bf565b601484015490915081101561227c5760405163a943edfb60e01b815260040160405180910390fd5b50505050565b6000808561229261271087612edc565b61229c9190612ef3565b90508280156122ac575061271081105b80156122c25750836122c0826127106131bf565b115b156122e057604051630b9750cb60e41b815260040160405180910390fd5b821580156122ef575061271081115b8015612305575083612303612710836131bf565b115b1561232357604051630b9750cb60e41b815260040160405180910390fd5b6000838015612333575061271082105b1561234b57612344826127106131bf565b9050612173565b8315801561235a575061271082115b156121735761236b612710836131bf565b979650505050505050565b60128201541580159061238b57506015820154155b801561239957506018820154155b806123b957506012820154158015906123b9575060408401516013830154115b15612434576040805160808101825285518152602081018390526004840154818301526002840154606082015260238401546022850154925189937fbd4d1233f51bf96f74ea6056ef22227cf6a0e825677f5358277166b0cd0f09f093612427938b93919290918a90613254565b60405180910390a2610371565b6015820154156124d35760408051608081018252855181526020808201849052600485015482840152600285015460608301526023850154602286015484518086018652878401546001600160501b03600160a01b909104811682526021890154169381019390935293518a947ffebc5621206f27cf450ddc0731cb0c641e7d870f1549ed794bbc2d239983342394612427948c9491939192916132a6565b601882015415610371576040805160808101825285518152602081018390526004840154818301526002840154606082015260238401546022850154925189937f03447c540efdf62e3acc8e63b6180650976e0b353f3dc500d626872e45861de993612546938b93919290918a90613254565b60405180910390a2505050505050565b6040516370a0823160e01b81526001600160a01b038381166004830152600091908616906370a0823190602401602060405180830381865afa1580156125a0573d6000803e3d6000fd5b505050506040513d601f19601f820116820180604052508101906125c49190613311565b90506125d2858585856128fa565b6040516370a0823160e01b81526001600160a01b038481166004830152839183918816906370a0823190602401602060405180830381865afa15801561261c573d6000803e3d6000fd5b505050506040513d601f19601f820116820180604052508101906126409190613311565b61264a91906131bf565b14612668576040516312171d8360e31b815260040160405180910390fd5b5050505050565b6040516370a0823160e01b81526001600160a01b038281166004830152600091908416906370a0823190602401602060405180830381865afa1580156126b9573d6000803e3d6000fd5b505050506040513d601f19601f82011682018060405250810190611c009190613311565b604051636eb1769f60e11b81523060048201526001600160a01b03838116602483015282919085169063dd62ed3e90604401602060405180830381865afa15801561272c573d6000803e3d6000fd5b505050506040513d601f19601f820116820180604052508101906127509190613311565b101561276d5761276283836000612965565b61276d838383612965565b505050565b60606044825110156127b757505060408051808201909152601d81527f5472616e73616374696f6e2072657665727465642073696c656e746c79000000602082015290565b60006127d360048085516127cb91906131bf565b859190612a7a565b905080806020019051810190611c00919061332a565b6040516370a0823160e01b81526001600160a01b038381166004830152600091908516906370a0823190602401602060405180830381865afa158015612833573d6000803e3d6000fd5b505050506040513d601f19601f820116820180604052508101906128579190613311565b9050612864848484612b44565b6040516370a0823160e01b81526001600160a01b038481166004830152839183918716906370a0823190602401602060405180830381865afa1580156128ae573d6000803e3d6000fd5b505050506040513d601f19601f820116820180604052508101906128d29190613311565b6128dc91906131bf565b1461227c576040516312171d8360e31b815260040160405180910390fd5b6040516001600160a01b038085166024830152831660448201526064810182905261227c9085906323b872dd60e01b906084015b60408051601f198184030181529190526020810180516001600160e01b03166001600160e01b031990931692909217909152612b74565b8015806129df5750604051636eb1769f60e11b81523060048201526001600160a01b03838116602483015284169063dd62ed3e90604401602060405180830381865afa1580156129b9573d6000803e3d6000fd5b505050506040513d601f19601f820116820180604052508101906129dd9190613311565b155b612a4a5760405162461bcd60e51b815260206004820152603660248201527f5361666545524332303a20617070726f76652066726f6d206e6f6e2d7a65726f60448201527520746f206e6f6e2d7a65726f20616c6c6f77616e636560501b606482015260840161191c565b6040516001600160a01b03831660248201526044810182905261276d90849063095ea7b360e01b9060640161292e565b606081612a8881601f612ec9565b1015612aa7576040516323d5783d60e11b815260040160405180910390fd5b612ab18284612ec9565b84511015612ad257604051633b99b53d60e01b815260040160405180910390fd5b606082158015612af15760405191506000825260208201604052612b3b565b6040519150601f8416801560200281840101858101878315602002848b0101015b81831015612b2a578051835260209283019201612b12565b5050858452601f01601f1916604052505b50949350505050565b6040516001600160a01b03831660248201526044810182905261276d90849063a9059cbb60e01b9060640161292e565b6000612bc9826040518060400160405280602081526020017f5361666545524332303a206c6f772d6c6576656c2063616c6c206661696c6564815250856001600160a01b0316612c499092919063ffffffff16565b9050805160001480612bea575080806020019051810190612bea9190613398565b61276d5760405162461bcd60e51b815260206004820152602a60248201527f5361666545524332303a204552433230206f7065726174696f6e20646964206e6044820152691bdd081cdd58d8d9595960b21b606482015260840161191c565b6060611efa848460008585600080866001600160a01b03168587604051612c709190613205565b60006040518083038185875af1925050503d8060008114612cad576040519150601f19603f3d011682016040523d82523d6000602084013e612cb2565b606091505b509150915061236b8783838760608315612d2d578251600003612d26576001600160a01b0385163b612d265760405162461bcd60e51b815260206004820152601d60248201527f416464726573733a2063616c6c20746f206e6f6e2d636f6e7472616374000000604482015260640161191c565b5081611efa565b611efa8383815115612d425781518083602001fd5b8060405162461bcd60e51b815260040161191c9190613221565b6001600160501b0381168114612d7157600080fd5b50565b600060408284031215612d8657600080fd5b50919050565b60008060008060008060c08789031215612da557600080fd5b863595506020870135612db781612d5c565b94506040870135612dc781612d5c565b93506060870135612dd781612d5c565b92506080870135612de781612d5c565b915060a087013567ffffffffffffffff811115612e0357600080fd5b612e0f89828a01612d74565b9150509295509295509295565b8015158114612d7157600080fd5b60008060408385031215612e3d57600080fd5b8235612e4881612e1c565b946020939093013593505050565b60008060408385031215612e6957600080fd5b82359150602083013567ffffffffffffffff811115612e8757600080fd5b612e9385828601612d74565b9150509250929050565b634e487b7160e01b600052602160045260246000fd5b634e487b7160e01b600052601160045260246000fd5b8082018082111561083057610830612eb3565b808202811582820484141761083057610830612eb3565b600082612f1057634e487b7160e01b600052601260045260246000fd5b500490565b634e487b7160e01b600052604160045260246000fd5b6040805190810167ffffffffffffffff81118282101715612f4e57612f4e612f15565b60405290565b604051601f8201601f1916810167ffffffffffffffff81118282101715612f7d57612f7d612f15565b604052919050565b600067ffffffffffffffff821115612f9f57612f9f612f15565b50601f01601f191660200190565b600060408236031215612fbf57600080fd5b612fc7612f2b565b82356001600160a01b0381168114612fde57600080fd5b815260208381013567ffffffffffffffff811115612ffb57600080fd5b840136601f82011261300c57600080fd5b803561301f61301a82612f85565b612f54565b818152368483850101111561303357600080fd5b81848401858301376000918101840191909152918301919091525092915050565b600080600080600060a0868803121561306c57600080fd5b855161307781612d5c565b80955050602086015193506040860151925060608601519150608086015161309e81612d5c565b809150509295509295909350565b6000602082840312156130be57600080fd5b815160ff81168114611c0057600080fd5b600181815b8085111561310a5781600019048211156130f0576130f0612eb3565b808516156130fd57918102915b93841c93908002906130d4565b509250929050565b60008261312157506001610830565b8161312e57506000610830565b8160018114613144576002811461314e5761316a565b6001915050610830565b60ff84111561315f5761315f612eb3565b50506001821b610830565b5060208310610133831016604e8410600b841016171561318d575081810a610830565b61319783836130cf565b80600019048211156131ab576131ab612eb3565b029392505050565b6000611c008383613112565b8181038181111561083057610830612eb3565b6000611c0060ff841683613112565b60005b838110156131fc5781810151838201526020016131e4565b50506000910152565b600082516132178184602087016131e1565b9190910192915050565b60208152600082518060208401526132408160408501602087016131e1565b601f01601f19169190910160400192915050565b858152610100810161328a6020830187805182526020810151602083015260408101516040830152606081015160608301525050565b8460a08301528360c08301528260e08301529695505050505050565b85815261012081016132dc6020830187805182526020810151602083015260408101516040830152606081015160608301525050565b8460a08301528360c08301526001600160501b038084511660e084015280602085015116610100840152509695505050505050565b60006020828403121561332357600080fd5b5051919050565b60006020828403121561333c57600080fd5b815167ffffffffffffffff81111561335357600080fd5b8201601f8101841361336457600080fd5b805161337261301a82612f85565b81815285602083850101111561338757600080fd5b611cb88260208301602086016131e1565b6000602082840312156133aa57600080fd5b8151611c0081612e1c56fea26469706673582212201c12727e7d22b2e73d5d3898754ac6b1ff8f6de5b7a698f7dcef1a1b9f1e183c64736f6c63430008140033",
  "devdoc": {
    "details": "SellFacet specializes in verifying conditions related to sell actions, including limit price sells, Time-Weighted Average Price (TWAP) sells, and sell the rally criteria.      It ensures that the necessary conditions are met before executing sell actions.",
    "events": {
      "AssetSwapped(address,address,address,uint256,uint256,address)": {
        "params": {
          "account": "The address of the user account that initiated the swap.",
          "dex": "The address of the contract or dex used for the swap.",
          "fromAmount": "The amount of 'fromAsset' that was swapped.",
          "fromAsset": "The address of the asset swapped from.",
          "receivedAmount": "The amount of 'toAsset' received in the swap.",
          "toAsset": "The address of the asset received in the swap."
        }
      },
      "STRExecuted(uint256,uint256,(uint256,uint256,uint256,uint256),uint256,uint256,(uint80,uint80))": {
        "params": {
          "impact": "The allowable price impact percentage for the buy action.",
          "investPrice": "the average price at which invest tokens were bought.",
          "profit": "it is the profit made by the strategy.",
          "rounds": "the round Ids of invest and stable tokens.",
          "strategyId": "The unique ID of the strategy where the STR event was executed.",
          "tokens": "tokens substracted and added into the users wallet"
        }
      },
      "SellExecuted(uint256,uint256,(uint256,uint256,uint256,uint256),uint256,uint256,uint256)": {
        "params": {
          "impact": "The allowable price impact percentage for the buy action.",
          "investPrice": "the average price at which invest tokens were bought.",
          "profit": "it is the profit made by the strategy.",
          "stablePriceInUSD": "price of stable token in USD",
          "strategyId": "The unique ID of the strategy where the sell action is executed.",
          "tokens": "tokens substracted and added into the users wallet"
        }
      },
      "SellTwapExecuted(uint256,uint256,(uint256,uint256,uint256,uint256),uint256,uint256,uint256)": {
        "params": {
          "impact": "The allowable price impact percentage for the buy action.",
          "investPrice": "the average price at which invest tokens were bought.",
          "profit": "it is the profit made by the strategy.",
          "stablePriceInUSD": "price of stable token in USD",
          "strategyId": "The unique ID of the strategy where the TWAP sell action was executed.",
          "tokens": "tokens substracted and added into the users wallet"
        }
      },
      "StrategyCompleted(uint256,uint256,uint256)": {
        "params": {
          "investTokenPrice": "The price of the invest token in USD.",
          "stableTokenPrice": "The price of the stable token in USD.",
          "strategyId": "The unique ID of the completed strategy."
        }
      }
    },
    "kind": "dev",
    "methods": {
      "executeSTR(uint256,uint80,uint80,uint80,uint80,(address,bytes))": {
        "details": "This function performs actions based on the specified strategy parameters and market conditions to execute Sell The Rally (STR) events.      It verifies whether the strategy's parameters meet the required conditions for executing STR events.",
        "params": {
          "fromInvestRoundId": "The starting invest round ID for price data.",
          "fromStableRoundId": "The starting stable round ID for price data.",
          "strategyId": "The unique ID of the strategy to execute the STR actions for.",
          "swap": "The Swap struct containing address of the decentralized exchange (DEX) and calldata containing data for interacting with the DEX during the execution.",
          "toInvestRoundId": "The ending invest round ID for price data.",
          "toStableRoundId": "The ending stable round ID for price data."
        }
      },
      "executeSell(uint256,(address,bytes))": {
        "details": "This function performs a sell action based on the specified strategy parameters and market conditions.      It verifies whether the strategy's parameters meet the required conditions for executing a sell.",
        "params": {
          "strategyId": "The unique ID of the strategy to execute the sell action for.",
          "swap": "The Swap struct containing address of the decentralized exchange (DEX) and calldata containing data for interacting with the DEX during the execution."
        }
      },
      "executeSellTwap(uint256,(address,bytes))": {
        "details": "This function performs a TWAP sell action based on the specified strategy parameters and market conditions.      It verifies whether the strategy's parameters meet the required conditions for executing a TWAP sell.",
        "params": {
          "strategyId": "The unique ID of the strategy to execute the TWAP sell action for.",
          "swap": "The Swap struct containing address of the decentralized exchange (DEX) and calldata containing data for interacting with the DEX during the execution."
        }
      },
      "executionSellAmount(bool,uint256)": {
        "params": {
          "investValue": "Boolean indicating whether the value is based on the investment amount.",
          "strategyId": "The unique ID of the strategy for which the sell value is calculated."
        },
        "returns": {
          "_0": "The calculated value to be sold, which can be based on fixed or percentage units."
        }
      }
    },
    "title": "SellFacet",
    "version": 1
  },
  "userdoc": {
    "events": {
      "AssetSwapped(address,address,address,uint256,uint256,address)": {
        "notice": "Emitted when an asset swap has been executed successfully."
      },
      "STRExecuted(uint256,uint256,(uint256,uint256,uint256,uint256),uint256,uint256,(uint80,uint80))": {
        "notice": "Emitted when a Spike Trigger (STR) event is executed for a trading strategy using a specific DEX and call data."
      },
      "SellExecuted(uint256,uint256,(uint256,uint256,uint256,uint256),uint256,uint256,uint256)": {
        "notice": "Emitted when a sell action is executed for a trading strategy using a specific DEX and call data."
      },
      "SellTwapExecuted(uint256,uint256,(uint256,uint256,uint256,uint256),uint256,uint256,uint256)": {
        "notice": "Emitted when a Time-Weighted Average Price (TWAP) sell action is executed for a trading strategy using a specific DEX and call data."
      },
      "StrategyCompleted(uint256,uint256,uint256)": {
        "notice": "Emitted when a trade execution strategy is completed."
      }
    },
    "kind": "user",
    "methods": {
      "executeSTR(uint256,uint80,uint80,uint80,uint80,(address,bytes))": {
        "notice": "Execute a strategy based on Spike Trigger (STR) conditions for a trading strategy."
      },
      "executeSell(uint256,(address,bytes))": {
        "notice": "Execute a sell action for a trading strategy."
      },
      "executeSellTwap(uint256,(address,bytes))": {
        "notice": "Execute a Time-Weighted Average Price (TWAP) sell action for a trading strategy."
      },
      "executionSellAmount(bool,uint256)": {
        "notice": "Calculate the value to be sold in a trading strategy based on provided parameters."
      }
    },
    "notice": "This facet contains functions responsible for evaluating conditions for executing sell actions.",
    "version": 1
  },
  "storageLayout": {
    "storage": [
      {
        "astId": 1384,
        "contract": "contracts/facets/SellFacet.sol:SellFacet",
        "label": "s",
        "offset": 0,
        "slot": "0",
        "type": "t_struct(AppStorage)1254_storage"
      }
    ],
    "types": {
      "t_address": {
        "encoding": "inplace",
        "label": "address",
        "numberOfBytes": "20"
      },
      "t_bool": {
        "encoding": "inplace",
        "label": "bool",
        "numberOfBytes": "1"
      },
      "t_bytes32": {
        "encoding": "inplace",
        "label": "bytes32",
        "numberOfBytes": "32"
      },
      "t_bytes4": {
        "encoding": "inplace",
        "label": "bytes4",
        "numberOfBytes": "4"
      },
      "t_enum(BuyLegType)1083": {
        "encoding": "inplace",
        "label": "enum BuyLegType",
        "numberOfBytes": "1"
      },
      "t_enum(CURRENT_PRICE)1105": {
        "encoding": "inplace",
        "label": "enum CURRENT_PRICE",
        "numberOfBytes": "1"
      },
      "t_enum(DCA_UNIT)1100": {
        "encoding": "inplace",
        "label": "enum DCA_UNIT",
        "numberOfBytes": "1"
      },
      "t_enum(DIP_SPIKE)1095": {
        "encoding": "inplace",
        "label": "enum DIP_SPIKE",
        "numberOfBytes": "1"
      },
      "t_enum(FloorLegType)1079": {
        "encoding": "inplace",
        "label": "enum FloorLegType",
        "numberOfBytes": "1"
      },
      "t_enum(ReentrancyStatus)1069": {
        "encoding": "inplace",
        "label": "enum ReentrancyStatus",
        "numberOfBytes": "1"
      },
      "t_enum(SellLegType)1088": {
        "encoding": "inplace",
        "label": "enum SellLegType",
        "numberOfBytes": "1"
      },
      "t_enum(Status)1074": {
        "encoding": "inplace",
        "label": "enum Status",
        "numberOfBytes": "1"
      },
      "t_enum(TimeUnit)1110": {
        "encoding": "inplace",
        "label": "enum TimeUnit",
        "numberOfBytes": "1"
      },
      "t_mapping(t_address,t_address)": {
        "encoding": "mapping",
        "key": "t_address",
        "label": "mapping(address => address)",
        "numberOfBytes": "32",
        "value": "t_address"
      },
      "t_mapping(t_address,t_uint256)": {
        "encoding": "mapping",
        "key": "t_address",
        "label": "mapping(address => uint256)",
        "numberOfBytes": "32",
        "value": "t_uint256"
      },
      "t_mapping(t_bytes4,t_bool)": {
        "encoding": "mapping",
        "key": "t_bytes4",
        "label": "mapping(bytes4 => bool)",
        "numberOfBytes": "32",
        "value": "t_bool"
      },
      "t_mapping(t_bytes4,t_bytes32)": {
        "encoding": "mapping",
        "key": "t_bytes4",
        "label": "mapping(bytes4 => bytes32)",
        "numberOfBytes": "32",
        "value": "t_bytes32"
      },
      "t_mapping(t_uint256,t_bytes32)": {
        "encoding": "mapping",
        "key": "t_uint256",
        "label": "mapping(uint256 => bytes32)",
        "numberOfBytes": "32",
        "value": "t_bytes32"
      },
      "t_mapping(t_uint256,t_struct(Strategy)1218_storage)": {
        "encoding": "mapping",
        "key": "t_uint256",
        "label": "mapping(uint256 => struct Strategy)",
        "numberOfBytes": "32",
        "value": "t_struct(Strategy)1218_storage"
      },
      "t_struct(AppStorage)1254_storage": {
        "encoding": "inplace",
        "label": "struct AppStorage",
        "members": [
          {
            "astId": 1223,
            "contract": "contracts/facets/SellFacet.sol:SellFacet",
            "label": "facets",
            "offset": 0,
            "slot": "0",
            "type": "t_mapping(t_bytes4,t_bytes32)"
          },
          {
            "astId": 1227,
            "contract": "contracts/facets/SellFacet.sol:SellFacet",
            "label": "selectorSlots",
            "offset": 0,
            "slot": "1",
            "type": "t_mapping(t_uint256,t_bytes32)"
          },
          {
            "astId": 1229,
            "contract": "contracts/facets/SellFacet.sol:SellFacet",
            "label": "selectorCount",
            "offset": 0,
            "slot": "2",
            "type": "t_uint16"
          },
          {
            "astId": 1233,
            "contract": "contracts/facets/SellFacet.sol:SellFacet",
            "label": "supportedInterfaces",
            "offset": 0,
            "slot": "3",
            "type": "t_mapping(t_bytes4,t_bool)"
          },
          {
            "astId": 1235,
            "contract": "contracts/facets/SellFacet.sol:SellFacet",
            "label": "owner",
            "offset": 0,
            "slot": "4",
            "type": "t_address"
          },
          {
            "astId": 1237,
            "contract": "contracts/facets/SellFacet.sol:SellFacet",
            "label": "nextStrategyId",
            "offset": 0,
            "slot": "5",
            "type": "t_uint256"
          },
          {
            "astId": 1242,
            "contract": "contracts/facets/SellFacet.sol:SellFacet",
            "label": "strategies",
            "offset": 0,
            "slot": "6",
            "type": "t_mapping(t_uint256,t_struct(Strategy)1218_storage)"
          },
          {
            "astId": 1246,
            "contract": "contracts/facets/SellFacet.sol:SellFacet",
            "label": "feeds",
            "offset": 0,
            "slot": "7",
            "type": "t_mapping(t_address,t_address)"
          },
          {
            "astId": 1250,
            "contract": "contracts/facets/SellFacet.sol:SellFacet",
            "label": "nonces",
            "offset": 0,
            "slot": "8",
            "type": "t_mapping(t_address,t_uint256)"
          },
          {
            "astId": 1253,
            "contract": "contracts/facets/SellFacet.sol:SellFacet",
            "label": "reentrancyStatus",
            "offset": 0,
            "slot": "9",
            "type": "t_enum(ReentrancyStatus)1069"
          }
        ],
        "numberOfBytes": "320"
      },
      "t_struct(Strategy)1218_storage": {
        "encoding": "inplace",
        "label": "struct Strategy",
        "members": [
          {
            "astId": 1185,
            "contract": "contracts/facets/SellFacet.sol:SellFacet",
            "label": "user",
            "offset": 0,
            "slot": "0",
            "type": "t_address"
          },
          {
            "astId": 1188,
            "contract": "contracts/facets/SellFacet.sol:SellFacet",
            "label": "parameters",
            "offset": 0,
            "slot": "1",
            "type": "t_struct(StrategyParameters)1182_storage"
          },
          {
            "astId": 1190,
            "contract": "contracts/facets/SellFacet.sol:SellFacet",
            "label": "sellPercentageAmount",
            "offset": 0,
            "slot": "26",
            "type": "t_uint256"
          },
          {
            "astId": 1192,
            "contract": "contracts/facets/SellFacet.sol:SellFacet",
            "label": "buyPercentageAmount",
            "offset": 0,
            "slot": "27",
            "type": "t_uint256"
          },
          {
            "astId": 1194,
            "contract": "contracts/facets/SellFacet.sol:SellFacet",
            "label": "sellPercentageTotalAmount",
            "offset": 0,
            "slot": "28",
            "type": "t_uint256"
          },
          {
            "astId": 1196,
            "contract": "contracts/facets/SellFacet.sol:SellFacet",
            "label": "buyPercentageTotalAmount",
            "offset": 0,
            "slot": "29",
            "type": "t_uint256"
          },
          {
            "astId": 1198,
            "contract": "contracts/facets/SellFacet.sol:SellFacet",
            "label": "sellTwapExecutedAt",
            "offset": 0,
            "slot": "30",
            "type": "t_uint256"
          },
          {
            "astId": 1200,
            "contract": "contracts/facets/SellFacet.sol:SellFacet",
            "label": "buyTwapExecutedAt",
            "offset": 0,
            "slot": "31",
            "type": "t_uint256"
          },
          {
            "astId": 1202,
            "contract": "contracts/facets/SellFacet.sol:SellFacet",
            "label": "investRoundIdForBTD",
            "offset": 0,
            "slot": "32",
            "type": "t_uint80"
          },
          {
            "astId": 1204,
            "contract": "contracts/facets/SellFacet.sol:SellFacet",
            "label": "stableRoundIdForBTD",
            "offset": 10,
            "slot": "32",
            "type": "t_uint80"
          },
          {
            "astId": 1206,
            "contract": "contracts/facets/SellFacet.sol:SellFacet",
            "label": "investRoundIdForSTR",
            "offset": 20,
            "slot": "32",
            "type": "t_uint80"
          },
          {
            "astId": 1208,
            "contract": "contracts/facets/SellFacet.sol:SellFacet",
            "label": "stableRoundIdForSTR",
            "offset": 0,
            "slot": "33",
            "type": "t_uint80"
          },
          {
            "astId": 1210,
            "contract": "contracts/facets/SellFacet.sol:SellFacet",
            "label": "investPrice",
            "offset": 0,
            "slot": "34",
            "type": "t_uint256"
          },
          {
            "astId": 1212,
            "contract": "contracts/facets/SellFacet.sol:SellFacet",
            "label": "profit",
            "offset": 0,
            "slot": "35",
            "type": "t_uint256"
          },
          {
            "astId": 1214,
            "contract": "contracts/facets/SellFacet.sol:SellFacet",
            "label": "budget",
            "offset": 0,
            "slot": "36",
            "type": "t_uint256"
          },
          {
            "astId": 1217,
            "contract": "contracts/facets/SellFacet.sol:SellFacet",
            "label": "status",
            "offset": 0,
            "slot": "37",
            "type": "t_enum(Status)1074"
          }
        ],
        "numberOfBytes": "1216"
      },
      "t_struct(StrategyParameters)1182_storage": {
        "encoding": "inplace",
        "label": "struct StrategyParameters",
        "members": [
          {
            "astId": 1113,
            "contract": "contracts/facets/SellFacet.sol:SellFacet",
            "label": "_investToken",
            "offset": 0,
            "slot": "0",
            "type": "t_address"
          },
          {
            "astId": 1115,
            "contract": "contracts/facets/SellFacet.sol:SellFacet",
            "label": "_investAmount",
            "offset": 0,
            "slot": "1",
            "type": "t_uint256"
          },
          {
            "astId": 1117,
            "contract": "contracts/facets/SellFacet.sol:SellFacet",
            "label": "_stableToken",
            "offset": 0,
            "slot": "2",
            "type": "t_address"
          },
          {
            "astId": 1119,
            "contract": "contracts/facets/SellFacet.sol:SellFacet",
            "label": "_stableAmount",
            "offset": 0,
            "slot": "3",
            "type": "t_uint256"
          },
          {
            "astId": 1121,
            "contract": "contracts/facets/SellFacet.sol:SellFacet",
            "label": "_impact",
            "offset": 0,
            "slot": "4",
            "type": "t_uint256"
          },
          {
            "astId": 1124,
            "contract": "contracts/facets/SellFacet.sol:SellFacet",
            "label": "_floorType",
            "offset": 0,
            "slot": "5",
            "type": "t_enum(FloorLegType)1079"
          },
          {
            "astId": 1126,
            "contract": "contracts/facets/SellFacet.sol:SellFacet",
            "label": "_floorValue",
            "offset": 0,
            "slot": "6",
            "type": "t_uint256"
          },
          {
            "astId": 1128,
            "contract": "contracts/facets/SellFacet.sol:SellFacet",
            "label": "_liquidateOnFloor",
            "offset": 0,
            "slot": "7",
            "type": "t_bool"
          },
          {
            "astId": 1130,
            "contract": "contracts/facets/SellFacet.sol:SellFacet",
            "label": "_cancelOnFloor",
            "offset": 1,
            "slot": "7",
            "type": "t_bool"
          },
          {
            "astId": 1132,
            "contract": "contracts/facets/SellFacet.sol:SellFacet",
            "label": "_minimumLoss",
            "offset": 0,
            "slot": "8",
            "type": "t_uint256"
          },
          {
            "astId": 1135,
            "contract": "contracts/facets/SellFacet.sol:SellFacet",
            "label": "_buyType",
            "offset": 0,
            "slot": "9",
            "type": "t_enum(BuyLegType)1083"
          },
          {
            "astId": 1137,
            "contract": "contracts/facets/SellFacet.sol:SellFacet",
            "label": "_buyValue",
            "offset": 0,
            "slot": "10",
            "type": "t_uint256"
          },
          {
            "astId": 1139,
            "contract": "contracts/facets/SellFacet.sol:SellFacet",
            "label": "_buyTwapTime",
            "offset": 0,
            "slot": "11",
            "type": "t_uint256"
          },
          {
            "astId": 1142,
            "contract": "contracts/facets/SellFacet.sol:SellFacet",
            "label": "_buyTwapTimeUnit",
            "offset": 0,
            "slot": "12",
            "type": "t_enum(TimeUnit)1110"
          },
          {
            "astId": 1144,
            "contract": "contracts/facets/SellFacet.sol:SellFacet",
            "label": "_btdValue",
            "offset": 0,
            "slot": "13",
            "type": "t_uint256"
          },
          {
            "astId": 1147,
            "contract": "contracts/facets/SellFacet.sol:SellFacet",
            "label": "_btdType",
            "offset": 0,
            "slot": "14",
            "type": "t_enum(DIP_SPIKE)1095"
          },
          {
            "astId": 1150,
            "contract": "contracts/facets/SellFacet.sol:SellFacet",
            "label": "_buyDCAUnit",
            "offset": 1,
            "slot": "14",
            "type": "t_enum(DCA_UNIT)1100"
          },
          {
            "astId": 1152,
            "contract": "contracts/facets/SellFacet.sol:SellFacet",
            "label": "_buyDCAValue",
            "offset": 0,
            "slot": "15",
            "type": "t_uint256"
          },
          {
            "astId": 1155,
            "contract": "contracts/facets/SellFacet.sol:SellFacet",
            "label": "_sellType",
            "offset": 0,
            "slot": "16",
            "type": "t_enum(SellLegType)1088"
          },
          {
            "astId": 1157,
            "contract": "contracts/facets/SellFacet.sol:SellFacet",
            "label": "_sellValue",
            "offset": 0,
            "slot": "17",
            "type": "t_uint256"
          },
          {
            "astId": 1159,
            "contract": "contracts/facets/SellFacet.sol:SellFacet",
            "label": "_highSellValue",
            "offset": 0,
            "slot": "18",
            "type": "t_uint256"
          },
          {
            "astId": 1161,
            "contract": "contracts/facets/SellFacet.sol:SellFacet",
            "label": "_minimumProfit",
            "offset": 0,
            "slot": "19",
            "type": "t_uint256"
          },
          {
            "astId": 1163,
            "contract": "contracts/facets/SellFacet.sol:SellFacet",
            "label": "_strValue",
            "offset": 0,
            "slot": "20",
            "type": "t_uint256"
          },
          {
            "astId": 1166,
            "contract": "contracts/facets/SellFacet.sol:SellFacet",
            "label": "_strType",
            "offset": 0,
            "slot": "21",
            "type": "t_enum(DIP_SPIKE)1095"
          },
          {
            "astId": 1169,
            "contract": "contracts/facets/SellFacet.sol:SellFacet",
            "label": "_sellDCAUnit",
            "offset": 1,
            "slot": "21",
            "type": "t_enum(DCA_UNIT)1100"
          },
          {
            "astId": 1171,
            "contract": "contracts/facets/SellFacet.sol:SellFacet",
            "label": "_sellDCAValue",
            "offset": 0,
            "slot": "22",
            "type": "t_uint256"
          },
          {
            "astId": 1173,
            "contract": "contracts/facets/SellFacet.sol:SellFacet",
            "label": "_sellTwapTime",
            "offset": 0,
            "slot": "23",
            "type": "t_uint256"
          },
          {
            "astId": 1176,
            "contract": "contracts/facets/SellFacet.sol:SellFacet",
            "label": "_sellTwapTimeUnit",
            "offset": 0,
            "slot": "24",
            "type": "t_enum(TimeUnit)1110"
          },
          {
            "astId": 1178,
            "contract": "contracts/facets/SellFacet.sol:SellFacet",
            "label": "_completeOnSell",
            "offset": 1,
            "slot": "24",
            "type": "t_bool"
          },
          {
            "astId": 1181,
            "contract": "contracts/facets/SellFacet.sol:SellFacet",
            "label": "_current_price",
            "offset": 2,
            "slot": "24",
            "type": "t_enum(CURRENT_PRICE)1105"
          }
        ],
        "numberOfBytes": "800"
      },
      "t_uint16": {
        "encoding": "inplace",
        "label": "uint16",
        "numberOfBytes": "2"
      },
      "t_uint256": {
        "encoding": "inplace",
        "label": "uint256",
        "numberOfBytes": "32"
      },
      "t_uint80": {
        "encoding": "inplace",
        "label": "uint80",
        "numberOfBytes": "10"
      }
    }
  }
}